:020000040800F2
:1000000000400120DD3000081B3100081D310008D0
:100010001F310008213100082331000800000000D2
:100020000000000000000000000000002531000872
:100030002731000800000000293100082B3100089A
:100040002F3100083131000833310008590F000802
:1000500037310008393100083B3100083D310008D4
:100060003F310008413100084331000845310008A4
:1000700047310008493100084B3100084D31000874
:100080004F31000851310008533100085531000844
:1000900057310008593100085B3100085D31000814
:1000A0005F3100081D110008633100086531000848
:1000B00067310008693100086B3100086D310008B4
:1000C0006F31000871310008733100087531000884
:1000D00077310008793100089D150008F501000806
:1000E0007F31000881310008833100088531000824
:1000F00087310008893100088B3100088D310008F4
:100100008F310008913100089331000895310008C3
:1001100097310008993100089B3100089D31000893
:100120009F31000810B5054C237833B9044B13B147
:100130000448AFF300800123237010BD700000203D
:100140000000000008800008084B10B51BB10849EA
:100150000848AFF300800848036803B910BD074B97
:10016000002BFBD0BDE81040184700BF0000000086
:1001700074000020088000087000002000000000CB
:10018000154B002B08BF134B9D46A3F5803A002169
:100190008B460F461348144A121A03F0B6FD0F4B54
:1001A000002B00D098470E4B002B00D09847002022
:1001B000002104000D000D48002802D00C48AFF3C8
:1001C000008003F071FD2000290002F07FFE03F0A3
:1001D00057FD00BF000008000040012000000000A3
:1001E0000000000070000020C40900200000000092
:1001F0000000000070B45A4B83B01A88002092B2FD
:1002000001929A885749D2B28DF8032018800A7853
:10021000002A38D1019B1B074AD4534B9DF8032079
:10022000002A51D018889DF80340504A80B2E4B2A9
:10023000145418884E4C80B2105C4E4E2578755D73
:10024000854250D0002020704B480478002C56D1B5
:1002500018884A4C80B2105C494E2578755D8542FD
:1002600070D0002020701888464C80B2125C464D39
:100270002078285C904256D0002222701A880132E1
:1002800092B21A8020E09B88DBB28DF803309DF893
:1002900003300D2B17D09DF803300A2B13D09DF897
:1002A0000330202B0FD0394A01212F4B11700BE066
:1002B00002F0FF002C4B314D324C2D4A1880287033
:1002C00020701070AAE7284B1B88274A9BB2B3F511
:1002D000806F05D340F2FF302D4B01211080197043
:1002E00003B070BC704720780130C0B22070207815
:1002F0000828A9D9204801260025067025701C88E9
:10030000194EA4B2145D194D0A2CA1D13488A4B29F
:10031000013C2C5D0D2C9BD11E4D012400260C7040
:1003200006702C7094E722780132D2B222702278C3
:10033000042AA3D9184A0126002502200E70257030
:1003400010709BE720780130C0B22070207801281F
:1003500089D9114D0120002608702670287082E787
:1003600000480040960400209404002090000020E3
:1003700099040020EC5D00089804002091040020FE
:10038000F85D000892040020E45D0008900400205D
:100390008C00002097040020930400202DE9F04FEA
:1003A000002483B03C4E019434780D9F64B9019CC5
:1003B000A74203D808E0019DAF4205D9019C013452
:1003C00001943578002DF6D0347804F0FF08B4B9E4
:1003D0000AB182F800800BB100221A70002303706A
:1003E00018462E4F2E4D2F4C2F49304A33703B70FC
:1003F0002B7023700B80137003B0BDE8F08FDFF813
:100400009CA00124DFF8A0908AF80040B9F800C051
:100410001FFA8CFCD8B1BCF1000F39D0013939D0AA
:100420000CF1FF3E1FFA8EFEDFF884B00EF1010ED4
:10043000451E002401E0A14228D01BF804700134BD
:10044000744505F8017FF6D1A4B200210155144985
:100450000AB108781070134A0BB1107818700C9B11
:1004600033B1B8F1020F0C980CBF012300230370C5
:1004700060460E4C002333708AF800300B70137006
:10048000A9F80030237003B0BDE8F08F8CB2DCE730
:100490006446DAE70C46D8E793040020960400206F
:1004A0008C00002090040020940400209704002079
:1004B00090000020F0B50A4ADFF83CE0094F0A4EF0
:1004C0000A4D0B4C00238EF800303B7033702B70BC
:1004D000238013700146BDE8F040064801F0FCBFE0
:1004E00097040020960400208C0000209004002037
:1004F0009404002000480040930400202DE9F04FB0
:100500002F4CDFF8D8A0DFF8DC802E4FDFF8D0903A
:100510002D4E4FF0000B83B005462C492C4884F833
:1005200000B08AF800B088F800B087F800B0A9F8E9
:1005300000B086F800B001F0CFFFCDF804B023780A
:100540002BB107E0019B01330193237813B9019B81
:100550009D42F7D823781A4D03F0FF02F3B1022A27
:1005600020D001238AF800301A4AB9F8003010462A
:100570009BB200241849D45403F0C3FD174A184B0A
:1005800060B1007A2C703038C0B2147088F8004026
:100590003C701C80347003B0BDE8F08FFF2003B0C6
:1005A000BDE8F08F0023FF202B708AF8003088F818
:1005B00000303B70A9F80030337003B0BDE8F08F15
:1005C000930400209004002097040020FC5D0008A4
:1005D00000480040900000200C5E000896040020B7
:1005E000940400208C0000202DE9F04F87B00346D2
:1005F000224A234C0D4601A81421DFF89490DFF81D
:100600009480204F204EDFF890A003F0F7FC4FF0CD
:10061000000B01A91D4884F800B089F800B088F8E3
:1006200000B087F800B0A6F800B08AF800B001F07A
:1006300053FFCDF800B023782BB107E0009B0133C6
:100640000093237813B9009B9D42F7D823780C4A76
:1006500003F0FF0073B10023022808BF184613708F
:1006600018BF012089F8003088F800303B703380D3
:100670008AF8003007B0BDE8F08F00BF185E0008B0
:1006800093040020900400209404002000480040BF
:10069000960400208C000020970400202DE9F04FE4
:1006A000474C93B003938146E36820688A46154619
:1006B0006168A26806AC0FC442494348BDF8707037
:1006C0001D9E424C01F008FF0023049323782BB1B8
:1006D00007E0049B01330493237813B9049B9E42E3
:1006E000F7D82378394903F0FF02002B60D00023AC
:1006F0000B70DFF8F080364988F800300B70354910
:10070000DFF8E4B00B703449022A0B808BF800301C
:1007100052D032498DE8A00053464A460AA803F059
:100720009FFC0AA9284801F0D7FECFB1039D2F44B2
:10073000A94615F8013B12AA02EB131313F8301C5B
:10074000214801F0C3FE99F8003012AA03F00F030C
:1007500013441D4813F8301C01F0B8FEBD42E7D128
:100760001F49194801F0B8FE0023059323782BB1E7
:1007700007E0059B01330593237813B9059B9E423F
:10078000F7D82378114903F0FF028BB100230B70D7
:100790000F4988F800300B700E49022A0B700E4981
:1007A0000B808BF8003007D0042013B0BDE8F08F29
:1007B000002013B0BDE8F08F012013B0BDE8F08F2A
:1007C000D45D0008285E0008004800409304002023
:1007D0008C0000209004002094040020385E000863
:1007E000747300089604002097040020F8B52F4D7C
:1007F0002A784AB902F0FF0308B1FF22027009B15A
:1008000000220A801846F8BD0746294E294A338837
:100810000C469BB20021D1541046274903F071FCCD
:1008200017B1437A303B3B7044B300232380C27A34
:100830000B30303A092A36D8194603EB83035A00A5
:1008400092B222800378303A13449BB2238010F88E
:10085000012F0131303A092AC9B21BD80529ECD140
:1008600000221346154F164C164817493A7022704D
:1008700002700A7032802A701846F8BD0F4B10487B
:100880001049114A1C70047001230C7014703480DC
:100890002C70B7E74B1F18BF0123084F084C0948BD
:1008A00009490022E2E70123F7E700BF970400208F
:1008B0009404002090000020545E0008930400205F
:1008C000960400208C000020900400202DE9F04FB9
:1008D0008FB00292039302460B468F4C8A4609A8BA
:1008E0008E498F4EDFF85092DFF850828D4D8E4F3B
:1008F000DDF864B003F0B4FB002309A98B48237032
:100900000193337089F8003088F800302B803B70F9
:1009100001F0E2FD019B049323782BB107E0049BD7
:1009200001330493237813B9049B9B45F7D82378AC
:10093000794A03F0FF001BB3022824D07C4A2B889D
:1009400010469BB24FF0000B7A4902F803B003F057
:10095000D8FBC27A222A6FD005A900F10B0C0DF149
:10096000230B4FF00B0E01F8012B1CF8012F0EF199
:100970000103222A9BB213D08B459E46F3D102205D
:100980000FB0BDE8F08F002313700120337089F899
:10099000003088F800302B803B700FB0BDE8F08F3E
:1009A0001A2BECD00EF1030292B2815C0DF1380CDF
:1009B00063444FF0000B0EF1080E2C2903F82FBCF6
:1009C0001FFA8EF316D09A4210D24FF0000B01326C
:1009D0000BEB8B0B92B201EB4B0B815CABF1300B51
:1009E0002C291FFA8BFB05D09A42F0D100232370EB
:1009F0000220CBE79A42F9D2511C89B210F801E0EB
:100A00000532BEF12C0F92B24FF0000310D091428C
:100A10000ED2013103EB830389B20EEB430310F8CE
:100A200001E0303BBEF12C0F9BB201D08A42F0D1E5
:100A30009A450BD00320A3E7417B8DF814B02C29F5
:100A400008BF0D22D8D012230D22BEE702311FFAB3
:100A500081FC0CEB4A0A1FFA8AF31A46189B002BFA
:100A60004BD0944549D2CDF804B04FF0000A9346DC
:100A70001CE01B015AB200EB0C035B78A3F13001C0
:100A8000C9B2092905D9A3F14101052920D8A3F14B
:100A9000370149B20CF1020C1FFA8CFC189B0A4377
:100AA000E34503F80E200AF1010A24D910F80C20BE
:100AB0001FFA8AFEA2F13003DBB2092BD9D9A2F1C9
:100AC0004103052B0DD8373A42F303021201D2E756
:100AD000A3F1610105299ABFA3F1570149B2002191
:100AE000D8E7A2F16103052B9DBF573A42F30302F9
:100AF00012010022BFE7DDF804B0029B1BB102988F
:100B000005A903F0DBFA039B0BB1A3F800B00023A7
:100B1000237004203AE700BF93040020605E0008C1
:100B20009604002094040020970400200048004010
:100B300090000020745E00088C00002090040020CB
:100B4000F0B50546264927480024274A274B284F59
:100B5000284E9DB00C700470274928483C703470B2
:100B600014801C7001F0B8FC0DF10B0122460091BD
:100B70000195234603A86421FFF710FC9DF80B2084
:100B8000FAB9E0B103A81E4903F0BBFA30B3837988
:100B90002C2B20D0FBB1C279303B9BB22C2A19B24E
:100BA00007D032B103EB8303303A02EB43039BB22D
:100BB00019B29A1E1C2A07D85800713800B21DB00D
:100BC000F0BD20461DB0F0BD1F2914BF6FF06E00B0
:100BD0006FF03200F3E76FF06E00F0E70948EEE7E0
:100BE0009304002096040020940400209704002021
:100BF0008C00002090040020805E00080048004027
:100C00008C5E000816FCFFFFF0B50E46284B002452
:100C100028491C70DFF8B8E0274A284B284F9DB0C0
:100C20000C700546274928488EF800403C70148017
:100C30001C7001F051FC0DF10B012346224600917E
:100C4000019603A86421FFF7A9FB9DF80B4004B9A6
:100C500028B91DB300242C7020461DB0F0BD03A898
:100C60001A4903F04EFA0028F6D0FDB1C1790D29DA
:100C70001AD02A46073005F1310401E0A24211D012
:100C800002F8011B10F8011F531B0D29DBB2F5D12F
:100C9000012420460022EA541DB0F0BD2C46204617
:100CA0001DB0F0BD3123F3E72346F1E70124D3E77C
:100CB0009304002096040020940400209704002050
:100CC00090040020945E000800480040A05E0008E8
:100CD0008C000020F0B50E46264B002426491C70DF
:100CE000DFF8B0E0254A264B264F9DB00C70054634
:100CF000254926488EF800403C7014801C7001F095
:100D0000EBFB0DF10B01234622460091019603A84F
:100D10006421FFF743FB9DF80B40E4B9D8B103A869
:100D20001B4903F0EEF905B3817A0D291FD02B463C
:100D30000A3005F1310401E0A34214D003F8011B8D
:100D400010F8011F5A1B0D2992B2F5D10023012082
:100D5000AB541DB0F0BD1DB1002028701DB0F0BD1A
:100D600028461DB0F0BD3122F0E70120F6E722460B
:100D7000ECE700BF930400209604002094040020B8
:100D80009704002090040020A85E0008004800405E
:100D9000B45E00088C000020F0B50378ADF5057D49
:100DA00073B10446002302E0B3F5E17F33D014F8B9
:100DB000012F01339BB2002AF6D1B3F5E17F26D093
:100DC0000E460090164A4FF4007104A803F016F97D
:100DD000144B0024144D15481C70154A154B164F22
:100DE000047004A92C7015480DF10F053C70148097
:100DF0001C7001F071FB22460196234621462046D5
:100E00000095FFF7CBFA2A78B2FA82F2520910461F
:100E10000DF5057DF0BD002210460DF5057DF0BDF8
:100E2000C05E0008930400208C000020960400207F
:100E30009404002097040020900400200048004003
:100E4000F0B5054619491A4800241A4A1A4B1B4F97
:100E50001B4E9DB00C7004701A491B483C703470D6
:100E600014801C7001F038FB0DF10B01009101950D
:100E700064212346224603A8FFF790FA03A81349EA
:100E800003F03FF930B19DF80B00B0FA80F0400953
:100E90001DB0F0BD03A80E4903F033F90028F2D1CC
:100EA0009DF80B000130C0B2EFE700BF93040020B3
:100EB0009604002094040020970400208C00002059
:100EC00090040020D85E000800480040E45E00085E
:100ED000F05E0008F0B50C4685B008BB0346154926
:100EE00015480B70154F164E164D174A17490370CB
:100EF00017483B7033702B80137001F0EDFA00231C
:100F00000DF10F028DE8140019461A461846FFF736
:100F100045FA9DF80F00B0FA80F0400905B0F0BD29
:100F2000044900230B700448044F054E054D064A42
:100F30000849DCE793040020960400208C00002080
:100F40009004002094040020970400200C5F000807
:100F500000480040FC5E0008094A0A4B4FF480112B
:100F600051611A68084942F480721A60CA6822F412
:100F70008062CA601A6822F480721A60704700BFEB
:100F8000000401400070004000280040F0B42A4BEB
:100F900008212A4AC3F8801013682949294C43F4D0
:100FA0008073CA2753264FF4801513604F624E6238
:100FB0006561CB6823F48063CB608B6823F488433E
:100FC0008B60CB685C0706D41F4B01E0013B02D06D
:100FD000CA685207FAD5B0F57A5F28BF4FF47A5045
:100FE0001A4A0303A2FB0323154A9B095361936822
:100FF000124823F0070393609368002543F0010330
:10100000936091680F4B41F48841916001680A4CEC
:1010100021F48071016055621A680D4942F4801212
:101020001A609A68082542F4801201209A602560AF
:101030000870F0BC704700BF00E100E000700040A5
:10104000002800400004014080841E00D34D62103F
:101050009A0400201C4B1B78002B34D01B491C4BDE
:101060000A6942F004020A611A6842F005021A6035
:101070001A6822F002021A6030BF16490B6843F06A
:1010800001030B600B68980706D4134B01E0013B8A
:1010900002D00A689207FAD50E498B6823F0030341
:1010A0008B608B6843F001038B608B6803F0030354
:1010B000012B08D1084A01E0013A04D08B6803F003
:1010C0000303012BF8D070479A04002000ED00E0E4
:1010D000007000400038024080841E0070B5164643
:1010E00042B10C468D1814F8011B034801F0EEF9CB
:1010F000AC42F8D1304670BD0038014070B516469C
:1011000042B10C468D18044801F0F6F904F8010BC1
:10111000AC42F8D1304670BD00380140194B1A8AF4
:10112000900707D518490A6801320A605A6B02F520
:101130007A725A63134B1B8A590714D5134B1B8AB7
:101140005A0606D4124B1B781BB9124A1368013396
:1011500013600E4B1B8A5B0609D40A4A936B03F596
:10116000434350339363074B00221A827047084B66
:101170001A78002AF1D1074A1268002AEDD001221C
:101180001A70EAE7000801409C04002000080240B1
:10119000A0040020AC040020014B1868704700BF79
:1011A0009C040020034A116813685B1A8342FBD336
:1011B000704700BF9C040020034B202208B91A830B
:1011C00070475A83704700BF000002400A4A4FF43C
:1011D000807082B000230949108301E0019B013334
:1011E00001930A68019BB3EB520FF7D3024B4FF404
:1011F00080725A8302B0704700080240A4040020A5
:1012000010B4164B164C174983B00022DC60D9602D
:10121000ADF80620BDF806309BB2382B18D8BDF8C3
:101220000630BDF806209BB29B0092B203F100632A
:1012300050F8222003F500231A60BDF80630013370
:101240009BB2ADF80630BDF806309BB2382BE6D91C
:10125000024B01225A6003B010BC7047003C0240B0
:10126000EFCDAB8905040302E422014902F042BD3F
:101270000000080810B40478ECB1F1B10022134664
:101280000AE09A4218BF8454013292B201339BB2F1
:10129000C45C64B199420AD07F2CF2D1541E002A5A
:1012A000F4D001339BB2A2B2C45C002CF2D1002373
:1012B000835410BC70472246F9E70A46F7E700BF9F
:1012C000F0B5884A83B01368002143F0010313602E
:1012D000019113689C070DD4019B83498B4203D96C
:1012E00008E0019B8B4205D8019B013301931368F1
:1012F0009807F6D57B4C7D4DA268002342F0010291
:10130000A260E1697A4A41F00701E161606A4FF445
:10131000164140F418106062266A764846F480460A
:1013200046F00C0626622E68734F46F4201646F4EB
:1013300094662E602E6A46F4EE462E626E6A46F47D
:10134000EE666E6201F0DEF80123694A4FF4165131
:101350006A4801F0D7F86A4B40225A603B68002186
:10136000586802F099FD3B680021986802F094FDEE
:10137000644802F045FD636A43F080536362636B27
:1013800013F400753DD1604802F03AFD5F49604AB0
:101390000B68CA2643F4807353200B605662506278
:1013A000636B43F4807363630195636B9A050DD49B
:1013B000019B4D4A934203D908E0019B934205D813
:1013C000019B01330193636B9B05F6D5019A464B54
:1013D0009A4200F282804F4C0023237041494C48CE
:1013E0004B6B4A4A43F4820300254B634562136802
:1013F00023F480731360237863B1474802F000FD43
:1014000008E0444C00234548237002F0F9FC23789F
:10141000002BF2D1424B4FF480425A834CF25037AA
:101420001A68334942F0805242F420221A609A88A6
:101430003C4892B242F440729A805A6A304C42F070
:1014400044025A6200F08AFB374802F0D9FC37495F
:101450004FF440734B830A68012342F425020A606B
:10146000486A234A40F4EE4048624FF4E131304884
:1014700001F048F8802363602E4802F0C1FC2E4B37
:101480004FF47A725A6301214FF000720F20062642
:1014900081259F6318859E8128481D80998222603E
:1014A00002F0AEFC264802F0ABFC264A0023264997
:1014B000136008680B681B1AB3F57A7F07D21368AC
:1014C000013313600B681B1AB3F57A7FF7D31168E9
:1014D0001E4802F023FC03B0F0BD0E4C0123237024
:1014E0007CE700BF003802407F841E0000000240FD
:1014F0000024F40000380140600000200044004057
:1015000000E100E01C5F0008485F00080070004038
:1015100000280040A8040020785F00085C5F0008F5
:101520000004024000540040945F0008000802409C
:1015300000480040A85F000800080140BC5F0008A8
:10154000D45F0008A40400209C040020F85F000879
:1015500000B5002383B0014600935122024800F0F9
:1015600059FA03B05DF804FB0054004000B585B0A3
:101570000DF10F0301460093AA220123064800F053
:10158000B5F818B17F2005B05DF804FB9DF90F0098
:1015900005B05DF804FB00BF00540040F0B4354BCB
:1015A00082B01A88002192B201929A883248D2B24F
:1015B0008DF8032019800378002B36D140F2FE36D7
:1015C00003F0FF02019B2D4C13F0080F2C4B2D4D07
:1015D0001CBF1A8022701A889DF8031092B2C9B2FB
:1015E000A9541A88264992B2B24203D80A88013215
:1015F00092B20A802178244E9DF80320715C1F4E20
:101600009142224A14D000212170117801F0FF0686
:1016100001B91E8012781D493AB11B88184A9BB245
:10162000013BEB5C174D0A2B12D002B0F0BC7047A7
:10163000117801F0FF070029E5D131780131C9B2F5
:10164000317031780529E5D9012137701170E1E752
:1016500013889BB2023BEB5C0D2BE6D1138800266E
:101660009BB2023B0127EE540E7016802670077065
:10167000DBE700BF00440040B4080020B0080020B1
:10168000B2080020B004002010600008B10800205B
:1016900070B4144E3378EBB1B0B1134A147804F03F
:1016A000FF037CB10139002919DD0024234601E044
:1016B0008B4207DA155D5C1CC554A3B2D55C1C4691
:1016C000002DF5D10022C2540023012233701046B0
:1016D00070BC704703F0FF02104670BC70470023D7
:1016E000F0E700BFB4080020B00400200BB90320CD
:1016F0007047F0B58FB0149C002C4BD004880025A7
:10170000A4B244F4807404800295848AE7070DD45F
:10171000029C944DAC4203D908E0029CAC4205D82F
:10172000029C01340294848AE607F6D5029C8D4D12
:10173000AC421BD8490000248EB206820394848AEE
:10174000A40706D508E0039C01340394848AA70704
:1017500002D4039CAC42F6D9039D824CA54202D828
:10176000058BEF0718D402200FB0F0BD01200FB099
:10177000F0BD0B96858A6D0606D508E00B9D0135F8
:101780000B95858A6D0602D40B9D8D42F6D90B9D73
:101790008D426AD90320EAE792B2002502820495BD
:1017A000828A160606D508E0049A01320492828ADB
:1017B000150602D4049AA242F6D9049A694CA242B0
:1017C000E8D80288002592B242F480720280059522
:1017D000828AD60709D405E0059A01320592828AE9
:1017E000D20702D4059AA242F6D9059C5D4A9442DA
:1017F000BCD8012B41F001013AD0022B00F08880C7
:10180000002401820A94818A890706D508E00A9992
:1018100001310A91818A8E0702D40A999142F6D940
:101820000A9A50498A42B5D8028BD207B2D50588A8
:101830000024ADB245F48065DF1EA3F1020C03F174
:10184000FF3E2646149A05809BB205E00134A5B2FE
:10185000AB4202F1010246D9A7428ADC00F0BD800A
:10186000A44500F0A080A645F0D1058A1570EDE7EB
:10187000002301820693838A9B0706D508E0069B16
:1018800001330693838A9F0702D4069B9342F6D9BD
:10189000069B344A93423FF67DAF038823F480636E
:1018A0001B041B0C0380038BDD077FF573AF0388DC
:1018B00000219BB243F4007303800791838A5E0684
:1018C00006D508E0079B01330793838A5D0602D49F
:1018D000079B9342F6D9079A224B9A423FF65AAF9A
:1018E000038A149A137000230193038BDA070DD532
:1018F000019B1C4A934203D908E0019B934205D8FF
:10190000019B01330193038BDB07F6D400202EE704
:10191000002301820893838A9C0706D508E0089B70
:1019200001330893838A990702D4089B9342F6D91E
:10193000089B0C4A93423FF62DAF038823F4806343
:101940001B041B0C038003889BB243F400630380D9
:10195000038BDC077FF51EAF00230993838A5B07A7
:101960000BD407E07F841E00099B01330993838A0F
:101970005F0702D4099B9342F6D9099A244B9A42F5
:101980003FF608AF0388149A9BB243F400730380B8
:10199000038A1370038A5370038823F400631B04C3
:1019A0001B0C03809FE70D96858A6D0706D508E01E
:1019B0000D9D01350D95858A6D0702D40D9D8D42D3
:1019C000F6D90D9D8D423FF6E5AE0588ADB245F4E2
:1019D00000750580058A157045E70C96858A6D07A8
:1019E00006D508E00C9D01350C95858A6D0702D45B
:1019F0000C9D8D42F6D90C9D8D423FF6CBAE0588ED
:101A000025F480652D042D0C0580058A157027E7C7
:101A10007F841E0030B404880025A4B244F480748E
:101A200086B004800195848AE5070DD4019C4A4D57
:101A3000AC4203D908E0019CAC4205D8019C0134BA
:101A40000194848AE407F6D5019D434CA5427CD8D5
:101A50004900002501820295818A890706D508E0A0
:101A6000029901310291818A8D0702D40299A14223
:101A7000F6D9029C38498C4203D9022006B030BC0A
:101A80007047048BE407F8D592B2002402820394D5
:101A9000828A140606D508E0039A01320392828AEC
:101AA000120602D4039A8A42F6D903992A4A91422D
:101AB0004FD80899E1B1DBB15C1E089BA4B21C446D
:101AC000591E002511F8013F03820495838A1B06E5
:101AD00006D508E0049B01330493838A1B0602D4D5
:101AE000049B9342F6D9049B934232D8A142E9D198
:101AF00000230593838A5A070DD4059B164A934207
:101B000003D908E0059B934205D8059B0133059353
:101B1000838A5B07F6D5059B0F4A934219D8038841
:101B200000219BB243F4007303800091038BDB0719
:101B300009D505E0009B01330093038BDD0702D537
:101B4000009B9342F6D9002098E7012006B030BCF4
:101B50007047042092E700BF7F841E0010B4084C39
:101B6000084A8B09A4FB0141A2FB0323890C4C1CEE
:101B70009B090122818083830484028010BC70470A
:101B800083DE1B43632D3E0500B585B00DF10F03C9
:101B9000014600930F2201230348FFF7A7FD9DF89C
:101BA0000F0005B05DF804FB00540040F0B5154689
:101BB0001C46074685B009010DF1100E0F4E41F08D
:101BC00007010EF8011D2D01E400CDF800E00146EB
:101BD00001233046202205F0300504F00804FFF709
:101BE00019FF2C4304AB03F8024D009339463046ED
:101BF00001232322FFF70EFF05B0F0BD0054004083
:101C0000F0B585B002AF0E46154601461C4600975A
:101C10000623A8221848FFF769FD9DF809309DF8B2
:101C200008209B0043EA9213990554BF1A4643F4D7
:101C30007C429DF80B309DF80A109B0043EA9113FB
:101C4000524232809A059DF80D209DF80C104FEA03
:101C5000820242EA911248BF43F47C435B4291B254
:101C60002B808B054ABF6FEA815313466FEA93536B
:101C7000238005B0F0BD00BF00540040BFF34F8F7C
:101C80000449054BCA6802F4E0621343CB60BFF31A
:101C90004F8FFEE700ED00E00400FA0538B500F1D3
:101CA000180529460446114802F038F8104802F099
:101CB000A7F81049104802F0D7F850210D48FFF757
:101CC000D9FA0C4802F002FA7F2809D8421C0949C7
:101CD000284602F00FF82046BDE83840FFF790BADA
:101CE0000648BDE8384002F08BB800BF1860000815
:101CF0003C600008B80800205C60000860600008D4
:101D000010B504461148214602F008F8104802F0C8
:101D100077F81049104802F0A7F850210D48FFF756
:101D2000A9FA0C4802F0D2F9102809D8421C094936
:101D3000204601F0DFFF2046BDE81040FFF760BA03
:101D40000648BDE8104002F05BB800BF74600008B0
:101D50009C600008B80800205C6000086060000813
:101D600038B50446054634F8DC1F074801F0D6FFB5
:101D7000064802F045F82146054802F075F8284665
:101D8000BDE83840FFF73CBAC4600008E8600008CE
:101D90000061000810B50446124802F031F804F161
:101DA000D801114802F060F8D4F8D830B3F57A7F42
:101DB0000ED3B3F57A5F06D94FF47A53C4F8D8300E
:101DC0000A4802F01DF82046BDE81040FFF718BA97
:101DD0004FF47A73C4F8D830054802F011F8D4F8FB
:101DE000D830E6E7046100085461000890610008FB
:101DF0005861000838B505460B4C0C4802F000F855
:101E000021460B4802F030F820465021FFF732FA05
:101E100023782846302B0CBF0023012385F8E030BF
:101E2000BDE83840FFF7ECB9B8080020C8610008E9
:101E30005C60000838B505460E4C0F4801F0E0FF25
:101E400021460E4802F010F80D4801F0D9FF204657
:101E50005021FFF70FFA23782846312B0CBF0F23B0
:101E6000002385F8DF30FFF7CBF9BDE8384005489F
:101E700001F0C6BFB8080020146200085C600008CA
:101E8000C4790008586200082DE9F04100F1980576
:101E9000294604462F4801F041FF2F4801F0B0FFCA
:101EA0002E492F4801F0E0FF2E4801F0A9FF5021F4
:101EB0002A48FFF7DFF9294802F008F93F282BD814
:101EC00029490646254802F0EFF82849804623486C
:101ED00002F0EAF80746B8F1000F10D068BB002303
:101EE00084F8DE30224801F08BFF294694F8DE00AA
:101EF00000F00AFC2046BDE8F041FFF781B994F8F4
:101F0000983073B91B4801F07BFF002FE7D02046C3
:101F1000BDE8F041FFF774B91748BDE8F04101F0A2
:101F20006FBF164801F06CFF012084F8DE002946DF
:101F300000F0EAFB002FEAD1D1E7721C28460749DE
:101F400001F0D8FE0E4801F05BFF2046BDE8F041ED
:101F5000FFF756B98C620008A0620008B80800209C
:101F60005C600008C479000800630008086300088A
:101F70005C630008106300086060000844630008A8
:101F80007863000830B504461C4B91B0196803A86B
:101F9000FEF73AFE94F8E03093B9194D194801F074
:101FA0002FFF2946184801F05FFF28465021FFF710
:101FB00061F92B7803F0DF03592B0FD011B030BD3E
:101FC00094F8DE10B4F8DC2020460193009103ABB6
:101FD00004F1180100F0A6FC11B030BD94F8E00047
:101FE00094F8DE10B4F8DC2003AB01900091204699
:101FF00004F1180100F096FC11B030BDA4040020DB
:10200000B80800208C6300085C60000830B54820E8
:1020100099B0FFF7ABFA0DF10E0303AA0DF10A0117
:1020200005461820FFF7ECFD1820FFF7ADFD04462C
:10203000BDF90E00BDF90C30BDF90A20294600900B
:10204000114801F06BFE332C0CBF1048104801F012
:10205000D7FE104801F0D4FE00210846FFF718FB18
:102060004FF49660FFF79EF804A85021FFF710FB8D
:1020700028B104A9084801F051FE19B030BD074845
:1020800001F0BEFE19B030BD306400088464000861
:10209000B4640008E064000834650008F8640008CF
:1020A00070B5C4B00346174AFF21064604A801F0E4
:1020B000A5FF04A8FEF7FEF9134B0DF10F051A68F2
:1020C000002302EB82025200019204A800951A46F6
:1020D000FF21FEF763F9044630B931460B4801F0A1
:1020E0001DFE204644B070BD002304A905480B55D1
:1020F00001F014FE287810F1FF3018BF012044B021
:1021000070BD00BF70780008A40400204865000876
:1021100010B51D4882B001F073FE1C4801F0FEFDB1
:102120001B491C4801F0A0FE1B4801F069FE50212C
:102130001748FFF79FF81949154801F0B5FF1849EE
:1021400000B3134801F0B0FF0446B8B9154801F0D8
:1021500057FEFFF73BF8144801F052FE134B009472
:102160001A68214602EB820201922346224620464B
:10217000FEF714F90E4801F043FECEE70448FFF7DE
:102180008FFFCAE702B010BD6C6500088C660008BE
:10219000B80800205C600008C47900089066000858
:1021A00098660008A0660008C0660008A404002025
:1021B000DC66000810B5164C8EB0164801F020FE03
:1021C000216801A8FEF720FD01A9134801F0A6FD32
:1021D0001248FFF765FF216801A8FEF77BFD01A902
:1021E0000F4801F09BFD0F48FFF75AFF0E4801F022
:1021F00007FE0E48FFF754FF0D4B0E4A0E491B68B1
:10220000126809680D4801F089FD0EB010BD00BFCD
:10221000A4040020EC660008086700082067000896
:1022200028670008406700084867000850670008F2
:10223000CC00F81FD000F81FD400F81F5867000822
:102240000148FFF72DBF00BF78670008F0B5E42113
:10225000044683B07A4801F061FD41F61B2C794BAE
:102260004FF47A7E07CB1B78A52720602373AA2022
:102270000023552601256160A260A4F8DCC0C4F8E3
:10228000D8E0237684F8983084F8DE3084F8DF30A4
:1022900084F8E17084F8E30084F8E26084F8E050A8
:1022A000694801F0ADFD2046FEF7AAFF674801F03E
:1022B000A7FD674801F0A4FD664F2946664801F076
:1022C0002DFD6648FEF7F6F83A6800230192009368
:1022D0001A4619461846FEF761F80646002800F02F
:1022E0008A805F4801F08CFD5E48FFF7D9FEB0FAA6
:1022F00080F45D48FFF7D4FE6409002808BF01346C
:102300005A4801F07DFD41F28830FEF74BFF5848F6
:10231000FFF7C6FE002808BF01345348FFF7C0FE90
:10232000A4B2002808BF0134504801F069FD41F211
:102330008830FEF737FF4F48FFF7B2FEA4B20028FF
:1023400008BF01344C48FFF7ABFEA4B2002808BF19
:1023500001344548FFF7A4FEA4B2002808BF0134A9
:10236000424801F04DFD41F28830FEF71BFF434823
:10237000FFF796FEA4B2002808BF01343A48FFF7E1
:102380008FFEA4B2002808BF0134384801F038FDA0
:1023900041F28830FEF706FF3948FFF781FE18202A
:1023A000FFF7F2FB3328A4B246D0364801F028FDEF
:1023B0000134A4B2344801F023FD4820FFF7C8F8E7
:1023C000324801F01DFD4820FFF7D0F8A0F10F03BF
:1023D000DBB2142B01461ED92D4801F09FFC2D487D
:1023E00001F00EFD2C4801F00BFD2A4803B0BDE8BA
:1023F000F04001F005BD0135284801F001FD042D34
:102400007FF45BAF264801F089FC04F19801304667
:1024100000F07AF965E7234801F080FC1D4801F0DF
:10242000EFFC002CDED1204801F0EAFC194803B093
:10243000BDE8F04001F0E4BC1C4801F0E1FCB9E764
:1024400084670008B8670008C8670008D8670008F4
:10245000FC670008A4040020206800083068000819
:1024600088680008A468000878670008B068000859
:10247000C8680008D8680008E4680008FC6800081C
:10248000106900081C690008546900089069000878
:10249000A8690008146A0008986A000838680008EB
:1024A00044680008686A0008A86A000840690008D3
:1024B00020F02003413B192B05D9303809288CBF67
:1024C0000020012070470120704700BF81800388F1
:1024D0005B06FCD5704700BF0B785BB101F1FF02D2
:1024E0009BB2838003885B06FCD511F8013F0BB1DA
:1024F0009142F5D1704700BF03889B06FCD58088C8
:10250000C0B270472DE9F843054610460C461E46FA
:1025100001F03AFB00F0ACFF80462046894600F00F
:1025200085FF0022174B00F0F7FF02460B4640469E
:10253000494601F01BF901F021FA074601F07CFB46
:10254000044601F021FB0146384601F06BFA00F029
:102550008FFF00220B4B00F0DFFF01F0EFF940EAA4
:10256000041080B2288136B942F20C03AB810023FB
:102570002B80BDE8F88342F22C03AB8100232B8033
:10258000BDE8F8830000304003789B090B700378A6
:10259000C3F301134B70037803F00F038B70437880
:1025A0005B09CB70437803F01F030B718278C3780B
:1025B00043EA0223CB8070472DE9F84F4F4D00F0DE
:1025C0001F002C7851270026CC700C7148700F70BA
:1025D0008E70187801342F282C70BDF82C8002D012
:1025E0000020BDE8F88F464C17460D462046194698
:1025F000802201F073FD2378002B5AD032464149E6
:10260000601C02E010F8013B6BB12F2BFAD1092AB4
:10261000E6D8531C41F8220000F8016C9AB210F879
:10262000013B002BF1D1002A43D0052FD8D91C46FD
:10263000013ADFF8D0A01FFA82F90526A3B2002BD9
:102640005AF8040B14BF4FF0000B6FF04F0B01F062
:102650003DFD81B20C2921D84BEA0000731CA8551E
:102660009EB2A1B15AF8042C731C10789BB29F4201
:10267000A855B5D90E44B6B205E012F8010FE854DA
:102680008BB29F42ACD99E4203F10101F5D1A14525
:1026900010D0B74204F10104D0D8A1E7731C4BF06D
:1026A0000D0B05F806B00D389BB20236E854B6B2F1
:1026B000D8E705260A9BF3B1B8F1000F1BD0FF2322
:1026C000AB550A9B1A78731C0236B6B29BB2B7425E
:1026D000EA5485D90A9B08F1FF3292B21A4406E007
:1026E00013F8010FA8558EB2B7427FF679AF9A4220
:1026F00006F10101F4D13046BDE8F88FB0090020A1
:1027000008090020880900202DE9F0410646ADF5B2
:10271000007D6C480F4601F073FBFEF757FD6A48D9
:1027200001F06EFBFEF738FD684D00232A688046F5
:1027300002EB8202019200931A4619461846FDF7F1
:102740002DFE0446FEF728FD1CBB614801F058FB36
:10275000A046012421465F4801F0E0FA5E48FDF7FB
:10276000A9FE2A68002352080192CDF800801A467B
:1027700019461846FDF712FE013498BB042CE9D126
:10278000564801F03DFB012420460DF5007DBDE8D3
:10279000F081C8EB0001524801F0C0FA5148FDF742
:1027A00089FE2B6803A803EB4302019200230DF17D
:1027B0000B0200924FF4FA711A46FDF7EFFD9DF8F7
:1027C0000B4004BB012E11D0474903A801F099FC2E
:1027D00010B3464801F014FB012420460DF5007D9E
:1027E000BDE8F081424801F00BFBD7E787B13B78A9
:1027F00073B1404903A801F084FC002857D03E483B
:1028000001F0FEFAE8E73D4801F0FAFA0024BBE7E0
:102810003B4801F0F5FADFE73A4F3B4803AE01F0E1
:10282000EFFA0FCF0FC697E8030086E8030003A86E
:10283000FDF740FE2A68002302EB420201920DF1EF
:102840000B02009203A81A464FF4FA71FDF7A6FD99
:102850009DF80B501D4E0DBB2C4801F0D1FA2C48B1
:10286000FDF728FE33680DF10B028DE80C002946B8
:102870002B462A462846FDF791FD9DF80B308BB973
:1028800032680DF10B0102EB8202009101921946B0
:102890001A461846FDF782FD012475E71D4801F030
:1028A000AFFA71E71C482C4601F0AAFA6CE71B4806
:1028B00001F0A6FA3B461A4A4FF4FA7103A801F058
:1028C0009DFBB4E74C71000864710008A40400206B
:1028D0008071000820680008306800080074000853
:1028E000C871000860740008F87200087873000866
:1028F0003C7400086C720008E4720008E87100087B
:102900002C7200086073000810730008A873000898
:10291000D473000888730008E4730008807200080C
:10292000C87200082DE9F04FADF5337D0DF1340884
:102930004446BB4D06468A4617469B4695E80F001F
:1029400007C49DF8F092432200210DF1410023704D
:102950009DF8F44201F0D9F9B9F1000F49D0B1481E
:1029600001F04EFA50214046FEF792FE00284FD06B
:10297000002C40F0E8804820FEF7F8FDAA4D09AB96
:102980000DF1220208A904461820FFF739F928683A
:10299000FEF7D6F8BDF92410BDF92220BDF920308C
:1029A000049003910292C821A04A019300945B46CF
:1029B000CDF8148021A801F021FB21A801F086FBAD
:1029C00021A902469A4801F0A9F9B9F1000F23D0D4
:1029D000296821A801EB4101FEF7DEF9002840F04B
:1029E000AA80944801F00CFA01200DF5337DBDE872
:1029F000F08F914801F004FA314653463A468F4829
:102A000001F08CF950214046FEF742FE0028AFD17C
:102A10008B4801F0F5F9AEE721A801F057FB53AC64
:102A200080B221AB4FF4BD72019000932146534612
:102A30000220FFF7C1FDADF82600BDF82610814841
:102A400089B201F06BF9ADF82A90BDF82A30BDF8D3
:102A500026209BB292B29A421BD9BDF82A307A48FE
:102A60009BB2E35C0F2BBDF82A3088BF77489BB23E
:102A7000E15C01F053F9BDF82A3001339BB2ADF8A7
:102A80002A30BDF82A20BDF8263092B29BB29A4275
:102A9000E3D36F4801F0B4F92868FDF72FFDFF2854
:102AA000DFF88491804662D0BDF82620D9F8003046
:102AB00092B203EB43038DE80C0031463A462346BD
:102AC000FDF7ECFD042802D0624801F099F9FEF709
:102AD00063FB0AAF00233B802B680DF11F0AFF2226
:102AE00003EB430381468AF8002000262BB90DE052
:102AF0002B6803EB4303B34208D939465046FDF730
:102B000075FE9AF8003001364345F1D1FEF744FBDB
:102B10009AF80030064643452ED04F4801F070F930
:102B200029684046FDF760FD00286CD001200DF5B6
:102B3000337DBDE8F08F494801F062F901200DF5C1
:102B4000337DBDE8F08F44464548464D01F058F9C5
:102B50004146454801F0E2F80FCD0FC495E8070063
:102B600084E807004146414801F0D8F803E74048AF
:102B700001F046F9002038E739880029CDD0B1F5B9
:102B8000BD7F48D22A68002302EB420201920094E2
:102B90001A464046FDF79AFE0BA92046FFF7F4FCC3
:102BA000C9EB06039DF830209DF82F10314801F045
:102BB000B5F8314801F024F90023ADF82A30BDF80A
:102BC0002A303A889BB29A4219D9BDF82A301E4859
:102BD0009BB2E35C0F2BBDF82A3088BF1B489BB229
:102BE000E15C01F09BF8BDF82A303A8801339BB2D2
:102BF000ADF82A30BDF82A309BB29A42E5D8144885
:102C000001F0FEF88CE71D4801F0FAF801200DF5FF
:102C1000337DBDE8F08F1A4801F080F880E700BFEF
:102C2000FC70000870740008A4040020C47500083B
:102C300038760008747600088474000898740008D8
:102C4000B474000890760008AC760008B0760008EE
:102C5000C4790008D4760008F47600085876000895
:102C60000875000880750008647500089C750008E8
:102C7000B47600080C7700084477000888770008CD
:102C80005C770008F0B57549CFB0754801F046F89B
:102C9000744801F0B5F815A8FEF7E6FA9DF854302F
:102CA000002B40F0AC8070488DF8543001F0A8F84B
:102CB000BDF830116D4801F031F89DF86D00FFF757
:102CC000F7FB20B19DF86C30002B40F0B48000235E
:102CD00067488DF86C3001F093F89DF8ED00FFF730
:102CE000E7FB20B19DF8EC30002B40F0A9800023D9
:102CF00060488DF8EC3001F083F89DF832115E48A1
:102D000001F00CF85D4801F009F89DF833315C4F93
:102D10000F2B0CBF5B485C4801F072F84B995B4885
:102D200000F0FCFF9DF83411594800F0F7FF5948B6
:102D300001F066F83B68002B66D03B79002B63D02E
:102D400000263546002D52D0042D54D0682401357C
:102D500004FB0672ADB204FB05F4711C04324E484C
:102D600000F0DCFF3B592E463C4413B12379002B85
:102D7000E8D14A4800F0D2FF01A9494801F074F8AF
:102D8000502101A8FEF776FA01A800F075FF01387E
:102D900000F0FF04434801F033F8A54245D9682309
:102DA00003FB04F415A83B5998473E483E4C01F0FC
:102DB00027F83E4801F024F8206842685368013B38
:102DC000002B536041DB42681368013313602068B5
:102DD00042685368013B002B53603ADB426813683A
:102DE00001331360324801F00BF84FB0F0BD3148A9
:102DF00001F006F8AAE7304801F002F8A6E715A9A5
:102E00002E4800F08BFF53E7244800F087FF01A90C
:102E1000234801F029F801A85021FEF72BFA01A858
:102E200000F02AFF1F4800F0EBFF0DF105012448D8
:102E300000F074FFB9E71BA9224800F06FFF4CE7D0
:102E40003BA9214800F06AFF57E7416800F0E0FF26
:102E5000BDE7416800F0DCFFC4E700BFA8770008C9
:102E6000C0770008187800084078000878780008D3
:102E70008C780008C0780008EC7800080C7900080D
:102E8000E46A0008247900082C7900083C790008DD
:102E90006C79000884790008F47900088C660008D1
:102EA0005C600008146A000860000020187A0008BE
:102EB000C4790008C8790008E0790008647800083F
:102EC000007A0008AC780008DC78000870B5D4B04F
:102ED000FEF7F6F900231A4603211820FEF766FED6
:102EE000694800F08DFF4820FEF732FB674800F08C
:102EF00087FF674800F084FF1BA8FEF7B5F9539BD6
:102F0000644A23F0FF03934205D0634800F078FF42
:102F10001BA8FFF79BF943F69822519BA3F57A7300
:102F2000934205D95D4800F06BFF4FF47A735193DB
:102F30009DF884302F2B10D0594800F061FF41A933
:102F40009DF84A01FFF7E0FB002840F08C805548CF
:102F500000F056FFFFF796FEFCE7534B1B8A5B061B
:102F6000EAD59DF84B310F2BE6D141A99DF84A01D6
:102F7000FFF7CAFB044658B34C4D05E04C4800F03F
:102F8000CDFE3220FEF70EF92868484CFDF758FFB9
:102F90000028F3D0474800F033FF216802A8FDF76E
:102FA00033FEBDF84401FDF7F1FF41F27073519A11
:102FB0009A4221D9404800F0B1FE2168012001EB7E
:102FC0004101FDF787FF20BB3C4800F019FF20E0DE
:102FD0003B4800F015FF1BA88DF84B41FEF710F998
:102FE000BFF34F8F3749384BCA6802F4E06213438E
:102FF000CB60BFF34F8FFEE7344800F001FF21683C
:10300000002001EB4101FDF765FF10B1304800F0F1
:10301000F7FE41F27074002611E09DF84C119DF806
:103020004A31BDF848210191009321A902AB1BA8A8
:10303000FFF778FC0020FEF7BFF8FEF70BF8012041
:10304000FEF7BAF8519BA342E7D9FEF7BFF82A680A
:10305000002302EB8202019200961A461946184696
:10306000FDF79CF9D9E71B4800F0CAFE0F4B002082
:10307000196801EB4101FDF72DFF00287FF46AAFCD
:10308000154800F0BDFE65E7407A00085C7A00084C
:10309000807A000800A555AAA07A0008147B0008D1
:1030A000147E0008687B000800080240A404002089
:1030B000A07C0008C4790008D47C0008F07C0008DB
:1030C000607C000800ED00E00400FA05487D00087F
:1030D000C47D0008B87B0008DC7B00080549064A6F
:1030E000064B9A42BEBF51F8040B42F8040BF8E7B6
:1030F00003480047148000080000002070000020F2
:10310000810100082649274A002301E041F8043BD9
:103110009142FBD3FFF7DAFEFEE7FEE7FEE7FEE7AC
:10312000FEE7FEE7FEE7FEE7FEE7FEE7FEE7FEE777
:10313000FEE7FEE7FEE7FEE7FEE7FEE7FEE7FEE767
:10314000FEE7FEE7FEE7FEE7FEE7FEE7FEE7FEE757
:10315000FEE7FEE7FEE7FEE7FEE7FEE7FEE7FEE747
:10316000FEE7FEE7FEE7FEE7FEE7FEE7FEE7FEE737
:10317000FEE7FEE7FEE7FEE7FEE7FEE7FEE7FEE727
:10318000FEE7FEE7FEE7FEE7FEE7FEE7FEE7FEE717
:10319000FEE7FEE7FEE7FEE7FEE7FEE7FEE7FEE707
:1031A00070000020C409002081F0004102E000BF4F
:1031B00083F0004330B54FEA41044FEA430594EAF7
:1031C000050F08BF90EA020F1FBF54EA000C55EA32
:1031D000020C7FEA645C7FEA655C00F0E2804FEA03
:1031E0005454D4EB5555B8BF6D420CDD2C4480EAE5
:1031F000020281EA030382EA000083EA010180EA15
:10320000020281EA0303362D88BF30BD11F0004F62
:103210004FEA01314FF4801C4CEA113102D0404298
:1032200061EB410113F0004F4FEA03334CEA1333D3
:1032300002D0524263EB430394EA050F00F0A780EB
:10324000A4F10104D5F1200E0DDB02FA0EFC22FAE6
:1032500005F2801841F1000103FA0EF2801843FADA
:1032600005F359410EE0A5F120050EF1200E012ACB
:1032700003FA0EFC28BF4CF0020C43FA05F3C01809
:1032800051EBE37101F0004507D54FF0000EDCF182
:10329000000C7EEB00006EEB0101B1F5801F1BD32B
:1032A000B1F5001F0CD349085FEA30004FEA3C0C2F
:1032B00004F101044FEA445212F5800F80F09A8025
:1032C000BCF1004F08BF5FEA500C50F1000041EB29
:1032D000045141EA050130BD5FEA4C0C404141EB2D
:1032E000010111F4801FA4F10104E9D191F0000F54
:1032F00004BF01460020B1FA81F308BF2033A3F1D7
:103300000B03B3F120020CDA0C3208DD02F1140CCD
:10331000C2F10C0201FA0CF021FA02F10CE002F108
:103320001402D8BFC2F1200C01FA02F120FA0CFC01
:10333000DCBF41EA0C019040E41AA2BF01EB04514A
:10334000294330BD6FEA04041F3C1CDA0C340EDC48
:1033500004F11404C4F1200220FA04F001FA02F38B
:1033600040EA030021FA04F345EA030130BDC4F149
:103370000C04C4F1200220FA02F001FA04F340EA3E
:103380000300294630BD21FA04F0294630BD94F0EF
:10339000000F83F4801306BF81F480110134013DD6
:1033A0004EE77FEA645C18BF7FEA655C29D094EA47
:1033B000050F08BF90EA020F05D054EA000C04BFC5
:1033C0001946104630BD91EA030F1EBF00210020B0
:1033D00030BD5FEA545C05D14000494128BF41F04F
:1033E000004130BD14F580043CBF01F5801130BDB3
:1033F00001F0004545F0FE4141F470014FF000003E
:1034000030BD7FEA645C1ABF194610467FEA655CEE
:103410001CBF0B46024650EA013406BF52EA033590
:1034200091EA030F41F4002130BD00BF90F0000F7E
:1034300004BF0021704730B54FF4806404F13204BA
:103440004FF000054FF0000150E700BF90F0000F73
:1034500004BF0021704730B54FF4806404F132049A
:1034600010F0004548BF40424FF000013EE700BF6A
:1034700042004FEAE2014FEA31014FEA02701FBFFA
:1034800012F07F4393F07F4F81F06051704792F0CC
:10349000000F14BF93F07F4F704730B54FF4607446
:1034A00001F0004521F0004120E700BF50EA010291
:1034B00008BF704730B54FF000050AE050EA01023E
:1034C00008BF704730B511F0004502D5404261EBAE
:1034D00041014FF4806404F132045FEA915C3FF4EF
:1034E000DCAE4FF003025FEADC0C18BF03325FEA88
:1034F000DC0C18BF033202EBDC02C2F1200300FA3D
:1035000003FC20FA02F001FA03FE40EA0E0021FA61
:1035100002F11444C1E600BF70B54FF0FF0C4CF44B
:10352000E06C1CEA11541DBF1CEA135594EA0C0F01
:1035300095EA0C0F00F0DEF82C4481EA030621EA3C
:103540004C5123EA4C5350EA013518BF52EA033577
:1035500041F4801143F4801338D0A0FB02CE4FF029
:103560000005E1FB02E506F00042E0FB03E54FF059
:103570000006E1FB03569CF0000F18BF4EF0010E51
:10358000A4F1FF04B6F5007F64F5407404D25FEA4D
:103590004E0E6D4146EB060642EAC62141EA555100
:1035A0004FEAC52040EA5E504FEACE2EB4F1FD0C42
:1035B00088BFBCF5E06F1ED8BEF1004F08BF5FEAC0
:1035C000500E50F1000041EB045170BD06F0004672
:1035D00046EA010140EA020081EA0301B4EB5C041F
:1035E000C2BFD4EB0C0541EA045170BD41F4801117
:1035F0004FF0000E013C00F3AB8014F1360FDEBF3C
:10360000002001F0004170BDC4F10004203C35DA17
:103610000C341BDC04F11404C4F1200500FA05F39A
:1036200020FA04F001FA05F240EA020001F000423B
:1036300021F0004110EBD37021FA04F642EB0601B1
:103640005EEA430E08BF20EAD37070BDC4F10C04DB
:10365000C4F1200500FA04F320FA05F001FA04F29F
:1036600040EA020001F0004110EBD37041F100018B
:103670005EEA430E08BF20EAD37070BDC4F1200596
:1036800000FA05F24EEA020E20FA04F301FA05F2FE
:1036900043EA020321FA04F001F0004121FA04F2A6
:1036A00020EA020000EBD3705EEA430E08BF20EA76
:1036B000D37070BD94F0000F0FD101F000464000B0
:1036C00041EB010111F4801F08BF013CF7D041EA32
:1036D000060195F0000F18BF704703F00046520036
:1036E00043EB030313F4801F08BF013DF7D043EA07
:1036F0000603704794EA0C0F0CEA135518BF95EABD
:103700000C0F0CD050EA410618BF52EA4306D1D143
:1037100081EA030101F000414FF0000070BD50EA62
:10372000410606BF1046194652EA430619D094EAEC
:103730000C0F02D150EA013613D195EA0C0F05D1D6
:1037400052EA03361CBF104619460AD181EA03012A
:1037500001F0004141F0FE4141F470014FF00000E2
:1037600070BD41F0FE4141F4780170BD70B54FF07D
:10377000FF0C4CF4E06C1CEA11541DBF1CEA1355FD
:1037800094EA0C0F95EA0C0F00F0A7F8A4EB0504DF
:1037900081EA030E52EA03354FEA013100F08880D6
:1037A0004FEA03334FF0805545EA131343EA12639F
:1037B0004FEA022245EA111545EA10654FEA002654
:1037C0000EF000419D4208BF964244F1FD0404F50D
:1037D000407402D25B084FEA3202B61A65EB030569
:1037E0005B084FEA32024FF480104FF4002CB6EB26
:1037F000020E75EB030E22BFB61A754640EA0C00A6
:103800005B084FEA3202B6EB020E75EB030E22BFE5
:10381000B61A754640EA5C005B084FEA3202B6EB26
:10382000020E75EB030E22BFB61A754640EA9C00E5
:103830005B084FEA3202B6EB020E75EB030E22BFB5
:10384000B61A754640EADC0055EA060E18D04FEA73
:10385000051545EA16754FEA06164FEAC30343EA13
:1038600052734FEAC2025FEA1C1CC0D111F4801FE0
:103870000BD141EA00014FF000004FF0004CB6E7D9
:1038800011F4801F04BF01430020B4F1FD0C88BF78
:10389000BCF5E06F3FF6AFAEB5EB030C04BFB6EB83
:1038A000020C5FEA500C50F1000041EB045170BD76
:1038B0000EF0004E4EEA113114EB5C04C2BFD4EBA3
:1038C0000C0541EA045170BD41F480114FF0000E27
:1038D000013C90E645EA060E8DE60CEA135594EAA3
:1038E0000C0F08BF95EA0C0F3FF43BAF94EA0C0FA6
:1038F0000AD150EA01347FF434AF95EA0C0F7FF41B
:1039000025AF104619462CE795EA0C0F06D152EA6E
:1039100003353FF4FDAE1046194622E750EA410652
:1039200018BF52EA43067FF4C5AE50EA41047FF463
:103930000DAF52EA43057FF4EBAE12E74A0011D215
:1039400012F5001211D20DD56FF47873B3EB6252F9
:103950000ED44FEAC12343F0004343EA505323FA05
:1039600002F070474FF00000704750EA013002D17A
:103970004FF0FF3070474FF0000070474FEA4102B0
:10398000B2F1E04324BFB3F5001CDCF1FE5C0DD9BD
:1039900001F0004C4FEAC0024CEA5070B2F1004F07
:1039A00040EB830008BF20F00100704711F0804F0A
:1039B00021D113F13872BCBF01F00040704741F4CF
:1039C00080114FEA5252C2F11802C2F1200C10FAD3
:1039D0000CF320FA02F018BF40F001004FEAC123B7
:1039E0004FEAD32303FA0CFC40EA0C0023FA02F35B
:1039F0004FEA4303CCE77FEA625307D150EA013331
:103A00001EBF4FF0FE4040F44000704701F0004000
:103A100040F0FE4040F40000704700BF80F00040DE
:103A200002E000BF81F0004142001FBF5FEA410396
:103A300092EA030F7FEA226C7FEA236C6AD04FEA96
:103A40001262D2EB1363C1BFD218414048404140DB
:103A5000B8BF5B42192B88BF704710F0004F40F48D
:103A6000000020F07F4018BF404211F0004F41F4A9
:103A7000000121F07F4118BF494292EA030F3FD075
:103A8000A2F1010241FA03FC10EB0C00C3F1200388
:103A900001FA03F100F0004302D5494260EB400017
:103AA000B0F5000F13D3B0F1807F06D340084FEA82
:103AB000310102F10102FE2A51D2B1F1004F40EB77
:103AC000C25008BF20F0010040EA030070474900DF
:103AD00040EB000010F4000FA2F10102EDD1B0FAAA
:103AE00080FCACF1080CB2EB0C0200FA0CF0AABF9F
:103AF00000EBC25052421843BCBFD040184370473D
:103B000092F0000F81F4000106BF80F40000013242
:103B1000013BB5E74FEA41037FEA226C18BF7FEA19
:103B2000236C21D092EA030F04D092F0000F08BF5B
:103B30000846704790EA010F1CBF0020704712F042
:103B40007F4F04D1400028BF40F00040704712F181
:103B500000723CBF00F50000704700F0004343F0E6
:103B6000FE4040F4000070477FEA226216BF08461C
:103B70007FEA23630146420206BF5FEA412390EADF
:103B8000010F40F4800070474FF0000304E000BFD5
:103B900010F0004348BF40425FEA000C08BF704786
:103BA00043F0964301464FF000001CE050EA01024A
:103BB00008BF70474FF000030AE000BF50EA01025F
:103BC00008BF704711F0004302D5404261EB41014C
:103BD0005FEA010C02BF84460146002043F0B64371
:103BE00008BFA3F18053A3F50003BCFA8CF2083A96
:103BF000A3EBC25310DB01FA02FC634400FA02FC9F
:103C0000C2F12002BCF1004F20FA02F243EB0200A5
:103C100008BF20F00100704702F1200201FA02FC07
:103C2000C2F1200250EA4C0021FA02F243EB0200FA
:103C300008BF20EADC70704742000ED2B2F1FE4F9E
:103C40000BD34FF09E03B3EB126209D44FEA00236B
:103C500043F0004323FA02F070474FF00000704732
:103C600012F1610F01D1420202D14FF0FF307047D3
:103C70004FF00000704700BF0A22002100F0E2BAB6
:103C800008B5074B044613B10021AFF30080054B84
:103C90001868836A03B19847204602F08DF800BF88
:103CA00000000000447E00080E4B70B51E460E4C0E
:103CB0000025E41AA410A54204D056F825309847F0
:103CC0000135F8E702F07AF8084B094C1E46E41A71
:103CD000A4100025A54204D056F825309847013598
:103CE000F8E770BD68000020680000206800002030
:103CF0006C00002010B5431E0A44914204D011F814
:103D0000014B03F8014FF8E710BD0346024493420C
:103D100002D003F8011BFAE7704700000FB40A4B0A
:103D200013B51C6824B1A36913B9204600F058FCF0
:103D300005AB049AA1682046019300F07FFF02B012
:103D4000BDE8104004B070476000002070B50E461A
:103D5000054618B183690BB900F042FCAB69AC6849
:103D600013B9284600F03CFC224B9C4201D16C6800
:103D700008E0214B9C4201D1AC6803E01F4B9C4200
:103D800008BFEC68A3891B0701D523693BB921460D
:103D9000284600F0B5FA10B14FF0FF3070BD013E7B
:103DA000A36816F8011F013BA36091B1002B04DA50
:103DB000A269934206DB0A2904D023685A1C2260B8
:103DC0001970EDE72246284600F046FA0130E7D1A7
:103DD000E2E7002B08DA22460A21284600F03CFAE6
:103DE0000130D9D00A2070BD23680A205A1C2260F5
:103DF000187070BD4C7F00086C7F00088C7F000835
:103E0000024B01461868FFF7A1BF00BF6000002009
:103E100038B50C46054618B183690BB900F0E0FBD4
:103E20000E4B9C4201D16C6808E00D4B9C4201D1C5
:103E3000AC6803E00B4B9C4208BFEC682146284667
:103E400001F092FC38B96368013B636023685A1C37
:103E50002260187838BD4FF0FF3038BD4C7F000825
:103E60006C7F00088C7F00080FB40A4B13B51C68E8
:103E700024B1A36913B9204600F0B2FB05AB049A44
:103E800061682046019301F0E5FA02B0BDE81040F8
:103E900004B070476000002000294FF480630CBF1D
:103EA0000222002200F000B82DE9F7431D464F4BD7
:103EB00004461E680F46904626B1B36913B93046D2
:103EC00000F08EFB4A4B9C4201D1746808E0494BDC
:103ED0009C4201D1B46803E0474B9C4208BFF468A0
:103EE000B8F1020F04D0B8F1010F79D8002D77DBBB
:103EF0002146304600F0F8FA616B41B104F1440309
:103F0000994202D0304600F079FC0023636300231D
:103F1000A3616360A3891B0603D52169304600F0C5
:103F20006DFCA389B8F1020F23F44A6323F0030365
:103F3000A3811ED001AB6A462146304600F0F6FB55
:103F4000A3891843A0810DB9009D00E02FBB28462E
:103F500000F04CFC0746D0B9DDF80090A94502D12D
:103F60004FF0FF3006E0484600F040FC074678B9C5
:103F7000F6E70020A38943F00203A3810023A36096
:103F800004F1470323602361012363612AE0A9460A
:103F90004D46A38943F08003A381B36913B930462A
:103FA00000F01EFBB8F1010F08BFA389276004BF12
:103FB00043F00103A381A389276103F0080080B2C5
:103FC000656158B113F001034FF000001DBF6D4251
:103FD000A060A561A56008BF184603E0A06001E0ED
:103FE0004FF0FF3003B0BDE8F08300BF6000002059
:103FF0004C7F00086C7F00088C7F00080CB430B543
:10400000164B0C1E9DB01D6804DA8B232B604FF0FD
:10401000FF301EE04FF40273ADF814300CBF23469E
:1040200004F1FF33049307934FF6FF730290069059
:10403000ADF81630209A21AB02A92846019300F072
:10404000E1FC431CBCBF8B232B6014B1029B0022FC
:104050001A701DB0BDE8304002B07047600000200B
:104060000EB400B54FF402719CB0ADF814106FF0AF
:104070000041049107914FF6FF711DAB029006902D
:10408000084853F8042BADF81610006802A90193F4
:1040900000F0B8FC029B00221A701CB05DF804EB23
:1040A00003B070476000002010F8012B11F8013BAD
:1040B000012A28BF9A42F7D0D01A7047034611F858
:1040C000012B03F8012B002AF9D17047034613F89E
:1040D000012B002AFBD1181A01387047034610B58E
:1040E00042B111F8014B013A03F8014B002CF7D112
:1040F0001A4400E010BD934202D003F8014BFAE7E6
:1041000010BDF0B5037863B90B78002B18BF002001
:10411000F0BD15F8012F62B114F8017F30469742C7
:10412000F7D00346461C007810B14D1E5C1EF0E728
:10413000F0BD1846F0BD00002DE9F0470F4680465F
:104140003F48D0F800903D4615F8014B09EB0400BC
:10415000407800F0080000F0FF0608B12F46F2E7B3
:104160002D2C03D1BD1C7C78012603E02B2C04BF31
:104170007C78BD1C13B1102B0AD15BE0302C57D1D9
:10418000287800F0DF0058284DD16C7810230235D4
:10419000002E14BF4FF0004C6FF0004CBCFBF3FA44
:1041A0000027384603FB1ACC09EB040E9EF801E009
:1041B0001EF0040F01D0303C0BE01EF0030E1BD0AC
:1041C000BEF1010F0CBF4FF0370E4FF0570ECEEB84
:1041D0000404A34210DDB7F1FF3F0AD0504506D8D2
:1041E00001D1644503DC03FB0040012701E04FF0EF
:1041F000FF3715F8014BD7E77B1C0CD1002E4FF091
:10420000220314BF4FF000406FF00040C8F80030A8
:104210002AB9BDE8F08706B1404272B107B1691E04
:104220001160BDE8F0873024002BB1D10823AFE73F
:104230000A23ADE7302CA3D0AAE7BDE8F08700BF82
:104240006400002013460A46014602480068FFF752
:1042500073BF00BF60000020F8B50F461446064645
:1042600018B183690BB900F0BBF9224B9C4201D114
:10427000746808E0204B9C4201D1B46803E01F4BF6
:104280009C4208BFF468A369A360A3891A0709D5F3
:1042900023693BB123682069FDB2181A636998420B
:1042A0000FDB08E02146304600F02AF80028F1D064
:1042B0004FF0FF30F8BD2146304600F015F90028D8
:1042C000F6D1A368013BA36023685A1C22601F70CB
:1042D0006269431C934204D0A389DB0707D50A2DEA
:1042E00005D12146304600F0FFF80028E0D12846ED
:1042F000F8BD00BF4C7F00086C7F00088C7F000871
:10430000324B70B51D6806460C4625B1AB6913B932
:10431000284600F065F92E4B9C4201D16C6808E0FC
:104320002C4B9C4201D1AC6803E02B4B9C4208BF54
:10433000EC68B4F90C309AB215071DD4D00602D43B
:10434000092232603AE0510712D5616B41B104F1A4
:104350004403994202D0304600F050FA00236363D0
:10436000A38923F02403A3810023636023692360CE
:10437000A38943F00803A38123694BB9A38903F4FC
:104380002073B3F5007F03D02146304600F0F2F9E8
:10439000A28912F0010305D00023A36063695B4288
:1043A000A36103E0920758BF6369A36023695BB907
:1043B000B4F90C3003F0800080B230B143F0400318
:1043C000A3814FF0FF3070BD002070BD6000002061
:1043D0004C7F00086C7F00088C7F00088A892DE9DB
:1043E000F041054610070C4659D44B68002B02DCFF
:1043F0000B6C002B17DDE66AAEB102F4805200238D
:1044000092B22F682B600AB1606D15E0216A01231A
:104410002846B047411C0FD12B686BB11D2B01D032
:10442000162B03D12F600020BDE8F081A38943F053
:104430004003A381BDE8F081A3895A0705D56368CD
:10444000C01A636B0BB1236CC01A00230246E66AE4
:10445000216A2846B047431CA38906D129681D2933
:1044600039D8204ACA40D60735D500226260226971
:10447000D904226004D5421C01D12B6803B96065C0
:10448000616B2F600029CED004F14403994202D021
:10449000284600F0B3F900206063BDE8F0810F69A1
:1044A000002FC0D093070E680CBF4B690023C7EBE9
:1044B00006080F608B6002E00744C0EB0808B8F103
:1044C000000FB0DD43463A46216A2846A66AB04747
:1044D0000028F1DCA38943F04003A3814FF0FF30B3
:1044E000BDE8F0810100402038B50B6905460C4657
:1044F000DBB118B183690BB900F072F80C4B9C4228
:1045000001D16C6808E00B4B9C4201D1AC6803E020
:10451000094B9C4208BFEC68B4F90C302BB1214622
:104520002846BDE83840FFF759BF002038BD00BF1E
:104530004C7F00086C7F00088C7F0008014620B982
:10454000044B0549186800F0D3B8044B1868FFF70E
:10455000CBBF00BF447E0008E94400086000002093
:10456000014900F0C5B800BFE944000810B5044691
:10457000002303604360836081814366C2810361DD
:1045800043618361194608225C30FFF7BEFB054B8F
:1045900024626362044BA362044BE362044B236313
:1045A00010BD00BFF95800081B59000853590008F6
:1045B0007759000870B568234D1E5D430E4605F11E
:1045C000740100F067F9044640B1002180E8420020
:1045D0000C30A06005F16802FFF797FB204670BD24
:1045E000836910B5044633BB8364C3640365124B0F
:1045F000124A1B688262984204BF0123836100F063
:104600001FF86060204600F01BF8A060204600F014
:1046100017F80022E06004216068FFF7A7FF01227D
:104620000921A068FFF7A2FF02221221E068FFF72C
:104630009DFF0123A36110BD447E00086145000871
:10464000F8B51C4B07461E68B36913B93046FFF72F
:10465000C7FF4836B4687368013B04D4B4F90C5002
:104660007DB16834F8E733680BB13668F2E70421AE
:104670003846FFF79FFF30600028F6D10C233B60DF
:10468000F8BD4FF6FF73E3810123A38165662560C2
:10469000A560656025616561A5610822294604F170
:1046A0005C00FFF732FB6563A563A564E564204603
:1046B000F8BD00BF447E00082DE9F041884600F1B6
:1046C000480400268CB1A5686768013F0BD4AB890C
:1046D000012B06D9B5F90E30013302D02846C04768
:1046E00006436835F1E72468ECE73046BDE8F08121
:1046F0002DE9F8438046894600F14804002694B12C
:10470000A5686768013F0CD4AB89012B07D9B5F9BF
:104710000E30013303D029464046C847064368356A
:10472000F0E72468EBE73046BDE8F88370B50E4645
:10473000B1F90E1090B0002914461D4606DA002388
:104740002B60B3891A060ED540230EE001AA01F0B2
:1047500063FA0028F3DB029A02F47042A2F50053D8
:104760005A425A412A604FF480630020236010B0FF
:1047700070BD00008B8973B59E0705460C4610D4AA
:1047800001AB6A46FFF7D2FF00990646284600F0C3
:1047900081F868B9B4F90C309A0522D443F00203C9
:1047A000A38104F14703236023610123636118E0BF
:1047B0000D4BAB62A389206043F08003A381009B73
:1047C00020616361019B4BB1B4F90E10284601F0E2
:1047D00035FA18B1A38943F00103A381A0893043BE
:1047E000A08102B070BD00BF61450008024B0146C8
:1047F000186800F04FB800BF6000002038B50546CB
:10480000002944D051F8043C0C1F002BB8BFE41819
:1048100001F05FFA1E4A1368114613B96360146011
:1048200030E0A3420DD92268A018834201BF186866
:104830005B681218226063600C6023E0A24203D818
:1048400013465A68002AF9D118681918A1420BD1E9
:104850002168014458188242196013D110685268C7
:10486000014419605A600DE002D90C232B6009E065
:1048700021686018824201BF1068526809182160DF
:1048800062605C602846BDE8384001F023BA38BD5C
:10489000B809002070B5CD1C25F0030508350C2D96
:1048A00038BF0C25002D064601DBA94202D90C2396
:1048B000336046E001F00DFA234B1C681A4621468E
:1048C000A1B10B685B1B0ED40B2B03D90B60CC186A
:1048D000CD501EE08C420BBF63684B681360636071
:1048E00018BF0C4615E00C464968E9E7174C2368E9
:1048F0001BB9304600F0C0FF20602946304600F06A
:10490000BBFF431C18D0C41C24F00304A0420DD1EB
:104910002560304601F0DEF904F10B00231D20F084
:104920000700C31A0ED05A42E25070BD211A304619
:1049300000F0A2FF0130EBD10C233360304601F0D0
:10494000C9F9002070BD00BFB8090020B4090020DB
:104950002DE9F0478E6882469E420C469146984665
:104960003ED88A8912F4906F3AD0256809690223EB
:104970006F1A656905EB450595FBF3F57B1C434410
:104980009D4238BF1D4653050FD52946FFF782FFCC
:10499000064698B13A462169FFF7ACF9A38923F49A
:1049A000906343F08003A38113E02A4601F093F95A
:1049B000064670B921695046FFF720FF0C23CAF85C
:1049C0000030A3894FF0FF3043F04003A381BDE8DE
:1049D000F08726613E44266046466561ED1BA56072
:1049E000464528BF464649463246206801F056F9FA
:1049F000A36800209B1BA36023681E442660BDE8BB
:104A0000F08700002DE9F04F9DB003938B8980461D
:104A10001C060D4616460DD50B695BB94021FFF704
:104A200039FF2860286118B90C23C8F80030CDE0A0
:104A300040236B610023099320238DF82930DFF890
:104A40009CB130238DF82A3037463C4614F8013BA0
:104A50001BB9B7EB060910D003E0252BF9D0274688
:104A6000F3E74B46324629464046FFF771FF0130D7
:104A700000F0A780099B4B4409933B78002B00F082
:104A8000A08000234FF0FF32049307930592069312
:104A90008DF853301A930126052221784E4801F0F3
:104AA000EFF8671C049B38B14B4A3C46801A06FA63
:104AB00000F018430490EFE7D90644BF20228DF898
:104AC00053201A0744BF2B228DF8532022782A2A1C
:104AD00003D0079A00210A200BE0039A111D1268E7
:104AE0000391002A10DA524243F002000792049028
:104AF0000BE027463B780134303B092B03D800FB01
:104B000002320121F5E701B107923B782E2B1ED12D
:104B10007B782A2B0AD1039B02371A1D1B6803924C
:104B2000002BB8BF4FF0FF33059310E00023194668
:104B30000593781C0A2407463A780130303A092A4E
:104B400003D804FB01210123F5E703B105910322FA
:104B50003978224801F094F840B14023CBEB0000B3
:104B600003FA00F0049B01371843049039780622B9
:104B70001B487E1C8DF8281001F082F888B1194B73
:104B800033B9039B073323F007030833039314E07F
:104B900003AB00932A46144B04A94046AFF30080B0
:104BA00007E003AB00932A460F4B04A9404600F0F0
:104BB000D7F9B0F1FF3F824603D0099B53440993D4
:104BC00042E7AB895B0601D4099801E04FF0FF3062
:104BD0001DB0BDE8F08F00BFAC7F0008B27F0008B9
:104BE000B67F00080000000051490008936810B427
:104BF000013B002B936008DA9469A34202DBCBB23D
:104C00000A2B02D110BCFFF727BB1368581C106099
:104C10001970C8B210BC7047F8B506460F46144666
:104C2000D518AC4208D03A4614F8011B3046FFF7BD
:104C3000DDFF431CF5D100E00020F8BD2DE9F04F69
:104C40009DB00C4617460393064618B183690BB90D
:104C5000FFF7C6FC7F4B9C4201D1746808E07E4B95
:104C60009C4201D1B46803E07C4B9C4208BFF468CD
:104C7000A38918070CD5236953B100230993202376
:104C80008DF8293030238DF82A30DFF8D4B144E094
:104C900021463046FFF734FB0028EED04FF0FF30BE
:104CA000D5E0039A111D12680391002A80F28C80CE
:104CB000524243F002000792049098F800302E2BE5
:104CC00000F08480032298F80010654800F0D8FFB7
:104CD00048B14023CBEB000003FA00F0049B08F13D
:104CE00001081843049098F8001006225D4808F166
:104CF00001078DF8281000F0C3FF002800F0958010
:104D0000594B002B40F08880039B073323F00703A7
:104D100008330393099B53440993B846454615F855
:104D2000013B1BB9B8EB07090FD003E0252BF9D0E5
:104D3000A846F3E74B463A4621463046FFF76CFF5C
:104D400001307FD0099B4B44099398F80030002B29
:104D500078D000234FF0FF32049307930592069317
:104D60008DF853301A930127052229783F4800F027
:104D700087FF05F10108049B38B13C4A4546801A7B
:104D800007FA00F018430490EEE7D90644BF20224A
:104D90008DF853201A0744BF2B228DF853202A7810
:104DA0002A2A3FF47EAF079A00210A20A84698F8E5
:104DB00000300135303B092B03D800FB02320121C2
:104DC000F4E700293FF479AF079276E798F80130CD
:104DD0002A2B0BD1039B08F102081A1D1B680392B2
:104DE000002BB8BF4FF0FF3305936BE70023194644
:104DF000059308F101000A25804698F8002001304B
:104E0000303A092A03D805FB01210123F4E7002BDE
:104E10003FF458AF059155E703AB00932246144B7E
:104E200004A93046AFF3008007E003AB00932246AD
:104E30000F4B04A9304600F093F8B0F1FF3F8246D3
:104E40007FF468AFA3895B063FF528AF09981DB0D2
:104E5000BDE8F08F4C7F00086C7F00088C7F000855
:104E6000B27F0008B67F000800000000AC7F000899
:104E7000194C00082DE9F04791461F460A698B68D6
:104E800006469342B8BF1346C9F8003091F8432054
:104E90000C46DDF8208012B10133C9F800302368D8
:104EA000990642BFD9F800300233C9F800302568AE
:104EB00015F0060510D104F1190A07E00123524646
:104EC00039463046C04701301AD00135E368D9F879
:104ED00000209B1A9D42F1DB94F843302268003396
:104EE00018BF012392060FD5E118302081F8430046
:104EF0005A1C94F845102244023382F8431003E010
:104F00004FF0FF30BDE8F08704F1430239463046E8
:104F1000C0470130F4D02268D9F80050E36802F0AD
:104F20000602042A08BF5D1B2269A3680CBF25EA9C
:104F3000E57500259342C4BF9B1AED184FF0000998
:104F40001A344D4509D00123224639463046C04720
:104F50000130D5D009F10109F3E70020BDE8F08761
:104F60002DE9F04317460A7E85B06E2A984606461C
:104F70000C460C9B01F1430E00F0AE8011D8632A61
:104F800022D009D8002A00F0BB80582A40F0CA80FD
:104F900081F84520834955E0642A1ED0692A1CD037
:104FA000C0E0732A00F0B08009D86F2A2ED0702A92
:104FB00040F0B8800A6842F020020A603EE0752A9C
:104FC00024D0782A3AD0ADE01A6801F14205111DCB
:104FD0001960136884F84230A8E021681A6811F05B
:104FE000800F02D0111D196008E011F0400F02F18E
:104FF0000401196002D0B2F9003000E01368002B00
:105000003CDA2D225B4284F8432037E021681A689D
:1050100011F0800F02D0111D196007E011F0400F50
:1050200002F10401196001D0138800E01368227EA8
:105030005C496F2A14BF0A2208221BE078225A49D1
:1050400084F845202268186812F0800F00F10405EA
:105050001D6003D1550601D5038800E00368D00721
:1050600044BF42F0200222601BB9226822F02002D5
:1050700022601022002084F8430001E049490A22FE
:105080006568002DA56008DB206820F00400206022
:105090002BB9002D7DD175460CE0002B79D07546DB
:1050A000B3FBF2F002FB1033CB5C05F8013D034685
:1050B0000028F5D1082A0BD12368DA0708D523691F
:1050C00062689A42DEBF302305F8013C05F1FF35E6
:1050D000C5EB0E0323612EE008681A6810F0800FFC
:1050E000496903D0101D1860136808E010F0400FE4
:1050F00002F104001860136801D0198000E0196003
:1051000000232361754616E01A68111D19601568A1
:1051100000216268284600F0B3FD08B1401B6060C2
:10512000636804E004F1420584F84220012323610E
:10513000002384F84330CDF800803B4603AA214683
:105140003046FFF797FE013002D14FF0FF3026E0E6
:1051500023692A4639463046C0470130F5D02368D6
:105160009B0710D5002504F1190907E001234A46E1
:1051700039463046C0470130E7D00135E368039A2D
:105180009B1A9D42F2DBE068039B9842B8BF184629
:1051900005E00B7804F1420584F842308AE705B057
:1051A000BDE8F083BD7F0008CE7F00082DE9F04FF9
:1051B000DFF89C9207460D46CA46ADF5257D019362
:1051C0000023469347939E4B0DF10C08A2939D4BF1
:1051D000DFF874B2CDF82081A3931478002C00F08E
:1051E0002781D9F8003023445B7803F0080303F0EB
:1051F000FF01F3B16B68002B10DD2B68DAF80000BB
:105200001978014449780C0710D5479901330131C9
:10521000479169682B6001396960EBE7A39B2946D8
:10522000384600929847009A0028E6D0561C32462D
:10523000D3E7252C02F1010652D1439145915378D1
:105240002A2B02BF1023961C43930A22317834463E
:10525000A1F13003092B06F1010605D8459B02FB9D
:105260000313303B4593F1E70322774800F008FD34
:1052700040B134460123CBEB000003FA00F0439B1E
:1052800003434393661C2478672C16D8652C7FD281
:10529000472C07D8452C7BD2002C00F0CB80252C46
:1052A0001ED077E05B2C51D002D8582C3ED071E054
:1052B000632C57D0642C3FD06CE0702C32D007D8D0
:1052C0006E2C55D03AD8692C64D1002344933BE02E
:1052D000752C31D0782C29D0732C5BD102233FE080
:1052E0006B68002B0DDD2B681A78944240F0A0808B
:1052F00001336A682B60479B013A01336A60479328
:1053000095E7A39B2946384698470028EBD0469856
:10531000002800F08F80AB8913F0400F18BF4FF0CA
:10532000FF3089E0439B43F020034393439B43F4C6
:1053300000734393102302E00A2300E008236E2C3D
:10534000449301DD04230BE0032309E0314640468A
:1053500000F0A2FA0646439B43F040034393012327
:1053600049931BE0439B43F0400343930023F7E73B
:10537000439AD0063FF55BAF12F0010F019A479BAD
:1053800002F104010191126814BF138013604EE70B
:105390000523E5E7032349930A2344936B68002B15
:1053A00003DD439B590611D518E0A39B29463846D7
:1053B00098470028F5D0AAE7479A013247926A68D1
:1053C000013A002A6A6013DD01332B602B68DAF89A
:1053D00000101A780A4452781207EDD4499B022B28
:1053E0000DDC01AB2A4643A9384600F05BF819E012
:1053F000A39B2946384698470028E7D087E7042B27
:1054000006DC01AB2A4643A9384600F0B1F809E0B2
:105410000E4B002B3FF40BAF01AB2A4643A9384695
:10542000AFF30080012803D002287FF400AF6EE7BD
:10543000469801E04FF0FF300DF5257DBDE8F08F77
:10544000F15A000869570008B27F00080000000008
:10545000640000202DE9F0410C4616461F46054623
:1054600018B183690BB9FFF7BBF80B4B9C4201D114
:105470006C6808E0094B9C4201D1AC6803E0084B22
:105480009C4208BFEC683B46324621462846BDE8B0
:10549000F041FFF78BBE00BF4C7F00086C7F000817
:1054A0008C7F00082DE9F84315468A6880460C4633
:1054B00032B98A69002A0CBF01224FF0FF328A609C
:1054C0002268DFF8A890D10658BF1A684FF000068E
:1054D0005EBF111D19601768A069F8B9236801360D
:1054E000DA065EBF2B681B783B702A686B6802F196
:1054F00001022A60A26803F1FF3302F1FF326B6000
:1055000058BF0137A260E2B1002BE5DCD4F880314E
:105510002946404698470028DED012E0012806D1EF
:105520002B681A7863699B5C002BD7D119E002289D
:1055300007D12B68D9F800201B7813445B781B0730
:10554000CCD5236813F0100305D1E2680132E26084
:10555000A26902B13B70236900201E442661BDE8A8
:10556000F883002EEDD1BDE8F88300BF6400002071
:105570002DE9F04F0C469A46724B87B0834616468B
:1055800093E8070003ABA76883E807006E4BA169A7
:105590006E4A04F11C09032918BF1A467B1EB3F595
:1055A000AE7F84BF40F25D13A360236888BF6FF4B1
:1055B000AE7543F4506323604B4600928CBF7F1955
:1055C00000274FF000083168019303AB53F828001F
:1055D0000222097800F054FB019B002833D0B8F177
:1055E000010F0BD162682AB908226260226842F476
:1055F00000722260226822F4A0620CE0B8F1020F6F
:105600000AD1226802F4C061B1F5007F1BD11021DC
:10561000616042F480722260A268511EA16092B162
:1056200032685D1C511C316012781A707368013B3E
:10563000002B736006DCD4F8803131465846984719
:10564000002841D12B4608F10108B8F1030FBAD167
:1056500062680AB90A22626062683D496069891A13
:10566000019300F019F9019B4FF000081D46A36853
:1056700063B3316860690A78805C38B3302A226885
:1056800008D1100506D508F1010857B10133013FD3
:10569000A36006E022F4106222600B78013505F861
:1056A000013C7368013B002B736003DD33680133F9
:1056B000336005E0D4F8803131465846984728B920
:1056C000A368013BA360D2E74FF000082368D90527
:1056D0000CD54D4508D915F8011C6F1ED4F87C3146
:1056E0003246584698473D464D4527D0226812F02D
:1056F00010021BD12A70636849465846009EB04785
:105700002268DAF8003012F0200F07D1D20705D551
:105710001A1DCAF800201B68188004E01A1DCAF878
:1057200000201B681860E3680133E3602369C9EB5C
:10573000050545441D442561002000E0012007B017
:10574000BDE8F08FE07F000881590008394100086A
:10575000FC7F0008838903F00903092B01D1FEF7C0
:10576000EDBE002070470000F8B50C46054618B1A4
:1057700083690BB9FEF734FF3A4B9C4201D16C6848
:1057800008E0394B9C4201D1AC6803E0374B9C42A6
:1057900008BFEC68B4F90C200023636093B29E0646
:1057A0005BD458071AD4D90605D4092342F0400225
:1057B0002B60A28151E01A070BD521462846FEF73F
:1057C00093FE002849D1A389A06023F00803A38198
:1057D000A061A38943F00403A38110E0616B71B160
:1057E00004F14403994202D02846FFF707F8236CDE
:1057F00000206063636013B1E36B2360F8BD23692D
:105800001BB921462846FEF7B5FFB4F90C70BEB2AD
:10581000B3070FD00123A381154B1649186806F072
:105820000906FEF749FF092EA78103D12146284624
:10583000FEF7D4FD2269666A22606369216A284600
:10584000B047002860600BDCA38917BF002243F03B
:10585000200343F040036260A3814FF0FF30F8BDA6
:105860000020F8BD4C7F00086C7F00088C7F00088A
:10587000447E00085557000838B5064C00230546FD
:105880000846236000F08AFA431C02D1236803B162
:105890002B6038BDC009002070B50B78441E5E2B0C
:1058A00013BF4A1C8A1C4B78002108BF012100F15C
:1058B000FF0504F8011FAC42FBD10BB9501E70BDAF
:1058C00081F001041146C4540D784A1C2D2D06D0D8
:1058D0005D2D0FD00DB12B46F4E7084670BD4E7814
:1058E0005D2EF8D0B342F6DC023101339E42C4543F
:1058F000FBDCE9E7104670BD10B50C46B1F90E109F
:1059000000F010FA0028ABBF636DA3891B1823F4C5
:105910008053ACBF6365A38110BD2DE9F0411F46E4
:105920008B890546DB050C46164605D50223002269
:10593000B1F90E1000F092F9A389324623F4805396
:10594000A381B4F90E103B462846BDE8F04100F0B3
:1059500041B910B50C46B1F90E1000F07FF9431CA7
:10596000A38915BF606523F4805343F48053A3815A
:1059700018BFA38110BDB1F90E1000F03DB90000B1
:105980002DE9F0470E4680463B48D0F8009035465A
:1059900015F8014B09EB0400407800F0080000F016
:1059A000FF0708B12E46F2E72D2C03D1B51C747801
:1059B000012703E02B2C04BF7478B51C13B1102B06
:1059C0000AD153E0302C4FD1287800F0DF0058285E
:1059D00045D16C78102302354FF0FF3CBCFBF3FC43
:1059E00003FB0CFA00266FEA0A0A304609EB040EA4
:1059F0009EF801E01EF0040F01D0303C0BE01EF0D9
:105A0000030E1AD0BEF1010F0CBF4FF0370E4FF04E
:105A1000570ECEEB0404A3420FDD002E08DB6045D9
:105A200006D801D1544503DC03FB0040012601E008
:105A30004FF0FF3615F8014BD8E7002E07DA222386
:105A4000C8F800304FF0FF302AB9BDE8F08707B141
:105A5000404272B106B1691E1160BDE8F087302482
:105A6000002BB9D10823B7E70A23B5E7302CABD018
:105A7000B2E7BDE8F08700BF640000202DE9F041E7
:105A80000C46496B04F1440399421AD14FF48061EA
:105A9000FEF700FF18B94FF0FF30BDE8F0814FF47A
:105AA0008063A36394F84630606380F8FF3394F812
:105AB000453000F2FD30437094F8443003702060AC
:105AC00012E0A66B77003A4600F005F9054600287B
:105AD000E1D000EB0608014632464046FEF70AF9DF
