:020000040800F2
:1000000000400120753A0008B33A0008B53A0008EC
:10001000B73A0008B93A0008BB3A000800000000EF
:10002000000000000000000000000000BD3A0008D1
:10003000BF3A000800000000C13A0008C33A0008B7
:10004000C73A0008C93A0008CB3A0008590E000820
:10005000CF3A0008D13A0008D33A0008D53A000850
:10006000D73A0008D93A0008DB3A0008DD3A000820
:10007000DF3A0008E13A0008E33A0008E53A0008F0
:10008000E73A0008E93A0008EB3A0008ED3A0008C0
:10009000EF3A0008F13A0008F33A0008F53A000890
:1000A000F73A00081D100008FB3A0008FD3A000866
:1000B000FF3A0008013B0008033B0008053B00082D
:1000C000073B0008093B00080B3B00080D3B0008FC
:1000D0000F3B0008113B00089D140008F5010008C3
:1000E000173B0008193B00081B3B00081D3B00089C
:1000F0001F3B0008213B0008233B0008253B00086C
:10010000273B0008293B00082B3B00082D3B00083B
:100110002F3B0008313B0008333B0008353B00080B
:10012000373B000810B5054C237833B9044B13B1A5
:100130000448AFF300800123237010BDD0000020DD
:1001400000000000C4CD0008084B10B51BB10849E1
:100150000848AFF300800848036803B910BD074B97
:10016000002BFBD0BDE81040184700BF0000000086
:10017000D4000020C4CD0008D00000200000000002
:10018000154B002B08BF134B9D46A3F5803A002169
:100190008B460F461348144A121A04F086FA0F4B86
:1001A000002B00D098470E4B002B00D09847002022
:1001B000002104000D000D48002802D00C48AFF3C8
:1001C000008004F041FA2000290003F04BFB04F00A
:1001D00027FA00BF000008000040012000000000D6
:1001E00000000000D0000020E81400200000000003
:1001F000000000002DE9F043684B83B01A8800210D
:1002000092B201929A886648D2B28DF80320198082
:100210000278002A4DD1019B1B075FD4614A9DF8EB
:100220000330002B68D0604C138827469DF80310DC
:100230009BB2C9B25D4DDFF86CE1E1544FF00108AB
:10024000002101EBC10301EB43032B449E7C06F02C
:10025000FF0C86B95E7C06F0FF09002E5BD1168884
:10026000B6B214F806C01E7CF6B29E5DB44500F02E
:10027000848083F8109001310229E2D113884C491F
:100280009BB2E35C4B4E0D78755D9D4258D00023C8
:100290000B70138848499BB2E35C484D0C782C5D89
:1002A0009C425BD000230B70138801339BB21380F8
:1002B00022E09B88DBB28DF803309DF803300D2BD4
:1002C00019D09DF803300A2B15D09DF80330202B50
:1002D00011D03B4B0121334A19700DE002F0FF01B0
:1002E000324D304A324C344B1180217019702974D0
:1002F00085F8231093E72B4A13882A4A9BB2B3F55B
:10030000806F05D340F2FF302E4B01211080197011
:1003100003B0BDE8F0831688B6B2A65D0A2EAAD156
:10032000BEF80060B6B2013EBE5D0D2EA3D180F8CE
:10033000008083F8128083F811C083F810C09AE718
:100340000B780133DBB20B700B78012BA1D91E4D5A
:100350000123002603700E702B709AE70B7801338F
:10036000DBB20B700B78042B9ED9174B01260025AE
:10037000022406700D701C7096E71E7C0136F6B2E2
:100380001E741E7CF6B29E5D06F0FF0C002E7FF4FC
:1003900072AF83F810C083F811806CE7004800400A
:1003A000F2040020F0040020EC00002000000020F7
:1003B000EC040020909B0008ED040020889B0008BE
:1003C000F3040020EE040020F40400202DE9F04F97
:1003D000002483B03D4E019434780D9F64B9019C94
:1003E000A74203D808E0019DAF4205D9019C013422
:1003F00001943578002DF6D0347804F0FF08F4B974
:100400000AB182F800800BB100221A700023037039
:1004100018462F4F2F4D304C3049314A33703B70C6
:100420002B7023700B8013749374537482F82330F1
:1004300082F8253082F8243003B0BDE8F08FDFF871
:1004400090A00124DFF894908AF80040B9F800C029
:100450001FFA8CFCD0B1BCF1000F33D0B1F1010B0D
:1004600032D00CF1FF3E1FFA8EFE1E490EF1010E36
:10047000451E002401E05C4505D00F5D0134744544
:1004800005F8017FF7D1A4B200210155114C0AB142
:100490002178117010490BB10A781A700C9B33B196
:1004A000B8F1020F0C9A0CBF012300231370002334
:1004B000337060468AF80030094A23700B70A9F83F
:1004C0000030B0E76446DFE75C46DDE7F404002077
:1004D000F2040020EE040020F3040020F0040020C9
:1004E00000000020EC000020F0B50E4ADFF84CE0E0
:1004F0000D4F0E4E0E4D0F4C00238EF800303B700A
:1005000033702B70238013749374537482F82330E8
:1005100082F8253082F824300146BDE8F0400648D4
:1005200002F0EABA00000020F2040020EE040020ED
:10053000F3040020F004002000480040F4040020F0
:10054000F0B5044683B02A48FFF7CEFF0023294ABE
:10055000019313782BB107E0019B013301931378CA
:1005600013B9019B9C42F7D81378224D03F0FF0288
:100570002BB3022A204F25D00123204E3B70338815
:100580001F4A9BB2002410461E49D45404F068FF51
:10059000A8B1007A1C4B1D491D4A3038C0B22C70DE
:1005A0003C700C70147034801C749C745C7483F800
:1005B000234083F8254083F8244003B0F0BDFF209A
:1005C00003B0F0BD104A114E114C0C490023FF201E
:1005D0002B703B70337023700B80137493745374BF
:1005E00082F8233082F8253082F8243003B0F0BD41
:1005F000289A0008F4040020F2040020F0040020EF
:10060000EC000020389A000800000020EE040020D2
:10061000F3040020F0B587B003461B4A0C4601A83E
:10062000142104F02BFE01A8FFF75EFF0023174AF8
:10063000009313782BB107E0009B013300931378EC
:1006400013B9009B9C42F7D81378104903F0FF00C0
:10065000C3B10023022808BF18460D4A0D4F0E4EA5
:100660000E4D0F4C0B7018BF01203B7033702B7078
:10067000238013749374537482F8233082F82530E6
:1006800082F8243007B0F0BD449A0008F40400203A
:1006900000000020F2040020EE040020F3040020FB
:1006A000F00400202DE9F04F514C93B003938146A4
:1006B000E36820688A4615466168A26806AC0FC4E4
:1006C0004C494D48BDF870701D9E4C4C02F014FA18
:1006D0000023049323782BB107E0049B0133049398
:1006E000237813B9049B9E42F7D82378434903F03B
:1006F000FF02002B74D000230B704149DFF81481F6
:100700000B704049DFF810B10B703F49022A0B70A3
:10071000ABF8003088F8103088F8123088F81130C3
:1007200088F8233088F8253088F824305CD03749A1
:100730008DE8A00053464A460AA804F0D1FD0AA954
:100740002D4802F0D9F9CFB1039D2F44A94615F8E1
:10075000013B12AA02EB131313F8301C264802F0D7
:10076000C5F999F8003012AA03F00F031344224888
:1007700013F8301C02F0BAF9BD42E7D124491E48F3
:1007800002F0BAF90023059323782BB107E0059B0B
:1007900001330593237813B9059B9E42F7D823783C
:1007A000164903F0FF02DBB100230B701449022A43
:1007B0000B7014490B7014490B70ABF8003088F8BB
:1007C000103088F8123088F8113088F8233088F813
:1007D000253088F8243007D0042013B0BDE8F08F0E
:1007E000002013B0BDE8F08F012013B0BDE8F08FFA
:1007F000189A0008549A000800480040F4040020A9
:10080000F2040020EE040020F3040020649A0008A3
:10081000A8BE000800000020F0040020F8B5374D05
:10082000AA7C4AB902F0FF0308B1FF22027009B1A5
:1008300000220A801846F8BD0746314E314A3388F7
:100840000C469BB20021D15410462F4904F008FEFB
:1008500017B1437A303B3B7084B300232380C27AC4
:100860000B30303A092A46D8194603EB83035A0065
:1008700092B222800378303A13449BB2238010F85E
:10088000012F0131303A092AC9B22BD80529ECD100
:10089000002213461D4F1E4C1E481F493A702270FD
:1008A00002700A7032802A74AA746A7485F8232050
:1008B00085F8252085F824201846F8BD134B1448E8
:1008C0001449154A1C70047001230C701470348094
:1008D0002C74AC746C7485F8234085F8254085F839
:1008E0002440A7E74B1F18BF0123084F084C0948B5
:1008F00009490022D2E70123F7E700BF00000020EA
:10090000F0040020EC000020809A0008F40400208D
:10091000F2040020EE040020F3040020F0B5254D81
:10092000ADF5057D95F825202AB902F0FF0318469C
:100930000DF5057DF0BD06461F4F20493A884FF062
:10094000000E92B202AC01F802E00846234601AA6A
:100950001B4904F0E9FC01989EB148B32346721E7E
:1009600004EB000E0DF5027C01E0634507D013F89F
:10097000011B734502F8011FA3EB0401F5D100230D
:100980007354104E104C1149114A002380B2337039
:1009900023700B7013703B802B74AB746B7485F8F1
:1009A000233085F8253085F824300DF5057DF0BD20
:1009B0000146E4E700000020F0040020EC000020E5
:1009C0008C9A0008F4040020F2040020EE040020B9
:1009D000F30400202DE9F043AFB017461E4602464F
:1009E0000B4604A86549379D04F07AFC04A8FFF77C
:1009F0007BFD634C0023039323782BB107E0039B1B
:100A000001330393237813B9039B9D42F7D82378CE
:100A1000DFF86C9103F0FF0073B302282FD0DFF8EA
:100A20008081584AB8F8003010469BB256490025DC
:100A3000D55404F015FD0EA90DF10A0301910093A0
:100A400009AA02AB514904F06FFC042830D0504B86
:100A5000504C5149514A89F80050022025700D70C0
:100A60001570A8F800501D749D745D7483F82350B0
:100A700083F8255083F824502FB0BDE8F083454E0D
:100A8000454D464C46490023414A89F80030012033
:100A900033702B7023700B8013749374537482F82B
:100AA000233082F8253082F824302FB0BDE8F0835F
:100AB000369B002B4CD0BDF80A305900002B47D094
:100AC0002A4619E01B014FFA83FE15F87F5CA5F159
:100AD0003003DBB2092B05D9A5F14103052B21D841
:100AE000A5F137035BB2013292B25500EDB243EA91
:100AF0000E038D4203702BDA2EAB1D4415F880ECEB
:100B0000369B9818AEF13003DBB2092BDAD9AEF17F
:100B10004103052B0FD8AEF1370343F303034FEA2C
:100B2000031ED2E7A5F16103052B9ABFA5F1570378
:100B30005BB20023D7E7AEF16103052B9DBFAEF199
:100B4000570343F303034FEA031E4FF0000EBCE7C5
:100B50001FB109A9384604F060FC16B1BDF8083091
:100B600033800C4E0C4D0D4900232370084A33701E
:100B700004202B700B70A8F800308DE7A89A0008AD
:100B8000F4040020EC000020BC9A0008C89A000879
:100B900000000020F2040020EE040020F3040020F6
:100BA000F004002010B504469CB01F48FFF79CFCE1
:100BB00000230DF10B02009201941A4603A8642150
:100BC000FFF704FC9DF80B30FBB9E0B103A817490F
:100BD00004F046FC30B383792C2B20D0FBB1C279D2
:100BE000303B9BB22C2A19B207D032B103EB8303FE
:100BF000303A02EB43039BB219B29A1E1C2A07D863
:100C00005800713800B21CB010BD00201CB010BDDF
:100C10001F2914BF6FF06E006FF03200F3E76FF022
:100C20006E00F0E70248EEE7EC9A0008F89A000838
:100C300016FCFFFF30B50C469DB005461F48FFF778
:100C400053FC0DF10B0200230194009203A81A46F5
:100C50006421FFF7BBFB9DF80B4004B928B91DB315
:100C600000242C7020461DB030BD03A8144904F0A8
:100C7000F7FB0028F6D0FDB1C1790D291AD02A461C
:100C8000073005F1310401E0A24211D002F8011B46
:100C900010F8011F531B0D29DBB2F5D101242046AA
:100CA0000022EA541DB030BD2C4620461DB030BD98
:100CB0003123F3E72346F1E70124D3E7009B000843
:100CC0000C9B000830B50C469DB005461D48FFF74B
:100CD0000BFC0DF10B0200230194009203A81A46AD
:100CE0006421FFF773FB9DF80B40ECB9E0B103A85A
:100CF000154904F0B5FB0DB3817A0D2920D000F120
:100D00000A042B4605F1310001E0834214D003F8B8
:100D1000011B14F8011F5A1B0D2992B2F5D10023B3
:100D20000120AB541DB030BD1DB1002028701DB096
:100D300030BD28461DB030BD3122F0E70120F6E776
:100D40002246ECE7149B0008209B000830B503788E
:100D5000ADF5057D73B10446002302E0B3F5E17FF4
:100D600025D014F8012F01339BB2002AF6D1B3F538
:100D7000E17F18D00C46104A4FF40071009004A88F
:100D800004F07CFA04A8FFF7AFFB0DF10F05002378
:100D90001A460194009519461846FFF717FB2A7862
:100DA000B2FA82F2520910460DF5057D30BD0022DF
:100DB00010460DF5057D30BD2C9B000810B504468E
:100DC0009CB01248FFF790FB0DF10B02002300923C
:100DD0006421019403A81A46FFF7F8FA03A80C4906
:100DE00004F03EFB30B19DF80B00B0FA80F04009F2
:100DF0001CB010BD03A8074904F032FB0028F2D153
:100E00009DF80B000130C0B2EFE700BF449B000823
:100E1000509B00085C9B000810B50C4684B098B944
:100E20000B48FFF761FB00230DF10F028DE8140062
:100E300019461A461846FFF7C9FA9DF80F00B0FA8E
:100E400080F0400904B010BD0248FFF74DFBEAE70F
:100E5000789B0008689B0008094A0A4B4FF48011F0
:100E600051611A68084942F480721A60CA6822F413
:100E70008062CA601A6822F480721A60704700BFEC
:100E8000000401400070004000280040F0B42A4BEC
:100E900008212A4AC3F8801013682949294C43F4D1
:100EA0008073CA2753264FF4801513604F624E6239
:100EB0006561CB6823F48063CB608B6823F488433F
:100EC0008B60CB685C0706D41F4B01E0013B02D06E
:100ED000CA685207FAD5B0F57A5F28BF4FF47A5046
:100EE0001A4A0303A2FB0323154A9B095361936823
:100EF000124823F0070393609368002543F0010331
:100F0000936091680F4B41F48841916001680A4CED
:100F100021F48071016055621A680D4942F4801213
:100F20001A609A68082542F4801201209A602560B0
:100F30000870F0BC704700BF00E100E000700040A6
:100F4000002800400004014080841E00D34D621040
:100F5000F50400201C4B1B78002B34D01B491C4B84
:100F60000A6942F004020A611A6842F005021A6036
:100F70001A6822F002021A6030BF16490B6843F06B
:100F800001030B600B68980706D4134B01E0013B8B
:100F900002D00A689207FAD50E498B6823F0030342
:100FA0008B608B6843F001038B608B6803F0030355
:100FB000012B08D1084A01E0013A04D08B6803F004
:100FC0000303012BF8D07047F504002000ED00E08A
:100FD000007000400038024080841E0070B5164644
:100FE00042B10C468D1814F8011B034801F07EFD38
:100FF000AC42F8D1304670BD0038014070B516469D
:1010000042B10C468D18044801F086FD04F8010B2E
:10101000AC42F8D1304670BD00380140194B1A8AF5
:10102000900707D518490A6801320A605A6B02F521
:101030007A725A63134B1B8A590714D5134B1B8AB8
:101040005A0606D4124B1B781BB9124A1368013397
:1010500013600E4B1B8A5B0609D40A4A936B03F597
:10106000434350339363074B00221A827047084B67
:101070001A78002AF1D1074A1268002AEDD001221D
:101080001A70EAE700080140F80400200008024056
:10109000FC04002008050020014B1868704700BFC1
:1010A000F8040020034A116813685B1A8342FBD3DB
:1010B000704700BFF8040020034B202208B91A83B0
:1010C00070475A83704700BF000002400A4A4FF43D
:1010D000807082B000230949108301E0019B013335
:1010E00001930A68019BB3EB520FF7D3024B4FF405
:1010F00080725A8302B07047000802400005002049
:1011000010B4164B164C174983B00022DC60D9602E
:10111000ADF80620BDF806309BB23E2B18D8BDF8BE
:101120000630BDF806209BB29B0092B203F100632B
:1011300050F8222003F500231A60BDF80630013371
:101140009BB2ADF80630BDF806309BB23E2BE6D917
:10115000024B01225A6003B010BC7047003C0240B1
:10116000EFCDAB8905040302FC22014903F092BADA
:101170000000080810B40478ECB1F1B10022134665
:101180000AE09A4218BF8454013292B201339BB2F2
:10119000C45C64B199420AD07F2CF2D1541E002A5B
:1011A000F4D001339BB2A2B2C45C002CF2D1002374
:1011B000835410BC70472246F9E70A46F7E700BFA0
:1011C000F0B5884A83B01368002143F0010313602F
:1011D000019113689C070DD4019B83498B4203D96D
:1011E00008E0019B8B4205D8019B013301931368F2
:1011F0009807F6D57B4C7D4DA268002342F0010292
:10120000A260E1697A4A41F00701E161606A4FF446
:10121000E13140F418106062266A764846F4804650
:1012200046F00C0626622E68734F46F4201646F4EC
:1012300094662E602E6A46F4EE462E626E6A46F47E
:10124000EE666E6201F06EFC0123694A4FF416519E
:101250006A4801F067FC6A4B40225A603B680021F3
:10126000586803F059FF3B680021986803F054FF69
:10127000644803F005FF636A43F080536362636B65
:1012800013F400753DD1604803F0FAFE5F49604AEF
:101290000B68CA2643F4807353200B605662506279
:1012A000636B43F4807363630195636B9A050DD49C
:1012B000019B4D4A934203D908E0019B934205D814
:1012C000019B01330193636B9B05F6D5019A464B55
:1012D0009A4200F282804F4C0023237041494C48CF
:1012E0004B6B4A4A43F4820300254B634562136803
:1012F00023F480731360237863B1474803F0C0FE82
:1013000008E0444C00234548237003F0B9FE2378DD
:10131000002BF2D1424B4FF480425A834CF25037AB
:101320001A68334942F0805242F420221A609A88A7
:101330003C4892B242F440729A805A6A304C42F071
:1013400044025A6200F08AFB374803F099FE37499D
:101350004FF440734B830A68012342F425020A606C
:10136000486A234A40F4EE4048624FF4E131304885
:1013700001F0D8FB802363602E4803F081FE2E4BE2
:101380004FF47A725A6301214FF000720F20062643
:1013900081259F6318859E8128481D80998222603F
:1013A00003F06EFE264803F06BFE264A0023264912
:1013B000136008680B681B1AB3F57A7F07D21368AD
:1013C000013313600B681B1AB3F57A7FF7D31168EA
:1013D0001E4803F0E3FD03B0F0BD0E4C0123237063
:1013E0007CE700BF003802407F841E0000000240FE
:1013F0000024F40000380140880000200044004030
:1014000000E100E0949B0008C09B000800700040D1
:101410000028004004050020F09B0008D49B000831
:1014200000040240005400400C9C000800080240E8
:1014300000480040209C000800080140349C00083F
:101440004C9C000800050020F8040020709C000857
:1014500000B5002383B0014600935122024800F0FA
:1014600059FA03B05DF804FB0054004000B585B0A4
:101470000DF10F0301460093AA220123064800F054
:10148000B5F818B17F2005B05DF804FB9DF90F0099
:1014900005B05DF804FB00BF00540040F0B4354BCC
:1014A00082B01A88002192B201929A883248D2B250
:1014B0008DF8032019800378002B36D140F2FE36D8
:1014C00003F0FF02019B2D4C13F0080F2C4B2D4D08
:1014D0001CBF1A8022701A889DF8031092B2C9B2FC
:1014E000A9541A88264992B2B24203D80A88013216
:1014F00092B20A802178244E9DF80320715C1F4E21
:101500009142224A14D000212170117801F0FF0687
:1015100001B91E8012781D493AB11B88184A9BB246
:10152000013BEB5C174D0A2B12D002B0F0BC7047A8
:10153000117801F0FF070029E5D131780131C9B2F6
:10154000317031780529E5D9012137701170E1E753
:1015500013889BB2023BEB5C0D2BE6D1138800266F
:101560009BB2023B0127EE540E7016802670077066
:10157000DBE700BF00440040100900200C090020F8
:101580000E0900200C050020889C00080D09002091
:1015900070B4144E3378EBB1B0B1134A147804F040
:1015A000FF037CB10139002919DD0024234601E045
:1015B0008B4207DA155D5C1CC554A3B2D55C1C4692
:1015C000002DF5D10022C2540023012233701046B1
:1015D00070BC704703F0FF02104670BC70470023D8
:1015E000F0E700BF100900200C0500200BB9032014
:1015F0007047F0B58FB0149C002C4BD004880025A8
:10160000A4B244F4807404800295848AE7070DD460
:10161000029C944DAC4203D908E0029CAC4205D830
:10162000029C01340294848AE607F6D5029C8D4D13
:10163000AC421BD8490000248EB206820394848AEF
:10164000A40706D508E0039C01340394848AA70705
:1016500002D4039CAC42F6D9039D824CA54202D829
:10166000058BEF0718D402200FB0F0BD01200FB09A
:10167000F0BD0B96858A6D0606D508E00B9D0135F9
:101680000B95858A6D0602D40B9D8D42F6D90B9D74
:101690008D426AD90320EAE792B2002502820495BE
:1016A000828A160606D508E0049A01320492828ADC
:1016B000150602D4049AA242F6D9049A694CA242B1
:1016C000E8D80288002592B242F480720280059523
:1016D000828AD60709D405E0059A01320592828AEA
:1016E000D20702D4059AA242F6D9059C5D4A9442DB
:1016F000BCD8012B41F001013AD0022B00F08880C8
:10170000002401820A94818A890706D508E00A9993
:1017100001310A91818A8E0702D40A999142F6D941
:101720000A9A50498A42B5D8028BD207B2D50588A9
:101730000024ADB245F48065DF1EA3F1020C03F175
:10174000FF3E2646149A05809BB205E00134A5B2FF
:10175000AB4202F1010246D9A7428ADC00F0BD800B
:10176000A44500F0A080A645F0D1058A1570EDE7EC
:10177000002301820693838A9B0706D508E0069B17
:1017800001330693838A9F0702D4069B9342F6D9BE
:10179000069B344A93423FF67DAF038823F480636F
:1017A0001B041B0C0380038BDD077FF573AF0388DD
:1017B00000219BB243F4007303800791838A5E0685
:1017C00006D508E0079B01330793838A5D0602D4A0
:1017D000079B9342F6D9079A224B9A423FF65AAF9B
:1017E000038A149A137000230193038BDA070DD533
:1017F000019B1C4A934203D908E0019B934205D800
:10180000019B01330193038BDB07F6D400202EE705
:10181000002301820893838A9C0706D508E0089B71
:1018200001330893838A990702D4089B9342F6D91F
:10183000089B0C4A93423FF62DAF038823F4806344
:101840001B041B0C038003889BB243F400630380DA
:10185000038BDC077FF51EAF00230993838A5B07A8
:101860000BD407E07F841E00099B01330993838A10
:101870005F0702D4099B9342F6D9099A244B9A42F6
:101880003FF608AF0388149A9BB243F400730380B9
:10189000038A1370038A5370038823F400631B04C4
:1018A0001B0C03809FE70D96858A6D0706D508E01F
:1018B0000D9D01350D95858A6D0702D40D9D8D42D4
:1018C000F6D90D9D8D423FF6E5AE0588ADB245F4E3
:1018D00000750580058A157045E70C96858A6D07A9
:1018E00006D508E00C9D01350C95858A6D0702D45C
:1018F0000C9D8D42F6D90C9D8D423FF6CBAE0588EE
:1019000025F480652D042D0C0580058A157027E7C8
:101910007F841E0030B404880025A4B244F480748F
:1019200086B004800195848AE5070DD4019C4A4D58
:10193000AC4203D908E0019CAC4205D8019C0134BB
:101940000194848AE407F6D5019D434CA5427CD8D6
:101950004900002501820295818A890706D508E0A1
:10196000029901310291818A8D0702D40299A14224
:10197000F6D9029C38498C4203D9022006B030BC0B
:101980007047048BE407F8D592B2002402820394D6
:10199000828A140606D508E0039A01320392828AED
:1019A000120602D4039A8A42F6D903992A4A91422E
:1019B0004FD80899E1B1DBB15C1E089BA4B21C446E
:1019C000591E002511F8013F03820495838A1B06E6
:1019D00006D508E0049B01330493838A1B0602D4D6
:1019E000049B9342F6D9049B934232D8A142E9D199
:1019F00000230593838A5A070DD4059B164A934208
:101A000003D908E0059B934205D8059B0133059354
:101A1000838A5B07F6D5059B0F4A934219D8038842
:101A200000219BB243F4007303800091038BDB071A
:101A300009D505E0009B01330093038BDD0702D538
:101A4000009B9342F6D9002098E7012006B030BCF5
:101A50007047042092E700BF7F841E0010B4084C3A
:101A6000084A8B09A4FB0141A2FB0323890C4C1CEF
:101A70009B090122818083830484028010BC70470B
:101A800083DE1B43632D3E0500B585B00DF10F03CA
:101A9000014600930F2201230348FFF7A7FD9DF89D
:101AA0000F0005B05DF804FB00540040F0B515468A
:101AB0001C46074685B009010DF1100E0F4E41F08E
:101AC00007010EF8011D2D01E400CDF800E00146EC
:101AD00001233046202205F0300504F00804FFF70A
:101AE00019FF2C4304AB03F8024D009339463046EE
:101AF00001232322FFF70EFF05B0F0BD0054004084
:101B0000F0B585B002AF0E46154601461C4600975B
:101B10000623A8221848FFF769FD9DF809309DF8B3
:101B200008209B0043EA9213990554BF1A4643F4D8
:101B30007C429DF80B309DF80A109B0043EA9113FC
:101B4000524232809A059DF80D209DF80C104FEA04
:101B5000820242EA911248BF43F47C435B4291B255
:101B60002B808B054ABF6FEA815313466FEA93536C
:101B7000238005B0F0BD00BF00540040BFF34F8F7D
:101B80000449054BCA6802F4E0621343CB60BFF31B
:101B90004F8FFEE700ED00E00400FA0580B5144821
:101BA00003F06EFA40F22151124A1348D36980249F
:101BB00043F08073114FD361C0F88440BB8A02F5B3
:101BC00020520F4C0F4D9BB2303243F040030120A6
:101BD0000D4EBB829460D56050601160B38A9BB299
:101BE00043F04003B38215635463D0629162FEE711
:101BF000909C00080038024000E100E000480040EE
:101C000004480040043801400038014038B500F174
:101C1000300529460446114803F0C0F9104803F086
:101C20002FFA1049104803F05FFA50210D48FFF7D2
:101C3000A1FA0C4803F0F9FB7F2809D8421C094996
:101C4000284602F027FD2046BDE83840FFF758BA85
:101C50000648BDE8384003F013BA00BFD09D000825
:101C6000F49D0008900A0020149E0008189E0008A9
:101C700038B50446054634F8F41F074803F08EF9DA
:101C8000064803F0FDF92146054803F02DFA2846E1
:101C9000BDE83840FFF734BA2C9E0008509E00087B
:101CA00034AC000810B50446124803F0E9F904F119
:101CB000F001114803F018FAD4F8F030B3F57A7F48
:101CC0000ED3B3F57A5F06D94FF47A53C4F8F030E7
:101CD0000A4803F0D5F92046BDE81040FFF710BAD6
:101CE0004FF47A73C4F8F030054803F0C9F9D4F81A
:101CF000F030E6E7689E0008B89E0008F49E0008F1
:101D0000BC9E000838B505460B4C0C4803F0B8F9EA
:101D100021460B4803F0E8F920465021FFF72AFA44
:101D200023782846302B0CBF0023012385F8F83098
:101D3000BDE83840FFF7E4B9900A00202C9F000866
:101D4000149E000838B505460E4C0F4803F098F96C
:101D500021460E4803F0C8F90D4803F091F92046DA
:101D60005021FFF707FA23782846312B0CBF0F23A9
:101D7000002385F8F730FFF7C3F9BDE83840054880
:101D800003F07EB9900A0020789F0008149E000896
:101D900004C60008BC9F00082DE9F04100F1B00521
:101DA000294604462F4803F0F9F82F4803F068F954
:101DB0002E492F4803F098F92E4803F061F950217D
:101DC0002A48FFF7D7F9294803F02FFB3F282BD8E3
:101DD00029490646254803F016FB28498046234832
:101DE00003F011FB0746B8F1000F10D068BB0023C9
:101DF00084F8F630224803F043F9294694F8F600B7
:101E000001F050F82046BDE8F041FFF779B994F8A9
:101E1000B03073B91B4803F033F9002FE7D02046E8
:101E2000BDE8F041FFF76CB91748BDE8F04103F099
:101E300027B9164803F024F9012084F8F600294652
:101E400001F030F8002FEAD1D1E7721C284607498B
:101E500002F020FC0E4803F013F92046BDE8F041E3
:101E6000FFF74EB9F09F000804A00008900A002078
:101E7000149E000804C6000864A000086CA00008B6
:101E8000C0A0000874A00008189E0008A8A00008C0
:101E9000DCA0000830B504461C4B91B0196803A8BB
:101EA000FEF7C8FE94F8F83093B9194D194803F0BD
:101EB000E7F82946184803F017F928465021FFF79C
:101EC00059F92B7803F0DF03592B0FD011B030BD37
:101ED00094F8F610B4F8F42020460193009103AB77
:101EE00004F1300101F090F911B030BD94F8F80020
:101EF00094F8F610B4F8F42003AB0190009120465A
:101F000004F1300101F080F911B030BD000500206E
:101F1000900A0020F0A00008149E000830B5482068
:101F20009DB0FFF7A3FA0DF10E0303AA0DF10A010C
:101F300005461820FFF7E4FD1820FFF7A5FD04462D
:101F4000BDF90E00BDF90C30BDF90A2029460090FC
:101F50001B4803F023F8332C0CBF1A481A4803F02F
:101F60008FF81A4803F08CF800210846FFF710FBA1
:101F70004FF49660FFF796F808A85021FFF708FB8A
:101F8000C8B108A9124803F009F808A806AA04A9CC
:101F900001F096F850B1DDE90601DDE90423CDE951
:101FA00000010C4802F0FAFF1DB030BD0A4803F0F2
:101FB00067F81DB030BD094803F062F81DB030BDB0
:101FC00094A10008E8A1000818A2000844A2000893
:101FD00098A2000818A30008ACA200085CA20008A0
:101FE00070B50646C4B04FF47A70FFF75BF833461D
:101FF000154AFF2104A803F041F904A8FEF774FA7A
:10200000124B0DF10F051A68002302EB42020192F8
:1020100004A800951A46FF21FEF7D8F9044630B906
:1020200031460B4802F0BAFF204644B070BD002391
:1020300004A905480B5502F0B1FF287810F1FF30D4
:1020400018BF012044B070BDB0C4000800050020D6
:102050004CA3000810B5044682B02146234802F084
:102060009DFF234802F09AFF01A9224803F03CF8A3
:10207000214803F005F8019B23F00203042B04D050
:102080001E4802F0FDFF02B010BD30211C4802F0D6
:1020900085FF1C491C4803F027F850211948FFF719
:1020A00069F8184803F0C1F930281BD8421C1549BB
:1020B000204602F0EFFA2046FFF722F8134802F01C
:1020C000DFFF019B042B0CBF11481248FFF788FF6C
:1020D000B0FA80F040090028D5D00F4802F0D0FFB8
:1020E00002B010BD0D4802F0CBFFE7E770A3000877
:1020F00098A3000834AC000804C60008D8A3000860
:10210000F4A30008900A0020149E00081CA40008F4
:1021100050A4000860A4000870A40008189E0008DD
:1021200010B51D4882B002F0ABFF1C4802F036FF2C
:102130001B491C4802F0D8FF1B4802F0A1FF5021A8
:102140001748FFF717F81949154803F05CF91849C3
:1021500000B3134803F057F90446B8B9154802F024
:102160008FFFFEF7B3FF144802F08AFF134B009471
:102170001A68214602EB820201922346224620463B
:10218000FEF724F90E4802F07BFFCEE70448FFF784
:1021900027FFCAE702B010BDC8A40008E8A50008E0
:1021A000900A0020149E000804C60008ECA5000850
:1021B000F4A50008FCA500081CA6000800050020E6
:1021C00038A6000810B51E4C8EB01E4802F058FF0D
:1021D000216801A8FEF72EFD01A91B4802F0DEFED2
:1021E0001A48FFF7FDFE216801A8FEF76BFD01A963
:1021F000174802F0D3FE1748FFF7F2FE164802F028
:102200003FFF1648FFF7ECFE154802F039FF15486E
:10221000FFF7E6FE144802F033FF1448FFF7E0FE34
:102220001349144802F0BAFE134B144A14491B68B0
:1022300012680968134802F0B1FE0EB010BD00BF6D
:102240000005002048A6000864A600087CA6000837
:1022500084A600089CA60008A4A60008B0A6000852
:10226000B8A60008CCA60008D4A60008F4A600086A
:10227000FCA6000814A70008CC00F81FD000F81F27
:10228000D400F81F34A70008F0B590F8F63083B0FA
:10229000002B49D0294802F081FE01A9284802F00C
:1022A00023FF284802F0ECFE019A4FF47A7303FBF7
:1022B00002F30193FEF7F0FE07462348FFF790FE76
:1022C000224802F0DDFE224E01992248A6FB013190
:1022D000890902F063FE3C46019BE41B9C421E48B8
:1022E00027D2FEF71BFB0546FEF7D6FEA6FB002312
:1022F0004FF47A729B0902FB1303044643B1002D8D
:10230000EAD02946144A154802F048FE03B0F0BD51
:10231000019910483944091BA6FB0131890902F0D3
:102320003DFE002DD8D0ECE70D4802F0A9FE03B029
:10233000F0BD0C4802F0A4FE03B0F0BD90A7000869
:1023400034AC000804C60008B4A70008C4A70008FD
:10235000D34D6210E8A70008E00C002034A8000864
:1023600058A7000800A800080148FFF739BE00BFC1
:1023700050A80008F0B5FC21064683B0BF4802F023
:102380000DFE41F61B2CBE4B4FF47A7E07CB1B781B
:10239000A52730603373AA200023552501247160DE
:1023A000B260A6F8F4C0C6F8F0E086F8303086F8DF
:1023B000B03086F8F63086F8F73086F8F97086F88F
:1023C000FB0086F8FA5086F8F840AE4802F058FE56
:1023D0003046FEF795FEAC4802F052FEAB4802F0E4
:1023E0004FFEAB4F2146AB4802F0D8FDAA48FEF79E
:1023F0007BF83A680023019200931A461946184662
:10240000FDF7E4FF0546002800F00F81A34802F025
:1024100037FEA348FFF7E4FD0446A24802F030FE71
:10242000A148FFF7DDFDB0FA80F04009002C14BF91
:102430000446441C41F28830FEF734FE21469B4896
:1024400002F0ACFD01259A48FFF7CAFD002800F014
:10245000E2809848FFF7C4FD05469748FFF7C0FDA6
:10246000B0FA80F04009002D14BF0346431C934886
:102470001C44FFF7B5FDA4B2002808BF0134894809
:1024800002F0FEFD8848FFF7ABFDA4B2002808BFAC
:10249000013441F28830A4B2FEF704FE214683489D
:1024A00002F07CFD8448FFF79BFD05468448FFF75A
:1024B00097FDB0FA80F383485B09002D14BF1D46D9
:1024C0005D1CFFF78DFD002808BF0135754802F03F
:1024D000D7FD7548FFF784FDADB2002814BF28462C
:1024E000681C0444A4B241F28830FEF7DBFD2146AB
:1024F0006E4802F053FD7448FFF772FD05466948C7
:1025000002F0BEFD6848FFF76BFDB0FA80F04009AD
:10251000002D08BF01300444A4B241F28830FEF718
:10252000C1FD2146614802F039FD6848FFF758FDBA
:1025300005465C4802F0A4FD5B48FFF751FDB0FA88
:1025400080F04009002D08BF01300444A4B241F2DC
:102550008830FEF7A7FD2146544802F01FFD5C4875
:10256000FFF73EFD05465B48FFF73AFDB0FA80F302
:102570004C485B09002D14BF1D465D1C02F080FD18
:102580004948FFF72DFD002814BF2846681C044465
:10259000A4B241F28830FEF785FD2146434802F09F
:1025A000FDFC4D48FFF71CFD002814BF2046601CB1
:1025B00084B221463D4802F0F1FC1820FFF764FA8E
:1025C000332856D0454802F05BFD0134A4B244489C
:1025D00002F056FD4820FEF73BFF424802F050FD56
:1025E0004820FEF743FFA0F10F03DBB2142B014696
:1025F0002BD93D4802F0D2FC3046FFF7E3FD3B48C3
:1026000002F03EFD3A4802F03BFD384803B0BDE819
:10261000F04002F035BD4FF4FA60FEF743FD052DA2
:102620003FF417AF0135EDB20DE70134314802F048
:1026300027FD042C7FF4D6AE2F4802F0AFFC2846CD
:1026400006F1B00100F02EFCE0E62C4802F0A6FCFA
:102650003046FFF7B7FD254802F012FD002CD1D11E
:10266000274802F00DFD214803B0BDE8F04002F01C
:1026700007BD244802F004FDA9E700BF5CA80008DC
:1026800090A80008A0A80008B0A80008D4A80008D6
:1026900000050020F8A8000808A9000860A90008A3
:1026A0007CA900088CA9000850A80008A4A900086B
:1026B000B8A90008CCA90008E0A90008ECA9000806
:1026C000F8A9000810AA000828AA000844AA0008CF
:1026D00050AA000864AA00087CAA00088CAA000876
:1026E000C4AA000800AB000818AB000884AB0008BF
:1026F00008AC000810A900081CA90008D8AB000805
:1027000018AC0008B0AA000820F02003413B192BA8
:1027100005D9303809288CBF0020012070470120DE
:10272000704700BF30B50D4685B0FDF7DDFE094BA3
:102730000DF10F041A68002302EB420201922846B1
:1027400000941A464FF40071FDF740FE9DF80F000B
:1027500005B030BD0005002000B5434989B04348AD
:10276000FFF7E0FF002848D103AA41493E4802F0A4
:10277000DBFD03993F484900713902F00FFC3A49EB
:102780003D48FFF7CFFF002840D105AA3B4904ABE5
:10279000354802F0C9FD049A05998D3A384802F08F
:1027A000FDFB3848FDF7A0FE374B0DF10B011A6811
:1027B000002302EB42028DE806002B484FF4007123
:1027C0001A46FDF703FE00213048FFF7ABFF08B3C0
:1027D0002F4802F055FC00212E48FFF7A3FF0028E8
:1027E0002CD121492C48FFF79DFF002830D02B48E1
:1027F00002F046FC09B05DF804FB294802F040FCF9
:1028000019491D48FFF78EFF0028BED0254802F069
:1028100037FCC6E714491B48FFF784FFA0B906AA96
:102820002149114802F080FD0699204802F0B6FBCC
:1028300000211848FFF776FF0028D2D01C4802F08C
:102840001FFC09B05DF804FB1A4802F019FCC2E74E
:1028500007AA1949044802F067FD0799174802F0D2
:102860009DFB09B05DF804FBE00A0020EC9A00082B
:1028700028AC000838AC000888AC000894AC00080C
:10288000B8AC0008449B00080005002014AD000807
:1028900024AD00089CAD0008D0AD000800AE0008D3
:1028A0006CAC0008F8AC00084CAD000870AD000836
:1028B000ACAD000880AD0008DCAD0008F0AD00084C
:1028C0002DE9F0410746E6B0FEF7E6FB324D06463D
:1028D000A5FB0738FF234FEA981804468DF80D3002
:1028E00003E09DF80D30FF2B20D1A41BBC421DD26C
:1028F0000DF10E010DF10D00FDF790FFFEF7CCFB81
:10290000A5FB00234FF47A729B0902FB13030446D4
:10291000002BE6D1811BA5FB01312048A8EB9111CA
:1029200002F03CFB9DF80D30FF2BDED01C4802F07E
:10293000A7FB9DF80D00FF2826D01A4B07AC1A689C
:102940000023BDF80E10019200941A46FEF742F8DB
:10295000204605A900F028F99DF818209DF81710C9
:10296000114802F01BFBBDF80E3004AA19460025E1
:102970002046E55400F076F904990C4802F00EFB6D
:10298000012066B0BDE8F081094802F079FB002023
:1029900066B0BDE8F08100BFD34D62101CAE0008E8
:1029A00004C600080005002068AE000884AE0008D8
:1029B00028AE00082DE9F04190F8F65086B02DB110
:1029C0003A4802F05DFB06B0BDE8F081DFF81881FF
:1029D0000646374802F054FB4146364802F084FB75
:1029E000354802F04DFB354802F04AFB05A9344852
:1029F00002F07AFB304802F043FB059F4FF47A73F4
:102A000003FB07F72F4C0121CDF8008002950195BB
:102A1000224608464FF4BD73059700F079F9074642
:102A200058B3294802F02CFB7D1EADB22544013C71
:102A300014F8011F254802F0B1FAAC42F8D1244C39
:102A40001D4802F01DFB20684000FDF779FDFF28BE
:102A5000054618D02368B6F8F42003EB430301932E
:102A600000973146174BFDF71DFE04280FD019487B
:102A700002F006FB06B0BDE8F081174802F000FB4B
:102A800006B0BDE8F081154802F0FAFA9BE7144859
:102A900002F0F6FA134802F0F3FA0598FFF710FF78
:102AA00021682846FDF7B6FD8DE700BF90AE00080F
:102AB000F4AE0008149E000804C6000828AF000801
:102AC000B89E000814090020D0AF0008E8AF000845
:102AD0000005002010B0000870AF0008F0AF00083B
:102AE00038B0000868B00008E00E0020818003883C
:102AF0005B06FCD5704700BF0B785BB101F1FF02AC
:102B00009BB2838003885B06FCD511F8013F0BB1B3
:102B10009142F5D1704700BF03889B06FCD58088A1
:102B2000C0B270472DE9F843054610460C461E46D4
:102B300001F0F6FC01F068F980462046894601F074
:102B400041F90022174B01F0B3F902460B4640460B
:102B5000494601F0D7FA01F0DDFB074601F038FDE8
:102B6000044601F0DDFC0146384601F027FC01F087
:102B70004BF900220B4B01F09BF901F0ABFB40EA53
:102B8000041080B2288136B942F20C03AB810023D5
:102B90002B80BDE8F88342F22C03AB8100232B800D
:102BA000BDE8F8830000304003789B090B70037880
:102BB000C3F301134B70037803F00F038B7043785A
:102BC0005B09CB70437803F01F030B718278C378E5
:102BD00043EA0223CB80704770B4027814090E2CAC
:102BE00002F00F032FD00F2C26D00D2C12D0A4B240
:102BF00001250E2B15D00F2B1ED00D2B2CD09BB2E8
:102C00000E7842193444E81880B20C704A604B7058
:102C100070BC704744780E2B4FF0020504F10D0490
:102C2000E9D14319425D5B78023543EA022303F29E
:102C30000D139BB2ADB2E3E7FF2A4FF6FF7070BCF5
:102C400008BF0120704746788478032544EA0624AB
:102C500004F20D14A4B2CCE7435D01350D33ADB2DF
:102C6000CEE700BF2DE9F04F037883B09C09012C1B
:102C700003D0002003B0BDE8F08F03F00F03082B52
:102C800003D9022003B0BDE8F08F1C1D8C4215460D
:102C900088460646477826D2035D2044FF2B22D083
:102CA00000230DF1080A99464FF6FF7B0AF8083D0C
:102CB00001E0A04517D95146FFF78EFF0444A4B2A6
:102CC00009F1010958451FFA89F906EB04001CD0E7
:102CD000335DFF2B04D0B9F10A0FEAD10420C9E714
:102CE000B9F10A0FFAD035B17B09022B05D00023C8
:102CF0002B600520BEE70520BCE707F01F00052874
:102D0000F5D1013433192B60B4E70320B2E700BFDB
:102D10002DE9F04F604D83B02C784FF0510E82F8C2
:102D200000E000F01F070026DDF830E0D4701471D9
:102D3000577096709EF800C00134BCF12F0F2C70B4
:102D4000BDF8388003D0002003B0BDE8F08F002923
:102D50005FD10F460525514C16467146204680220C
:102D6000994602F06AFB207800286AD000239E462C
:102D70004B49013402E014F8010B68B12F28FAD155
:102D8000092BE0D841F8234004F801EC14F8010BBA
:102D90005A1C93B20028F1D1002B52D04D45D2D20B
:102DA000044603F1FF3A1FFA8AF3DFF8F4B0019307
:102DB000A3B2002B69D00027BA465BF8240002F0CA
:102DC00034FB82B20C2A4FEA840127D84AEA000079
:102DD0006B1C70559DB2A2B15BF80130681C19786C
:102DE00080B281457155AED91544ADB205E013F8F6
:102DF000011F315490B28145A5D9854200F10102ED
:102E0000F5D1019BA3421CD0A94504F10104CFD800
:102E100099E701280FD0374605259CE705F1010EFB
:102E20004AF00D0373550D381FFA8EFE023506F871
:102E30000E00ADB2D0E761219671517107250627CA
:102E400089E70D9BFBB1B8F1000F1CD0FF23735530
:102E50000D9B1A786B1C0235ADB29BB2A945F2549A
:102E60007FF671AF0D9B08F1FF3292B21A4406E073
:102E700013F8010F70558DB2A9457FF664AF9A42E1
:102E800005F10101F4D128465EE7C7F10B07FFB257
:102E90003B014FFA83FA90E788100020E00F0020F2
:102EA000601000202DE9F0410646ADF5007D6C482C
:102EB0000F4602F0E5F8FEF709F96A4802F0E0F87B
:102EC000FEF7EAF8684D00232A68804602EB82028A
:102ED000019200931A4619461846FDF777FA044600
:102EE000FEF7DAF81CBB614802F0CAF8A0460124DC
:102EF00021465F4802F052F85E48FDF7F5FA2A686D
:102F0000002352080192CDF800801A46194618464F
:102F1000FDF75CFA013498BB042CE9D1564802F065
:102F2000AFF8012420460DF5007DBDE8F081C8EB27
:102F30000001524802F032F85148FDF7D5FA2B68EB
:102F400003A803EB4302019200230DF10B02009250
:102F50004FF4FA711A46FDF739FA9DF80B4004BB9D
:102F6000012E11D0474903A802F07AFA10B346485F
:102F700002F086F8012420460DF5007DBDE8F081C1
:102F8000424802F07DF8D7E787B13B7873B14049FA
:102F900003A802F065FA002857D03E4802F070F806
:102FA000E8E73D4802F06CF80024BBE73B4802F03C
:102FB00067F8DFE73A4F3B4803AE02F061F80FCF06
:102FC0000FC697E8030086E8030003A8FDF78CFA14
:102FD0002A68002302EB420201920DF10B020092DB
:102FE00003A81A464FF4FA71FDF7F0F99DF80B505B
:102FF0001D4E0DBB2C4802F043F82C48FDF774FA27
:1030000033680DF10B028DE80C0029462B462A4649
:103010002846FDF7DBF99DF80B308BB932680DF1CE
:103020000B0102EB82020091019219461A461846E2
:10303000FDF7CCF9012475E71D4802F021F871E78E
:103040001C482C4602F01CF86CE71B4802F018F8EC
:103050003B461A4A4FF4FA7103A802F00FF9B4E79D
:1030600080BC000898BC000800050020B4BC000823
:10307000F8A8000808A9000834BF0008FCBC000834
:1030800094BF00082CBE0008ACBE000870BF00084A
:10309000A0BD000818BE00081CBD000860BD0008E7
:1030A00094BE000844BE0008DCBE000808BF00084B
:1030B000BCBE000818BF0008B4BD0008FCBD000875
:1030C0002DE9704F8B4690B04B49924603F00CF8B7
:1030D000B0B14A4902F097F990B9044606AE4649A4
:1030E000002003F001F80134E4B2054646F8040F6D
:1030F0000028F4D1062C03D90C9B1B78412B04D05B
:103100000023184610B0BDE8708F079C204602F0DF
:103110008CF90328F4D9099E304602F086F9032879
:10312000EED9227804A88DF8102062788DF812501C
:103130008DF8112001F06CFACDE90001A01C01F01E
:1031400067FA327880468DF81020727804A88DF8DE
:103150001120B27889468DF813508DF8122001F0B5
:1031600057FACDE90201F01C01F052FA04460D466F
:10317000BBF1000F12D0089B40461B7849464E2BEE
:103180004FF000021E4B21D000F0BCFFDDE9002310
:1031900000F0DCFC01F100418BE80300BAF1000F04
:1031A00027D00A9B20461B782946452B4FF000026A
:1031B000134B14D000F0A6FFDDE9022300F0C6FC9B
:1031C00001F100418AE8030001239AE700F09AFF29
:1031D000DDE9002300F0BAFCCBE90001DEE700F0F6
:1031E00091FFDDE9022300F0B1FC0123CAE90001EF
:1031F00087E7012385E700BFA4BF0008A8BF000838
:1032000000004E40000000002DE9F04FB64DADB07B
:1032100018AC0D9182469346984695E80F0007C476
:103220009DF8D860432200210DF16D0023709DF8B8
:10323000DC4001F03AFAA4A1D1E90001A4A3D3E94A
:103240000023CDE91201CDE91423002E60D0A74858
:1032500001F016FFA648FEF7C3FE502118A8FEF79E
:1032600097F90346002863D1A2481F4601F008FFE2
:103270004820FEF7FBF8A04C814610AB0DF13E0252
:103280000FA91820FEF73CFC2068FDF78BFC9B4D36
:10329000BDF94010BDF93E20BDF93CE04346CDF8F4
:1032A0000090049003910292CDF804E0DDE914123D
:1032B000DDE91289CDE908120A97914AC82128460A
:1032C000CDE9068901F0DAFF284602F0AEF829467A
:1032D00002468C4801F062FE002E52D0216828463A
:1032E000FDF734FD002800F0DA80874801F0C8FEC1
:1032F000002523688548AB4240F27E81FDF70EFB36
:1033000001350028F5D08149814801F047FEC2E02F
:10331000804801F0B5FE0D9B5A4651467E4801F0AB
:103320003DFE502118A8FEF733F9034600289BD034
:1033300018A814AA12A9FFF7C3FE0346002800F03C
:10334000B5800127002C93D063A5D5E900457348CB
:1033500001F096FEDDE91401DDE91223CDE900015B
:1033600002976F4801F01AFE5DA3D3E90023CDE96F
:1033700000456C48CDE91223CDE9144501F00EFE5D
:1033800076E7284602F051F80D9B80B2664A02901B
:10339000009331464FF4BD7301950220FFF7B8FC4E
:1033A000ADF84200BDF84210604889B201F0F6FD68
:1033B000ADF84660BDF84630BDF842209BB292B2EF
:1033C0009A421DD9584D2E46BDF8463058489BB2FA
:1033D000EB5C0F2BBDF8463088BF56489BB2F15CC2
:1033E00001F0DCFDBDF8463001339BB2ADF846304C
:1033F000BDF84620BDF8423092B29BB29A42E3D368
:103400004D4801F03DFE2068FDF79AF8FF283A4F3D
:10341000064653D0BDF842503B68ADB203EB4303C0
:1034200001935A46514600953F4BFDF73BF904285E
:1034300002D0424801F024FEFDF72EFE0023ADF835
:1034400044302368FF2203EB430307468DF83B20FB
:1034500000252BB90EE0236803EB4303AB4209D9E7
:1034600011A90DF13B00FDF7D9F99DF83B3001356D
:10347000B342F0D1FDF710FE9DF83B308046B342D9
:1034800066D02F4801F0FCFD21683046FDF7C2F8F8
:10349000002800F0AA8001202DB0BDE8F08F294857
:1034A00001F0EEFD01202DB0BDE8F08F26481F464B
:1034B00001F0E6FD002C3FF4DBAE45E7234801F0C8
:1034C000DFFD0020E8E700BF5D34643C4AF84D4072
:1034D000E5D76A6A34503E40D1AE42CA4F3E3E40C4
:1034E0009411178046F74D4030BC0008B0BF00086B
:1034F000B4A70008F4BF0008000500208C100020CD
:10350000C0C100085CC200087CC200085411002041
:10351000CCC30008C4BF0008D8BF0008D4C000084E
:1035200030C1000878C100085C130020B4C2000854
:10353000D0C20008D4C2000804C60008F8C20008BF
:1035400018C3000898C2000848C00008D8C2000884
:10355000BDF84410002994D0B1F5BD7F50D2236846
:10356000294D03EB43020023019200951A46304691
:10357000FDF730FA284616A9FFF716FBC7EB08033C
:103580009DF85C209DF85B10204801F007FD204865
:1035900001F076FD0023ADF84630BDF84630BDF8A9
:1035A00044209BB29A4288BF2F461AD9BDF84630B4
:1035B00018489BB2EB5C0F2BBDF8463088BF16480D
:1035C0009BB2F95C01F0EAFCBDF84630BDF844203E
:1035D00001339BB2ADF84630BDF846309BB29A42FB
:1035E000E4D80E4801F04CFD4EE70D4801F048FDCF
:1035F00001202DB0BDE8F08F0A4801F041FD4AE7F7
:10360000094801F0CBFC3FE75C13002030C3000801
:1036100068C30008D0C20008D4C2000804C600086D
:10362000ACC30008ECC3000880C30008F0B57149C2
:10363000D5B0714801F0B2FC704801F021FD15A829
:10364000FDF792FD9DF85430002B40F0A4806C48AB
:1036500001F016FDBDF848116A4801F09FFC9DF885
:103660008500FFF751F820B19DF88430002B40F021
:10367000AE80654801F004FD9DF80501FFF744F8B0
:1036800020B19DF80431002B40F0A6805F4801F086
:10369000F7FC9DF84A115E4801F080FC5D4801F09E
:1036A0007DFC9DF84B315C4F0F2B0CBF5B485C4899
:1036B00001F0E6FC51995B4801F070FC9DF84C115B
:1036C000594801F06BFC594801F0DAFC3B68002BCB
:1036D00066D03B79002B63D000263546002D52D0B2
:1036E000042D54D09C24013504FB0672ADB204FBBA
:1036F00005F4711C04324E4801F050FC3B592E4633
:103700003C4413B12379002BE8D14A4801F046FC30
:1037100001A9494801F0E8FC502101A8FDF72AFD64
:1037200001A800F078FF013800F0FF04434801F0E1
:10373000A7FCA54245D99C2303FB04F415A83B59DB
:1037400098473E483E4C01F09BFC3E4801F098FCF7
:10375000206842685368013B002B536041DB42689C
:10376000136801331360206842685368013B002BE3
:1037700053603ADB4268136801331360324801F04A
:103780007FFC55B0F0BD314801F07AFCAAE7304823
:1037900001F076FCA6E715A92E4801F0FFFB59E7DA
:1037A000244801F0FBFB01A9234801F09DFC01A87E
:1037B0005021FDF7DFFC01A800F02DFF1F4801F0AC
:1037C0005FFC0DF10501244801F0E8FBB9E721A9F0
:1037D000224801F0E3FB4FE741A9214801F0DEFB5D
:1037E00057E7416801F054FCBDE7416801F050FC27
:1037F000C4E700BFFCA6000800C4000858C40008C5
:1038000080C40008B8C40008CCC4000800C5000883
:103810002CC500084CC500089CB0000864C5000811
:103820006CC500087CC50008ACC50008C4C500080C
:1038300034C60008E8A50008149E000884AB000800
:103840008800002058C6000804C6000808C6000802
:1038500020C60008A4C4000840C60008ECC4000844
:103860001CC5000870B5DAB0FDF7AAFC00231A46A3
:1038700003211820FEF71AF9694801F001FC4820DD
:10388000FDF7E6FD674801F0FBFB674801F0F8FB38
:103890001BA8FDF769FC599B644A23F0FF03934280
:1038A00005D0634801F0ECFB1BA8FEF763FD43F66F
:1038B0009822579BA3F57A73934205D95D4801F08E
:1038C000DFFB4FF47A7357939DF89C302F2B10D069
:1038D000594801F0D5FB47A99DF86201FFF7E2FACC
:1038E000002840F08C80554801F0CAFBFFF79EFE8F
:1038F000FCE7534B1B8A5B06EAD59DF863310F2B1F
:10390000E6D147A99DF86201FFF7CCFA044658B307
:103910004C4D05E04C4801F041FB3220FDF7C2FB65
:103920002868484CFDF74AFA0028F3D0474801F0D0
:10393000A7FB216802A8FDF77DF9BDF85C01FDF742
:10394000A5FA41F27073579A9A4221D9404801F082
:1039500025FB2168012001EB4101FDF75DFA20BB49
:103960003C4801F08DFB20E03B4801F089FB1BA89F
:103970008DF86341FDF7C4FBBFF34F8F3749384BD8
:10398000CA6802F4E0621343CB60BFF34F8FFEE7D7
:10399000344801F075FB2168002001EB4101FDF77F
:1039A0003BFA10B1304801F06BFB41F27074002615
:1039B00011E09DF864119DF86231BDF8602101911C
:1039C000009327A902AB1BA8FFF71EFC0020FDF700
:1039D00073FBFDF7BFFA0120FDF76EFB579BA34277
:1039E000E7D9FDF773FB2A68002302EB82020192FC
:1039F00000961A4619461846FCF7E8FCD9E71B481A
:103A000001F03EFB0F4B0020196801EB4101FDF76F
:103A100003FA00287FF46AAF154801F031FB65E72F
:103A200080C600089CC60008C0C6000800A555AAAC
:103A3000E0C6000854C7000854CA0008A8C7000818
:103A40000008024000050020E0C8000804C6000885
:103A500014C9000830C90008A0C8000800ED00E043
:103A60000400FA0588C9000804CA0008F8C700085D
:103A70001CC800080549064A064B9A42BEBF51F8C9
:103A8000040B42F8040BF8E703480047D0CD0008C8
:103A900000000020D0000020810100082649274AAC
:103AA000002301E041F8043B9142FBD3FFF7DAFE2B
:103AB000FEE7FEE7FEE7FEE7FEE7FEE7FEE7FEE7DE
:103AC000FEE7FEE7FEE7FEE7FEE7FEE7FEE7FEE7CE
:103AD000FEE7FEE7FEE7FEE7FEE7FEE7FEE7FEE7BE
:103AE000FEE7FEE7FEE7FEE7FEE7FEE7FEE7FEE7AE
:103AF000FEE7FEE7FEE7FEE7FEE7FEE7FEE7FEE79E
:103B0000FEE7FEE7FEE7FEE7FEE7FEE7FEE7FEE78D
:103B1000FEE7FEE7FEE7FEE7FEE7FEE7FEE7FEE77D
:103B2000FEE7FEE7FEE7FEE7FEE7FEE7FEE7FEE76D
:103B3000FEE7FEE7FEE7FEE7D0000020E8140020E5
:103B400081F0004102E000BF83F0004330B54FEA4E
:103B500041044FEA430594EA050F08BF90EA020FBB
:103B60001FBF54EA000C55EA020C7FEA645C7FEA4E
:103B7000655C00F0E2804FEA5454D4EB5555B8BF71
:103B80006D420CDD2C4480EA020281EA030382EAE2
:103B9000000083EA010180EA020281EA0303362D74
:103BA00088BF30BD11F0004F4FEA01314FF4801C47
:103BB0004CEA113102D0404261EB410113F0004F59
:103BC0004FEA03334CEA133302D0524263EB430310
:103BD00094EA050F00F0A780A4F10104D5F1200EAE
:103BE0000DDB02FA0EFC22FA05F2801841F1000109
:103BF00003FA0EF2801843FA05F359410EE0A5F1DD
:103C000020050EF1200E012A03FA0EFC28BF4CF00D
:103C1000020C43FA05F3C01851EBE37101F00045C3
:103C200007D54FF0000EDCF1000C7EEB00006EEBD0
:103C30000101B1F5801F1BD3B1F5001F0CD349085A
:103C40005FEA30004FEA3C0C04F101044FEA4452B1
:103C500012F5800F80F09A80BCF1004F08BF5FEA38
:103C6000500C50F1000041EB045141EA050130BD18
:103C70005FEA4C0C404141EB010111F4801FA4F1BB
:103C80000104E9D191F0000F04BF01460020B1FA10
:103C900081F308BF2033A3F10B03B3F120020CDA48
:103CA0000C3208DD02F1140CC2F10C0201FA0CF026
:103CB00021FA02F10CE002F11402D8BFC2F1200C8B
:103CC00001FA02F120FA0CFCDCBF41EA0C01904041
:103CD000E41AA2BF01EB0451294330BD6FEA04048A
:103CE0001F3C1CDA0C340EDC04F11404C4F1200275
:103CF00020FA04F001FA02F340EA030021FA04F387
:103D000045EA030130BDC4F10C04C4F1200220FADD
:103D100002F001FA04F340EA0300294630BD21FA1B
:103D200004F0294630BD94F0000F83F4801306BFE1
:103D300081F480110134013D4EE77FEA645C18BFD5
:103D40007FEA655C29D094EA050F08BF90EA020F6C
:103D500005D054EA000C04BF1946104630BD91EA64
:103D6000030F1EBF0021002030BD5FEA545C05D167
:103D70004000494128BF41F0004130BD14F58004A6
:103D80003CBF01F5801130BD01F0004545F0FE411A
:103D900041F470014FF0000030BD7FEA645C1ABF4F
:103DA000194610467FEA655C1CBF0B46024650EA86
:103DB000013406BF52EA033591EA030F41F40021B2
:103DC00030BD00BF90F0000F04BF0021704730B538
:103DD0004FF4806404F132044FF000054FF000010D
:103DE00050E700BF90F0000F04BF0021704730B5CE
:103DF0004FF4806404F1320410F0004548BF4042A3
:103E00004FF000013EE700BF42004FEAE2014FEAF7
:103E100031014FEA02701FBF12F07F4393F07F4FD2
:103E200081F06051704792F0000F14BF93F07F4F04
:103E3000704730B54FF4607401F0004521F0004147
:103E400020E700BF50EA010208BF704730B54FF0CD
:103E500000050AE050EA010208BF704730B511F0D2
:103E6000004502D5404261EB41014FF4806404F10A
:103E700032045FEA915C3FF4DCAE4FF003025FEA8C
:103E8000DC0C18BF03325FEADC0C18BF033202EB14
:103E9000DC02C2F1200300FA03FC20FA02F001FA6E
:103EA00003FE40EA0E0021FA02F11444C1E600BF0D
:103EB00070B54FF0FF0C4CF4E06C1CEA11541DBFC0
:103EC0001CEA135594EA0C0F95EA0C0F00F0DEF88B
:103ED0002C4481EA030621EA4C5123EA4C5350EA70
:103EE000013518BF52EA033541F4801143F48013C1
:103EF00038D0A0FB02CE4FF00005E1FB02E506F052
:103F00000042E0FB03E54FF00006E1FB03569CF0A6
:103F1000000F18BF4EF0010EA4F1FF04B6F5007FAC
:103F200064F5407404D25FEA4E0E6D4146EB06061E
:103F300042EAC62141EA55514FEAC52040EA5E50A7
:103F40004FEACE2EB4F1FD0C88BFBCF5E06F1ED851
:103F5000BEF1004F08BF5FEA500E50F1000041EB88
:103F6000045170BD06F0004646EA010140EA020035
:103F700081EA0301B4EB5C04C2BFD4EB0C0541EA57
:103F8000045170BD41F480114FF0000E013C00F36C
:103F9000AB8014F1360FDEBF002001F0004170BD90
:103FA000C4F10004203C35DA0C341BDC04F11404A9
:103FB000C4F1200500FA05F320FA04F001FA05F235
:103FC00040EA020001F0004221F0004110EBD37002
:103FD00021FA04F642EB06015EEA430E08BF20EA2E
:103FE000D37070BDC4F10C04C4F1200500FA04F3D1
:103FF00020FA05F001FA04F240EA020001F0004163
:1040000010EBD37041F100015EEA430E08BF20EAD5
:10401000D37070BDC4F1200500FA05F24EEA020E1D
:1040200020FA04F301FA05F243EA020321FA04F04C
:1040300001F0004121FA04F220EA020000EBD37003
:104040005EEA430E08BF20EAD37070BD94F0000F03
:104050000FD101F00046400041EB010111F4801F37
:1040600008BF013CF7D041EA060195F0000F18BFE8
:10407000704703F00046520043EB030313F4801F24
:1040800008BF013DF7D043EA0603704794EA0C0FDE
:104090000CEA135518BF95EA0C0F0CD050EA4106F4
:1040A00018BF52EA4306D1D181EA030101F0004171
:1040B0004FF0000070BD50EA410606BF1046194699
:1040C00052EA430619D094EA0C0F02D150EA0136A5
:1040D00013D195EA0C0F05D152EA03361CBF1046E6
:1040E00019460AD181EA030101F0004141F0FE4185
:1040F00041F470014FF0000070BD41F0FE4141F409
:10410000780170BD70B54FF0FF0C4CF4E06C1CEA08
:1041100011541DBF1CEA135594EA0C0F95EA0C0FBD
:1041200000F0A7F8A4EB050481EA030E52EA033578
:104130004FEA013100F088804FEA03334FF0805599
:1041400045EA131343EA12634FEA022245EA1115C6
:1041500045EA10654FEA00260EF000419D4208BF77
:10416000964244F1FD0404F5407402D25B084FEA24
:104170003202B61A65EB03055B084FEA32024FF4D0
:1041800080104FF4002CB6EB020E75EB030E22BF2D
:10419000B61A754640EA0C005B084FEA3202B6EBED
:1041A000020E75EB030E22BFB61A754640EA5C009C
:1041B0005B084FEA3202B6EB020E75EB030E22BF2C
:1041C000B61A754640EA9C005B084FEA3202B6EB2D
:1041D000020E75EB030E22BFB61A754640EADC00EC
:1041E00055EA060E18D04FEA051545EA16754FEA4E
:1041F00006164FEAC30343EA52734FEAC2025FEA6C
:104200001C1CC0D111F4801F0BD141EA00014FF0FA
:1042100000004FF0004CB6E711F4801F04BF0143CB
:104220000020B4F1FD0C88BFBCF5E06F3FF6AFAEE7
:10423000B5EB030C04BFB6EB020C5FEA500C50F177
:10424000000041EB045170BD0EF0004E4EEA1131FA
:1042500014EB5C04C2BFD4EB0C0541EA045170BD01
:1042600041F480114FF0000E013C90E645EA060E45
:104270008DE60CEA135594EA0C0F08BF95EA0C0F73
:104280003FF43BAF94EA0C0F0AD150EA01347FF4BB
:1042900034AF95EA0C0F7FF425AF104619462CE792
:1042A00095EA0C0F06D152EA03353FF4FDAE1046F5
:1042B000194622E750EA410618BF52EA43067FF446
:1042C000C5AE50EA41047FF40DAF52EA43057FF4D6
:1042D000EBAE12E74A0011D212F5001211D20DD541
:1042E0006FF47873B3EB62520ED44FEAC12343F0FC
:1042F000004343EA505323FA02F070474FF00000A6
:10430000704750EA013002D14FF0FF3070474FF054
:10431000000070474FEA4102B2F1E04324BFB3F519
:10432000001CDCF1FE5C0DD901F0004C4FEAC0022C
:104330004CEA5070B2F1004F40EB830008BF20F010
:104340000100704711F0804F21D113F13872BCBFCA
:1043500001F00040704741F480114FEA5252C2F11F
:104360001802C2F1200C10FA0CF320FA02F018BF68
:1043700040F001004FEAC1234FEAD32303FA0CFCBB
:1043800040EA0C0023FA02F34FEA4303CCE77FEA4A
:10439000625307D150EA01331EBF4FF0FE4040F494
:1043A0004000704701F0004040F0FE4040F4000043
:1043B000704700BF80F0004002E000BF81F0004184
:1043C00042001FBF5FEA410392EA030F7FEA226CBB
:1043D0007FEA236C6AD04FEA1262D2EB1363C1BF4B
:1043E000D218414048404140B8BF5B42192B88BFBA
:1043F000704710F0004F40F4000020F07F4018BFDD
:10440000404211F0004F41F4000121F07F4118BFFC
:10441000494292EA030F3FD0A2F1010241FA03FCA4
:1044200010EB0C00C3F1200301FA03F100F000438C
:1044300002D5494260EB4000B0F5000F13D3B0F154
:10444000807F06D340084FEA310102F10102FE2AC3
:1044500051D2B1F1004F40EBC25008BF20F0010033
:1044600040EA03007047490040EB000010F4000FE1
:10447000A2F10102EDD1B0FA80FCACF1080CB2EB74
:104480000C0200FA0CF0AABF00EBC25052421843D3
:10449000BCBFD0401843704792F0000F81F4000178
:1044A00006BF80F400000132013BB5E74FEA41034B
:1044B0007FEA226C18BF7FEA236C21D092EA030FB7
:1044C00004D092F0000F08BF0846704790EA010F31
:1044D0001CBF0020704712F07F4F04D1400028BF5E
:1044E00040F00040704712F100723CBF00F5000040
:1044F000704700F0004343F0FE4040F40000704776
:104500007FEA226216BF08467FEA23630146420221
:1045100006BF5FEA412390EA010F40F48000704734
:104520004FF0000304E000BF10F0004348BF4042DA
:104530005FEA000C08BF704743F0964301464FF016
:1045400000001CE050EA010208BF70474FF0000372
:104550000AE000BF50EA010208BF704711F00043B3
:1045600002D5404261EB41015FEA010C02BF844683
:104570000146002043F0B64308BFA3F18053A3F5E2
:104580000003BCFA8CF2083AA3EBC25310DB01FA29
:1045900002FC634400FA02FCC2F12002BCF1004FAD
:1045A00020FA02F243EB020008BF20F0010070473E
:1045B00002F1200201FA02FCC2F1200250EA4C0092
:1045C00021FA02F243EB020008BF20EADC707047D8
:1045D00042000ED2B2F1FE4F0BD34FF09E03B3EB6D
:1045E000126209D44FEA002343F0004323FA02F099
:1045F00070474FF00000704712F1610F01D1420285
:1046000002D14FF0FF3070474FF00000704700BFFD
:10461000002101F061BD0A22002101F049BE000025
:1046200008B5074B044613B10021AFF30080054BDA
:104630001868836A03B19847204605F0DFF900BF88
:104640000000000084CA00080E4B70B51E460E4CD8
:104650000025E41AA410A54204D056F82530984746
:104660000135F8E705F0CCF9084B094C1E46E41A71
:10467000A4100025A54204D056F8253098470135EE
:10468000F8E770BDC8000020C8000020C800002066
:10469000CC00002010B5431E0A44914204D011F80A
:1046A000014B03F8014FF8E710BD03460244934263
:1046B00002D003F8011BFAE770472DE9F04788B0F4
:1046C000149F002B1E461299B8BF03F1004327F038
:1046D0002007B6BF1E4600232D23462F1446109DEB
:1046E000DDF84CA00B7003D0452F03D1013501E05C
:1046F000032300E0022307AA049206AA03928DE88E
:1047000028042246334601F04FFF472F804602D14E
:10471000119BDB0728D5462F08EB050911D198F826
:104720000030302B0AD1002200232046314605F00C
:10473000C7F818B9C5F10105CAF80050DAF8003019
:104740009944002200232046314605F0B9F808B903
:10475000302202E0CDF81C9006E0079B994503D972
:10476000591C07911A70F8E74046079B159AC8EB49
:104770000303136008B0BDE8F087034673B5002952
:10478000B8BF494203F8022BB4BF2D222B220929BE
:1047900042701ADD0DF1070216460A2591FBF5F469
:1047A00005FB1411092C01F1300102F8011D21460D
:1047B000F4DC3031541E02F8011CB4421A460AD20D
:1047C00014F8012B03F8012BF7E71A463024214493
:1047D00002F8024B5970101A02B070BD2DE9F04F6B
:1047E00091B00C46DDF8688016461F46054603F07A
:1047F00039F903681846099300F017FE00230E9359
:10480000D8F800300A90073323F0070303F10802B9
:1048100094F81890D4F800B0C8F80020D3E9002329
:10482000C4E91223D4F84CA0D4F848802AF00043FD
:104830000B934FF0FF32A74B40460B9905F072F8EF
:10484000A0B94FF0FF32A34B40460B9905F04CF84E
:1048500060B9002200234046514605F03BF810B1F4
:104860002D2384F843309C4B9C4A0AE04246534631
:104870004046514605F056F8002800F09281984BCA
:10488000984AB9F1470F8CBF90469846032323619D
:104890002BF0040323604FF0000A3DE0B9F1670FED
:1048A00000F08A81B9F1470F00F0868123600193FF
:1048B000636800210DF13302059002920093424695
:1048C00053460691CDF81090CDF80CE02846FFF73E
:1048D000F4FE09F0DF03472B804600F08481B9F134
:1048E000650F0D9900F28D8101394A4604F150009F
:1048F0000D91FFF742FF0E9A82468318012A236129
:1049000000F37C812268D10700F178819DF8333073
:1049100013B12D2384F84330009733460FAA214664
:10492000284600F09FF9013002D14FF0FF3096E1A8
:1049300023685A0501D4236965E0B9F1650F40F297
:10494000D580D4E912010022002304F0B9FF78B326
:104950000123654A31462846B8470130E5D00E9B11
:104960000D9A9A420BDB2368D80708D423689B076B
:1049700040F111814FF0000804F1190906E10A9B8A
:10498000099A31462846B8470130CED04FF000088A
:1049900004F11A090E9B013B9845E7DA01234A46C8
:1049A00031462846B8470130BFD008F10108F1E789
:1049B0000D9B002B29DC01234B4A31462846B84782
:1049C0000130B2D00D9B23B90E9B13B92368D907D0
:1049D000CCD50A9B099A31462846B8470130A4D065
:1049E0004FF0000904F11A0A0D9B5B42994509DA60
:1049F0000123524631462846B847013095D009F187
:104A00000109F1E70E9B4246A7E00E9AA36D9A4278
:104A1000A8BF1A46002A914606DC4FF0000A29EA90
:104A2000E97904F11A0B11E0134631464246284653
:104A3000B8470130F1D178E701235A46314628467C
:104A4000B84701303FF471AF0AF1010AA36DC9EB19
:104A500003029245F0DB08EB03090D9A0E9B9A4284
:104A60000FDB2368DA070CD40E9B0D9A9844C9EB30
:104A700008089B1A9845A8BF9846B8F1000F08DCB3
:104A80000FE00A9B099A31462846B8470130EBD11E
:104A90004BE743464A4631462846B84701303FF483
:104AA00044AF4FF0000928EAE87804F11A0A09E057
:104AB0000123524631462846B84701303FF435AF0E
:104AC00009F101090D9A0E9B9B1AC8EB0303994546
:104AD000EEDB4BE7FFFFEF7F88CA00088CCA0008B7
:104AE00090CA000894CA0008BECD00080E9A012A98
:104AF00001DCDB0738D50123424631462846B8475A
:104B000001303FF412AF0A9B099A31462846B84754
:104B100001303FF40AAFD4E912010022002304F06F
:104B2000CFFE20B14FF0000804F11A090EE00E9BF1
:104B300008F10102013B19E001234A4631462846AB
:104B4000B84701303FF4F1AE08F101080E9B013B7C
:104B50009845F1DB534604F1500231462846B847E8
:104B600001307FF403AFE0E6424601233146284698
:104B7000B8470130EED1D8E601234A4631462846EF
:104B8000B84701303FF4D1AE08F10108E3680F9A4D
:104B90009B1A9845F0DBE0680F9B9842B8BF184617
:104BA0005DE062680EA8531C0DF1340E4BF4806377
:104BB0007FF474AE062201E012B90122626075E64C
:104BC000002106910DF133018DE80C002360059062
:104BD0004246CDF81090CDF80CE00291534628469D
:104BE000FFF76BFD80460D9BD81C02DB6268934289
:104BF0001DDDA9F102095FFA89F970E6013323612D
:104C000084E6B9F1660F14D10029636807DD2161DC
:104C100013B92268D2071DD501330B4419E013B92B
:104C20002268D00701D5023313E0012311E04FF0D1
:104C300067090D9B0E9A934205DB22682361D10719
:104C400008D5013305E0002BD4BFC3F102030123D3
:104C5000134423610D9B4FF0000AA36556E611B083
:104C6000BDE8F08F2DE9F04791461F460A698B6831
:104C700006469342B8BF1346C9F8003091F8432066
:104C80000C46DDF8208012B10133C9F800302368EA
:104C9000990642BFD9F800300233C9F800302568C0
:104CA00015F0060510D104F1190A07E00123524658
:104CB00039463046C04701301AD00135E368D9F88B
:104CC00000209B1A9D42F1DB94F8433022680033A8
:104CD00018BF012392060FD5E118302081F8430058
:104CE0005A1C94F845102244023382F8431003E022
:104CF0004FF0FF30BDE8F08704F1430239463046FB
:104D0000C0470130F4D02268D9F80050E36802F0BF
:104D10000602042A08BF5D1B2269A3680CBF25EAAE
:104D2000E57500259342C4BF9B1AED184FF00009AA
:104D30001A344D4509D00123224639463046C04732
:104D40000130D5D009F10109F3E70020BDE8F08773
:104D50002DE9F04317460A7E85B06E2A984606462E
:104D60000C460C9B01F1430E00F0AE8011D8632A73
:104D700022D009D8002A00F0BB80582A40F0CA800F
:104D800081F84520834955E0642A1ED0692A1CD049
:104D9000C0E0732A00F0B08009D86F2A2ED0702AA4
:104DA00040F0B8800A6842F020020A603EE0752AAE
:104DB00024D0782A3AD0ADE01A6801F14205111DDD
:104DC0001960136884F84230A8E021681A6811F06D
:104DD000800F02D0111D196008E011F0400F02F1A0
:104DE0000401196002D0B2F9003000E01368002B12
:104DF0003CDA2D225B4284F8432037E021681A68B0
:104E000011F0800F02D0111D196007E011F0400F62
:104E100002F10401196001D0138800E01368227EBA
:104E20005C496F2A14BF0A2208221BE078225A49E3
:104E300084F845202268186812F0800F00F10405FC
:104E40001D6003D1550601D5038800E00368D00733
:104E500044BF42F0200222601BB9226822F02002E7
:104E600022601022002084F8430001E049490A2210
:104E70006568002DA56008DB206820F00400206034
:104E80002BB9002D7DD175460CE0002B79D07546ED
:104E9000B3FBF2F002FB1033CB5C05F8013D034697
:104EA0000028F5D1082A0BD12368DA0708D5236931
:104EB00062689A42DEBF302305F8013C05F1FF35F8
:104EC000C5EB0E0323612EE008681A6810F0800F0E
:104ED000496903D0101D1860136808E010F0400FF6
:104EE00002F104001860136801D0198000E0196015
:104EF00000232361754616E01A68111D19601568B4
:104F000000216268284602F02BFE08B1401B606059
:104F1000636804E004F1420584F842200123236120
:104F2000002384F84330CDF800803B4603AA214695
:104F30003046FFF797FE013002D14FF0FF3026E0F8
:104F400023692A4639463046C0470130F5D02368E8
:104F50009B0710D5002504F1190907E001234A46F3
:104F600039463046C0470130E7D00135E368039A3F
:104F70009B1A9D42F2DBE068039B9842B8BF18463B
:104F800005E00B7804F1420584F842308AE705B069
:104F9000BDE8F08398CA0008A9CA00080FB40A4BFC
:104FA00013B51C6824B1A36913B9204602F096F921
:104FB00005AB049AA1682046019303F0A7FD02B057
:104FC000BDE8104004B070478800002070B50E4660
:104FD000054618B183690BB902F080F9AB69AC687A
:104FE00013B9284602F07AF9224B9C4201D16C6831
:104FF00008E0214B9C4201D1AC6803E01F4B9C426E
:1050000008BFEC68A3891B0701D523693BB921467A
:10501000284601F0BDF910B14FF0FF3070BD013EE0
:10502000A36816F8011F013BA36091B1002B04DABD
:10503000A269934206DB0A2904D023685A1C226025
:105040001970EDE72246284601F03CF90130E7D11E
:10505000E2E7002B08DA22460A21284601F032F95D
:105060000130D9D00A2070BD23680A205A1C226062
:10507000187070BD20CC000840CC000860CC00083F
:10508000024B01461868FFF7A1BF00BF880000204F
:1050900038B50C46054618B183690BB902F01EF904
:1050A0000E4B9C4201D16C6808E00D4B9C4201D133
:1050B000AC6803E00B4B9C4208BFEC6821462846D5
:1050C00004F030F938B96368013B636023685A1C07
:1050D0002260187838BD4FF0FF3038BD20CC000872
:1050E00040CC000860CC00080FB40A4B13B51C6814
:1050F00024B1A36913B9204602F0F0F805AB049A75
:1051000061682046019303F071FF02B0BDE81040D2
:1051100004B070478800002000294FF480630CBF62
:105120000222002200F000B82DE9F7431D464F4B44
:1051300004461E680F46904626B1B36913B930463F
:1051400002F0CCF84A4B9C4201D1746808E0494B0C
:105150009C4201D1B46803E0474B9C4208BFF4680D
:10516000B8F1020F04D0B8F1010F79D8002D77DB28
:105170002146304602F036F8616B41B104F1440338
:10518000994202D0304603F0F1F800236363002314
:10519000A3616360A3891B0603D52169304603F030
:1051A000E5F8A389B8F1020F23F44A6323F003035F
:1051B000A3811ED001AB6A462146304602F068FC4E
:1051C000A3891843A0810DB9009D00E02FBB28469C
:1051D00002F0BEFC0746D0B9DDF80090A94502D127
:1051E0004FF0FF3006E0484602F0B2FC074678B9BF
:1051F000F6E70020A38943F00203A3810023A36004
:1052000004F1470323602361012363612AE0A94677
:105210004D46A38943F08003A381B36913B9304697
:1052200002F05CF8B8F1010F08BFA389276004BF42
:1052300043F00103A381A389276103F0080080B232
:10524000656158B113F001034FF000001DBF6D42BE
:10525000A060A561A56008BF184603E0A06001E05A
:105260004FF0FF3003B0BDE8F08300BF880000209E
:1052700020CC000840CC000860CC00080CB430B54D
:10528000164B0C1E9DB01D6804DA8B232B604FF06B
:10529000FF301EE04FF40273ADF814300CBF23460C
:1052A00004F1FF33049307934FF6FF7302900690C7
:1052B000ADF81630209A21AB02A92846019303F0DD
:1052C00059F9431CBCBF8B232B6014B1029B0022F5
:1052D0001A701DB0BDE8304002B070478800002051
:1052E0000EB400B54FF402719CB0ADF814106FF01D
:1052F0000041049107914FF6FF711DAB029006909B
:10530000084853F8042BADF81610006802A9019361
:1053100003F030F9029B00221A701CB05DF804EB18
:1053200003B07047880000200EB430B59CB01FACAD
:105330004FF4017254F8045BADF81420029006900B
:1053400000F073F80B4B03900B9300230F9314930F
:105350004FF6FF7307900848ADF816302A462346EB
:1053600002A90068019403F055FA1CB0BDE8304072
:1053700003B070479F5300088800002010B50C460A
:10538000B1F90E1003F0B2FF0028ABBF636DA38923
:105390001B1823F48053ACBF6365A38110BD0020AC
:1053A00070472DE9F0411F468B890546DB050C4609
:1053B000164605D502230022B1F90E1002F056FB65
:1053C000A389324623F48053A381B4F90E103B46DF
:1053D0002846BDE8F04100F0C9BF10B50C46B1F950
:1053E0000E1002F043FB431CA38915BF606523F434
:1053F000805343F48053A38118BFA38110BDB1F93A
:105400000E1001F033B810F8012B11F8013B012AFE
:1054100028BF9A42F7D0D01A7047034611F8012BE3
:1054200003F8012B002AF9D17047034613F8012B2A
:10543000002AFBD1181A01387047034610B542B153
:1054400011F8014B013A03F8014B002CF7D11A4433
:1054500000E010BD934202D003F8014BFAE710BD03
:10546000F0B5037863B90B78002B18BF0020F0BDAE
:1054700015F8012F62B114F8017F30469742F7D03A
:105480000346461C007810B14D1E5C1EF0E7F0BDCF
:105490001846F0BD2DE9F0410F46904602F034FE6B
:1054A00004460D46B8F1000F11D0C7F30A53C3F1FB
:1054B0006B03002B0BDD1B0503F17F55002405F565
:1054C000401522462B46FEF7F3FCBDE8F08120464E
:1054D0002946BDE8F08100002DE9F04F82460C46D8
:1054E0009DB00023139218934FF000084FF000096D
:1054F0001791179B1A780D2A05D8092A13D2002A6A
:1055000000F0AD8112E02B2A04D02D2A04D0202AED
:105510000CD108E0002200E001220C925A1C1792E4
:105520005B782BB99BE101331793E2E700230C93DF
:10553000179D2B78302B5CD16B78582B01D0782BB2
:105540004CD10C9BA84A019318AB009317A919AB37
:10555000504601F0B4FF10F00706044600F08585C0
:10556000062E05D10135002317950C9300F07DBD63
:10557000189A3AB135211AA802F0ADFE1899504692
:1055800002F031FB062E22D8DFE806F0040D0818E1
:105590001D0D04004FF00009C84618E0DDF86880D2
:1055A000DDF86C9013E01B9B199A23F4801302F230
:1055B0003342DDF8688043EA025908E0DFF82C92B4
:1055C0004FF0000803E06FF000494FF0FF3821076B
:1055D00040F14B8549F0004900F047BD179B5A1C2C
:1055E00017925B78302BF9D0002B00F03E85012319
:1055F00000E000230593179B0A22069300239B4695
:1056000002930493179D2E78A6F13003D9B209298D
:1056100011D8BBF1080FD5BF0499029902FB0133E1
:1056200002FB013305F10105D4BF049302930BF192
:10563000010B1795E6E7504602F014FA076850464A
:1056400002F010FA0068FFF7F0FE394602462846DD
:1056500003F030FF074628B1002033465D4602467E
:1056600001465AE0504602F0FDF90068FFF7DDFE02
:10567000179B1A1817921B5CBBF1000F45D15846B7
:10568000302B05D1179B01305A1C17925B78F7E736
:10569000A3F13102082A46D8179A06920246002042
:1056A0000546303B00F1010129D00A44294605EBAB
:1056B000000C0A2661450FD0013101F1FF3EBEF119
:1056C000080F03DC049F77430497F3E71029DEBF3C
:1056D000029F77430297EDE72844082800F101056F
:1056E00005DC04980A2101FB0033049306E0102D29
:1056F000DFBF02980A2101FB003302930021179BB0
:10570000581C17905B78084602E05D4638463A46DA
:10571000A3F130010929C4D90121652B01D0452B02
:105720004FD16DB904E0652B40F0AD84002201211A
:1057300028B9059B002B00F09280054600E000256B
:10574000179C631C179363782B2B06D02D2B02D04C
:105750000026039606E0012300E000230393A31C28
:105760001793A378A3F13006092E29D8302B04D142
:10577000179B5E1C17965B78F8E7A3F13106082E9D
:105780001FD8A3F1300E179B1F46179B5E1C179660
:105790005B78A3F1300CBCF1090F05D80A2606FB93
:1057A0000E3EAEF1300EF0E7F61B082E44F61F66F3
:1057B00002DC7645A8BF7646039F1FB1764201E022
:1057C00017940026002D52D1002840F04E84059AEF
:1057D000002A40F04A84002941D14E2B20D007DC1A
:1057E000492B0AD03BE000BFD0CA00080000F07F80
:1057F000692B02D06E2B13D031E0AA4917A802F012
:105800008FF860B3179BA849013B17A8179302F0C4
:1058100087F810B9179B01331793DFF8A8921AE0A5
:10582000A24917A802F07CF8C8B1179B1B78282B57
:105830000FD11AAA9E4917A802F085F8052808D1A9
:105840001B9BDDF8688043F0FF4949F4E00900F054
:105850000CBCDFF874924FF0000800F006BC139BFC
:105860001794002B00F00C8400230C93FFE32C46CC
:10587000BBF1000F08BFAB460498102DA8BF102441
:10588000B71AFEF79FFA092C8046894613DD894B2B
:1058900003EBC40353E91223FEF70AFB8046029888
:1058A0008946FEF78FFA02460B4640464946FEF708
:1058B0004DF9804689460F2D33DC002F00F0D5834B
:1058C00022DD162F07DC7B4D424605EBC7014B4618
:1058D000D1E9000113E0C5F125039F4221DC754C9D
:1058E000C5F10F0504EBC5017D1B4246D1E900015E
:1058F0004B4604EBC504FEF7DBFAD4E90023FEF7C0
:10590000D7FA80468946B0E317F1160F09DB694DD7
:105910004046A5EBC703D3E900234946FEF7F2FB57
:10592000EFE72C1B3C44002C5DDD14F00F010AD086
:10593000604B424603EBC101D1E900014B46FEF743
:10594000B7FA8046894634F00F0400F0C180B4F500
:105950009A7F0FDD4FF0000BCDF808B0CDF814B0F2
:10596000CDF810B02223CAF80030DFF858914FF07C
:10597000000889E14046494600234F4E2411029316
:10598000012C0CDDE20704D5D6E90023FEF790FADE
:105990000123029A6410013202920836F0E70BB13B
:1059A00080468946444B029AA9F1547903EBC2011F
:1059B000D1E9000142464B46FEF77AFA21F0004356
:1059C00089460A461B0D3D491B058B428046C1D8BE
:1059D000A1F580118B4286BFDFF8F0904FF0FF38C1
:1059E00002F1547974E073D0644214F00F020AD0CB
:1059F000304B404603EBC2034946D3E90023FEF790
:105A000081FB80468946241162D01F2C08DD4FF0AF
:105A1000000BCDF808B0CDF814B0CDF810B02CE1E3
:105A20004046494614F0100F0CBF00236A23244E51
:105A300003930023002C09DDE20704D5D6E90023F7
:105A4000FEF736FA012364100836F3E70BB18046FF
:105A50008946039BEBB1C9F30A53C3F16B03002BD7
:105A6000494616DD1F2B0EDD342BDEBF203B4FF0E9
:105A7000FF3202FA03F34FF00008CCBF4FF05C791D
:105A800003EA010905E04FF0FF3202FA03F303EAEB
:105A90000808002200234046494603F011FF002871
:105AA000B5D117E08DCA000814CC000895CA0008CB
:105AB000BCCA000888CC000860CD00080000A07CAB
:105AC000E8CA00080000F07F0000F8FFFFFFEF7F4A
:105AD00000230393049B5A46009306992B46504695
