:020000040800F2
:1000000000400120E13200081F33000821330008BE
:1000100023330008253300082733000800000000C0
:10002000000000000000000000000000293300086C
:100030002B330008000000002D3300082F33000888
:10004000333300083533000837330008590F0008F0
:100050003B3300083D3300083F33000841330008BC
:10006000433300084533000847330008493300088C
:100070004B3300084D3300084F330008513300085C
:10008000533300085533000857330008593300082C
:100090005B3300085D3300085F33000861330008FC
:1000A000633300081D110008673300086933000836
:1000B0006B3300086D3300086F330008713300089C
:1000C000733300087533000877330008793300086C
:1000D0007B3300087D3300089D150008F5010008FA
:1000E000833300088533000887330008893300080C
:1000F0008B3300088D3300088F33000891330008DC
:1001000093330008953300089733000899330008AB
:100110009B3300089D3300089F330008A13300087B
:10012000A333000810B5054C237833B9044B13B141
:100130000448AFF300800123237010BDA800002005
:100140000000000014B40008084B10B51BB10849AA
:100150000848AFF300800848036803B910BD074B97
:10016000002BFBD0BDE81040184700BF0000000086
:10017000AC00002014B40008A8000020000000001B
:10018000154B002B08BF134B9D46A3F5803A002169
:100190008B460F461348144A121A03F0BCFE0F4B4D
:1001A000002B00D098470E4B002B00D09847002022
:1001B000002104000D000D48002802D00C48AFF3C8
:1001C000008003F077FE2000290002F081FF03F099
:1001D0005DFE00BF0000080000400120000000009C
:1001E00000000000A8000020FC0900200000000022
:1001F0000000000070B45A4B83B01A88002092B2FD
:1002000001929A885749D2B28DF8032018800A7853
:10021000002A38D1019B1B074AD4534B9DF8032079
:10022000002A51D018889DF80340504A80B2E4B2A9
:10023000145418884E4C80B2105C4E4E2578755D73
:10024000854250D0002020704B480478002C56D1B5
:1002500018884A4C80B2105C494E2578755D8542FD
:1002600070D0002020701888464C80B2125C464D39
:100270002078285C904256D0002222701A880132E1
:1002800092B21A8020E09B88DBB28DF803309DF893
:1002900003300D2B17D09DF803300A2B13D09DF897
:1002A0000330202B0FD0394A01212F4B11700BE066
:1002B00002F0FF002C4B314D324C2D4A1880287033
:1002C00020701070AAE7284B1B88274A9BB2B3F511
:1002D000806F05D340F2FF302D4B01211080197043
:1002E00003B070BC704720780130C0B22070207815
:1002F0000828A9D9204801260025067025701C88E9
:10030000194EA4B2145D194D0A2CA1D13488A4B29F
:10031000013C2C5D0D2C9BD11E4D012400260C7040
:1003200006702C7094E722780132D2B222702278C3
:10033000042AA3D9184A0126002502200E70257030
:1003400010709BE720780130C0B22070207801281F
:1003500089D9114D0120002608702670287082E787
:1003600000480040CE040020CC040020C80000203B
:10037000D1040020E08E0008D0040020C904002031
:10038000EC8E0008CA040020D88E0008C8040020A3
:10039000C4000020CF040020CB0400202DE9F04F42
:1003A000002483B03C4E019434780D9F64B9019CC5
:1003B000A74203D808E0019DAF4205D9019C013452
:1003C00001943578002DF6D0347804F0FF08B4B9E4
:1003D0000AB182F800800BB100221A70002303706A
:1003E00018462E4F2E4D2F4C2F49304A33703B70FC
:1003F0002B7023700B80137003B0BDE8F08FDFF813
:100400009CA00124DFF8A0908AF80040B9F800C051
:100410001FFA8CFCD8B1BCF1000F39D0013939D0AA
:100420000CF1FF3E1FFA8EFEDFF884B00EF1010ED4
:10043000451E002401E0A14228D01BF804700134BD
:10044000744505F8017FF6D1A4B200210155144985
:100450000AB108781070134A0BB1107818700C9B11
:1004600033B1B8F1020F0C980CBF012300230370C5
:1004700060460E4C002333708AF800300B70137006
:10048000A9F80030237003B0BDE8F08F8CB2DCE730
:100490006446DAE70C46D8E7CB040020CE040020FF
:1004A000C4000020C8040020CC040020CF04002099
:1004B000C8000020F0B50A4ADFF83CE0094F0A4EB8
:1004C0000A4D0B4C00238EF800303B7033702B70BC
:1004D000238013700146BDE8F040064802F01EB8C4
:1004E000CF040020CE040020C4000020C804002057
:1004F000CC04002000480040CB0400202DE9F04F40
:100500002F4CDFF8D8A0DFF8DC802E4FDFF8D0903A
:100510002D4E4FF0000B83B005462C492C4884F833
:1005200000B08AF800B088F800B087F800B0A9F8E9
:1005300000B086F800B001F0F1FFCDF804B02378E8
:100540002BB107E0019B01330193237813B9019B81
:100550009D42F7D823781A4D03F0FF02F3B1022A27
:1005600020D001238AF800301A4AB9F8003010462A
:100570009BB200241849D45404F039FB174A184B95
:1005800060B1007A2C703038C0B2147088F8004026
:100590003C701C80347003B0BDE8F08FFF2003B0C6
:1005A000BDE8F08F0023FF202B708AF8003088F818
:1005B00000303B70A9F80030337003B0BDE8F08F15
:1005C000CB040020C8040020CF040020F08E0008D7
:1005D00000480040C8000020008F0008CE04002022
:1005E000CC040020C40000202DE9F04F87B0034662
:1005F000224A234C0D4601A81421DFF89490DFF81D
:100600009480204F204EDFF890A004F06DFA4FF058
:10061000000B01A91D4884F800B089F800B088F8E3
:1006200000B087F800B0A6F800B08AF800B001F07A
:1006300075FFCDF800B023782BB107E0009B0133A4
:100640000093237813B9009B9D42F7D823780C4A76
:1006500003F0FF0073B10023022808BF184613708F
:1006600018BF012089F8003088F800303B703380D3
:100670008AF8003007B0BDE8F08F00BF0C8F00088B
:10068000CB040020C8040020CC0400200048004017
:10069000CE040020C4000020CF0400202DE9F04F3C
:1006A000474C93B003938146E36820688A46154619
:1006B0006168A26806AC0FC442494348BDF8707037
:1006C0001D9E424C01F02AFF0023049323782BB196
:1006D00007E0049B01330493237813B9049B9E42E3
:1006E000F7D82378394903F0FF02002B60D00023AC
:1006F0000B70DFF8F080364988F800300B70354910
:10070000DFF8E4B00B703449022A0B808BF800301C
:1007100052D032498DE8A00053464A460AA804F058
:1007200015FA0AA9284801F0F9FECFB1039D2F441C
:10073000A94615F8013B12AA02EB131313F8301C5B
:10074000214801F0E5FE99F8003012AA03F00F03EA
:1007500013441D4813F8301C01F0DAFEBD42E7D106
:100760001F49194801F0DAFE0023059323782BB1C5
:1007700007E0059B01330593237813B9059B9E423F
:10078000F7D82378114903F0FF028BB100230B70D7
:100790000F4988F800300B700E49022A0B700E4981
:1007A0000B808BF8003007D0042013B0BDE8F08F29
:1007B000002013B0BDE8F08F012013B0BDE8F08F2A
:1007C000C88E00081C8F000800480040CB040020A1
:1007D000C4000020C8040020CC0400202C8F000896
:1007E00018A50008CE040020CF040020F8B52F4D36
:1007F0002A784AB902F0FF0308B1FF22027009B15A
:1008000000220A801846F8BD0746294E294A338837
:100810000C469BB20021D1541046274904F0E7F959
:1008200017B1437A303B3B7044B300232380C27A34
:100830000B30303A092A36D8194603EB83035A00A5
:1008400092B222800378303A13449BB2238010F88E
:10085000012F0131303A092AC9B21BD80529ECD140
:1008600000221346154F164C164817493A7022704D
:1008700002700A7032802A701846F8BD0F4B10487B
:100880001049114A1C70047001230C7014703480DC
:100890002C70B7E74B1F18BF0123084F084C0948BD
:1008A00009490022E2E70123F7E700BFCF04002057
:1008B000CC040020C8000020488F0008CB04002092
:1008C000CE040020C4000020C80400202DE9F04F11
:1008D0008FB00292039302460B468F4C8A4609A8BA
:1008E0008E498F4EDFF85092DFF850828D4D8E4F3B
:1008F000DDF864B004F02AF9002309A98B482370BD
:100900000193337089F8003088F800302B803B70F9
:1009100001F004FE019B049323782BB107E0049BB4
:1009200001330493237813B9049B9B45F7D82378AC
:10093000794A03F0FF001BB3022824D07C4A2B889D
:1009400010469BB24FF0000B7A4902F803B004F056
:100950004EF9C27A222A6FD005A900F10B0C0DF1D5
:10096000230B4FF00B0E01F8012B1CF8012F0EF199
:100970000103222A9BB213D08B459E46F3D102205D
:100980000FB0BDE8F08F002313700120337089F899
:10099000003088F800302B803B700FB0BDE8F08F3E
:1009A0001A2BECD00EF1030292B2815C0DF1380CDF
:1009B00063444FF0000B0EF1080E2C2903F82FBCF6
:1009C0001FFA8EF316D09A4210D24FF0000B01326C
:1009D0000BEB8B0B92B201EB4B0B815CABF1300B51
:1009E0002C291FFA8BFB05D09A42F0D100232370EB
:1009F0000220CBE79A42F9D2511C89B210F801E0EB
:100A00000532BEF12C0F92B24FF0000310D091428C
:100A10000ED2013103EB830389B20EEB430310F8CE
:100A200001E0303BBEF12C0F9BB201D08A42F0D1E5
:100A30009A450BD00320A3E7417B8DF814B02C29F5
:100A400008BF0D22D8D012230D22BEE702311FFAB3
:100A500081FC0CEB4A0A1FFA8AF31A46189B002BFA
:100A60004BD0944549D2CDF804B04FF0000A9346DC
:100A70001CE01B015AB200EB0C035B78A3F13001C0
:100A8000C9B2092905D9A3F14101052920D8A3F14B
:100A9000370149B20CF1020C1FFA8CFC189B0A4377
:100AA000E34503F80E200AF1010A24D910F80C20BE
:100AB0001FFA8AFEA2F13003DBB2092BD9D9A2F1C9
:100AC0004103052B0DD8373A42F303021201D2E756
:100AD000A3F1610105299ABFA3F1570149B2002191
:100AE000D8E7A2F16103052B9DBF573A42F30302F9
:100AF00012010022BFE7DDF804B0029B1BB102988F
:100B000005A904F051F8039B0BB1A3F800B0002332
:100B1000237004203AE700BFCB040020548F000864
:100B2000CE040020CC040020CF0400200048004068
:100B3000C8000020688F0008C4000020C8040020FE
:100B4000F0B50546264927480024274A274B284F59
:100B5000284E9DB00C700470274928483C703470B2
:100B600014801C7001F0DAFC0DF10B01224600919B
:100B70000195234603A86421FFF710FC9DF80B2084
:100B8000FAB9E0B103A81E4904F031F830B3837913
:100B90002C2B20D0FBB1C279303B9BB22C2A19B24E
:100BA00007D032B103EB8303303A02EB43039BB22D
:100BB00019B29A1E1C2A07D85800713800B21DB00D
:100BC000F0BD20461DB0F0BD1F2914BF6FF06E00B0
:100BD0006FF03200F3E76FF06E00F0E70948EEE7E0
:100BE000CB040020CE040020CC040020CF04002041
:100BF000C4000020C8040020748F00080048004092
:100C0000808F000816FCFFFFF0B50E46284B00242D
:100C100028491C70DFF8B8E0274A284B284F9DB0C0
:100C20000C700546274928488EF800403C70148017
:100C30001C7001F073FC0DF10B012346224600915C
:100C4000019603A86421FFF7A9FB9DF80B4004B9A6
:100C500028B91DB300242C7020461DB0F0BD03A898
:100C60001A4903F0C4FF0028F6D0FDB1C1790D295F
:100C70001AD02A46073005F1310401E0A24211D012
:100C800002F8011B10F8011F531B0D29DBB2F5D12F
:100C9000012420460022EA541DB0F0BD2C46204617
:100CA0001DB0F0BD3123F3E72346F1E70124D3E77C
:100CB000CB040020CE040020CC040020CF04002070
:100CC000C8040020888F000800480040948F000866
:100CD000C4000020F0B50E46264B002426491C70A7
:100CE000DFF8B0E0254A264B264F9DB00C70054634
:100CF000254926488EF800403C7014801C7001F095
:100D00000DFC0DF10B01234622460091019603A82C
:100D10006421FFF743FB9DF80B40E4B9D8B103A869
:100D20001B4903F064FF05B3817A0D291FD02B46C0
:100D30000A3005F1310401E0A34214D003F8011B8D
:100D400010F8011F5A1B0D2992B2F5D10023012082
:100D5000AB541DB0F0BD1DB1002028701DB0F0BD1A
:100D600028461DB0F0BD3122F0E70120F6E722460B
:100D7000ECE700BFCB040020CE040020CC04002010
:100D8000CF040020C80400209C8F000800480040C9
:100D9000A88F0008C4000020F0B50378ADF5057DEC
:100DA00073B10446002302E0B3F5E17F33D014F8B9
:100DB000012F01339BB2002AF6D1B3F5E17F26D093
:100DC0000E460090164A4FF4007104A803F08CFE02
:100DD000144B0024144D15481C70154A154B164F22
:100DE000047004A92C7015480DF10F053C70148097
:100DF0001C7001F093FB22460196234621462046B3
:100E00000095FFF7CBFA2A78B2FA82F2520910461F
:100E10000DF5057DF0BD002210460DF5057DF0BDF8
:100E2000B48F0008CB040020C4000020CE040020B2
:100E3000CC040020CF040020C8040020004800405B
:100E4000F0B5054619491A4800241A4A1A4B1B4F97
:100E50001B4E9DB00C7004701A491B483C703470D6
:100E600014801C7001F05AFB0DF10B0100910195EB
:100E700064212346224603A8FFF790FA03A81349EA
:100E800003F0B5FE30B19DF80B00B0FA80F04009D8
:100E90001DB0F0BD03A80E4903F0A9FE0028F2D151
:100EA0009DF80B000130C0B2EFE700BFCB0400207B
:100EB000CE040020CC040020CF040020C400002079
:100EC000C8040020CC8F000800480040D88F0008DC
:100ED000E48F0008F0B50C4685B008BB0346154901
:100EE00015480B70154F164E164D174A17490370CB
:100EF00017483B7033702B80137001F00FFB0023F9
:100F00000DF10F028DE8140019461A461846FFF736
:100F100045FA9DF80F00B0FA80F0400905B0F0BD29
:100F2000044900230B700448044F054E054D064A42
:100F30000849DCE7CB040020CE040020C4000020D8
:100F4000C8040020CC040020CF040020009000083A
:100F500000480040F08F0008094A0A4B4FF4801106
:100F600051611A68084942F480721A60CA6822F412
:100F70008062CA601A6822F480721A60704700BFEB
:100F8000000401400070004000280040F0B42A4BEB
:100F900008212A4AC3F8801013682949294C43F4D0
:100FA0008073CA2753264FF4801513604F624E6238
:100FB0006561CB6823F48063CB608B6823F488433E
:100FC0008B60CB685C0706D41F4B01E0013B02D06D
:100FD000CA685207FAD5B0F57A5F28BF4FF47A5045
:100FE0001A4A0303A2FB0323154A9B095361936822
:100FF000124823F0070393609368002543F0010330
:10100000936091680F4B41F48841916001680A4CEC
:1010100021F48071016055621A680D4942F4801212
:101020001A609A68082542F4801201209A602560AF
:101030000870F0BC704700BF00E100E000700040A5
:10104000002800400004014080841E00D34D62103F
:10105000D20400201C4B1B78002B34D01B491C4BA6
:101060000A6942F004020A611A6842F005021A6035
:101070001A6822F002021A6030BF16490B6843F06A
:1010800001030B600B68980706D4134B01E0013B8A
:1010900002D00A689207FAD50E498B6823F0030341
:1010A0008B608B6843F001038B608B6803F0030354
:1010B000012B08D1084A01E0013A04D08B6803F003
:1010C0000303012BF8D07047D204002000ED00E0AC
:1010D000007000400038024080841E0070B5164643
:1010E00042B10C468D1814F8011B034801F010FAA8
:1010F000AC42F8D1304670BD0038014070B516469C
:1011000042B10C468D18044801F018FA04F8010B9E
:10111000AC42F8D1304670BD00380140194B1A8AF4
:10112000900707D518490A6801320A605A6B02F520
:101130007A725A63134B1B8A590714D5134B1B8AB7
:101140005A0606D4124B1B781BB9124A1368013396
:1011500013600E4B1B8A5B0609D40A4A936B03F596
:10116000434350339363074B00221A827047084B66
:101170001A78002AF1D1074A1268002AEDD001221C
:101180001A70EAE700080140D40400200008024079
:10119000D8040020E4040020014B1868704700BF09
:1011A000D4040020034A116813685B1A8342FBD3FE
:1011B000704700BFD4040020034B202208B91A83D3
:1011C00070475A83704700BF000002400A4A4FF43C
:1011D000807082B000230949108301E0019B013334
:1011E00001930A68019BB3EB520FF7D3024B4FF404
:1011F00080725A8302B0704700080240DC0400206D
:1012000010B4164B164C174983B00022DC60D9602D
:10121000ADF80620BDF806309BB23E2B18D8BDF8BD
:101220000630BDF806209BB29B0092B203F100632A
:1012300050F8222003F500231A60BDF80630013370
:101240009BB2ADF80630BDF806309BB23E2BE6D916
:10125000024B01225A6003B010BC7047003C0240B0
:10126000EFCDAB8905040302FC22014902F048BE20
:101270000000080810B40478ECB1F1B10022134664
:101280000AE09A4218BF8454013292B201339BB2F1
:10129000C45C64B199420AD07F2CF2D1541E002A5A
:1012A000F4D001339BB2A2B2C45C002CF2D1002373
:1012B000835410BC70472246F9E70A46F7E700BF9F
:1012C000F0B5884A83B01368002143F0010313602E
:1012D000019113689C070DD4019B83498B4203D96C
:1012E00008E0019B8B4205D8019B013301931368F1
:1012F0009807F6D57B4C7D4DA268002342F0010291
:10130000A260E1697A4A41F00701E161606A4FF445
:10131000164140F418106062266A764846F480460A
:1013200046F00C0626622E68734F46F4201646F4EB
:1013300094662E602E6A46F4EE462E626E6A46F47D
:10134000EE666E6201F000F90123694A4FF416510E
:101350006A4801F0F9F86A4B40225A603B68002164
:10136000586803F00FFB3B680021986803F00AFB04
:10137000644803F0BBFA636A43F080536362636BB3
:1013800013F400753DD1604803F0B0FA5F49604A3C
:101390000B68CA2643F4807353200B605662506278
:1013A000636B43F4807363630195636B9A050DD49B
:1013B000019B4D4A934203D908E0019B934205D813
:1013C000019B01330193636B9B05F6D5019A464B54
:1013D0009A4200F282804F4C0023237041494C48CE
:1013E0004B6B4A4A43F4820300254B634562136802
:1013F00023F480731360237863B1474803F076FACF
:1014000008E0444C00234548237003F06FFA23782A
:10141000002BF2D1424B4FF480425A834CF25037AA
:101420001A68334942F0805242F420221A609A88A6
:101430003C4892B242F440729A805A6A304C42F070
:1014400044025A6200F08AFB374803F04FFA3749EA
:101450004FF440734B830A68012342F425020A606B
:10146000486A234A40F4EE4048624FF4E131304884
:1014700001F06AF8802363602E4803F037FA2E4BA0
:101480004FF47A725A6301214FF000720F20062642
:1014900081259F6318859E8128481D80998222603E
:1014A00003F024FA264803F021FA264A00232649AD
:1014B000136008680B681B1AB3F57A7F07D21368AC
:1014C000013313600B681B1AB3F57A7FF7D31168E9
:1014D0001E4803F099F903B0F0BD0E4C01232370B0
:1014E0007CE700BF003802407F841E0000000240FD
:1014F0000024F40000380140600000200044004057
:1015000000E100E0109000083C90000800700040EE
:1015100000280040E00400206C9000085090000873
:101520000004024000540040889000080008024077
:10153000004800409C90000800080140B09000085E
:10154000C8900008DC040020D4040020EC900008BF
:1015500000B5002383B0014600935122024800F0F9
:1015600059FA03B05DF804FB0054004000B585B0A3
:101570000DF10F0301460093AA220123064800F053
:10158000B5F818B17F2005B05DF804FB9DF90F0098
:1015900005B05DF804FB00BF00540040F0B4354BCB
:1015A00082B01A88002192B201929A883248D2B24F
:1015B0008DF8032019800378002B36D140F2FE36D7
:1015C00003F0FF02019B2D4C13F0080F2C4B2D4D07
:1015D0001CBF1A8022701A889DF8031092B2C9B2FB
:1015E000A9541A88264992B2B24203D80A88013215
:1015F00092B20A802178244E9DF80320715C1F4E20
:101600009142224A14D000212170117801F0FF0686
:1016100001B91E8012781D493AB11B88184A9BB245
:10162000013BEB5C174D0A2B12D002B0F0BC7047A7
:10163000117801F0FF070029E5D131780131C9B2F5
:10164000317031780529E5D9012137701170E1E752
:1016500013889BB2023BEB5C0D2BE6D1138800266E
:101660009BB2023B0127EE540E7016802670077065
:10167000DBE700BF00440040EC080020E808002041
:10168000EA080020E804002004910008E90800208E
:1016900070B4144E3378EBB1B0B1134A147804F03F
:1016A000FF037CB10139002919DD0024234601E044
:1016B0008B4207DA155D5C1CC554A3B2D55C1C4691
:1016C000002DF5D10022C2540023012233701046B0
:1016D00070BC704703F0FF02104670BC70470023D7
:1016E000F0E700BFEC080020E80400200BB903205D
:1016F0007047F0B58FB0149C002C4BD004880025A7
:10170000A4B244F4807404800295848AE7070DD45F
:10171000029C944DAC4203D908E0029CAC4205D82F
:10172000029C01340294848AE607F6D5029C8D4D12
:10173000AC421BD8490000248EB206820394848AEE
:10174000A40706D508E0039C01340394848AA70704
:1017500002D4039CAC42F6D9039D824CA54202D828
:10176000058BEF0718D402200FB0F0BD01200FB099
:10177000F0BD0B96858A6D0606D508E00B9D0135F8
:101780000B95858A6D0602D40B9D8D42F6D90B9D73
:101790008D426AD90320EAE792B2002502820495BD
:1017A000828A160606D508E0049A01320492828ADB
:1017B000150602D4049AA242F6D9049A694CA242B0
:1017C000E8D80288002592B242F480720280059522
:1017D000828AD60709D405E0059A01320592828AE9
:1017E000D20702D4059AA242F6D9059C5D4A9442DA
:1017F000BCD8012B41F001013AD0022B00F08880C7
:10180000002401820A94818A890706D508E00A9992
:1018100001310A91818A8E0702D40A999142F6D940
:101820000A9A50498A42B5D8028BD207B2D50588A8
:101830000024ADB245F48065DF1EA3F1020C03F174
:10184000FF3E2646149A05809BB205E00134A5B2FE
:10185000AB4202F1010246D9A7428ADC00F0BD800A
:10186000A44500F0A080A645F0D1058A1570EDE7EB
:10187000002301820693838A9B0706D508E0069B16
:1018800001330693838A9F0702D4069B9342F6D9BD
:10189000069B344A93423FF67DAF038823F480636E
:1018A0001B041B0C0380038BDD077FF573AF0388DC
:1018B00000219BB243F4007303800791838A5E0684
:1018C00006D508E0079B01330793838A5D0602D49F
:1018D000079B9342F6D9079A224B9A423FF65AAF9A
:1018E000038A149A137000230193038BDA070DD532
:1018F000019B1C4A934203D908E0019B934205D8FF
:10190000019B01330193038BDB07F6D400202EE704
:10191000002301820893838A9C0706D508E0089B70
:1019200001330893838A990702D4089B9342F6D91E
:10193000089B0C4A93423FF62DAF038823F4806343
:101940001B041B0C038003889BB243F400630380D9
:10195000038BDC077FF51EAF00230993838A5B07A7
:101960000BD407E07F841E00099B01330993838A0F
:101970005F0702D4099B9342F6D9099A244B9A42F5
:101980003FF608AF0388149A9BB243F400730380B8
:10199000038A1370038A5370038823F400631B04C3
:1019A0001B0C03809FE70D96858A6D0706D508E01E
:1019B0000D9D01350D95858A6D0702D40D9D8D42D3
:1019C000F6D90D9D8D423FF6E5AE0588ADB245F4E2
:1019D00000750580058A157045E70C96858A6D07A8
:1019E00006D508E00C9D01350C95858A6D0702D45B
:1019F0000C9D8D42F6D90C9D8D423FF6CBAE0588ED
:101A000025F480652D042D0C0580058A157027E7C7
:101A10007F841E0030B404880025A4B244F480748E
:101A200086B004800195848AE5070DD4019C4A4D57
:101A3000AC4203D908E0019CAC4205D8019C0134BA
:101A40000194848AE407F6D5019D434CA5427CD8D5
:101A50004900002501820295818A890706D508E0A0
:101A6000029901310291818A8D0702D40299A14223
:101A7000F6D9029C38498C4203D9022006B030BC0A
:101A80007047048BE407F8D592B2002402820394D5
:101A9000828A140606D508E0039A01320392828AEC
:101AA000120602D4039A8A42F6D903992A4A91422D
:101AB0004FD80899E1B1DBB15C1E089BA4B21C446D
:101AC000591E002511F8013F03820495838A1B06E5
:101AD00006D508E0049B01330493838A1B0602D4D5
:101AE000049B9342F6D9049B934232D8A142E9D198
:101AF00000230593838A5A070DD4059B164A934207
:101B000003D908E0059B934205D8059B0133059353
:101B1000838A5B07F6D5059B0F4A934219D8038841
:101B200000219BB243F4007303800091038BDB0719
:101B300009D505E0009B01330093038BDD0702D537
:101B4000009B9342F6D9002098E7012006B030BCF4
:101B50007047042092E700BF7F841E0010B4084C39
:101B6000084A8B09A4FB0141A2FB0323890C4C1CEE
:101B70009B090122818083830484028010BC70470A
:101B800083DE1B43632D3E0500B585B00DF10F03C9
:101B9000014600930F2201230348FFF7A7FD9DF89C
:101BA0000F0005B05DF804FB00540040F0B5154689
:101BB0001C46074685B009010DF1100E0F4E41F08D
:101BC00007010EF8011D2D01E400CDF800E00146EB
:101BD00001233046202205F0300504F00804FFF709
:101BE00019FF2C4304AB03F8024D009339463046ED
:101BF00001232322FFF70EFF05B0F0BD0054004083
:101C0000F0B585B002AF0E46154601461C4600975A
:101C10000623A8221848FFF769FD9DF809309DF8B2
:101C200008209B0043EA9213990554BF1A4643F4D7
:101C30007C429DF80B309DF80A109B0043EA9113FB
:101C4000524232809A059DF80D209DF80C104FEA03
:101C5000820242EA911248BF43F47C435B4291B254
:101C60002B808B054ABF6FEA815313466FEA93536B
:101C7000238005B0F0BD00BF00540040BFF34F8F7C
:101C80000449054BCA6802F4E0621343CB60BFF31A
:101C90004F8FFEE700ED00E00400FA0538B500F1D3
:101CA000300529460446114802F0AEFD104802F006
:101CB0001DFE1049104802F04DFE50210D48FFF75F
:101CC000D9FA0C4802F078FF7F2809D8421C09494C
:101CD000284602F015F92046BDE83840FFF790BAD3
:101CE0000648BDE8384002F001BE00BF0C91000874
:101CF00030910008F008002050910008549100082D
:101D000010B504461148214602F07EFD30211048EE
:101D100002F07AFD0F49104802F01CFE50210D48D8
:101D2000FFF7A8FA0B4802F047FF302809D8421CF9
:101D30000849204602F0E4F82046BDE81040FFF7CD
:101D40005FBA0648BDE8104002F0D0BD68910008B7
:101D500090910008F008002050910008549100086C
:101D600038B50446054634F8F41F074802F04CFD28
:101D7000064802F0BBFD2146054802F0EBFD28466F
:101D8000BDE83840FFF73CBAB8910008DC91000884
:101D9000F491000810B50446124802F0A7FD04F1C2
:101DA000F001114802F0D6FDD4F8F030B3F57A7F97
:101DB0000ED3B3F57A5F06D94FF47A53C4F8F030F6
:101DC0000A4802F093FD2046BDE81040FFF718BA1C
:101DD0004FF47A73C4F8F030054802F087FDD4F868
:101DE000F030E6E7F8910008489200088492000875
:101DF0004C92000838B505460B4C0C4802F076FDB5
:101E000021460B4802F0A6FD20465021FFF732FA8A
:101E100023782846302B0CBF0023012385F8F830A7
:101E2000BDE83840FFF7ECB9F0080020BC9200088C
:101E30005091000838B505460E4C0F4802F056FD8B
:101E400021460E4802F086FD0D4802F04FFD204667
:101E50005021FFF70FFA23782846312B0CBF0F23B0
:101E6000002385F8F730FFF7CBF9BDE83840054887
:101E700002F03CBDF00800200893000850910008D3
:101E800058AC00084C9300082DE9F04100F1B00572
:101E9000294604462F4802F0B7FC2F4802F026FDE1
:101EA0002E492F4802F056FD2E4802F01FFD50210A
:101EB0002A48FFF7DFF9294802F07EFE3F282BD899
:101EC00029490646254802F065FE284980462348F0
:101ED00002F060FE0746B8F1000F10D068BB002387
:101EE00084F8F630224802F001FD294694F8F60005
:101EF00000F02CFC2046BDE8F041FFF781B994F8D2
:101F0000B03073B91B4802F0F1FC002FE7D0204637
:101F1000BDE8F041FFF774B91748BDE8F04102F0A1
:101F2000E5BC164802F0E2FC012084F8F6002946E0
:101F300000F00CFC002FEAD1D1E7721C28460749BB
:101F400001F0DEFF0E4802F0D1FC2046BDE8F04172
:101F5000FFF756B98093000894930008F00800201A
:101F60005091000858AC0008F4930008FC93000856
:101F70005094000804940008549100083894000814
:101F80006C94000830B504461C4B91B0196803A846
:101F9000FEF73AFE94F8F83093B9194D194802F05B
:101FA000A5FC2946184802F0D5FC28465021FFF729
:101FB00061F92B7803F0DF03592B0FD011B030BD3E
:101FC00094F8F610B4F8F42020460193009103AB86
:101FD00004F1300100F06CFD11B030BD94F8F80050
:101FE00094F8F610B4F8F42003AB01900091204669
:101FF00004F1300100F05CFD11B030BDDC040020C4
:10200000F0080020809400085091000830B5482066
:102010009DB0FFF7ABFA0DF10E0303AA0DF10A0113
:1020200005461820FFF7ECFD1820FFF7ADFD04462C
:10203000BDF90E00BDF90C30BDF90A20294600900B
:102040001B4802F0E1FB332C0CBF1A481A4802F07F
:102050004DFC1A4802F04AFC00210846FFF718FB25
:102060004FF49660FFF79EF808A85021FFF710FB89
:10207000C8B108A9124802F0C7FB08A806AA04A91B
:1020800000F072FC50B1DDE90601DDE90423CDE981
:1020900000010C4802F0B8FB1DB030BD0A4802F048
:1020A00025FC1DB030BD094802F020FC1DB030BD3C
:1020B0002495000878950008A8950008D495000894
:1020C00028960008A89600083C960008EC950008A1
:1020D00070B5C4B00346174AFF21064604A802F0B3
:1020E00003FD04A8FEF7E6F9134B0DF10F051A687E
:1020F000002302EB82025200019204A800951A46C6
:10210000FF21FEF74BF9044630B931460B4802F087
:102110007BFB204644B070BD002304A905480B5545
:1021200002F072FB287810F1FF3018BF012044B094
:1021300070BD00BF04AB0008DC040020DC96000882
:1021400010B51D4882B002F0D1FB1C4802F05CFBC8
:102150001B491C4802F0FEFB1B4802F0C7FB502144
:102160001748FFF787F81949154802F013FD184979
:1021700000B3134802F00EFD0446B8B9154802F04A
:10218000B5FBFFF723F8144802F0B0FB134B0094A3
:102190001A68214602EB820201922346224620461B
:1021A000FEF7FCF80E4802F0A1FBCEE70448FFF76B
:1021B0008FFFCAE702B010BD009700082098000802
:1021C000F00800205091000858AC0008249800083E
:1021D0002C9800083498000854980008DC0400206B
:1021E0007098000810B5164C8EB0164802F07EFBB1
:1021F000216801A8FEF708FD01A9134802F004FBBD
:102200001248FFF765FF216801A8FEF763FD01A9E9
:102210000F4802F0F9FA0F48FFF75AFF0E4802F094
:1022200065FB0E48FFF754FF0D4B0E4A0E491B6825
:10223000126809680D4802F0E7FA0EB010BD00BF41
:10224000DC040020809800089C980008B4980008DE
:10225000BC980008D4980008DC980008E4980008AE
:10226000CC00F81FD000F81FD400F81FEC9800082D
:102270000148FFF72DBF00BF0C990008F0B5FC2105
:10228000044683B07E4802F0BFFA41F61B2C7D4B1A
:102290004FF47A7E07CB1B78A52720602373AA20F2
:1022A0000023552601256160A260A4F8F4C0C4F89B
:1022B000F0E084F8303084F8B03084F8F63084F8F8
:1022C000F73084F8F97084F8FB0084F8FA6084F839
:1022D000F8506D4802F00AFB2046FEF791FF6B486C
:1022E00002F004FB6A4802F001FB6A4F29466A4883
:1022F00002F08AFA6948FEF7DDF83A680023019295
:1023000000931A4619461846FEF748F80646002874
:1023100000F09180624802F0E9FA6248FFF7D8FEC7
:10232000B0FA80F46048FFF7D3FE6409002808BFC4
:1023300001345E4802F0DAFA41F28830FEF732FFEB
:102340005B48FFF7C5FE002808BF01345648FFF779
:10235000BFFEA4B2002808BF0134544802F0C6FAF8
:1023600041F28830FEF71EFF5248FFF7B1FEA4B2DB
:10237000002808BF01345048FFF7AAFEA4B2002885
:1023800008BF01344848FFF7A3FEA4B2002808BFE5
:102390000134464802F0AAFA41F28830FEF702FF03
:1023A0004648FFF795FEA4B2002808BF0134444810
:1023B000FFF78EFEA4B2002808BF01343A48FFF7A9
:1023C00087FEA4B2002808BF0134384802F08EFA14
:1023D00041F28830FEF7E6FE3A48FFF779FE182012
:1023E000FFF7D2FB3328A4B246D0374802F07EFA7A
:1023F0000134A4B2354802F079FA4820FFF7A8F872
:10240000334802F073FA4820FFF7B0F8A0F10F0349
:10241000DBB2142B01461ED92E4802F0F5F92E48E6
:1024200002F064FA2D4802F061FA2B4803B0BDE8CF
:10243000F04002F05BBA0135294802F057FA042D4A
:102440007FF454AF274802F0DFF904F1B0013046C1
:1024500000F07CF95EE7244802F0D6F91E4802F04D
:1024600045FA002CDED1214802F040FA1A4803B0A8
:10247000BDE8F04002F03ABA1D4802F037FAB9E779
:10248000189900084C9900085C9900086C9900089C
:1024900090990008DC040020B4990008C499000851
:1024A0001C9A0008389A00080C990008449A000801
:1024B0005C9A00086C9A0008789A0008909A0008C4
:1024C000A49A0008B49A0008C09A0008F89A000874
:1024D000349B00084C9B0008B89B00083C9C0008FB
:1024E000CC990008D89900080C9C00084C9C000866
:1024F000E49A000820F02003413B192B05D930381D
:1025000009288CBF0020012070470120704700BFC0
:10251000818003885B06FCD5704700BF0B785BB1F8
:1025200001F1FF029BB2838003885B06FCD511F8A2
:10253000013F0BB19142F5D1704700BF03889B0664
:10254000FCD58088C0B270472DE9F8430546104697
:102550000C461E4601F01AFC01F08CF8804620461D
:10256000894601F065F80022174B01F0D7F80246C2
:102570000B464046494601F0FBF901F001FB0746D6
:1025800001F05CFC044601F001FC0146384601F014
:102590004BFB01F06FF800220B4B01F0BFF801F08C
:1025A000CFFA40EA041080B2288136B942F20C0317
:1025B000AB8100232B80BDE8F88342F22C03AB8172
:1025C00000232B80BDE8F8830000304003789B098E
:1025D0000B700378C3F301134B70037803F00F0300
:1025E0008B7043785B09CB70437803F01F030B714A
:1025F0008278C37843EA0223CB8070472DE9F84FF5
:102600004F4D00F01F002C7851270026CC700C7124
:1026100048700F708E70187801342F282C70BDF818
:102620002C8002D00020BDE8F88F464C17460D469E
:1026300020461946802202F0C7FA2378002B5AD090
:1026400032464149601C02E010F8013B6BB12F2B70
:10265000FAD1092AE6D8531C41F8220000F8016C8F
:102660009AB210F8013B002BF1D1002A43D0052F7C
:10267000D8D91C46013ADFF8D0A01FFA82F9052606
:10268000A3B2002B5AF8040B14BF4FF0000B6FF0ED
:102690004F0B02F091FA81B20C2921D84BEA0000CD
:1026A000731CA8559EB2A1B15AF8042C731C107863
:1026B0009BB29F42A855B5D90E44B6B205E012F8B8
:1026C000010FE8548BB29F42ACD99E4203F1010145
:1026D000F5D1A14510D0B74204F10104D0D8A1E74B
:1026E000731C4BF00D0B05F806B00D389BB202368B
:1026F000E854B6B2D8E705260A9BF3B1B8F1000F4B
:102700001BD0FF23AB550A9B1A78731C0236B6B256
:102710009BB2B742EA5485D90A9B08F1FF3292B2C4
:102720001A4406E013F8010FA8558EB2B7427FF69F
:1027300079AF9A4206F10101F4D13046BDE8F88F35
:10274000E809002040090020C00900202DE9F041DF
:102750000646ADF5007D6C480F4602F0C7F8FEF75F
:1027600035FD6A4802F0C2F8FEF716FD684D0023F9
:102770002A68804602EB8202019200931A461946AB
:102780001846FDF70BFE0446FEF706FD1CBB61482C
:1027900002F0ACF8A046012421465F4802F034F86C
:1027A0005E48FDF787FE2A68002352080192CDF8A3
:1027B00000801A4619461846FDF7F0FD013498BB13
:1027C000042CE9D1564802F091F8012420460DF579
:1027D000007DBDE8F081C8EB0001524802F014F81A
:1027E0005148FDF767FE2B6803A803EB43020192F3
:1027F00000230DF10B0200924FF4FA711A46FDF717
:10280000CDFD9DF80B4004BB012E11D0474903A814
:1028100002F0EDF910B3464802F068F801242046B2
:102820000DF5007DBDE8F081424802F05FF8D7E782
:1028300087B13B7873B1404903A802F0D8F900286A
:1028400057D03E4802F052F8E8E73D4802F04EF813
:102850000024BBE73B4802F049F8DFE73A4F3B482A
:1028600003AE02F043F80FCF0FC697E8030086E8E7
:10287000030003A8FDF71EFE2A68002302EB4202B4
:1028800001920DF10B02009203A81A464FF4FA715F
:10289000FDF784FD9DF80B501D4E0DBB2C4802F03A
:1028A00025F82C48FDF706FE33680DF10B028DE884
:1028B0000C0029462B462A462846FDF76FFD9DF859
:1028C0000B308BB932680DF10B0102EB82020091E3
:1028D000019219461A461846FDF760FD012475E776
:1028E0001D4802F003F871E71C482C4601F0FEFF7A
:1028F0006CE71B4801F0FAFF3B461A4A4FF4FA71A5
:1029000003A802F0F1F8B4E7F0A2000808A3000859
:10291000DC04002024A30008B4990008C49900082E
:10292000A4A500086CA3000804A600089CA4000845
:102930001CA50008E0A5000810A4000888A4000851
:102940008CA30008D0A3000804A50008B4A40008C4
:102950004CA5000878A500082CA5000888A500084B
:1029600024A400086CA400082DE9704F8B4690B099
:102970004B49924602F080FFB0B14A4902F00AF991
:1029800090B9044606AE4649002002F075FF0134B6
:10299000E4B2054646F8040F0028F4D1062C03D90A
:1029A0000C9B1B78412B04D00023184610B0BDE8C7
:1029B000708F079C204602F0FFF80328F4D9099E87
:1029C000304602F0F9F80328EED9227804A88DF8F1
:1029D000102062788DF812508DF8112001F04EFA17
:1029E000CDE90001A01C01F049FA327880468DF84B
:1029F0001020727804A88DF81120B27889468DF8DD
:102A000013508DF8122001F039FACDE90201F01CC3
:102A100001F034FA04460D46BBF1000F12D0089BBA
:102A200040461B7849464E2B4FF000021E4B21D0EA
:102A300000F09EFFDDE9002300F0BEFC01F1004143
:102A40008BE80300BAF1000F27D00A9B20461B78C1
:102A50002946452B4FF00002134B14D000F088FF9D
:102A6000DDE9022300F0A8FC01F100418AE803003F
:102A700001239AE700F07CFFDDE9002300F09CFCD5
:102A8000CBE90001DEE700F073FFDDE9022300F08F
:102A900093FC0123CAE9000187E7012385E700BF12
:102AA00014A6000818A6000800004E400000000010
:102AB0002DE9F04FB24DADF53F7D19AC0D900C9363
:102AC0008B46924695E80F0007C49DF8206323705B
:102AD000432200210DF17100BEADBEAC9DF82483F0
:102AE00001F019FAA2A1D1E90001A3A3D3E90023BF
:102AF00064E9AC0165E9AA23002E54D0A14801F095
:102B0000F5FE502119A8FEF7C3FD034600285AD14F
:102B10009D481F4601F0EAFE4820FEF727FDDFF83A
:102B20009C8210AB0DF13E020FA981461820FFF7E1
:102B300067F8D8F80000FEF703F8D5E90023CDE9DF
:102B40000823BDF94010BDF93E20BDF93C3030CC22
:102B5000049003910292C8218C4A0193CDF8009011
:102B60000C9B0A972DA8CDE9064501F0BDFF2DA8C5
:102B700002F022F82DA90246854801F045FE002EFC
:102B80004CD0D8F800102DA801EB4101FEF704F954
:102B9000002840F0D5807F4801F0A8FE01200DF507
:102BA0003F7DBDE8F08F7C4801F0A0FE5B465246B9
:102BB0000D997A4801F028FE502119A8FEF768FD0A
:102BC00003460028A4D019A82A462146FFF7CCFEC8
:102BD0000346002800F0BC800127B8F1000F9BD00D
:102BE0000FF29419D9E900896D4801F07FFED4E90C
:102BF0000023D5E900010297CDE90001694801F001
:102C000003FE5BA3D3E90023CDE900896648C4E94C
:102C10000023C5E9008901F0F7FD7DE72DA801F04B
:102C2000CBFF5FAC80B22DAB4FF4BD72019000932F
:102C300021465B460220FFF7E1FCADF84200BDF8FB
:102C400042105A4889B201F0DFFDADF84660BDF888
:102C50004630BDF842209BB292B29A421BD9BDF8D1
:102C6000463053489BB2E35C0F2BBDF8463088BF1B
:102C700050489BB2E15C01F0C7FDBDF8463001331E
:102C80009BB2ADF84630BDF84620BDF8423092B256
:102C90009BB29A42E3D3484801F028FED8F80000DE
:102CA000FDF72CFCFF28454D06465AD0BDF84220C2
:102CB0002B6892B203EB43038DE80C000D9952464A
:102CC0002346FDF7EBFC042802D03D4801F00EFE40
:102CD000FEF762FA11AF00233B80D8F800300DF107
:102CE0003B0AFF2203EB430381468AF800200025BC
:102CF00033B90EE0D8F8003003EB4303AB4208D9F8
:102D000039465046FDF772FD9AF800300135B3425E
:102D1000F0D1FEF741FA9AF800300546B34259D097
:102D2000284801F0E3FDD8F800103046FDF75CFCC0
:102D3000002800F0978001200DF53F7DBDE8F08F61
:102D4000214801F0D3FD01200DF53F7DBDE8F08F56
:102D50001E481F4601F0CAFDB8F1000F3FF4DCAE7B
:102D60003EE71B4801F0C2FD002018E7AFF30080EA
:102D70009411178046F74D40D1AE42CA4F3E3E40B7
:102D8000A0A2000820A6000864A6000830A8000839
:102D9000CCA8000808A9000834A6000848A6000826
:102DA00044A70008A0A70008E8A7000824A9000875
:102DB00040A9000844A9000858AC0008DC04002021
:102DC00068A9000888A90008ECA80008B8A60008AF
:102DD00048A9000839880029A2D0B1F5BD7F49D2A1
:102DE000D8F80020002302EB4202019200941A4618
:102DF0003046FDF76BFD17A92046FFF7E7FBC9EB4F
:102E000005039DF860209DF85F101C4801F0FCFC54
:102E10001B4801F06BFD0023ADF84630BDF846308D
:102E20003A889BB29A4219D9BDF8463015489BB2F0
:102E3000E35C0F2BBDF8463088BF13489BB2E15CC2
:102E400001F0E2FCBDF846303A8801339BB2ADF8A0
:102E50004630BDF846309BB29A42E5D80B4801F0A7
:102E600045FD60E70A4801F041FD01200DF53F7D79
:102E7000BDE8F08F074801F0C7FC54E7A0A900089F
:102E8000D8A9000840A9000844A9000858AC0008C7
:102E90001CAA0008F0A90008F0B57149D5B0714826
:102EA00001F0B2FC704801F021FD15A8FEF7DCF935
:102EB0009DF85430002B40F0A4806C4801F016FDC2
:102EC000BDF848116A4801F09FFC9DF88500FFF7A6
:102ED00011FB20B19DF88430002B40F0AE80654896
:102EE00001F004FD9DF80501FFF704FB20B19DF8FA
:102EF0000431002B40F0A6805F4801F0F7FC9DF8FC
:102F00004A115E4801F080FC5D4801F07DFC9DF8AF
:102F10004B315C4F0F2B0CBF5B485C4801F0E6FC6B
:102F200051995B4801F070FC9DF84C11594801F033
:102F30006BFC594801F0DAFC3B68002B66D03B790A
:102F4000002B63D000263546002D52D0042D54D0DE
:102F50006824013504FB0672ADB204FB05F4711C54
:102F600004324E4801F050FC3B592E463C4413B10C
:102F70002379002BE8D14A4801F046FC01A94948D1
:102F800001F0E8FC502101A8FEF774F901A800F057
:102F900078FF013800F0FF04434801F0A7FCA54288
:102FA00045D9682303FB04F415A83B5998473E48CC
:102FB0003E4C01F09BFC3E4801F098FC20684268C2
:102FC0005368013B002B536041DB426813680133B7
:102FD0001360206842685368013B002B53603ADB62
:102FE0004268136801331360324801F07FFC55B02A
:102FF000F0BD314801F07AFCAAE7304801F076FCD8
:10300000A6E715A92E4801F0FFFB59E7244801F077
:10301000FBFB01A9234801F09DFC01A85021FEF70C
:1030200029F901A800F02DFF1F4801F05FFC0DF108
:103030000501244801F0E8FBB9E721A9224801F085
:10304000E3FB4FE741A9214801F0DEFB57E7416868
:1030500001F054FCBDE7416801F050FCC4E700BF3B
:103060003CAA000854AA0008ACAA0008D4AA000888
:103070000CAB000820AB000854AB000880AB000884
:10308000A0AB0008889C0008B8AB0008C0AB0008E3
:10309000D0AB000800AC000818AC000888AC0008F1
:1030A0002098000850910008B89B0008600000209C
:1030B000ACAC000858AC00085CAC000874AC00086C
:1030C000F8AA000894AC000840AB000870AB0008F8
:1030D00070B5DAB0FEF7F4F800231A460321182081
:1030E000FEF764FD694801F001FC4820FEF730FA64
:1030F000674801F0FBFB674801F0F8FB1BA8FEF7EF
:10310000B3F8599B644A23F0FF03934205D0634808
:1031100001F0ECFB1BA8FFF7B1F843F69822579B90
:10312000A3F57A73934205D95D4801F0DFFB4FF4B4
:103130007A7357939DF89C302F2B10D0594801F08B
:10314000D5FB47A99DF86201FFF700FB002840F07E
:103150008C80554801F0CAFBFFF79EFEFCE7534BFD
:103160001B8A5B06EAD59DF863310F2BE6D147A990
:103170009DF86201FFF7EAFA044658B34C4D05E0AA
:103180004C4801F041FB3220FEF70CF82868484C0F
:10319000FDF756FE0028F3D0474801F0A7FB216851
:1031A00002A8FDF731FDBDF85C01FDF7EFFE41F22D
:1031B0007073579A9A4221D9404801F025FB216843
:1031C000012001EB4101FDF785FE20BB3C4801F0E9
:1031D0008DFB20E03B4801F089FB1BA88DF8634183
:1031E000FEF70EF8BFF34F8F3749384BCA6802F429
:1031F000E0621343CB60BFF34F8FFEE7344801F02A
:1032000075FB2168002001EB4101FDF763FE10B161
:10321000304801F06BFB41F27074002611E09DF81C
:1032200064119DF86231BDF860210191009327A9D6
:1032300002AB1BA8FFF73CFC0020FDF7BDFFFDF72C
:1032400009FF0120FDF7B8FF579BA342E7D9FDF71F
:10325000BDFF2A68002302EB8202019200961A4603
:1032600019461846FDF79AF8D9E71B4801F03EFBCE
:103270000F4B0020196801EB4101FDF72BFE0028E0
:103280007FF46AAF154801F031FB65E7D4AC000864
:10329000F0AC000814AD000800A555AA34AD000834
:1032A000A8AD0008A8B00008FCAD00080008024066
:1032B000DC04002034AF000858AC000868AF0008F8
:1032C00084AF0008F4AE000800ED00E00400FA0549
:1032D000DCAF000858B000084CAE000870AE000823
:1032E0000549064A064B9A42BEBF51F8040B42F804
:1032F000040BF8E70348004720B400080000002052
:10330000A8000020810100082649274A002301E087
:1033100041F8043B9142FBD3FFF7DAFEFEE7FEE7FC
:10332000FEE7FEE7FEE7FEE7FEE7FEE7FEE7FEE775
:10333000FEE7FEE7FEE7FEE7FEE7FEE7FEE7FEE765
:10334000FEE7FEE7FEE7FEE7FEE7FEE7FEE7FEE755
:10335000FEE7FEE7FEE7FEE7FEE7FEE7FEE7FEE745
:10336000FEE7FEE7FEE7FEE7FEE7FEE7FEE7FEE735
:10337000FEE7FEE7FEE7FEE7FEE7FEE7FEE7FEE725
:10338000FEE7FEE7FEE7FEE7FEE7FEE7FEE7FEE715
:10339000FEE7FEE7FEE7FEE7FEE7FEE7FEE7FEE705
:1033A000FEE7FEE7A8000020FC09002081F00041B4
:1033B00002E000BF83F0004330B54FEA41044FEA1A
:1033C000430594EA050F08BF90EA020F1FBF54EAB5
:1033D000000C55EA020C7FEA645C7FEA655C00F051
:1033E000E2804FEA5454D4EB5555B8BF6D420CDD22
:1033F0002C4480EA020281EA030382EA000083EAA5
:10340000010180EA020281EA0303362D88BF30BD44
:1034100011F0004F4FEA01314FF4801C4CEA11319A
:1034200002D0404261EB410113F0004F4FEA0333F9
:103430004CEA133302D0524263EB430394EA050F84
:1034400000F0A780A4F10104D5F1200E0DDB02FAF3
:103450000EFC22FA05F2801841F1000103FA0EF287
:10346000801843FA05F359410EE0A5F120050EF14D
:10347000200E012A03FA0EFC28BF4CF0020C43FA7E
:1034800005F3C01851EBE37101F0004507D54FF08B
:10349000000EDCF1000C7EEB00006EEB0101B1F5DB
:1034A000801F1BD3B1F5001F0CD349085FEA300021
:1034B0004FEA3C0C04F101044FEA445212F5800F2C
:1034C00080F09A80BCF1004F08BF5FEA500C50F1C9
:1034D000000041EB045141EA050130BD5FEA4C0CAC
:1034E000404141EB010111F4801FA4F10104E9D135
:1034F00091F0000F04BF01460020B1FA81F308BF2C
:103500002033A3F10B03B3F120020CDA0C3208DDF7
:1035100002F1140CC2F10C0201FA0CF021FA02F1D2
:103520000CE002F11402D8BFC2F1200C01FA02F142
:1035300020FA0CFCDCBF41EA0C019040E41AA2BF67
:1035400001EB0451294330BD6FEA04041F3C1CDA2F
:103550000C340EDC04F11404C4F1200220FA04F04F
:1035600001FA02F340EA030021FA04F345EA0301F9
:1035700030BDC4F10C04C4F1200220FA02F001FABB
:1035800004F340EA0300294630BD21FA04F029463D
:1035900030BD94F0000F83F4801306BF81F48011D6
:1035A0000134013D4EE77FEA645C18BF7FEA655C49
:1035B00029D094EA050F08BF90EA020F05D054EA1B
:1035C000000C04BF1946104630BD91EA030F1EBF20
:1035D0000021002030BD5FEA545C05D14000494124
:1035E00028BF41F0004130BD14F580043CBF01F517
:1035F000801130BD01F0004545F0FE4141F47001FD
:103600004FF0000030BD7FEA645C1ABF19461046D7
:103610007FEA655C1CBF0B46024650EA013406BFD8
:1036200052EA033591EA030F41F4002130BD00BF97
:1036300090F0000F04BF0021704730B54FF4806454
:1036400004F132044FF000054FF0000150E700BFD5
:1036500090F0000F04BF0021704730B54FF4806434
:1036600004F1320410F0004548BF40424FF0000121
:103670003EE700BF42004FEAE2014FEA31014FEA64
:1036800002701FBF12F07F4393F07F4F81F06051B3
:10369000704792F0000F14BF93F07F4F704730B522
:1036A0004FF4607401F0004521F0004120E700BFB5
:1036B00050EA010208BF704730B54FF000050AE03C
:1036C00050EA010208BF704730B511F0004502D53D
:1036D000404261EB41014FF4806404F132045FEA3F
:1036E000915C3FF4DCAE4FF003025FEADC0C18BFE4
:1036F00003325FEADC0C18BF033202EBDC02C2F1DA
:10370000200300FA03FC20FA02F001FA03FE40EA6B
:103710000E0021FA02F11444C1E600BF70B54FF06B
:10372000FF0C4CF4E06C1CEA11541DBF1CEA13554D
:1037300094EA0C0F95EA0C0F00F0DEF82C4481EAB5
:10374000030621EA4C5123EA4C5350EA013518BFD5
:1037500052EA033541F4801143F4801338D0A0FBC2
:1037600002CE4FF00005E1FB02E506F00042E0FB6F
:1037700003E54FF00006E1FB03569CF0000F18BF75
:103780004EF0010EA4F1FF04B6F5007F64F540741D
:1037900004D25FEA4E0E6D4146EB060642EAC621B0
:1037A00041EA55514FEAC52040EA5E504FEACE2E1D
:1037B000B4F1FD0C88BFBCF5E06F1ED8BEF1004F20
:1037C00008BF5FEA500E50F1000041EB045170BD9C
:1037D00006F0004646EA010140EA020081EA0301E0
:1037E000B4EB5C04C2BFD4EB0C0541EA045170BDDC
:1037F00041F480114FF0000E013C00F3AB8014F156
:10380000360FDEBF002001F0004170BDC4F100049E
:10381000203C35DA0C341BDC04F11404C4F120051F
:1038200000FA05F320FA04F001FA05F240EA02007A
:1038300001F0004221F0004110EBD37021FA04F6B0
:1038400042EB06015EEA430E08BF20EAD37070BD6A
:10385000C4F10C04C4F1200500FA04F320FA05F0C9
:1038600001FA04F240EA020001F0004110EBD370CB
:1038700041F100015EEA430E08BF20EAD37070BD3B
:10388000C4F1200500FA05F24EEA020E20FA04F314
:1038900001FA05F243EA020321FA04F001F00041C3
:1038A00021FA04F220EA020000EBD3705EEA430E34
:1038B00008BF20EAD37070BD94F0000F0FD101F063
:1038C0000046400041EB010111F4801F08BF013C9C
:1038D000F7D041EA060195F0000F18BF704703F0DA
:1038E0000046520043EB030313F4801F08BF013D61
:1038F000F7D043EA0603704794EA0C0F0CEA13551D
:1039000018BF95EA0C0F0CD050EA410618BF52EAD6
:103910004306D1D181EA030101F000414FF00000DC
:1039200070BD50EA410606BF1046194652EA4306EA
:1039300019D094EA0C0F02D150EA013613D195EA5E
:103940000C0F05D152EA03361CBF104619460AD1A6
:1039500081EA030101F0004141F0FE4141F47001B0
:103960004FF0000070BD41F0FE4141F4780170BDA0
:1039700070B54FF0FF0C4CF4E06C1CEA11541DBF05
:103980001CEA135594EA0C0F95EA0C0F00F0A7F807
:10399000A4EB050481EA030E52EA03354FEA013134
:1039A00000F088804FEA03334FF0805545EA131347
:1039B00043EA12634FEA022245EA111545EA10650F
:1039C0004FEA00260EF000419D4208BF964244F1A6
:1039D000FD0404F5407402D25B084FEA3202B61AC5
:1039E00065EB03055B084FEA32024FF480104FF499
:1039F000002CB6EB020E75EB030E22BFB61A75460D
:103A000040EA0C005B084FEA3202B6EB020E75EB9F
:103A1000030E22BFB61A754640EA5C005B084FEA07
:103A20003202B6EB020E75EB030E22BFB61A7546D4
:103A300040EA9C005B084FEA3202B6EB020E75EBDF
:103A4000030E22BFB61A754640EADC0055EA060EA0
:103A500018D04FEA051545EA16754FEA06164FEAE3
:103A6000C30343EA52734FEAC2025FEA1C1CC0D18F
:103A700011F4801F0BD141EA00014FF000004FF01C
:103A8000004CB6E711F4801F04BF01430020B4F1DD
:103A9000FD0C88BFBCF5E06F3FF6AFAEB5EB030C95
:103AA00004BFB6EB020C5FEA500C50F1000041EB92
:103AB000045170BD0EF0004E4EEA113114EB5C045F
:103AC000C2BFD4EB0C0541EA045170BD41F4801132
:103AD0004FF0000E013C90E645EA060E8DE60CEA3A
:103AE000135594EA0C0F08BF95EA0C0F3FF43BAF57
:103AF00094EA0C0F0AD150EA01347FF434AF95EA0E
:103B00000C0F7FF425AF104619462CE795EA0C0FF1
:103B100006D152EA03353FF4FDAE1046194622E7BE
:103B200050EA410618BF52EA43067FF4C5AE50EA98
:103B300041047FF40DAF52EA43057FF4EBAE12E788
:103B40004A0011D212F5001211D20DD56FF478731C
:103B5000B3EB62520ED44FEAC12343F0004343EA71
:103B6000505323FA02F070474FF00000704750EABC
:103B7000013002D14FF0FF3070474FF00000704726
:103B80004FEA4102B2F1E04324BFB3F5001CDCF17F
:103B9000FE5C0DD901F0004C4FEAC0024CEA5070B7
:103BA000B2F1004F40EB830008BF20F001007047E6
:103BB00011F0804F21D113F13872BCBF01F00040E9
:103BC000704741F480114FEA5252C2F11802C2F11B
:103BD000200C10FA0CF320FA02F018BF40F001009C
:103BE0004FEAC1234FEAD32303FA0CFC40EA0C004E
:103BF00023FA02F34FEA4303CCE77FEA625307D18B
:103C000050EA01331EBF4FF0FE4040F440007047C1
:103C100001F0004040F0FE4040F40000704700BF5B
:103C200080F0004002E000BF81F0004142001FBF71
:103C30005FEA410392EA030F7FEA226C7FEA236C7A
:103C40006AD04FEA1262D2EB1363C1BFD21841406F
:103C500048404140B8BF5B42192B88BF704710F005
:103C6000004F40F4000020F07F4018BF404211F0A8
:103C7000004F41F4000121F07F4118BF494292EA10
:103C8000030F3FD0A2F1010241FA03FC10EB0C003C
:103C9000C3F1200301FA03F100F0004302D54942C9
:103CA00060EB4000B0F5000F13D3B0F1807F06D376
:103CB00040084FEA310102F10102FE2A51D2B1F16E
:103CC000004F40EBC25008BF20F0010040EA030063
:103CD0007047490040EB000010F4000FA2F1010210
:103CE000EDD1B0FA80FCACF1080CB2EB0C0200FA9A
:103CF0000CF0AABF00EBC25052421843BCBFD040E8
:103D00001843704792F0000F81F4000106BF80F461
:103D100000000132013BB5E74FEA41037FEA226C24
:103D200018BF7FEA236C21D092EA030F04D092F0EF
:103D3000000F08BF0846704790EA010F1CBF002023
:103D4000704712F07F4F04D1400028BF40F0004080
:103D5000704712F100723CBF00F50000704700F0A0
:103D6000004343F0FE4040F4000070477FEA2262C7
:103D700016BF08467FEA23630146420206BF5FEA98
:103D8000412390EA010F40F4800070474FF0000398
:103D900004E000BF10F0004348BF40425FEA000C5F
:103DA00008BF704743F0964301464FF000001CE007
:103DB00050EA010208BF70474FF000030AE000BF5D
:103DC00050EA010208BF704711F0004302D540429B
:103DD00061EB41015FEA010C02BF8446014600200D
:103DE00043F0B64308BFA3F18053A3F50003BCFA28
:103DF0008CF2083AA3EBC25310DB01FA02FC6344D5
:103E000000FA02FCC2F12002BCF1004F20FA02F2DB
:103E100043EB020008BF20F00100704702F12002CE
:103E200001FA02FCC2F1200250EA4C0021FA02F22F
:103E300043EB020008BF20EADC70704742000ED25C
:103E4000B2F1FE4F0BD34FF09E03B3EB126209D4D5
:103E50004FEA002343F0004323FA02F070474FF08B
:103E60000000704712F1610F01D1420202D14FF000
:103E7000FF3070474FF00000704700BF002101F095
:103E8000F3BC0A22002101F0DBBD000008B5074B9E
:103E9000044613B10021AFF30080054B1868836A14
:103EA00003B19847204605F001F800BF000000006C
:103EB000D8B000080E4B70B51E460E4C0025E41A13
:103EC000A410A54204D056F8253098470135F8E7EC
:103ED00004F0EEFF084B094C1E46E41AA41000251E
:103EE000A54204D056F8253098470135F8E770BD53
:103EF000A0000020A0000020A0000020A4000020BE
:103F000010B5431E0A44914204D011F8014B03F846
:103F1000014FF8E710BD03460244934202D003F874
:103F2000011BFAE770472DE9F04788B0149F002B7A
:103F30001E461299B8BF03F1004327F02007B6BF11
:103F40001E4600232D23462F1446109DDDF84CA05D
:103F50000B7003D0452F03D1013501E0032300E0AE
:103F6000022307AA049206AA03928DE82804224697
:103F7000334601F0BDFE472F804602D1119BDB077F
:103F800028D5462F08EB050911D198F80030302BC1
:103F90000AD1002200232046314604F0E9FE18B978
:103FA000C5F10105CAF80050DAF800309944002242
:103FB00000232046314604F0DBFE08B9302202E03F
:103FC000CDF81C9006E0079B994503D9591C079131
:103FD0001A70F8E74046079B159AC8EB0303136075
:103FE00008B0BDE8F087034673B50029B8BF494261
:103FF00003F8022BB4BF2D222B22092942701ADDAF
:104000000DF1070216460A2591FBF5F405FB141184
:10401000092C01F1300102F8011D2146F4DC303198
:10402000541E02F8011CB4421A460AD214F8012B9D
:1040300003F8012BF7E71A463024214402F8024B1B
:104040005970101A02B070BD2DE9F04F91B00C46B6
:10405000DDF8688016461F46054603F0A7F803689A
:104060001846099300F0A8FD00230E93D8F80030FD
:104070000A90073323F0070303F1080294F818901D
:10408000D4F800B0C8F80020D3E90023C4E9122313
:10409000D4F84CA0D4F848802AF000430B934FF09A
:1040A000FF32A74B40460B9904F094FEA0B94FF0A5
:1040B000FF32A34B40460B9904F06EFE60B900221C
:1040C00000234046514604F05DFE10B12D2384F8D4
:1040D00043309C4B9C4A0AE0424653464046514678
:1040E00004F078FE002800F09281984B984AB9F1CC
:1040F000470F8CBF90469846032323612BF004039F
:1041000023604FF0000A3DE0B9F1670F00F08A81AB
:10411000B9F1470F00F086812360019363680021A5
:104120000DF13302059002920093424653460691E8
:10413000CDF81090CDF80CE02846FFF7F4FE09F01A
:10414000DF03472B804600F08481B9F1650F0D999C
:1041500000F28D8101394A4604F150000D91FFF7BC
:1041600042FF0E9A82468318012A236100F37C8164
:104170002268D10700F178819DF8333013B12D23E7
:1041800084F84330009733460FAA2146284600F0B2
:104190009FF9013002D14FF0FF3096E123685A05B4
:1041A00001D4236965E0B9F1650F40F2D580D4E907
:1041B00012010022002304F0DBFD78B30123654ADD
:1041C00031462846B8470130E5D00E9B0D9A9A42F9
:1041D0000BDB2368D80708D423689B0740F11181C3
:1041E0004FF0000804F1190906E10A9B099A3146CB
:1041F0002846B8470130CED04FF0000804F11A0924
:104200000E9B013B9845E7DA01234A463146284692
:10421000B8470130BFD008F10108F1E70D9B002B32
:1042200029DC01234B4A31462846B8470130B2D039
:104230000D9B23B90E9B13B92368D907CCD50A9BD4
:10424000099A31462846B8470130A4D04FF00009FA
:1042500004F11A0A0D9B5B42994509DA0123524683
:1042600031462846B847013095D009F10109F1E7F8
:104270000E9B4246A7E00E9AA36D9A42A8BF1A462B
:10428000002A914606DC4FF0000A29EAE97904F198
:104290001A0B11E01346314642462846B847013012
:1042A000F1D178E701235A4631462846B847013014
:1042B0003FF471AF0AF1010AA36DC9EB0302924505
:1042C000F0DB08EB03090D9A0E9B9A420FDB236883
:1042D000DA070CD40E9B0D9A9844C9EB08089B1A78
:1042E0009845A8BF9846B8F1000F08DC0FE00A9B7C
:1042F000099A31462846B8470130EBD14BE743468F
:104300004A4631462846B84701303FF444AF4FF0A3
:10431000000928EAE87804F11A0A09E00123524664
:1043200031462846B84701303FF435AF09F101095D
:104330000D9A0E9B9B1AC8EB03039945EEDB4BE7E6
:10434000FFFFEF7FDCB00008E0B00008E4B0000839
:10435000E8B000080EB400080E9A012A01DCDB0761
:1043600038D50123424631462846B84701303FF44C
:1043700012AF0A9B099A31462846B84701303FF4EC
:104380000AAFD4E912010022002304F0F1FC20B1AD
:104390004FF0000804F11A090EE00E9B08F101022B
:1043A000013B19E001234A4631462846B84701300F
:1043B0003FF4F1AE08F101080E9B013B9845F1DB9B
:1043C000534604F1500231462846B84701307FF485
:1043D00003AFE0E64246012331462846B8470130A4
:1043E000EED1D8E601234A4631462846B847013087
:1043F0003FF4D1AE08F10108E3680F9A9B1A984583
:10440000F0DBE0680F9B9842B8BF18465DE0626839
:104410000EA8531C0DF1340E4BF480637FF474AE80
:10442000062201E012B90122626075E600210691C0
:104430000DF133018DE80C00236005904246CDF864
:104440001090CDF80CE0029153462846FFF76BFD23
:1044500080460D9BD81C02DB626893421DDDA9F1EA
:1044600002095FFA89F970E60133236184E6B9F144
:10447000660F14D10029636807DD216113B9226832
:10448000D2071DD501330B4419E013B92268D007B8
:1044900001D5023313E0012311E04FF067090D9BB2
:1044A0000E9A934205DB22682361D10708D50133B8
:1044B00005E0002BD4BFC3F10203012313442361A1
:1044C0000D9B4FF0000AA36556E611B0BDE8F08FD2
:1044D0002DE9F04791461F460A698B6806469342CC
:1044E000B8BF1346C9F8003091F843200C46DDF8F8
:1044F000208012B10133C9F800302368990642BF09
:10450000D9F800300233C9F80030256815F00605E7
:1045100010D104F1190A07E001235246394630460A
:10452000C04701301AD00135E368D9F800209B1A42
:104530009D42F1DB94F843302268003318BF012319
:1045400092060FD5E118302081F843005A1C94F8E8
:1045500045102244023382F8431003E04FF0FF304D
:10456000BDE8F08704F1430239463046C0470130C8
:10457000F4D02268D9F80050E36802F00602042A59
:1045800008BF5D1B2269A3680CBF25EAE5750025FD
:104590009342C4BF9B1AED184FF000091A344D45E1
:1045A00009D00123224639463046C0470130D5D0D4
:1045B00009F10109F3E70020BDE8F0872DE9F04398
:1045C00017460A7E85B06E2A984606460C460C9B16
:1045D00001F1430E00F0AE8011D8632A22D009D831
:1045E000002A00F0BB80582A40F0CA8081F845209C
:1045F000834955E0642A1ED0692A1CD0C0E0732A82
:1046000000F0B08009D86F2A2ED0702A40F0B88010
:104610000A6842F020020A603EE0752A24D0782A17
:104620003AD0ADE01A6801F14205111D1960136816
:1046300084F84230A8E021681A6811F0800F02D097
:10464000111D196008E011F0400F02F1040119601A
:1046500002D0B2F9003000E01368002B3CDA2D22C2
:104660005B4284F8432037E021681A6811F0800F1C
:1046700002D0111D196007E011F0400F02F1040192
:10468000196001D0138800E01368227E5C496F2A0C
:1046900014BF0A2208221BE078225A4984F84520D8
:1046A0002268186812F0800F00F104051D6003D124
:1046B000550601D5038800E00368D00744BF42F0E7
:1046C000200222601BB9226822F020022260102200
:1046D000002084F8430001E049490A226568002D62
:1046E000A56008DB206820F0040020602BB9002DB5
:1046F0007DD175460CE0002B79D07546B3FBF2F006
:1047000002FB1033CB5C05F8013D03460028F5D1D0
:10471000082A0BD12368DA0708D5236962689A4210
:10472000DEBF302305F8013C05F1FF35C5EB0E0374
:1047300023612EE008681A6810F0800F496903D0E1
:10474000101D1860136808E010F0400F02F104001B
:104750001860136801D0198000E0196000232361FC
:10476000754616E01A68111D196015680021626807
:10477000284602F087FD08B1401B6060636804E0D2
:1047800004F1420584F8422001232361002384F8C8
:104790004330CDF800803B4603AA21463046FFF760
:1047A00097FE013002D14FF0FF3026E023692A4600
:1047B00039463046C0470130F5D023689B0710D5F5
:1047C000002504F1190907E001234A46394630461D
:1047D000C0470130E7D00135E368039A9B1A9D4238
:1047E000F2DBE068039B9842B8BF184605E00B78FF
:1047F00004F1420584F842308AE705B0BDE8F08351
:10480000ECB00008FDB000080FB40A4B13B51C68EB
:1048100024B1A36913B9204602F004F905AB049A48
:10482000A1682046019303F053FB02B0BDE810409D
:1048300004B070476000002070B50E46054618B100
:1048400083690BB902F0EEF8AB69AC6813B928467E
:1048500002F0E8F8224B9C4201D16C6808E0214B41
:104860009C4201D1AC6803E01F4B9C4208BFEC683E
:10487000A3891B0701D523693BB92146284601F0CE
:104880003DF910B14FF0FF3070BD013EA36816F83E
:10489000011F013BA36091B1002B04DAA26993428E
:1048A00006DB0A2904D023685A1C22601970EDE740
:1048B0002246284601F0CEF80130E7D1E2E7002B8E
:1048C00008DA22460A21284601F0C4F80130D9D07E
:1048D0000A2070BD23680A205A1C2260187070BD1F
:1048E00070B2000890B20008B0B20008024B014656
:1048F0001868FFF7A1BF00BF6000002038B50C4664
:10490000054618B183690BB902F08CF80E4B9C4236
:1049100001D16C6808E00D4B9C4201D1AC6803E00A
:104920000B4B9C4208BFEC682146284603F0CAFEA8
:1049300038B96368013B636023685A1C22601878A9
:1049400038BD4FF0FF3038BD70B2000890B200089B
:10495000B0B200080FB40A4B13B51C6824B1A369A8
:1049600013B9204602F05EF805AB049A6168204650
:10497000019303F01DFD02B0BDE8104004B0704784
:104980006000002000294FF480630CBF0222002247
:1049900000F000B82DE9F7431D464F4B04461E6852
:1049A0000F46904626B1B36913B9304602F03AF883
:1049B0004A4B9C4201D1746808E0494B9C4201D1AA
:1049C000B46803E0474B9C4208BFF468B8F1020F9B
:1049D00004D0B8F1010F79D8002D77DB214630469D
:1049E00001F0A4FF616B41B104F14403994202D08C
:1049F000304603F04DF8002363630023A361636036
:104A0000A3891B0603D52169304603F041F8A38929
:104A1000B8F1020F23F44A6323F00303A3811ED0ED
:104A200001AB6A462146304602F0C4FBA389184315
:104A3000A0810DB9009D00E02FBB284602F01AFCB2
:104A40000746D0B9DDF80090A94502D14FF0FF30FC
:104A500006E0484602F00EFC074678B9F6E700206B
:104A6000A38943F00203A3810023A36004F1470359
:104A700023602361012363612AE0A9464D46A3898F
:104A800043F08003A381B36913B9304601F0CAFF34
:104A9000B8F1010F08BFA389276004BF43F00103E9
:104AA000A381A389276103F0080080B2656158B132
:104AB00013F001034FF000001DBF6D42A060A5611F
:104AC000A56008BF184603E0A06001E04FF0FF308A
:104AD00003B0BDE8F08300BF6000002070B20008A2
:104AE00090B20008B0B200080CB430B5164B0C1EE2
:104AF0009DB01D6804DA8B232B604FF0FF301EE061
:104B00004FF40273ADF814300CBF234604F1FF33A9
:104B1000049307934FF6FF7302900690ADF816309A
:104B2000209A21AB02A92846019303F0B5F8431C53
:104B3000BCBF8B232B6014B1029B00221A701DB0E6
:104B4000BDE8304002B07047600000200EB400B5F0
:104B50004FF402719CB0ADF814106FF00041049155
:104B600007914FF6FF711DAB02900690084853F86D
:104B7000042BADF81610006802A9019303F08CF81D
:104B8000029B00221A701CB05DF804EB03B0704762
:104B90006000002010F8012B11F8013B012A28BF0A
:104BA0009A42F7D0D01A7047034611F8012B03F848
:104BB000012B002AF9D17047034613F8012B002A74
:104BC000FBD1181A01387047034610B542B111F8ED
:104BD000014B013A03F8014B002CF7D11A4400E0D5
:104BE00010BD934202D003F8014BFAE710BDF0B5B7
:104BF000037863B90B78002B18BF0020F0BD15F8BF
:104C0000012F62B114F8017F30469742F7D0034676
:104C1000461C007810B14D1E5C1EF0E7F0BD184632
:104C2000F0BD2DE9F0410F46904602F0FFFD04462D
:104C30000D46B8F1000F11D0C7F30A53C3F16B034F
:104C4000002B0BDD1B0503F17F55002405F54015F6
:104C500022462B46FEF762FDBDE8F081204629463C
:104C6000BDE8F081000000002DE9F04F82460C46BF
:104C70009DB00023139218934FF000084FF00009E5
:104C80001791179B1A780D2A05D8092A13D2002AE2
:104C900000F0AD8112E02B2A04D02D2A04D0202A66
:104CA0000CD108E0002200E001220C925A1C17925D
:104CB0005B782BB99BE101331793E2E700230C9358
:104CC000179D2B78302B5CD16B78582B01D0782B2B
:104CD0004CD10C9BA84A019318AB009317A919ABB0
:104CE000504601F090FF10F00706044600F085855D
:104CF000062E05D10135002317950C9300F07DBDDC
:104D0000189A3AB135211AA802F077FE1899504640
:104D100002F0FBFA062E22D8DFE806F0040D081890
:104D20001D0D04004FF00009C84618E0DDF868804A
:104D3000DDF86C9013E01B9B199A23F4801302F2A8
:104D40003342DDF8688043EA025908E0DFF82C922C
:104D50004FF0000803E06FF000494FF0FF382107E3
:104D600040F14B8549F0004900F047BD179B5A1CA4
:104D700017925B78302BF9D0002B00F03E85012391
:104D800000E000230593179B0A22069300239B460D
:104D900002930493179D2E78A6F13003D9B2092906
:104DA00011D8BBF1080FD5BF0499029902FB01335A
:104DB00002FB013305F10105D4BF049302930BF10B
:104DC000010B1795E6E7504602F0F0F907685046E8
:104DD00002F0ECF90068FFF7EFFE3946024628467C
:104DE00003F07BFD074628B1002033465D460246AE
:104DF00001465AE0504602F0D9F90068FFF7DCFEA0
:104E0000179B1A1817921B5CBBF1000F45D158462F
:104E1000302B05D1179B01305A1C17925B78F7E7AE
:104E2000A3F13102082A46D8179A069202460020BA
:104E30000546303B00F1010129D00A44294605EB23
:104E4000000C0A2661450FD0013101F1FF3EBEF191
:104E5000080F03DC049F77430497F3E71029DEBFB4
:104E6000029F77430297EDE72844082800F10105E7
:104E700005DC04980A2101FB0033049306E0102DA1
:104E8000DFBF02980A2101FB003302930021179B28
:104E9000581C17905B78084602E05D4638463A4653
:104EA000A3F130010929C4D90121652B01D0452B7B
:104EB0004FD16DB904E0652B40F0AD840022012193
:104EC00028B9059B002B00F09280054600E00025E4
:104ED000179C631C179363782B2B06D02D2B02D0C5
:104EE0000026039606E0012300E000230393A31CA1
:104EF0001793A378A3F13006092E29D8302B04D1BB
:104F0000179B5E1C17965B78F8E7A3F13106082E15
:104F10001FD8A3F1300E179B1F46179B5E1C1796D8
:104F20005B78A3F1300CBCF1090F05D80A2606FB0B
:104F30000E3EAEF1300EF0E7F61B082E44F61F666B
:104F400002DC7645A8BF7646039F1FB1764201E09A
:104F500017940026002D52D1002840F04E84059A67
:104F6000002A40F04A84002941D14E2B20D007DC92
:104F7000492B0AD03BE000BF24B100080000F07FBD
:104F8000692B02D06E2B13D031E0AA4917A802F08A
:104F90006BF860B3179BA849013B17A8179302F061
:104FA00063F810B9179B01331793DFF8A8921AE042
:104FB000A24917A802F058F8C8B1179B1B78282BF4
:104FC0000FD11AAA9E4917A802F061F8052808D146
:104FD0001B9BDDF8688043F0FF4949F4E00900F0CD
:104FE0000CBCDFF874924FF0000800F006BC139B75
:104FF0001794002B00F00C8400230C93FFE32C4645
:10500000BBF1000F08BFAB460498102DA8BF1024B9
:10501000B71AFEF70DFB092C8046894613DD894B34
:1050200003EBC40353E91223FEF778FB8046029892
:105030008946FEF7FDFA02460B4640464946FEF712
:10504000BBF9804689460F2D33DC002F00F0D58355
:1050500022DD162F07DC7B4D424605EBC7014B4690
:10506000D1E9000113E0C5F125039F4221DC754C15
:10507000C5F10F0504EBC5017D1B4246D1E90001D6
:105080004B4604EBC504FEF749FBD4E90023FEF7C9
:1050900045FB80468946B0E317F1160F09DB694DE1
:1050A0004046A5EBC703D3E900234946FEF760FC61
:1050B000EFE72C1B3C44002C5DDD14F00F010AD0FF
:1050C000604B424603EBC101D1E900014B46FEF7BC
:1050D00025FB8046894634F00F0400F0C180B4F50A
:1050E0009A7F0FDD4FF0000BCDF808B0CDF814B06B
:1050F000CDF810B02223CAF80030DFF858914FF0F5
:10510000000889E14046494600234F4E241102938E
:10511000012C0CDDE20704D5D6E90023FEF7FEFAE8
:105120000123029A6410013202920836F0E70BB1B3
:1051300080468946444B029AA9F1547903EBC20197
:10514000D1E9000142464B46FEF7E8FA21F0004360
:1051500089460A461B0D3D491B058B428046C1D836
:10516000A1F580118B4286BFDFF8F0904FF0FF3839
:1051700002F1547974E073D0644214F00F020AD043
:10518000304B404603EBC2034946D3E90023FEF708
:10519000EFFB80468946241162D01F2C08DD4FF0BA
:1051A000000BCDF808B0CDF814B0CDF810B02CE15C
:1051B0004046494614F0100F0CBF00236A23244ECA
:1051C00003930023002C09DDE20704D5D6E9002370
:1051D000FEF7A4FA012364100836F3E70BB180460A
:1051E0008946039BEBB1C9F30A53C3F16B03002B50
:1051F000494616DD1F2B0EDD342BDEBF203B4FF062
:10520000FF3202FA03F34FF00008CCBF4FF05C7995
:1052100003EA010905E04FF0FF3202FA03F303EA63
:105220000808002200234046494603F0A1FD00285B
:10523000B5D117E0E1B0000864B20008E9B0000899
:1052400010B10008D8B20008B0B300080000A07C7C
:1052500038B100080000F07F0000F8FFFFFFEF7F8B
:1052600000230393049B5A46009306992B4650460D
:1052700002F09DF8059000283FF434AF002FC7F1ED
:105280000003A8BF00230D934FF0000B27EAE7733C
:105290001293CDF808B0059B5046596802F000F80B
:1052A000049000283FF426AF059B0C301A6903F1E7
:1052B0000C0102329200FEF723FE1AAB019319ABE8
:1052C000009342464B465046CDE9088902F01FFB49
:1052D000189000283FF40EAF0121504602F0F2F87A
:1052E000029000283FF406AF199B0399002BACBF36
:1052F0000D9A129A1A9CACBFD618D21AA3EB0103CE
:105300002344B14903F1FF33ACBF129A0D9E8B4287
:10531000C4F1360480F28580C91A1F29C8BFAB4D7D
:105320004FF00107D4BF07FA01F3ED1AA4EB010413
:10533000D9BF0793002507FA05F507973719039B8F
:10534000BE4214441C443346A8BF3B46A342A8BFF8
:105350002346002BC2BFFF1AE41AF61A0D9B002B3E
:1053600063D1002F7ADC129B002B40F08180002C4F
:1053700000F38880002E00F38F80049A189950461D
:1053800002F0F5F9834600283FF4B4AEC368002468
:10539000C4600299069302F0CEF9A04280F28B809D
:1053A000069B002B40F00282B8F1000F40F0FE8116
:1053B000C9F31303002B40F0F98129F000431B0DC2
:1053C0001B05B3F1D66F40F2F181DBF81430002BEE
:1053D0006CD059460122504602F05CF9029983468E
:1053E00002F0A9F9002840F3E18129F00043039A73
:1053F0001B0D1B05002A00F08D80B3F1D66F00F362
:105400008980B3F15C7F00F3D38122234FF0000841
:105410004FF00009CAF80030059B002B40F0D981FD
:10542000EBE101230025079388E71A4602995046CD
:1054300002F0E2F8029000283FF45CAE0146189AB0
:10544000504602F048F8069000283FF453AE1899F1
:10545000504601F05AFF069B189382E73A46189986
:10546000504602F017F9189000287FF47CAF41E60F
:10547000129A0499504602F0BFF8049000287FF475
:1054800076AF37E622460499504602F003F90490BD
:1054900000287FF46FAF2DE632460299504602F0A5
:1054A000F9F8029000287FF468AF23E6DBF81030AB
:1054B000012B8EDC7AE161D1069AC9F3130322B382
:1054C00043494A468B422ED1039B414663B1414B2F
:1054D0001340B3F1D46F07D81B0DC3F16B034FF02A
:1054E000FF3000FA03F301E04FF0FF338B421AD193
:1054F00039498A4202D101333FF4FCAD354B4FF0BC
:105500000008134003F5801950E163B9B8F1000FAA
:1055100009D16AE7A3F580136FEA13594FF0FF38FA
:105520006FEA095942E115B115EA090F02E0079B3C
:1055300013EA080F00F03A81069B039A4046494659
:1055400053B1FFF76EFB02460B46DDE90801FDF79C
:1055500033FF8046894629E1FFF763FB02460B468D
:10556000DDE90801FDF726FF002200238046894679
:1055700003F0FEFB00287FF448AF17E1029958467C
:1055800002F013FA00224FF0804306460F4603F064
:1055900003FC00283FD0069B13B100260F4F10E0FC
:1055A000B8F1000F03D1C9F313033BB91AE0B8F106
:1055B000010F03D1B9F1000F3FF427AF084F0026C8
:1055C0000024064D3CE000BF02FCFFFFE2FBFFFFB2
:1055D000FFFF0F000000F07FFFFFEF7F0000F03FB4
:1055E0000000F0BF00229A4B3046394603F0CAFB58
:1055F00040B90022974B30463946FEF78FF80446F3
:105600000D4601E0069C934D05F10043149415935B
:10561000DDE9146714E08F4B002230463946FEF76F
:105620007DF8069B04460D4623B901F100430E9018
:105630000F9303E002460B46CDE90E23DDE90E672A
:1056400029F000431B0D1B050793079A824B9A42D2
:105650002BD1DDE90823A9F1547940464946CDE92B
:105660000A2302F0E3F802460B4630463946FEF7BD
:1056700055F842464B46FDF79FFE21F000431B0DB7
:10568000764A1B05934280460CD9754B0B9A9A4279
:1056900003D10A9B01333FF42DADDFF8C4914FF0E5
:1056A000FF3872E001F1547939E0039B3BB3079B6B
:1056B000B3F1D46F23D85EA3D3E900232046294653
:1056C00003F06AFBB8B129462046FEF739FA0028F4
:1056D00008BF0120FDF7ACFF069B04460D4623B929
:1056E00001F100431090119303E002460B46CDE90F
:1056F0001023DDE91067079A07F1D6639F1ADDE9E9
:10570000080102F093F802460B4630463946FEF790
:1057100005F8DDE90823FDF74FFE80468946039B27
:105720009BBB29F000431B0D079A1B059A424E466E
:105730002BD12946204603F063FBFDF789FF0B467A
:10574000024629462046FDF735FE069B04460D46D7
:105750002BB9B8F1000F02D1C9F313067EB136A3FD
:10576000D3E900232046294603F00CFB88BB34A371
:10577000D3E900232046294603F022FB04E032A3AC
:10578000D3E9002303F0FEFA18BB1899504601F044
:10579000BCFD0499504601F0B8FD0299504601F055
:1057A000B4FD5946504601F0B0FD74E5039B83B14A
:1057B0002C4B40460B9300230A934946DDE90A230C
:1057C000FDF7ACFF8046894619B910B92223CAF803
:1057D00000301899504601F098FD0499504601F0A8
:1057E00094FD0299504601F090FD0599504601F054
:1057F0008CFD5946504601F088FD139B13B1179B51
:10580000139A13600C9B1BB1424609F1004307E059
:1058100042464B4604E000252A460121FFF747BBDC
:10582000104619461DB0BDE8F08F00BFAFF30080F1
:105830000000C0FFFFFFDF419535A094FFFFDF3F71
:1058400035E5AF350000E03F9535A094FFFFCF3F31
:105850000000F03F0000E03F0000E07FFFFF9F7C82
:10586000FFFFEF7F00005039024B0A4601461868DF
:10587000FFF7FAB960000020174B2DE9F0411D68D1
:105880000646AC6D0F46FCB9502001F0F3FCA8654C
:105890008460AB6D046044601C61DC60AB6D9C6136
:1058A0005C61AB6DDC629C62AB6D5C631C63AB6D79
:1058B000DC639C63AB6D5C641C64AB6DDC649C64FA
:1058C000AB6D1C77AB6D5C62AA6D39463046BDE8A6
:1058D000F041012300F002B860000020F0B548B9A3
:1058E000106838B9F0BD17F8016B5EB1B542FAD156
:1058F0002BB1204604460F4614F8015BF3E7146011
:105900000370F0BD4DB915602846F0BD17F8016B66
:10591000B54207D0002EF9D11C4623460F4613F896
:10592000015BF3E715B10021217000E02B46136005
:10593000F0BD00002DE9F0470F4680463F48D0F803
:1059400000903D4615F8014B09EB0400407800F04B
:10595000080000F0FF0608B12F46F2E72D2C03D116
:10596000BD1C7C78012603E02B2C04BF7C78BD1C79
:1059700013B1102B0AD15BE0302C57D1287800F0FE
:10598000DF0058284DD16C7810230235002E14BF4B
:105990004FF0004C6FF0004CBCFBF3FA0027384688
:1059A00003FB1ACC09EB040E9EF801E01EF0040F75
:1059B00001D0303C0BE01EF0030E1BD0BEF1010FF6
:1059C0000CBF4FF0370E4FF0570ECEEB0404A3423E
:1059D00010DDB7F1FF3F0AD0504506D801D164452C
:1059E00003DC03FB0040012701E04FF0FF3715F80F
:1059F000014BD7E77B1C0CD1002E4FF0220314BFC4
:105A00004FF000406FF00040C8F800302AB9BDE800
:105A1000F08706B1404272B107B1691E1160BDE85E
:105A2000F0873024002BB1D10823AFE70A23ADE77C
:105A3000302CA3D0AAE7BDE8F08700BF64000020A7
:105A400013460A46014602480068FFF773BF00BFCD
:105A500060000020F8B50F461446064618B1836969
:105A60000BB900F0DFFF224B9C4201D1746808E0C3
:105A7000204B9C4201D1B46803E01F4B9C4208BFFD
:105A8000F468A369A360A3891A0709D523693BB108
:105A900023682069FDB2181A636998420FDB08E099
:105AA0002146304600F02AF80028F1D04FF0FF30B0
:105AB000F8BD2146304600F039FF0028F6D1A36832
:105AC000013BA36023685A1C22601F706269431C5B
:105AD000934204D0A389DB0707D50A2D05D12146BF
