:020000040800F2
:10000000004001207D250008BB250008BD25000813
:10001000BF250008C1250008C32500080000000016
:10002000000000000000000000000000C5250008DE
:10003000C725000800000000C9250008CB250008DE
:10004000CF250008D1250008D3250008A10E0008FF
:10005000D7250008D9250008DB250008DD25000884
:10006000DF250008E1250008E3250008E525000854
:10007000E7250008E9250008EB250008ED25000824
:10008000EF250008F1250008F3250008F5250008F4
:10009000F7250008F9250008FB250008FD250008C4
:1000A000FF2500081D0F000803260008052600088C
:1000B00007260008092600080B2600080D26000860
:1000C0000F26000811260008132600081526000830
:1000D00017260008192600081B260008F50100084D
:1000E0001F260008212600082326000825260008D0
:1000F00027260008292600082B2600082D260008A0
:100100002F2600083126000833260008352600086F
:1001100037260008392600083B2600083D2600083F
:100120003F26000810B5054C237833B9044B13B1B2
:100130000448AFF300800123237010BD700000203D
:1001400000000000E0640008084B10B51BB108492E
:100150000848AFF300800848036803B910BD074B97
:10016000002BFBD0BDE81040184700BF0000000086
:1001700074000020E064000870000020000000000F
:10018000154B002B08BF134B9D46A3F5803A002169
:100190008B460F461348144A121A03F002F80F4B0D
:1001A000002B00D098470E4B002B00D09847002022
:1001B000002104000D000D48002802D00C48AFF3C8
:1001C000008002F0BDFF2000290002F089F902F052
:1001D000A3FF00BF00000800004001200000000055
:1001E00000000000700000206C05002000000000EE
:1001F00000000000F0B44D4B00224D491A800A78EF
:100200009B8882B0DBB28DF807309DF8073082B949
:10021000F3B9484B1B88474A9BB2B3F5806F05D3AF
:1002200040F2FF30444B01211080197002B0F0BC45
:1002300070470D2BEDD09DF807300A2BE9D09DF8C3
:100240000730202BE5D03D4A01213A4B1170E1E700
:10025000384B02F0FF001C889DF80750384AA4B2C2
:10026000EDB215551C88374DA4B2145D364F2E786B
:10027000BE5DA6421ED02870344C207828BB18885A
:10028000334C80B2105C334E2578755D85423FD08B
:10029000002020701888304C80B2125C2F4D2078DE
:1002A000285C904225D0002222701A88013292B236
:1002B0001A80AFE72C780134E4B22C702C78082C2B
:1002C000DAD9224C0126287026701888194E80B27F
:1002D000105C1B4D0A28D2D1308880B20138285CCE
:1002E0000D28CCD11E4D01200026087026702870E4
:1002F000C5E722780132D2B222702278042AD4D9FA
:10030000184A0126002502200E7025701070CCE7D7
:1003100020780130C0B2207020780128BAD9114D60
:1003200001200026087026702870B3E700480040BE
:1003300096040020940400208C00002090040020EB
:100340009000002099040020185200089704002013
:10035000910400202452000892040020105200084A
:1003600098040020930400202DE9F04F002483B06E
:100370003C4E019434780D9F64B9019CA74203D888
:1003800008E0019DAF4205D9019C01340194357804
:10039000002DF6D0347804F0FF08B4B90AB182F821
:1003A00000800BB100221A700023037018462E4FF4
:1003B0002E4D2F4C2F49304A33703B702B702370D9
:1003C0000B80137003B0BDE8F08FDFF89CA0012410
:1003D000DFF8A0908AF80040B9F800C01FFA8CFC42
:1003E000D8B1BCF1000F39D0013939D00CF1FF3E42
:1003F0001FFA8EFEDFF884B00EF1010E451E0024B8
:1004000001E0A14228D01BF804700134744505F8BE
:10041000017FF6D1A4B20021015514490AB1087830
:100420001070134A0BB1107818700C9B33B1B8F1EF
:10043000020F0C980CBF01230023037060460E4C82
:10044000002333708AF800300B701370A9F8003065
:10045000237003B0BDE8F08F8CB2DCE76446DAE7C6
:100460000C46D8E793040020960400208C0000205E
:1004700090040020940400209804002090000020A4
:10048000F0B50A4ADFF83CE0094F0A4E0A4D0B4C22
:1004900000238EF800303B7033702B702380137074
:1004A0000146BDE8F040064801F0C6B998040020B6
:1004B000960400208C00002090040020940400206A
:1004C00000480040930400202DE9F04F2F4CDFF846
:1004D000D8A0DFF8DC802E4FDFF8D0902D4E4FF003
:1004E000000B83B005462C492C4884F800B08AF8EC
:1004F00000B088F800B087F800B0A9F800B086F81E
:1005000000B001F099F9CDF804B023782BB107E0E1
:10051000019B01330193237813B9019B9D42F7D8C6
:1005200023781A4D03F0FF02F3B1022A20D00123F1
:100530008AF800301A4AB9F8003010469BB20024FD
:100540001849D45402F0FDFF174A184B60B1007AE5
:100550002C703038C0B2147088F800403C701C8099
:10056000347003B0BDE8F08FFF2003B0BDE8F08F1A
:100570000023FF202B708AF8003088F800303B7091
:10058000A9F80030337003B0BDE8F08F9304002069
:1005900090040020980400202852000800480040E1
:1005A0009000002038520008960400209404002097
:1005B0008C0000202DE9F04F87B00346224A234CDF
:1005C0000D4601A81421DFF89490DFF89480204FA5
:1005D000204EDFF890A002F031FF4FF0000B01A990
:1005E0001D4884F800B089F800B088F800B087F89A
:1005F00000B0A6F800B08AF800B001F01DF9CDF8FF
:1006000000B023782BB107E0009B013300932378DF
:1006100013B9009B9D42F7D823780C4A03F0FF00E2
:1006200073B10023022808BF1846137018BF0120B9
:1006300089F8003088F800303B7033808AF8003049
:1006400007B0BDE8F08F00BF4452000893040020BB
:1006500090040020940400200048004096040020EC
:100660008C000020980400202DE9F04F474C93B0F7
:1006700003938146E36820688A4615466168A2684C
:1006800006AC0FC442494348BDF870701D9E424CF1
:1006900001F0D2F80023049323782BB107E0049BE8
:1006A00001330493237813B9049B9E42F7D823782F
:1006B000394903F0FF02002B60D000230B70DFF8F4
:1006C000F080364988F800300B703549DFF8E4B027
:1006D0000B703449022A0B808BF8003052D032491B
:1006E0008DE8A00053464A460AA802F0D9FE0AA99E
:1006F000284801F0A1F8CFB1039D2F44A94615F871
:10070000013B12AA02EB131313F8301C214801F02D
:100710008DF899F8003012AA03F00F0313441D4816
:1007200013F8301C01F082F8BD42E7D11F49194887
:1007300001F082F80023059323782BB107E0059B95
:1007400001330593237813B9059B9E42F7D823788C
:10075000114903F0FF028BB100230B700F4988F899
:1007600000300B700E49022A0B700E490B808BF87B
:10077000003007D0042013B0BDE8F08F002013B084
:10078000BDE8F08F012013B0BDE8F08F00520008E3
:100790005452000800480040930400208C000020C0
:1007A000900400209404002064520008545600086D
:1007B0009604002098040020F8B52F4D2A784AB9F5
:1007C00002F0FF0308B1FF22027009B100220A8083
:1007D0001846F8BD0746294E294A33880C469BB275
:1007E0000021D1541046274902F0ABFE17B1437ADD
:1007F000303B3B7044B300232380C27A0B30303A45
:10080000092A36D8194603EB83035A0092B2228094
:100810000378303A13449BB2238010F8012F013142
:10082000303A092AC9B21BD80529ECD10022134657
:10083000154F164C164817493A70227002700A700C
:1008400032802A701846F8BD0F4B10481049114AE3
:100850001C70047001230C70147034802C70B7E786
:100860004B1F18BF0123084F084C094809490022B3
:10087000E2E70123F7E700BF98040020940400207A
:10088000900000208052000893040020960400206D
:100890008C000020900400202DE9F04F8FB00292D0
:1008A000039302460B468F4C8A4609A88E498F4E09
:1008B000DFF85092DFF850828D4D8E4FDDF864B036
:1008C00002F0EEFD002309A98B48237001933370D9
:1008D00089F8003088F800302B803B7000F0ACFFC6
:1008E000019B049323782BB107E0049B013304930D
:1008F000237813B9049B9B45F7D82378794A03F0F2
:10090000FF001BB3022824D07C4A2B8810469BB2E0
:100910004FF0000B7A4902F803B002F012FEC27ADF
:10092000222A6FD005A900F10B0C0DF1230B4FF01B
:100930000B0E01F8012B1CF8012F0EF10103222AE6
:100940009BB213D08B459E46F3D102200FB0BDE879
:10095000F08F002313700120337089F8003088F87D
:1009600000302B803B700FB0BDE8F08F1A2BECD01D
:100970000EF1030292B2815C0DF1380C63444FF02A
:10098000000B0EF1080E2C2903F82FBC1FFA8EF372
:1009900016D09A4210D24FF0000B01320BEB8B0BAA
:1009A00092B201EB4B0B815CABF1300B2C291FFA9F
:1009B0008BFB05D09A42F0D1002323700220CBE7B5
:1009C0009A42F9D2511C89B210F801E00532BEF109
:1009D0002C0F92B24FF0000310D091420ED2013191
:1009E00003EB830389B20EEB430310F801E0303BC5
:1009F000BEF12C0F9BB201D08A42F0D19A450BD0A8
:100A00000320A3E7417B8DF814B02C2908BF0D22E9
:100A1000D8D012230D22BEE702311FFA81FC0CEB65
:100A20004A0A1FFA8AF31A46189B002B4BD09445AA
:100A300049D2CDF804B04FF0000A93461CE01B01E8
:100A40005AB200EB0C035B78A3F13001C9B209295B
:100A500005D9A3F14101052920D8A3F1370149B2F5
:100A60000CF1020C1FFA8CFC189B0A43E34503F8B7
:100A70000E200AF1010A24D910F80C201FFA8AFE70
:100A8000A2F13003DBB2092BD9D9A2F14103052B26
:100A90000DD8373A42F303021201D2E7A3F1610104
:100AA00005299ABFA3F1570149B20021D8E7A2F165
:100AB0006103052B9DBF573A42F303021201002246
:100AC000BFE7DDF804B0029B1BB1029805A902F054
:100AD00015FD039B0BB1A3F800B000232370042085
:100AE0003AE700BF930400208C52000896040020CF
:100AF000940400209804002000480040900000204A
:100B0000A05200088C00002090040020F0B505469B
:100B1000264927480024274A274B284F284E9DB0B6
:100B20000C700470274928483C70347014801C7085
:100B300000F082FE0DF10B01224600910195234643
:100B400003A86421FFF710FC9DF80B20FAB9E0B16F
:100B500003A81E4902F0F5FC30B383792C2B20D07A
:100B6000FBB1C279303B9BB22C2A19B207D032B10B
:100B700003EB8303303A02EB43039BB219B29A1E94
:100B80001C2A07D85800713800B21DB0F0BD2046AD
:100B90001DB0F0BD1F2914BF6FF06E006FF0320062
:100BA000F3E76FF06E00F0E70948EEE793040020EA
:100BB0009604002094040020980400208C0000205B
:100BC00090040020AC52000800480040B8520008D1
:100BD00016FCFFFFF0B50E46284B002428491C7078
:100BE000DFF8B8E0274A284B284F9DB00C70054627
:100BF000274928488EF800403C7014801C7000F093
:100C00001BFE0DF10B01234622460091019603A81D
:100C10006421FFF7A9FB9DF80B4004B928B91DB367
:100C200000242C7020461DB0F0BD03A81A4902F024
:100C300088FC0028F6D0FDB1C1790D291AD02A46CA
:100C4000073005F1310401E0A24211D002F8011B86
:100C500010F8011F531B0D29DBB2F5D101242046EA
:100C60000022EA541DB0F0BD2C4620461DB0F0BD58
:100C70003123F3E72346F1E70124D3E7930400206F
:100C80009604002094040020980400209004002082
:100C9000C052000800480040CC5200088C000020E0
:100CA000F0B50E46264B002426491C70DFF8B0E054
:100CB000254A264B264F9DB00C70054625492648EF
:100CC0008EF800403C7014801C7000F0B5FD0DF1F2
:100CD0000B01234622460091019603A86421FFF7E9
:100CE00043FB9DF80B40E4B9D8B103A81B4902F0BF
:100CF00028FC05B3817A0D291FD02B460A3005F157
:100D0000310401E0A34214D003F8011B10F8011FC5
:100D10005A1B0D2992B2F5D100230120AB541DB00E
:100D2000F0BD1DB1002028701DB0F0BD28461DB0DB
:100D3000F0BD3122F0E70120F6E72246ECE700BFE4
:100D400093040020960400209404002098040020BE
:100D500090040020D452000800480040E0520008EF
:100D60008C000020F0B50378ADF5057D73B1044625
:100D7000002302E0B3F5E17F33D014F8012F0133F3
:100D80009BB2002AF6D1B3F5E17F26D00E46009043
:100D9000164A4FF4007104A802F050FB144B0024D3
:100DA000144D15481C70154A154B164F047004A9B4
:100DB0002C7015480DF10F053C7014801C7000F06C
:100DC0003BFD224601962346214620460095FFF72B
:100DD000CBFA2A78B2FA82F2520910460DF5057D57
:100DE000F0BD002210460DF5057DF0BDEC52000867
:100DF000930400208C00002096040020940400201E
:100E0000980400209004002000480040F0B50546FA
:100E100019491A4800241A4A1A4B1B4F1B4E9DB001
:100E20000C7004701A491B483C70347014801C709C
:100E300000F002FD0DF10B010091019564212346A4
:100E4000224603A8FFF790FA03A8134902F079FBA2
:100E500030B19DF80B00B0FA80F040091DB0F0BD34
:100E600003A80E4902F06DFB0028F2D19DF80B009B
:100E70000130C0B2EFE700BF9304002096040020C9
:100E800094040020980400208C000020900400208E
:100E90000453000800480040105300081C53000889
:100EA000094A0A4B4FF4801151611A68084942F40B
:100EB00080721A60CA6822F48062CA601A6822F4DA
:100EC00080721A60704700BF00040140007000404B
:100ED0000028004070B5164642B10C468D1814F833
:100EE000011B034800F0A2FCAC42F8D1304670BDB3
:100EF0000044004070B5164662B10C468D18064895
:100F000000F0AAFC0146044804F8011B00F08EFC26
:100F1000AC42F4D1304670BD00440040194B1A8AEF
:100F2000900707D518490A6801320A605A6B02F522
:100F30007A725A63134B1B8A590714D5134B1B8AB9
:100F40009A0406D4124B1B781BB9124A136801335A
:100F500013600E4B1B8A9B0409D40A4A936B03F55A
:100F6000434350339363074B00221A827047084B68
:100F70001A78002AF1D1074A1268002AEDD001221E
:100F80001A70EAE7000801409C04002000080240B3
:100F9000A0040020AC040020014B1868704700BF7B
:100FA0009C040020034A116813685B1A8342FBD338
:100FB000704700BF9C0400200A4A4FF4807082B042
:100FC00000230949108301E0019B013301930A6862
:100FD000019BB3EB520FF7D3024B4FF480725A834D
:100FE00002B0704700080240A404002070B40D4B0A
:100FF0000D4E0E4D4FF48074DE60DD605C605AB1C2
:10100000013A92B201EB82020438043951F8043FEC
:10101000914240F8043FF9D1024B01225A6070BC62
:10102000704700BF003C0240EFCDAB8905040302CE
:10103000F0B57F4A83B01368002143F001031360C9
:10104000019113689C070DD4019B7A498B4203D907
:1010500008E0019B8B4205D8019B01330193136883
:101060009807F6D5724C744DA368744F43F0010392
:10107000A360E269002342F00702E261616A704AFC
:1010800041F418116162206A4FF4164140F00C00DF
:1010900020622E686B4846F494662E602E6A46F4F1
:1010A000EE462E6200F0DEFB3B680021586802F03D
:1010B00013F93B680021986802F00EF9624802F0CB
:1010C000EBF8636A43F080536362636B13F400755B
:1010D0003DD15E4802F0E0F85D495E4A0B68CA26E1
:1010E00043F4807353200B6056625062636B43F489
:1010F000807363630195636B9A050DD4019B4D4A20
:10110000934203D908E0019B934205D8019B013328
:101110000193636B9B05F6D5019A464B9A4200F208
:1011200082804D4C0023237041494A484B6B484A0A
:1011300043F4820300254B634562136823F48073F4
:101140001360237863B1454802F0A6F808E0424CEA
:1011500000234348237002F09FF82378002BF2D13C
:10116000404B4FF480425A834CF250371A6834494E
:1011700042F0805242F420221A609A883A4892B291
:1011800042F440729A805A6A384C42F044025A62E1
:1011900000F0B6FA364802F07FF836494FF4407353
:1011A0004B830A68012342F425020A60486A244AF4
:1011B00040F4EE4048624FF4E1312F4800F052FB1A
:1011C000802363602D4802F067F82D4B4FF47A724C
:1011D0005A6301214FF000720F20062681259F637C
:1011E00018859E8127481D809982226002F054F85C
:1011F000254802F051F8254A002325491360086864
:101200000B681B1AB3F57A7F07D21368013313609A
:101210000B681B1AB3F57A7FF7D311681D4801F0EC
:10122000C9FF03B0F0BD0C4C012323707CE700BF65
:10123000003802407F841E00000002406000002051
:101240000024F400004400402853000854530008D0
:101250000070004000280040A804002084530008CB
:1012600068530008000402400054004000E100E020
:10127000A05300080008024000480040B453000892
:1012800000080140C8530008E0530008A4040020EF
:101290009C040020045400080BB903207047F0B5EB
:1012A00004888FB0A4B244F48074002504800295B1
:1012B000848AE7070DD4029C924DAC4203D908E022
:1012C000029CAC4205D8029C01340294848AE60751
:1012D000F6D5029C8B4DAC4200F288804900002478
:1012E0008EB206820394848AA4070CD5039D854C94
:1012F000A5420CD902200FB0F0BD039C0134039429
:10130000848AA707F2D4039CAC42F6D9EEE7058B9A
:10131000EF07EFD592B2002502820495828A160665
:1013200006D508E0049A01320492828A150602D496
:10133000049AA242F6D9049A724CA2426AD8028850
:10134000002592B242F4807202800595828AD60707
:1013500009D405E0059A01320592828AD20702D4A7
:10136000059AA242F6D9059C664A94423ED8012BC2
:1013700041F0010150D0022B00F09B80002401823B
:101380000A94818A890706D508E00A9901310A91F1
:10139000818A8E0702D40A999142F6D90A9A59494C
:1013A0008A4237D8028BD20734D505880024ADB2E3
:1013B00045F48065DF1EA3F1020C03F1FF3E2646D3
:1013C000149A05809BB205E00134A5B2AB4202F14C
:1013D000010259D9A7420CDC00F0CF80A44500F0EF
:1013E000B280A645F0D1058A1570EDE701200FB057
:1013F000F0BD0B96858A6D0606D508E00B9D01357C
:101400000B95858A6D0602D40B9D8D42F6D90B9DF6
:101410008D42E8D903206EE7002301820693838A78
:101420009B0706D508E0069B01330693838A9F0736
:1014300002D4069B9342F6D9069B324A9342E9D8DE
:10144000038823F480631B041B0C0380038BDD07DC
:10145000E0D5038800219BB243F400730380079119
:10146000838A5E0606D508E0079B01330793838ACB
:101470005D0602D4079B9342F6D9079A214B9A4204
:10148000C8D8038A149A137000230193038BDA07D8
:101490000DD5019B1B4A934203D908E0019B93425F
:1014A00005D8019B01330193038BDB07F6D40020A1
:1014B00021E7002301820893838A9C0706D508E070
:1014C000089B01330893838A990702D4089B9342AF
:1014D000F6D9089B0B4A93429CD8038823F4806377
:1014E0001B041B0C038003889BB243F4006303803E
:1014F000038BDC078ED500230993838A5B070CD40A
:1015000008E000BF7F841E00099B01330993838A92
:101510005F0702D4099B9342F6D9099A244B9A4259
:101520003FF678AF0388149A9BB243F400730380AC
:10153000038A1370038A5370038823F400631B0427
:101540001B0C0380A0E70D96858A6D0706D508E081
:101550000D9D01350D95858A6D0702D40D9D8D4237
:10156000F6D90D9D8D423FF655AF0588ADB245F4D5
:1015700000750580058A157033E70C96858A6D071E
:1015800006D508E00C9D01350C95858A6D0702D4BF
:101590000C9D8D42F6D90C9D8D423FF63BAF0588E0
:1015A00025F480652D042D0C0580058A157015E73E
:1015B0007F841E00002B56D070B404880025A4B28E
:1015C00044F4807487B004800195848AE5070DD4C3
:1015D000019C4A4DAC4203D908E0019CAC4205D8BD
:1015E000019C01340194848AE407F6D5019D434CA3
:1015F000A54230D84900002501820295818A8E07D4
:1016000006D508E0029901310291818A8D0702D442
:101610000299A142F6D9029C38498C421FD8048B0A
:10162000E4071CD592B2002402820394828A140635
:1016300009D405E0039A01320392828A120602D489
:10164000039A8A42F6D9039A2C498A420DD904207A
:1016500007B070BC7047012007B070BC7047022013
:1016600007B070BC7047042070475A1E0A9B92B2A4
:101670001A445C1E002614F8013F03820496838AF4
:101680001B0606D508E0049B01330493838A1D06DC
:1016900002D4049B8B42F6D9049D184B8D42D6D8B8
:1016A000A242E8D100220592828A52070DD4059AFF
:1016B0009A420AD81A4602E0059B934205D8059B38
:1016C00001330593838A5E07F6D5059B0B4A934247
:1016D000BDD8038800219BB243F4007303800091BE
:1016E000038BDB07B8D505E0009B01330093038B28
:1016F000DD07B1D5009B9342F6D9ADE77F841E008C
:1017000010B4084C084A8B09A4FB0141A2FB032337
:10171000890C4C1C9B0901228180838304840280F4
:1017200010BC704783DE1B43632D3E05F0B51546A4
:101730001C46074685B009010DF1100E0F4E41F011
:1017400007010EF8011D2D01E400CDF800E001466F
:1017500001233046202205F0300504F00804FFF78D
:1017600029FF2C4304AB03F8024D00933946304661
:1017700001232322FFF71EFF05B0F0BD00540040F7
:10178000F0B585B002AF0E46154601461C460097DF
:101790000623A8221848FFF77FFD9DF809309DF821
:1017A00008209B0043EA9213990554BF1A4643F45C
:1017B0007C429DF80B309DF80A109B0043EA911380
:1017C000524232809A059DF80D209DF80C104FEA88
:1017D000820242EA911248BF43F47C435B4291B2D9
:1017E0002B808B054ABF6FEA815313466FEA9353F0
:1017F000238005B0F0BD00BF0054004000B585B0A7
:1018000003AB01460093002202230748FFF744FD83
:1018100038B9BDF80C0040BA40F3072005B05DF8B8
:1018200004FB4FF0FF30F9E700540040818003884B
:101830005B06FCD5704700BF0B785BB101F1FF027E
:101840009BB2838003885B06FCD511F8013F0BB186
:101850009142F5D1704700BF03889B06FCD5808874
:10186000C0B270472DE9F843054610460C461E46A7
:1018700001F0DAFB01F04CF880462046894601F081
:1018800025F80022174B01F097F802460B46404618
:10189000494601F0BBF901F0C1FA074601F01CFC12
:1018A000044601F0C1FB0146384601F00BFB01F094
:1018B0002FF800220B4B01F07FF801F08FFA40EA7D
:1018C000041080B2288136B942F20C03AB810023A8
:1018D0002B80BDE8F88342F22C03AB8100232B80E0
:1018E000BDE8F8830000304003789B090B70037853
:1018F000C3F301134B70037803F00F038B7043782D
:101900005B09CB70437803F01F030B718278C378B7
:1019100043EA0223CB8070472DE9F0474D4C00F09D
:101920001F00227851254FF00008CA700A714870D4
:101930000D7081F80280187801322F282270BDF8CE
:10194000246002D00020BDE8F087434C0D462046BD
:101950001946802201F0E2FD2778002F76D040461C
:101960003E49631C02E013F8017B87B12F2FFAD1A7
:10197000B8F1090FE6D841F8283003F8010C13F844
:10198000017B08F101021FFA82F8002FEED1B8F1B5
:10199000000F5BD0DFF8C4904FF0050A002F59F814
:1019A000040B14BF00246FF04F0401F0AFFD81B2AF
:1019B0000C2935D820430AF1010205F80A0093B238
:1019C00000293AD059F8042C01EB030A1FFA8AFACD
:1019D000013A12F8011F5C1CE954A3B29A45F8D1F0
:1019E0000137BBB29845D9D8089B63B35EB30AF1FF
:1019F0000107BFB23B46FF22741C05F80A20089A73
:101A00005444A4B2013A12F8010F591CE8548BB2A5
:101A1000A342F8D106EB070A1FFA8AF0BDE8F08767
:101A20000AF1010244F00D040D3892B20AF10203EA
:101A300005F80A409BB2A854C4E701379A46BBB2E6
:101A40009845ABD8D0E75046BDE8F0874FF0050A7F
:101A5000CAE700BF58050020B00400203005002070
:101A6000BFF34F8F0449054BCA6802F4E062134389
:101A7000CB60BFF34F8FFEE700ED00E00400FA05F6
:101A8000A0F16103192B05D9303809288CBF00203B
:101A9000012070470120704710B40478ECB1F1B117
:101AA000002213460AE09A4218BF8454013292B2CF
:101AB00001339BB2C45C64B199420AD07F2CF2D14D
:101AC000541E002AF4D001339BB2A2B2C45C002C95
:101AD000F2D10023835410BC70472246F9E70A462E
:101AE000F7E700BF2DE9F0410646ADF5007D6F48F0
:101AF0000F4601F0D1FBFFF75FFA6D4801F0CCFB18
:101B0000FFF74AFA6B4C00232268804602EB820200
:101B1000019200931A4619461846FEF725FC054621
:101B2000FFF73AFA85BB644801F0B6FBA8460125E9
:101B30002946624801F03EFB6148FEF7A1FC22689D
:101B4000002352080192CDF800801A461946184623
:101B5000FEF70AFC013500283AD1042DE8D1594896
:101B600001F09AFB05E0584801F096FB3220FFF7A0
:101B700019FA2068FFF74AF90028F4D00125284611
:101B80000DF5007DBDE8F081C8EB00014F4801F084
:101B900011FB4F48FEF774FC236803A803EB4302D4
:101BA000019200230DF10B0200924FF4FA711A46D4
:101BB000FEF7DAFB9DF80B50D5B9012E0CD0454944
:101BC00003A801F0BEFCC0B1434801F065FBD0E7BB
:101BD000424801F061FBDCE7002F63D0404903A8D5
:101BE00001F0AFFC002852D03E4801F055FBC0E7A1
:101BF0003D4801F051FB0025C1E73C4F3C4803AE96
:101C000001F04AFB0FCF0FC697E8030086E80300F8
:101C100003A8FEF735FC2268002302EB42020DF117
:101C20000B010091019203A81A464FF4FA71FEF7D6
:101C30009BFB9DF80B601F4F06BB2E4801F02CFB51
:101C40002D48FEF71DFC3B680DF10B028DE80C00E2
:101C50003146334632463046FEF786FB9DF80B3060
:101C600083B93A680DF10B0102EB820200910192F7
:101C700019461A461846FEF777FB7AE71F4801F027
:101C80000BFB7CE71E48354601F006FB77E71D4855
:101C900001F002FB3B461C4A4FF4FA7103A801F025
:101CA000CDFBB5E7194801F0F7FA97E71C54000897
:101CB00034540008A404002050540008985400082C
:101CC000A854000814570008E0560008B054000853
:101CD00074570008D8550008585600085057000897
:101CE00048550008C4550008D05400084056000864
:101CF000F055000888560008B456000868560008D9
:101D0000C45600085C550008A45500081455000886
:101D10002DE9F047ADF51E7D9DF89882064689466F
:101D200017461C46B8F1000F3FD09C4801F0B4FAAA
:101D30004820FFF763FD9A4D09AB0DF1220208A977
:101D400082461820FFF71CFD2868FEF7DFFEBDF96C
:101D50002410BDF92220BDF9203004900391029295
:101D6000C821904A0193CDF800A023460DA801F0A8
:101D700065FB0DA801F0CAFB0DA902468A4801F0D7
:101D800019FAB8F1000F1AD029680DA801EB41012A
:101D9000FEF7E8FF002840F0A180844801F07CFABB
:101DA00001200DF51E7DBDE8F087814801F074FA31
:101DB0004B463A4631467F4801F0FCF9B8E70DA89A
:101DC00001F0A4FB3FAC80B20DAB4FF4BD720190AB
:101DD000009321464B460220FFF79EFDADF82600FA
:101DE000BDF82610744889B201F0E4F9ADF82A80F4
:101DF000BDF82A30BDF826209BB292B29A421BD978
:101E0000BDF82A306D489BB2E35C0F2BBDF82A3039
:101E100088BF6B489BB2E15C01F0CCF9BDF82A3079
:101E200001339BB2ADF82A30BDF82A20BDF8263028
:101E300092B29BB29A42E3D3624801F02DFA28682D
:101E4000FEF742FBFF28DFF8589180464ED0BDF8E0
:101E50002620D9F8003092B203EB43038DE80C0042
:101E600031463A462346FEF7FFFB042802D0564887
:101E700001F012FAFFF790F80AAF00233B802B68BD
:101E80000DF11F0AFF2203EB430381468AF800206D
:101E900000262BB90DE02B6803EB4303B34208D9AE
:101EA00039465046FEF788FC9AF800300136434523
:101EB000F1D1FFF771F89AF80030064643451AD081
:101EC000424801F0E9F929684046FEF773FB002813
:101ED00058D001200DF51E7DBDE8F0873C4801F08B
:101EE000DBF901200DF51E7DBDE8F087394801F0D2
:101EF000D3F9002055E739880029E1D0B1F5BD7F3D
:101F000048D22A68002302EB4202019200941A464A
:101F10004046FEF7C1FC0BA92046FFF7E5FCC9EBE4
:101F200006039DF830209DF82F102B4801F042F950
:101F30002A4801F03FF90023ADF82A30BDF82A30D5
:101F40003A889BB29A4219D9BDF82A301B489BB2F5
:101F5000E35C0F2BBDF82A3088BF19489BB2E15CC7
:101F600001F028F9BDF82A303A8801339BB2ADF868
:101F70002A30BDF82A309BB29A42E5D8114801F0C8
:101F80008BF9A0E7164801F087F901200DF51E7DB9
:101F9000BDE8F087134801F00DF994E78457000875
:101FA000A4040020C85700082C58000864580008F2
:101FB00098570008AC57000880580008A05800083F
:101FC000A45800089C580008C8580008E8580008A1
:101FD00048580008A8580008005900083859000857
:101FE0007C5900085059000870B5C4B00346174A20
:101FF000FF21064604A801F021FA04A8FEF740FAE2
:10200000134A642312680DF10F0503FB02F200234B
:10201000019204A800951A46FF21FEF7A5F904468F
:1020200030B931460B4801F0C5F8204644B070BDC8
:10203000002304A905480B5501F0BCF8287810F1DD
:10204000FF3018BF012044B070BD00BF2C600008F5
:10205000A40400209C590008F0B5ADF5097D10A836
:10206000E022B44901F092F89DF8DD00A0F14103AF
:10207000192B08D9FFF704FD034620B9AE488DF8A7
:10208000DC3001F009F99DF84100A0F14103192B62
:1020900008D9FFF7F5FC034620B9A8488DF8403071
:1020A00001F0FAF89DF85500A0F14103192B08D969
:1020B000FFF7E6FC034620B9A1488DF8543001F043
:1020C000EBF8359B37AC15AA00939E4910AB0194F1
:1020D0009D4801F06FF80DF10B019C4801F0E4F808
:1020E0009B4801F0D9F89DF80B104B1E0B2B00F20A
:1020F000A181DFE813F075008E00AD00C300F6008B
:1021000006016B018C01930199019B010C0041F6C2
:102110001B22904B10AD35920FCB07C5002685488A
:102120002B70382210A936968DF85460FEF75EFFAA
:102130008948FFF759FF002800F09781874801F090
:10214000ABF88748FFF750FF04468648FFF74CFF7F
:102150000444854801F0A0F841F28830FEF722FFE0
:102160008248FFF741FFE4B204447E48FFF73CFF9A
:10217000E4B204447C4801F08FF841F28830FEF765
:1021800011FF7B48FFF730FFE4B204447948FFF7C2
:102190002BFFE4B204447348FFF726FFE4B2044483
:1021A000714801F079F841F28830FEF7FBFE724881
:1021B000FFF71AFFE4B204446A48FFF715FFE4B2E0
:1021C00004446948E4B201F067F841F28830FEF750
:1021D000E9FE002C00F03C81684801F05DF847E022
:1021E00015A9674800F0E6FF664801F055F848A9D0
:1021F000654801F059F848A8FF21FFF74DFC48A8B1
:1022000001F084F97F2840F21981604801F044F818
:102210002EE010A95E4800F0CDFF5E4801F03CF8CA
:1022200048A9594801F040F848A8FF21FFF734FCBD
:1022300048A801F06BF91028E7D8421C48A910A85B
:1022400000F0A4FF10A938223A48FEF7CFFE0FE0B5
:102250003599514800F0AEFF504801F01DF83B4859
:1022600035A901F021F810A938223248FEF7BEFE48
:10227000374801F011F80DF5097DF0BD21464848B9
:1022800000F098FF474800F095FF48A93E4801F04C
:102290000BF848A8FF21FFF7FFFB48A801F036F92B
:1022A0003F280546B1D8404948A801F01DF93F49EB
:1022B000064648A801F018F90746002E00F0CC8029
:1022C000002840F0DB8000233948369300F0E4FF1B
:1022D00010A938221748FEF789FE364800F0DCFFC7
:1022E000C6E7354B03A81968FEF774FC9DF8D800C3
:1022F000BDF8D420009003AB15A910A8FFF708FD86
:10230000B6E72E4800F0C8FF02E048A8FFF76CFED1
:102310002B4800F04FFF48A91B4800F0C5FF294893
:1023200000F0BAFF284948A801F0DEF80028ECD1F7
:102330009EE700BF00000808C0590008DC590008EB
:10234000005A0008205A0008345A0008585D000856
:102350005C5D0008F060000800610008486100084A
:102360006C610008E4600008786100089061000872
:10237000A0610008AC610008C4610008D8610008D1
:10238000B05D0008D45D0008F45D0008F85D000849
:102390000C5E0008345E00085C5E0008805E000889
:1023A000985E0008AC5E00080C5F0008145F00082F
:1023B000345F0008645F0008A4040020985F0008F0
:1023C000106000081863000814600008304C03A86F
:1023D0002168FEF7FFFB03A92E4800F0EBFE2E4814
:1023E000FFF702FE216803A8FEF75AFC03A92B4859
:1023F00000F0E0FE2A48FFF7F7FD2A4B2A4A2B4956
:102400001B68126809682A4800F0D4FE30E72948A2
:10241000FFF7EAFD2848FFF7E7FD29E7274800F026
:102420003BFF47A926481CE7FFF71AFB2548FFF7A3
:10243000DBFD1DE7244800F0BDFE19E748A915A8FB
:1024400001F05CF810A938222048FEF7CFFD0FE715
:102450001F4800F021FF0BE701231E48369300F0D0
:102460001BFF002F7FF434AF2DE71B4800F0A2FEC6
:1024700021469DF8D800FFF735FB5FE66A1C48A9A6
:10248000204600F083FE154800F094FE20E700BFD0
:10249000A40400201C600008346000083C600008B0
:1024A00054600008CC00F81FD000F81FD400F81FBB
:1024B0005C6000087C600008846000089060000890
:1024C000E0600008E4600008F0610008000008080F
:1024D000E46100081C5F000804610008505F000808
:1024E00000B5B9B0FEF7A4FD00231A460321182059
:1024F000FFF71CF9194800F0CFFE194800F0CCFE98
:10250000184800F0C9FEE0221749684600F03EFE78
:1025100043F69822379BA3F57A73934211D89DF81E
:10252000143012482F2B04BF114B1B8A00F0B4FE4D
:1025300027A99DF89800FFF7D5FA48B1FFF78CFD61
:10254000FCE70C4800F0A8FE4FF47A733793E6E7F7
:10255000094800F0A1FEFFF783FA00BF08620008F7
:10256000246200084862000800000808BC620008F5
:102570000008024068620008E86200080549064A4F
:10258000064B9A42BEBF51F8040B42F8040BF8E721
:1025900003480047EC6400080000002070000020A1
:1025A000810100082649274A002301E041F8043B45
:1025B0009142FBD3FFF794FFFEE7FEE7FEE7FEE75D
:1025C000FEE7FEE7FEE7FEE7FEE7FEE7FEE7FEE7E3
:1025D000FEE7FEE7FEE7FEE7FEE7FEE7FEE7FEE7D3
:1025E000FEE7FEE7FEE7FEE7FEE7FEE7FEE7FEE7C3
:1025F000FEE7FEE7FEE7FEE7FEE7FEE7FEE7FEE7B3
:10260000FEE7FEE7FEE7FEE7FEE7FEE7FEE7FEE7A2
:10261000FEE7FEE7FEE7FEE7FEE7FEE7FEE7FEE792
:10262000FEE7FEE7FEE7FEE7FEE7FEE7FEE7FEE782
:10263000FEE7FEE7FEE7FEE7FEE7FEE7FEE7FEE772
:10264000700000206C05002081F0004102E000BF16
:1026500083F0004330B54FEA41044FEA430594EA62
:10266000050F08BF90EA020F1FBF54EA000C55EA9D
:10267000020C7FEA645C7FEA655C00F0E2804FEA6E
:102680005454D4EB5555B8BF6D420CDD2C4480EA50
:10269000020281EA030382EA000083EA010180EA80
:1026A000020281EA0303362D88BF30BD11F0004FCE
:1026B0004FEA01314FF4801C4CEA113102D0404204
:1026C00061EB410113F0004F4FEA03334CEA13333F
:1026D00002D0524263EB430394EA050F00F0A78057
:1026E000A4F10104D5F1200E0DDB02FA0EFC22FA52
:1026F00005F2801841F1000103FA0EF2801843FA46
:1027000005F359410EE0A5F120050EF1200E012A36
:1027100003FA0EFC28BF4CF0020C43FA05F3C01874
:1027200051EBE37101F0004507D54FF0000EDCF1ED
:10273000000C7EEB00006EEB0101B1F5801F1BD396
:10274000B1F5001F0CD349085FEA30004FEA3C0C9A
:1027500004F101044FEA445212F5800F80F09A8090
:10276000BCF1004F08BF5FEA500C50F1000041EB94
:10277000045141EA050130BD5FEA4C0C404141EB98
:10278000010111F4801FA4F10104E9D191F0000FBF
:1027900004BF01460020B1FA81F308BF2033A3F142
:1027A0000B03B3F120020CDA0C3208DD02F1140C39
:1027B000C2F10C0201FA0CF021FA02F10CE002F174
:1027C0001402D8BFC2F1200C01FA02F120FA0CFC6D
:1027D000DCBF41EA0C019040E41AA2BF01EB0451B6
:1027E000294330BD6FEA04041F3C1CDA0C340EDCB4
:1027F00004F11404C4F1200220FA04F001FA02F3F7
:1028000040EA030021FA04F345EA030130BDC4F1B4
:102810000C04C4F1200220FA02F001FA04F340EAA9
:102820000300294630BD21FA04F0294630BD94F05A
:10283000000F83F4801306BF81F480110134013D41
:102840004EE77FEA645C18BF7FEA655C29D094EAB2
:10285000050F08BF90EA020F05D054EA000C04BF30
:102860001946104630BD91EA030F1EBF002100201B
:1028700030BD5FEA545C05D14000494128BF41F0BA
:10288000004130BD14F580043CBF01F5801130BD1E
:1028900001F0004545F0FE4141F470014FF00000A9
:1028A00030BD7FEA645C1ABF194610467FEA655C5A
:1028B0001CBF0B46024650EA013406BF52EA0335FC
:1028C00091EA030F41F4002130BD00BF90F0000FEA
:1028D00004BF0021704730B54FF4806404F1320426
:1028E0004FF000054FF0000150E700BF90F0000FDF
:1028F00004BF0021704730B54FF4806404F1320406
:1029000010F0004548BF40424FF000013EE700BFD5
:1029100042004FEAE2014FEA31014FEA02701FBF65
:1029200012F07F4393F07F4F81F06051704792F037
:10293000000F14BF93F07F4F704730B54FF46074B1
:1029400001F0004521F0004120E700BF50EA0102FC
:1029500008BF704730B54FF000050AE050EA0102A9
:1029600008BF704730B511F0004502D5404261EB19
:1029700041014FF4806404F132045FEA915C3FF45A
:10298000DCAE4FF003025FEADC0C18BF03325FEAF3
:10299000DC0C18BF033202EBDC02C2F1200300FAA8
:1029A00003FC20FA02F001FA03FE40EA0E0021FACD
:1029B00002F11444C1E600BF70B54FF0FF0C4CF4B7
:1029C000E06C1CEA11541DBF1CEA135594EA0C0F6D
:1029D00095EA0C0F00F0DEF82C4481EA030621EAA8
:1029E0004C5123EA4C5350EA013518BF52EA0335E3
:1029F00041F4801143F4801338D0A0FB02CE4FF095
:102A00000005E1FB02E506F00042E0FB03E54FF0C4
:102A10000006E1FB03569CF0000F18BF4EF0010EBC
:102A2000A4F1FF04B6F5007F64F5407404D25FEAB8
:102A30004E0E6D4146EB060642EAC62141EA55516B
:102A40004FEAC52040EA5E504FEACE2EB4F1FD0CAD
:102A500088BFBCF5E06F1ED8BEF1004F08BF5FEA2B
:102A6000500E50F1000041EB045170BD06F00046DD
:102A700046EA010140EA020081EA0301B4EB5C048A
:102A8000C2BFD4EB0C0541EA045170BD41F4801182
:102A90004FF0000E013C00F3AB8014F1360FDEBFA7
:102AA000002001F0004170BDC4F10004203C35DA83
:102AB0000C341BDC04F11404C4F1200500FA05F306
:102AC00020FA04F001FA05F240EA020001F00042A7
:102AD00021F0004110EBD37021FA04F642EB06011D
:102AE0005EEA430E08BF20EAD37070BDC4F10C0447
:102AF000C4F1200500FA04F320FA05F001FA04F20B
:102B000040EA020001F0004110EBD37041F10001F6
:102B10005EEA430E08BF20EAD37070BDC4F1200501
:102B200000FA05F24EEA020E20FA04F301FA05F269
:102B300043EA020321FA04F001F0004121FA04F211
:102B400020EA020000EBD3705EEA430E08BF20EAE1
:102B5000D37070BD94F0000F0FD101F0004640001B
:102B600041EB010111F4801F08BF013CF7D041EA9D
:102B7000060195F0000F18BF704703F000465200A1
:102B800043EB030313F4801F08BF013DF7D043EA72
:102B90000603704794EA0C0F0CEA135518BF95EA28
:102BA0000C0F0CD050EA410618BF52EA4306D1D1AF
:102BB00081EA030101F000414FF0000070BD50EACE
:102BC000410606BF1046194652EA430619D094EA58
:102BD0000C0F02D150EA013613D195EA0C0F05D142
:102BE00052EA03361CBF104619460AD181EA030196
:102BF00001F0004141F0FE4141F470014FF000004E
:102C000070BD41F0FE4141F4780170BD70B54FF0E8
:102C1000FF0C4CF4E06C1CEA11541DBF1CEA135568
:102C200094EA0C0F95EA0C0F00F0A7F8A4EB05044A
:102C300081EA030E52EA03354FEA013100F0888041
:102C40004FEA03334FF0805545EA131343EA12630A
:102C50004FEA022245EA111545EA10654FEA0026BF
:102C60000EF000419D4208BF964244F1FD0404F578
:102C7000407402D25B084FEA3202B61A65EB0305D4
:102C80005B084FEA32024FF480104FF4002CB6EB91
:102C9000020E75EB030E22BFB61A754640EA0C0011
:102CA0005B084FEA3202B6EB020E75EB030E22BF51
:102CB000B61A754640EA5C005B084FEA3202B6EB92
:102CC000020E75EB030E22BFB61A754640EA9C0051
:102CD0005B084FEA3202B6EB020E75EB030E22BF21
:102CE000B61A754640EADC0055EA060E18D04FEADF
:102CF000051545EA16754FEA06164FEAC30343EA7F
:102D000052734FEAC2025FEA1C1CC0D111F4801F4B
:102D10000BD141EA00014FF000004FF0004CB6E744
:102D200011F4801F04BF01430020B4F1FD0C88BFE3
:102D3000BCF5E06F3FF6AFAEB5EB030C04BFB6EBEE
:102D4000020C5FEA500C50F1000041EB045170BDE1
:102D50000EF0004E4EEA113114EB5C04C2BFD4EB0E
:102D60000C0541EA045170BD41F480114FF0000E92
:102D7000013C90E645EA060E8DE60CEA135594EA0E
:102D80000C0F08BF95EA0C0F3FF43BAF94EA0C0F11
:102D90000AD150EA01347FF434AF95EA0C0F7FF486
:102DA00025AF104619462CE795EA0C0F06D152EADA
:102DB00003353FF4FDAE1046194622E750EA4106BE
:102DC00018BF52EA43067FF4C5AE50EA41047FF4CF
:102DD0000DAF52EA43057FF4EBAE12E74A0011D281
:102DE00012F5001211D20DD56FF47873B3EB625265
:102DF0000ED44FEAC12343F0004343EA505323FA71
:102E000002F070474FF00000704750EA013002D1E5
:102E10004FF0FF3070474FF0000070474FEA41021B
:102E2000B2F1E04324BFB3F5001CDCF1FE5C0DD928
:102E300001F0004C4FEAC0024CEA5070B2F1004F72
:102E400040EB830008BF20F00100704711F0804F75
:102E500021D113F13872BCBF01F00040704741F43A
:102E600080114FEA5252C2F11802C2F1200C10FA3E
:102E70000CF320FA02F018BF40F001004FEAC12322
:102E80004FEAD32303FA0CFC40EA0C0023FA02F3C6
:102E90004FEA4303CCE77FEA625307D150EA01339C
:102EA0001EBF4FF0FE4040F44000704701F000406C
:102EB00040F0FE4040F40000704700BF80F000404A
:102EC00002E000BF81F0004142001FBF5FEA410302
:102ED00092EA030F7FEA226C7FEA236C6AD04FEA02
:102EE0001262D2EB1363C1BFD21841404840414047
:102EF000B8BF5B42192B88BF704710F0004F40F4F9
:102F0000000020F07F4018BF404211F0004F41F414
:102F1000000121F07F4118BF494292EA030F3FD0E0
:102F2000A2F1010241FA03FC10EB0C00C3F12003F3
:102F300001FA03F100F0004302D5494260EB400082
:102F4000B0F5000F13D3B0F1807F06D340084FEAED
:102F5000310102F10102FE2A51D2B1F1004F40EBE2
:102F6000C25008BF20F0010040EA0300704749004A
:102F700040EB000010F4000FA2F10102EDD1B0FA15
:102F800080FCACF1080CB2EB0C0200FA0CF0AABF0A
:102F900000EBC25052421843BCBFD04018437047A8
:102FA00092F0000F81F4000106BF80F400000132AE
:102FB000013BB5E74FEA41037FEA226C18BF7FEA85
:102FC000236C21D092EA030F04D092F0000F08BFC7
:102FD0000846704790EA010F1CBF0020704712F0AE
:102FE0007F4F04D1400028BF40F00040704712F1ED
:102FF00000723CBF00F50000704700F0004343F052
:10300000FE4040F4000070477FEA226216BF084687
:103010007FEA23630146420206BF5FEA412390EA4A
:10302000010F40F4800070474FF0000304E000BF40
:1030300010F0004348BF40425FEA000C08BF7047F1
:1030400043F0964301464FF000001CE050EA0102B5
:1030500008BF70474FF000030AE000BF50EA0102CA
:1030600008BF704711F0004302D5404261EB4101B7
:103070005FEA010C02BF84460146002043F0B643DC
:1030800008BFA3F18053A3F50003BCFA8CF2083A01
:10309000A3EBC25310DB01FA02FC634400FA02FC0A
:1030A000C2F12002BCF1004F20FA02F243EB020011
:1030B00008BF20F00100704702F1200201FA02FC73
:1030C000C2F1200250EA4C0021FA02F243EB020066
:1030D00008BF20EADC70704742000ED2B2F1FE4F0A
:1030E0000BD34FF09E03B3EB126209D44FEA0023D7
:1030F00043F0004323FA02F070474FF0000070479E
:1031000012F1610F01D1420202D14FF0FF3070473E
:103110004FF00000704700BF08B5074B044613B1DD
:103120000021AFF30080054B1868836A03B198470C
:10313000204602F057F800BF00000000206300089E
:103140000E4B70B51E460E4C0025E41AA410A54285
:1031500004D056F8253098470135F8E702F044F8D6
:10316000084B094C1E46E41AA4100025A54204D0C1
:1031700056F8253098470135F8E770BD6800002003
:1031800068000020680000206C00002010B5431E7D
:103190000A44914204D011F8014B03F8014FF8E7BB
:1031A00010BD03460244934202D003F8011BFAE724
:1031B000704700000FB40A4B13B51C6824B1A36913
:1031C00013B9204600F09CFB05AB049AA168204689
:1031D000019300F0C3FE02B0BDE8104004B0704798
:1031E0006000002070B50E46054618B183690BB922
:1031F00000F086FBAB69AC6813B9284600F080FB91
:10320000224B9C4201D16C6808E0214B9C4201D1C9
:10321000AC6803E01F4B9C4208BFEC68A3891B0706
:1032200001D523693BB92146284600F0F9F910B1D0
:103230004FF0FF3070BD013EA36816F8011F013B3F
:10324000A36091B1002B04DAA269934206DB0A293C
:1032500004D023685A1C22601970EDE722462846E4
:1032600000F08AF90130E7D1E2E7002B08DA2246C4
:103270000A21284600F080F90130D9D00A2070BD1B
:1032800023680A205A1C2260187070BD246300084D
:103290004463000864630008024B01461868FFF7A6
:1032A000A1BF00BF600000200FB40A4B13B51C681B
:1032B00024B1A36913B9204600F022FB05AB049AA0
:1032C00061682046019301F055FA02B0BDE8104054
:1032D00004B070476000002000294FF480630CBFE9
:1032E0000222002200F000B82DE9F7431D464F4BA3
:1032F00004461E680F46904626B1B36913B930469E
:1033000000F0FEFA4A4B9C4201D1746808E0494B38
:103310009C4201D1B46803E0474B9C4208BFF4686B
:10332000B8F1020F04D0B8F1010F79D8002D77DB86
:103330002146304600F068FA616B41B104F1440364
:10334000994202D0304600F0E9FB0023636300237A
:10335000A3616360A3891B0603D52169304600F091
:10336000DDFBA389B8F1020F23F44A6323F00303C2
:10337000A3811ED001AB6A462146304600F066FBB1
:10338000A3891843A0810DB9009D00E02FBB2846FA
:1033900000F0BCFB0746D0B9DDF80090A94502D18A
:1033A0004FF0FF3006E0484600F0B0FB074678B922
:1033B000F6E70020A38943F00203A3810023A36062
:1033C00004F1470323602361012363612AE0A946D6
:1033D0004D46A38943F08003A381B36913B93046F6
:1033E00000F08EFAB8F1010F08BFA389276004BF6F
:1033F00043F00103A381A389276103F0080080B291
:10340000656158B113F001034FF000001DBF6D421C
:10341000A060A561A56008BF184603E0A06001E0B8
:103420004FF0FF3003B0BDE8F08300BF6000002024
:103430002463000844630008646300080CB430B5DA
:10344000164B0C1E9DB01D6804DA8B232B604FF0C9
:10345000FF301EE04FF40273ADF814300CBF23466A
:1034600004F1FF33049307934FF6FF730290069025
:10347000ADF81630209A21AB02A92846019300F03E
:1034800051FC431CBCBF8B232B6014B1029B002258
:103490001A701DB0BDE8304002B0704760000020D7
:1034A0000EB400B54FF402719CB0ADF814106FF07B
:1034B0000041049107914FF6FF711DAB02900690F9
:1034C000084853F8042BADF81610006802A90193C0
:1034D00000F028FC029B00221A701CB05DF804EB7F
:1034E00003B070476000002010F8012B11F8013B79
:1034F000012A28BF9A42F7D0D01A7047034611F824
:10350000012B03F8012B002AF9D17047034613F869
:10351000012B002AFBD1181A01387047034610B559
:1035200042B111F8014B013A03F8014B002CF7D1DD
:103530001A4400E010BD934202D003F8014BFAE7B1
:1035400010BDF0B5037863B90B78002B18BF0020CD
:10355000F0BD15F8012F62B114F8017F3046974293
:10356000F7D00346461C007810B14D1E5C1EF0E7F4
:10357000F0BD1846F0BD0000F8B50F4614460646EB
:1035800018B183690BB900F0BBF9224B9C4201D101
:10359000746808E0204B9C4201D1B46803E01F4BE3
:1035A0009C4208BFF468A369A360A3891A0709D5E0
:1035B00023693BB123682069FDB2181A63699842F8
:1035C0000FDB08E02146304600F02AF80028F1D051
:1035D0004FF0FF30F8BD2146304600F015F90028C5
:1035E000F6D1A368013BA36023685A1C22601F70B8
:1035F0006269431C934204D0A389DB0707D50A2DD7
:1036000005D12146304600F0FFF80028E0D12846D9
:10361000F8BD00BF24630008446300086463000829
:10362000324B70B51D6806460C4625B1AB6913B91F
:10363000284600F065F92E4B9C4201D16C6808E0E9
:103640002C4B9C4201D1AC6803E02B4B9C4208BF41
:10365000EC68B4F90C309AB215071DD4D00602D428
:10366000092232603AE0510712D5616B41B104F191
:103670004403994202D0304600F050FA00236363BD
:10368000A38923F02403A3810023636023692360BB
:10369000A38943F00803A38123694BB9A38903F4E9
:1036A0002073B3F5007F03D02146304600F0F2F9D5
:1036B000A28912F0010305D00023A36063695B4275
:1036C000A36103E0920758BF6369A36023695BB9F4
:1036D000B4F90C3003F0800080B230B143F0400305
:1036E000A3814FF0FF3070BD002070BD600000204E
:1036F0002463000844630008646300088A892DE994
:10370000F041054610070C4659D44B68002B02DCEB
:103710000B6C002B17DDE66AAEB102F48052002379
:1037200092B22F682B600AB1606D15E0216A012307
:103730002846B047411C0FD12B686BB11D2B01D01F
:10374000162B03D12F600020BDE8F081A38943F040
:103750004003A381BDE8F081A3895A0705D56368BA
:10376000C01A636B0BB1236CC01A00230246E66AD1
:10377000216A2846B047431CA38906D129681D2920
:1037800039D8204ACA40D60735D50022626022695E
:10379000D904226004D5421C01D12B6803B96065AD
:1037A000616B2F600029CED004F14403994202D00E
:1037B000284600F0B3F900206063BDE8F0810F698E
:1037C000002FC0D093070E680CBF4B690023C7EBD6
:1037D00006080F608B6002E00744C0EB0808B8F1F0
:1037E000000FB0DD43463A46216A2846A66AB04734
:1037F0000028F1DCA38943F04003A3814FF0FF30A0
:10380000BDE8F0810100402038B50B6905460C4643
:10381000DBB118B183690BB900F072F80C4B9C4214
:1038200001D16C6808E00B4B9C4201D1AC6803E00D
:10383000094B9C4208BFEC68B4F90C302BB121460F
:103840002846BDE83840FFF759BF002038BD00BF0B
:10385000246300084463000864630008014620B93B
:10386000044B0549186800F0D3B8044B1868FFF7FB
:10387000CBBF00BF206300080938000860000020AB
:10388000014900F0C5B800BF0938000810B504466A
:10389000002303604360836081814366C2810361CA
:1038A00043618361194608225C30FFF77AFC054BBF
:1038B00024626362044BA362044BE362044B236300
:1038C00010BD00BF194C00083B4C0008734C0008A9
:1038D000974C000870B568234D1E5D430E4605F1F8
:1038E000740100F067F9044640B1002180E842000D
:1038F0000C30A06005F16802FFF753FC204670BD54
:10390000836910B5044633BB8364C3640365124BFB
:10391000124A1B688262984204BF0123836100F04F
:103920001FF86060204600F01BF8A060204600F001
:1039300017F80022E06004216068FFF7A7FF01226A
:103940000921A068FFF7A2FF02221221E068FFF719
:103950009DFF0123A36110BD20630008813800088A
:10396000F8B51C4B07461E68B36913B93046FFF71C
:10397000C7FF4836B4687368013B04D4B4F90C50EF
:103980007DB16834F8E733680BB13668F2E704219B
:103990003846FFF79FFF30600028F6D10C233B60CC
:1039A000F8BD4FF6FF73E3810123A38165662560AF
:1039B000A560656025616561A5610822294604F15D
:1039C0005C00FFF7EEFB6563A563A564E564204634
:1039D000F8BD00BF206300082DE9F041884600F1E2
:1039E000480400268CB1A5686768013F0BD4AB89F9
:1039F000012B06D9B5F90E30013302D02846C04755
:103A000006436835F1E72468ECE73046BDE8F0810D
:103A10002DE9F8438046894600F14804002694B118
:103A2000A5686768013F0CD4AB89012B07D9B5F9AC
:103A30000E30013303D029464046C8470643683557
:103A4000F0E72468EBE73046BDE8F88370B50E4632
:103A5000B1F90E1090B0002914461D4606DA002375
:103A60002B60B3891A060ED540230EE001AA01F09F
:103A7000E9FA0028F3DB029A02F47042A2F500533F
:103A80005A425A412A604FF480630020236010B0EC
:103A900070BD00008B8973B59E0705460C4610D497
:103AA00001AB6A46FFF7D2FF00990646284600F0B0
:103AB00081F868B9B4F90C309A0522D443F00203B6
:103AC000A38104F14703236023610123636118E0AC
:103AD0000D4BAB62A389206043F08003A381009B60
:103AE00020616361019B4BB1B4F90E10284601F0CF
:103AF000BBFA18B1A38943F00103A381A089304325
:103B0000A08102B070BD00BF81380008024B0146A1
:103B1000186800F04FB800BF6000002038B50546B7
:103B2000002944D051F8043C0C1F002BB8BFE41806
:103B300001F0E5FA1E4A1368114613B96360146078
:103B400030E0A3420DD92268A018834201BF186853
:103B50005B681218226063600C6023E0A24203D805
:103B600013465A68002AF9D118681918A1420BD1D6
:103B70002168014458188242196013D110685268B4
:103B8000014419605A600DE002D90C232B6009E052
:103B900021686018824201BF1068526809182160CC
:103BA00062605C602846BDE8384001F0A9BA38BDC3
:103BB0006005002070B5CD1C25F0030508350C2DDF
:103BC00038BF0C25002D064601DBA94202D90C2383
:103BD000336046E001F093FA234B1C681A462146F5
:103BE000A1B10B685B1B0ED40B2B03D90B60CC1857
:103BF000CD501EE08C420BBF63684B68136063605E
:103C000018BF0C4615E00C464968E9E7174C2368D5
:103C10001BB9304600F0C0FF20602946304600F056
:103C2000BBFF431C18D0C41C24F00304A0420DD1D8
:103C30002560304601F064FA04F10B00231D20F0EA
:103C40000700C31A0ED05A42E25070BD211A304606
:103C500000F0A2FF0130EBD10C233360304601F0BD
:103C60004FFA002070BD00BF600500205C050020F9
:103C70002DE9F0478E6882469E420C469146984652
:103C80003ED88A8912F4906F3AD0256809690223D8
:103C90006F1A656905EB450595FBF3F57B1C4344FD
:103CA0009D4238BF1D4653050FD52946FFF782FFB9
:103CB000064698B13A462169FFF768FAA38923F4CA
:103CC000906343F08003A38113E02A4601F019FAC0
:103CD000064670B921695046FFF720FF0C23CAF849
:103CE0000030A3894FF0FF3043F04003A381BDE8CB
:103CF000F08726613E44266046466561ED1BA5605F
:103D0000464528BF464649463246206801F0DCF960
:103D1000A36800209B1BA36023681E442660BDE8A7
:103D2000F08700002DE9F04F9DB003938B8980460A
:103D30001C060D4616460DD50B695BB94021FFF7F1
:103D400039FF2860286118B90C23C8F80030CDE08D
:103D500040236B610023099320238DF82930DFF87D
:103D60009CB130238DF82A3037463C4614F8013B8D
:103D70001BB9B7EB060910D003E0252BF9D0274675
:103D8000F3E74B46324629464046FFF771FF0130C4
:103D900000F0A780099B4B4409933B78002B00F06F
:103DA000A08000234FF0FF320493079305920693FF
:103DB0008DF853301A930126052221784E4801F0E0
:103DC00075F9671C049B38B14B4A3C46801A06FAC9
:103DD00000F018430490EFE7D90644BF20228DF885
:103DE00053201A0744BF2B228DF8532022782A2A09
:103DF00003D0079A00210A200BE0039A111D1268D4
:103E00000391002A10DA524243F002000792049014
:103E10000BE027463B780134303B092B03D800FBED
:103E200002320121F5E701B107923B782E2B1ED11A
:103E30007B782A2B0AD1039B02371A1D1B68039239
:103E4000002BB8BF4FF0FF33059310E00023194655
:103E50000593781C0A2407463A780130303A092A3B
:103E600003D804FB01210123F5E703B105910322E7
:103E70003978224801F01AF940B14023CBEB000019
:103E800003FA00F0049B01371843049039780622A6
:103E90001B487E1C8DF8281001F008F988B1194BD9
:103EA00033B9039B073323F007030833039314E06C
:103EB00003AB00932A46144B04A94046AFF300809D
:103EC00007E003AB00932A460F4B04A9404600F0DD
:103ED000D7F9B0F1FF3F824603D0099B53440993C1
:103EE00042E7AB895B0601D4099801E04FF0FF304F
:103EF0001DB0BDE8F08F00BF846300088A6300082E
:103F00008E63000800000000713C0008936810B444
:103F1000013B002B936008DA9469A34202DBCBB229
:103F20000A2B02D110BCFFF727BB1368581C106086
:103F30001970C8B210BC7047F8B506460F46144653
:103F4000D518AC4208D03A4614F8011B3046FFF7AA
:103F5000DDFF431CF5D100E00020F8BD2DE9F04F56
:103F60009DB00C4617460393064618B183690BB9FA
:103F7000FFF7C6FC7F4B9C4201D1746808E07E4B82
:103F80009C4201D1B46803E07C4B9C4208BFF468BA
:103F9000A38918070CD5236953B100230993202363
:103FA0008DF8293030238DF82A30DFF8D4B144E081
:103FB00021463046FFF734FB0028EED04FF0FF30AB
:103FC000D5E0039A111D12680391002A80F28C80BB
:103FD000524243F002000792049098F800302E2BD2
:103FE00000F08480032298F80010654801F05EF824
:103FF00048B14023CBEB000003FA00F0049B08F12A
:1040000001081843049098F8001006225D4808F152
:1040100001078DF8281001F049F8002800F095807C
:10402000594B002B40F08880039B073323F0070394
:1040300008330393099B53440993B846454615F842
:10404000013B1BB9B8EB07090FD003E0252BF9D0D2
:10405000A846F3E74B463A4621463046FFF76CFF49
:1040600001307FD0099B4B44099398F80030002B16
:1040700078D000234FF0FF32049307930592069304
:104080008DF853301A930127052229783F4801F013
:104090000DF805F10108049B38B13C4A4546801AE9
:1040A00007FA00F018430490EEE7D90644BF202237
:1040B0008DF853201A0744BF2B228DF853202A78FD
:1040C0002A2A3FF47EAF079A00210A20A84698F8D2
:1040D00000300135303B092B03D800FB02320121AF
:1040E000F4E700293FF479AF079276E798F80130BA
:1040F0002A2B0BD1039B08F102081A1D1B6803929F
:10410000002BB8BF4FF0FF3305936BE70023194630
:10411000059308F101000A25804698F80020013037
:10412000303A092A03D805FB01210123F4E7002BCB
:104130003FF458AF059155E703AB00932246144B6B
:1041400004A93046AFF3008007E003AB009322469A
:104150000F4B04A9304600F093F8B0F1FF3F8246C0
:104160007FF468AFA3895B063FF528AF09981DB0BF
:10417000BDE8F08F2463000844630008646300080E
:104180008A6300088E630008000000008463000852
:10419000393F00082DE9F04791461F460A698B68B0
:1041A00006469342B8BF1346C9F8003091F8432041
:1041B0000C46DDF8208012B10133C9F800302368C5
:1041C000990642BFD9F800300233C9F8003025689B
:1041D00015F0060510D104F1190A07E00123524633
:1041E00039463046C04701301AD00135E368D9F866
:1041F00000209B1A9D42F1DB94F843302268003383
:1042000018BF012392060FD5E118302081F8430032
:104210005A1C94F845102244023382F8431003E0FC
:104220004FF0FF30BDE8F08704F1430239463046D5
:10423000C0470130F4D02268D9F80050E36802F09A
:104240000602042A08BF5D1B2269A3680CBF25EA89
:10425000E57500259342C4BF9B1AED184FF0000985
:104260001A344D4509D00123224639463046C0470D
:104270000130D5D009F10109F3E70020BDE8F0874E
:104280002DE9F04317460A7E85B06E2A9846064609
:104290000C460C9B01F1430E00F0AE8011D8632A4E
:1042A00022D009D8002A00F0BB80582A40F0CA80EA
:1042B00081F84520834955E0642A1ED0692A1CD024
:1042C000C0E0732A00F0B08009D86F2A2ED0702A7F
:1042D00040F0B8800A6842F020020A603EE0752A89
:1042E00024D0782A3AD0ADE01A6801F14205111DB8
:1042F0001960136884F84230A8E021681A6811F048
:10430000800F02D0111D196008E011F0400F02F17A
:104310000401196002D0B2F9003000E01368002BEC
:104320003CDA2D225B4284F8432037E021681A688A
:1043300011F0800F02D0111D196007E011F0400F3D
:1043400002F10401196001D0138800E01368227E95
:104350005C496F2A14BF0A2208221BE078225A49BE
:1043600084F845202268186812F0800F00F10405D7
:104370001D6003D1550601D5038800E00368D0070E
:1043800044BF42F0200222601BB9226822F02002C2
:1043900022601022002084F8430001E049490A22EB
:1043A0006568002DA56008DB206820F0040020600F
:1043B0002BB9002D7DD175460CE0002B79D07546C8
:1043C000B3FBF2F002FB1033CB5C05F8013D034672
:1043D0000028F5D1082A0BD12368DA0708D523690C
:1043E00062689A42DEBF302305F8013C05F1FF35D3
:1043F000C5EB0E0323612EE008681A6810F0800FE9
:10440000496903D0101D1860136808E010F0400FD0
:1044100002F104001860136801D0198000E01960EF
:1044200000232361754616E01A68111D196015688E
:1044300000216268284600F039FE08B1401B606028
:10444000636804E004F1420584F8422001232361FB
:10445000002384F84330CDF800803B4603AA214670
:104460003046FFF797FE013002D14FF0FF3026E0D3
:1044700023692A4639463046C0470130F5D02368C3
:104480009B0710D5002504F1190907E001234A46CE
:1044900039463046C0470130E7D00135E368039A1A
:1044A0009B1A9D42F2DBE068039B9842B8BF184616
:1044B00005E00B7804F1420584F842308AE705B044
:1044C000BDE8F08395630008A66300082DE9F04F6E
:1044D000DFF89C9207460D46CA46ADF5257D01934F
:1044E0000023469347939E4B0DF10C08A2939D4BDE
:1044F000DFF874B2CDF82081A3931478002C00F07B
:104500002781D9F8003023445B7803F0080303F0D7
:10451000FF01F3B16B68002B10DD2B68DAF80000A7
:104520001978014449780C0710D5479901330131B6
:10453000479169682B6001396960EBE7A39B2946C5
:10454000384600929847009A0028E6D0561C32461A
:10455000D3E7252C02F1010652D1439145915378BE
:104560002A2B02BF1023961C43930A22317834462B
:10457000A1F13003092B06F1010605D8459B02FB8A
:104580000313303B4593F1E70322774800F08EFD9B
:1045900040B134460123CBEB000003FA00F0439B0B
:1045A00003434393661C2478672C16D8652C7FD26E
:1045B000472C07D8452C7BD2002C00F0CB80252C33
:1045C0001ED077E05B2C51D002D8582C3ED071E041
:1045D000632C57D0642C3FD06CE0702C32D007D8BD
:1045E0006E2C55D03AD8692C64D1002344933BE01B
:1045F000752C31D0782C29D0732C5BD102233FE06D
:104600006B68002B0DDD2B681A78944240F0A08077
:1046100001336A682B60479B013A01336A60479314
:1046200095E7A39B2946384698470028EBD0469843
:10463000002800F08F80AB8913F0400F18BF4FF0B7
:10464000FF3089E0439B43F020034393439B43F4B3
:1046500000734393102302E00A2300E008236E2C2A
:10466000449301DD04230BE0032309E03146404677
:1046700000F0A2FA0646439B43F040034393012314
:1046800049931BE0439B43F0400343930023F7E728
:10469000439AD0063FF55BAF12F0010F019A479B9A
:1046A00002F104010191126814BF138013604EE7F8
:1046B0000523E5E7032349930A2344936B68002B02
:1046C00003DD439B590611D518E0A39B29463846C4
:1046D00098470028F5D0AAE7479A013247926A68BE
:1046E000013A002A6A6013DD01332B602B68DAF887
:1046F00000101A780A4452781207EDD4499B022B15
:104700000DDC01AB2A4643A9384600F05BF819E0FE
:10471000A39B2946384698470028E7D087E7042B13
:1047200006DC01AB2A4643A9384600F0B1F809E09F
:104730000E4B002B3FF40BAF01AB2A4643A9384682
:10474000AFF30080012803D002287FF400AF6EE7AA
:10475000469801E04FF0FF300DF5257DBDE8F08F64
:104760001D4F0008894A00088A6300080000000005
:10477000640000202DE9F0410C4616461F46054610
:1047800018B183690BB9FFF7BBF80B4B9C4201D101
:104790006C6808E0094B9C4201D1AC6803E0084B0F
:1047A0009C4208BFEC683B46324621462846BDE89D
:1047B000F041FFF78BBE00BF24630008446300088C
:1047C000646300082DE9F84315468A6880460C4664
:1047D00032B98A69002A0CBF01224FF0FF328A6089
:1047E0002268DFF8A890D10658BF1A684FF000067B
:1047F0005EBF111D19601768A069F8B923680136FA
:10480000DA065EBF2B681B783B702A686B6802F182
:1048100001022A60A26803F1FF3302F1FF326B60EC
:1048200058BF0137A260E2B1002BE5DCD4F880313B
:104830002946404698470028DED012E0012806D1DC
:104840002B681A7863699B5C002BD7D119E002288A
:1048500007D12B68D9F800201B7813445B781B071D
:10486000CCD5236813F0100305D1E2680132E26071
:10487000A26902B13B70236900201E442661BDE895
:10488000F883002EEDD1BDE8F88300BF640000205E
:104890002DE9F04F0C469A46724B87B08346164678
:1048A00093E8070003ABA76883E807006E4BA16994
:1048B0006E4A04F11C09032918BF1A467B1EB3F582
:1048C000AE7F84BF40F25D13A360236888BF6FF49E
:1048D000AE7543F4506323604B4600928CBF7F1942
:1048E00000274FF000083168019303AB53F828000C
:1048F0000222097800F0DAFB019B002833D0B8F1DE
:10490000010F0BD162682AB908226260226842F462
:1049100000722260226822F4A0620CE0B8F1020F5B
:104920000AD1226802F4C061B1F5007F1BD11021C9
:10493000616042F480722260A268511EA16092B14F
:1049400032685D1C511C316012781A707368013B2B
:10495000002B736006DCD4F8803131465846984706
:10496000002841D12B4608F10108B8F1030FBAD154
:1049700062680AB90A22626062683D496069891A00
:10498000019300F019F9019B4FF000081D46A36840
:1049900063B3316860690A78805C38B3302A226872
:1049A00008D1100506D508F1010857B10133013FC0
:1049B000A36006E022F4106222600B78013505F84E
:1049C000013C7368013B002B736003DD33680133E6
:1049D000336005E0D4F8803131465846984728B90D
:1049E000A368013BA360D2E74FF000082368D90514
:1049F0000CD54D4508D915F8011C6F1ED4F87C3133
:104A00003246584698473D464D4527D0226812F019
:104A100010021BD12A70636849465846009EB04771
:104A20002268DAF8003012F0200F07D1D20705D53E
:104A30001A1DCAF800201B68188004E01A1DCAF865
:104A400000201B681860E3680133E3602369C9EB49
:104A5000050545441D442561002000E0012007B004
:104A6000BDE8F08FB8630008AD4D0008A14C000808
:104A7000D4630008838903F00903092B01D1FEF7F1
:104A8000EDBE002070470000F8B50C46054618B191
:104A900083690BB9FEF734FF3A4B9C4201D16C6835
:104AA00008E0394B9C4201D1AC6803E0374B9C4293
:104AB00008BFEC68B4F90C200023636093B29E0633
:104AC0005BD458071AD4D90605D4092342F0400212
:104AD0002B60A28151E01A070BD521462846FEF72C
:104AE00093FE002849D1A389A06023F00803A38185
:104AF000A061A38943F00403A38110E0616B71B14D
:104B000004F14403994202D02846FFF707F8236CCA
:104B100000206063636013B1E36B2360F8BD236919
:104B20001BB921462846FEF7B5FFB4F90C70BEB29A
:104B3000B3070FD00123A381154B1649186806F05F
:104B40000906FEF749FF092EA78103D12146284611
:104B5000FEF7D4FD2269666A22606369216A2846ED
:104B6000B047002860600BDCA38917BF002243F028
:104B7000200343F040036260A3814FF0FF30F8BD93
:104B80000020F8BD24630008446300086463000843
:104B900020630008754A000838B5064C0023054616
:104BA0000846236000F010FB431C02D1236803B1C8
:104BB0002B6038BD6805002070B50B78441E5E2B55
:104BC00013BF4A1C8A1C4B78002108BF012100F149
:104BD000FF0504F8011FAC42FBD10BB9501E70BD9C
:104BE00081F001041146C4540D784A1C2D2D06D0C5
:104BF0005D2D0FD00DB12B46F4E7084670BD4E7801
:104C00005D2EF8D0B342F6DC023101339E42C4542B
:104C1000FBDCE9E7104670BD10B50C46B1F90E108B
:104C200000F096FA0028ABBF636DA3891B1823F42C
:104C30008053ACBF6365A38110BD2DE9F0411F46D1
:104C40008B890546DB050C46164605D50223002256
:104C5000B1F90E1000F018FAA389324623F48053FC
:104C6000A381B4F90E103B462846BDE8F04100F0A0
:104C7000C7B910B50C46B1F90E1000F005FA431C87
:104C8000A38915BF606523F4805343F48053A38147
:104C900018BFA38110BDB1F90E1000F0C3B9000018
:104CA0002DE9F0470F4680463F48D0F800903D463A
:104CB00015F8014B09EB0400407800F0080000F003
:104CC000FF0608B12F46F2E72D2C03D1BD1C7C78DE
:104CD000012603E02B2C04BF7C78BD1C13B1102BE4
:104CE0000AD15BE0302C57D1287800F0DF0058283B
:104CF0004DD16C7810230235002E14BF4FF0004CBC
:104D00006FF0004CBCFBF3FA0027384603FB1ACCCB
:104D100009EB040E9EF801E01EF0040F01D0303CB8
:104D20000BE01EF0030E1BD0BEF1010F0CBF4FF0C5
:104D3000370E4FF0570ECEEB0404A34210DDB7F14F
:104D4000FF3F0AD0504506D801D1644503DC03FB80
:104D50000040012701E04FF0FF3715F8014BD7E77E
:104D60007B1C0CD1002E4FF0220314BF4FF00040EB
:104D70006FF00040C8F800302AB9BDE8F08706B1EE
:104D8000404272B107B1691E1160BDE8F08730245E
:104D9000002BB1D10823AFE70A23ADE7302CA3D015
:104DA000AAE7BDE8F08700BF640000202DE9F047C6
:104DB0000E4680463B48D0F80090354615F8014B2A
:104DC00009EB0400407800F0080000F0FF0708B18C
:104DD0002E46F2E72D2C03D1B51C7478012703E091
:104DE0002B2C04BF7478B51C13B1102B0AD153E0DF
:104DF000302C4FD1287800F0DF00582845D16C784E
:104E0000102302354FF0FF3CBCFBF3FC03FB0CFA14
:104E100000266FEA0A0A304609EB040E9EF801E00C
:104E20001EF0040F01D0303C0BE01EF0030E1AD030
:104E3000BEF1010F0CBF4FF0370E4FF0570ECEEB07
:104E40000404A3420FDD002E08DB604506D801D123
:104E5000544503DC03FB0040012601E04FF0FF3620
:104E600015F8014BD8E7002E07DA2223C8F80030E6
:104E70004FF0FF302AB9BDE8F08707B1404272B168
:104E800006B1691E1160BDE8F0873024002BB9D14E
:104E90000823B7E70A23B5E7302CABD0B2E7BDE86B
:104EA000F08700BF640000202DE9F0410C46496BFB
:104EB00004F1440399421AD14FF48061FEF77AFE5F
:104EC00018B94FF0FF30BDE8F0814FF48063A36361
:104ED00094F84630606380F8FF3394F8453000F270
:104EE000FD30437094F844300370206012E0A66BEC
:104EF00077003A4600F005F905460028E1D000EBBE
:104F00000608014632464046FEF740F9C4F80080E4
:104F10006563A7630020BDE8F0810000F8B54D1C73
:104F200006460F46144602D14FF0FF30F8BD18B1C7
:104F300083690BB9FEF7E4FC2E4B9C4201D17468E7
:104F400008E02D4B9C4201D1B46803E02B4B9C42FE
:104F500008BFF468B4F90C3023F02003A3819BB29E
:104F6000590713D4DA06DFD51B070BD52146304687
:104F7000FEF74AFC0028D7D1A389A06023F00803DC
:104F8000A381A061A38943F00403A381636BFDB2F5
:104F900062688BB1A36B9A4207DA23685A1E2260BB
:104FA00003F8017C6368013320E021463046FFF7B7
:104FB0007BFF0028F1D0B7E72169236851B19942FE
:104FC00008D213F8011C8D4204D1013B0132236049
:104FD00062600CE0E36304F1440363630323A363AF
:104FE0002346226403F8467F23600123636028463A
:104FF000F8BD00BF24630008446300086463000830
:1050000038B5074C054608461146002222601A466C
:10501000FBF760FF431C02D1236803B12B6038BD4E
:105020006805002038B5064C002305460846236075
:1050300000F0AAF8431C02D1236803B12B6038BDED
:105040006805002038B5074C002305460846114680
:10505000236000F0A1F8431C02D1236803B12B6048
:1050600038BD00BF6805002038B5064C0023054652
:105070000846236000F098F8431C02D1236803B16E
:105080002B6038BD6805002038B5074C054608463A
:105090001146002222601A4600F08EF8431C02D10D
:1050A000236803B12B6038BD6805002010B5C9B274
:1050B00002449042034605D01C7801308C42F8D15E
:1050C000184610BD002010BD884210B501EB020348
:1050D00001D8421E0BE09842FBD28118D21AD3426B
:1050E00004D013F8014D01F8014DF8E710BD9942C5
:1050F00004D011F8014B02F8014FF8E710BD7047DA
:105100007047F8B5074615460E4621B91146BDE869
:10511000F840FEF74FBD1AB9FEF700FD2846F8BD6E
:1051200000F028F885420ED929463846FEF742FDA0
:10513000044650B131462A46FEF728F83146384633
:10514000FEF7ECFC01E03046F8BD2046F8BD00005B
:1051500038B5074C054608461146002222601A461B
:10516000FBF7C8FE431C02D1236803B12B6038BD96
:105170006805002051F8040C0028BEBF091851F83A
:10518000043CC01804387047024B58221A604FF094
:10519000FF30704768050020024B58221A604FF01C
:1051A000FF30704768050020024B58221A6000202B
:1051B000704700BF68050020024B58221A604FF06C
:1051C000FF30704768050020044B0246196809B992
:1051D00003491960186802441A607047640500208A
:1051E00070050020FEE70000F8B500BFF8BC08BC61
:1051F0009E467047F8B500BFF8BC08BC9E46704795
:1052000030313233343536373839414243444546FC
:105210004552524F520000002B5555534F52463ABB
:10522000200000004F4B000041542B55534F435278
:105230003D31370D0A0000002B55534F43523A20A1
:105240000000000041542B55534F434C3D25640D45
:105250000A00000041542B5544434F4E463D312C2B
:10526000310D0A0041542B55534F53543D25642CA6
:10527000222573222C25642C25642C22000000009A
:105280002B5555534F52463A2000000041542B55A0
:10529000534F52463D25642C25640D0A0000000042
:1052A0002B55534F52463A200000000041542B43E7
:1052B00053510D0A000000002B4353513A200000C7
:1052C00041542B434349440D0A0000002B434349FA
:1052D000443A200041542B4347534E0D0A0000002E
:1052E00041542B4347534E0D0D0A000041542B43AC
:1052F000534F4443503D312C25642C222573220DFD
:105300000A00000041542B43455245473F0D0A0017
:105310002B43455245473A20302C31002B43455210
:1053200045473A20312C31000D0A0D0A426F617257
:105330006420737461727465642C20636F6E736F84
:105340006C6520696E697469616C697A65642E0D9B
:10535000000000005374617274696E67204C5345FD
:105360002E2E2E0D00000000466F756E64204C53EB
:105370004520616C72656164792072756E6E696E2C
:10538000672E0D00282129204661696C6564207410
:105390006F207374617274204C53452E0D00000011
:1053A00049324320636F6E666967757265642E0DBE
:1053B0000000000055534152543320636F6E6669FC
:1053C00067757265642E0D00557074696D65207483
:1053D000696D657220737461727465642E0D0000CE
:1053E00043616C6962726174696E672064656C61A7
:1053F00079206C6F6F702076616C75652E2E2E0D86
:10540000000000002564206379636C65732070657B
:1054100072207365636F6E642E0D0A00537461729F
:1054200074696E6720534152412D523431304D2EF4
:105430002E2E0D0057616974696E67206D6F64755B
:105440006C6520746F20626F6F742E2E2E0D00001D
:105450004E6F2073746172747570206D6573736123
:1054600067652066726F6D20746865206D6F647566
:105470006C652C20636865636B696E6720696620C4
:10548000697420697320616C72656164792072753A
:105490006E6E696E672E0D00417474656D707420B8
:1054A00025642E2E2E0D0A0041540D0A0000000026
:1054B0004D6F64756C652068617320626F6F7465F1
:1054C0006420696E202564206D732E0D0A00000093
:1054D000556E61626C6520746F20616E616C797AC3
:1054E0006520616E64207365742070726F66696CEC
:1054F000652C20746865205246206D6F64756C655C
:1055000020646F6573206E6F7420726573706F6EA8
:10551000642E0D0043616E6E6F7420736574204EAF
:105520004944442041504E20626563617573652093
:105530006F66206572726174696320706172616D5B
:10554000657465722E0D00002B434744434F4E5443
:105550003A20312C224E4F4E495022004375727230
:10556000656E7420636F6E74657874206973207340
:10557000657420666F722049502C20627574207308
:10558000657474696E67732063616C6C20666F72FA
:10559000204E4944442C20666978696E672E2E2E71
:1055A0000D00000041542B434744434F4E543D31BE
:1055B0002C224E4F4E49502C222C222573220D0AAC
:1055C000000000004E494444206D6F6465207573EF
:1055D00065642E0D000000002B434744434F4E549A
:1055E0003A20312C22495056345636220000000011
:1055F00043757272656E7420636F6E746578742083
:1056000069732073657420666F72204E494444208C
:105610006D6574686F642C20627574207365747492
:10562000696E67732063616C6C20666F72204950ED
:105630002C20666978696E672E2E2E0D0000000002
:1056400041542B434744434F4E543D312C22495043
:1056500056345636220D0A004950206D6F6465207D
:10566000757365642E0D0000556E61626C65207463
:105670006F20636F6E666967757265206D6F647504
:105680006C652E0D000000004170706C79696E67CA
:105690002073657474696E677320286E6565647322
:1056A000206D6F64756C65207265626F6F74292E52
:1056B0002E2E0D0041542B4346554E3D31350D0ADB
:1056C00000000000556E61626C6520746F20726589
:1056D000626F6F74206D6F64756C652E0D00000035
:1056E00057616974696E6720666F722074686520FF
:1056F0006D6F64756C6520746F2072656769737473
:10570000657220696E2061206E6574776F726B2EF2
:105710002E2E0D004D6F64756C65206661696C6599
:105720006420746F2073746172742E2052616469F6
:105730006F20636F6D6D756E69636174696F6E2044
:10574000756E617661696C61626C652E0D0000009A
:105750004D6F64756C652077617320616C72656153
:1057600064792072756E6E696E672C204F4B2E0D1A
:105770000000000041542B434744434F4E543F0D1B
:105780000A0000005573696E67204E494444206D3D
:105790006574686F642E0D005573696E67204950FB
:1057A000206D6574686F642E0D00000053656E6493
:1057B000696E67206461746120746F2025733A25D7
:1057C0006425730D0A0000007B22696E74657266A1
:1057D000616365223A2274656C656D657472792225
:1057E0002C20224943434944223A222573222C206B
:1057F0002254616D625F64656743223A25642C2000
:10580000226158223A25642C20226159223A2564CB
:105810002C2022615A223A25642C202252535349CB
:105820005F64426D223A25647D00000054656C651A
:105830006D657472793A2025732028256420627979
:10584000746573290D0A00004D65737361676520E7
:105850007375636365737366756C6C792073656EBD
:10586000742E0D004661696C656420746F20736549
:105870006E64206D6573736167652E0D0000000016
:1058800052617720436F4150206461746120282564
:1058900064206279746573293A205B005D0D000015
:1058A0003025580025580000556E61626C652074E3
:1058B0006F206372656174652055445020736F6377
:1058C0006B65742E0D0000004661696C6564207480
:1058D0006F2073656E642064617461206F766572F9
:1058E0002049502E0D0000004E6F20616E737765C9
:1058F000722066726F6D207365727665722E0D0070
:1059000053657276657220726573706F6E73652071
:10591000636F64653A2025642E253032642C207232
:105920006573706F6E73652074696D65203D202509
:1059300064206D732E0D0A005365727665722072B5
:105940006573706F6E73652064756D703A205B00CF
:1059500053657276657220726573706F6E73652021
:10596000697320746F6F206C6172676520282564ED
:10597000206279746573292E0D0A0000556E6162EC
:105980006C6520746F20636C6F73652055445020E4
:10599000736F636B65742E0D000000002573202D5E
:1059A000206E6F20616E737765722066726F6D2056
:1059B000746865206D6F64756C652E0D0A000000BB
:1059C0005761726E696E673A2041504E206E616D6C
:1059D00065206E6F74207365742E0D005761726EB2
:1059E000696E673A207461726765742073657276B8
:1059F0006572204950206E6F74207365742E0D00FF
:105A00005761726E696E673A2074617267657420BF
:105A100055524C206E6F74207365742E0D0000007B
:105A20006265746120332C2030382E31322E3230B2
:105A3000313900000D0A2A2A2A2057656C636F6DE0
:105A40006520746F204D5453204E422D496F5420D1
:105A50004576616C756174696F6E204B6974207353
:105A600065747570206D656E75202A2A2A0D0A0DE1
:105A70000A4669726D776172652076657273696F27
:105A80006E3A2025730D0A0D0A5479706520696EEF
:105A900020616E206F7074696F6E206E756D626527
:105AA000722066726F6D2061206C6973742062656C
:105AB0006C6F7720616E6420707265737320656E01
:105AC0007465722E0D0A0D0A546172676574207335
:105AD0006572766572207365747570202620746512
