:020000040800F2
:10000000004001204535000883350008853500088B
:1000100087350008893500088B350008000000008E
:100020000000000000000000000000008D35000806
:100030008F35000800000000913500089335000856
:1000400097350008993500089B3500080D0F00080A
:100050009F350008A1350008A3350008A535000824
:10006000A7350008A9350008AB350008AD350008F4
:10007000AF350008B1350008B3350008B5350008C4
:10008000B7350008B9350008BB350008BD35000894
:10009000BF350008C1350008C3350008C535000864
:1000A000C7350008D1100008CB350008CD35000851
:1000B000CF350008D1350008D3350008D535000804
:1000C000D7350008D9350008DB350008DD350008D4
:1000D000DF350008E135000851150008F50100087A
:1000E000E7350008E9350008EB350008ED35000874
:1000F000EF350008F1350008F3350008F535000844
:10010000F7350008F9350008FB350008FD35000813
:10011000FF350008013600080336000805360008E0
:100120000736000810B5054C237833B9044B13B1DA
:100130000448AFF300800123237010BDD0000020DD
:1001400000000000D4C20008084B10B51BB10849DC
:100150000848AFF300800848036803B910BD074B97
:10016000002BFBD0BDE81040184700BF0000000086
:10017000D4000020D4C20008D000002000000000FD
:10018000154B002B08BF134B9D46A3F5803A002169
:100190008B460F461348144A121A03F0EEFF0F4B1A
:1001A000002B00D098470E4B002B00D09847002022
:1001B000002104000D000D48002802D00C48AFF3C8
:1001C000008003F0A9FF2000290003F0B3F803F03A
:1001D0008FFF00BF00000800004001200000000069
:1001E00000000000D00000206C1200200000000081
:1001F000000000002DE9F043684B83B01A8800210D
:1002000092B201929A886648D2B28DF80320198082
:100210000278002A4DD1019B1B075FD4614A9DF8EB
:100220000330002B68D0604C138827469DF80310DC
:100230009BB2C9B25D4DDFF86CE1E1544FF00108AB
:10024000002101EBC10301EB43032B449E7C06F02C
:10025000FF0C86B95E7C06F0FF09002E5BD1168884
:10026000B6B214F806C01E7CF6B29E5DB44500F02E
:10027000848083F8109001310229E2D113884C491F
:100280009BB2E35C4B4E0D78755D9D4258D00023C8
:100290000B70138848499BB2E35C484D0C782C5D89
:1002A0009C425BD000230B70138801339BB21380F8
:1002B00022E09B88DBB28DF803309DF803300D2BD4
:1002C00019D09DF803300A2B15D09DF80330202B50
:1002D00011D03B4B0121334A19700DE002F0FF01B0
:1002E000324D304A324C344B1180217019702974D0
:1002F00085F8231093E72B4A13882A4A9BB2B3F55B
:10030000806F05D340F2FF302E4B01211080197011
:1003100003B0BDE8F0831688B6B2A65D0A2EAAD156
:10032000BEF80060B6B2013EBE5D0D2EA3D180F8CE
:10033000008083F8128083F811C083F810C09AE718
:100340000B780133DBB20B700B78012BA1D91E4D5A
:100350000123002603700E702B709AE70B7801338F
:10036000DBB20B700B78042B9ED9174B01260025AE
:10037000022406700D701C7096E71E7C0136F6B2E2
:100380001E741E7CF6B29E5D06F0FF0C002E7FF4FC
:1003900072AF83F810C083F811806CE7004800400A
:1003A000F2040020F0040020EC00002000000020F7
:1003B000EC04002038960008ED0400203096000878
:1003C000F3040020EE040020F40400202DE9F04F97
:1003D000002483B03D4E019434780D9F64B9019C94
:1003E000A74203D808E0019DAF4205D9019C013422
:1003F00001943578002DF6D0347804F0FF08F4B974
:100400000AB182F800800BB100221A700023037039
:1004100018462F4F2F4D304C3049314A33703B70C6
:100420002B7023700B8013749374537482F82330F1
:1004300082F8253082F8243003B0BDE8F08FDFF871
:1004400090A00124DFF894908AF80040B9F800C029
:100450001FFA8CFCD0B1BCF1000F33D0B1F1010B0D
:1004600032D00CF1FF3E1FFA8EFE1E490EF1010E36
:10047000451E002401E05C4505D00F5D0134744544
:1004800005F8017FF7D1A4B200210155114C0AB142
:100490002178117010490BB10A781A700C9B33B196
:1004A000B8F1020F0C9A0CBF012300231370002334
:1004B000337060468AF80030094A23700B70A9F83F
:1004C0000030B0E76446DFE75C46DDE7F404002077
:1004D000F2040020EE040020F3040020F0040020C9
:1004E00000000020EC000020F0B50E4ADFF84CE0E0
:1004F0000D4F0E4E0E4D0F4C00238EF800303B700A
:1005000033702B70238013749374537482F82330E8
:1005100082F8253082F824300146BDE8F0400648D4
:1005200002F01AB900000020F2040020EE040020BE
:10053000F3040020F004002000480040F4040020F0
:10054000F0B5044683B02A48FFF7CEFF0023294ABE
:10055000019313782BB107E0019B013301931378CA
:1005600013B9019B9C42F7D81378224D03F0FF0288
:100570002BB3022A204F25D00123204E3B70338815
:100580001F4A9BB2002410461E49D45404F0D0FCEC
:10059000A8B1007A1C4B1D491D4A3038C0B22C70DE
:1005A0003C700C70147034801C749C745C7483F800
:1005B000234083F8254083F8244003B0F0BDFF209A
:1005C00003B0F0BD104A114E114C0C490023FF201E
:1005D0002B703B70337023700B80137493745374BF
:1005E00082F8233082F8253082F8243003B0F0BD41
:1005F000F8940008F4040020F2040020F004002025
:10060000EC0000200895000800000020EE04002007
:10061000F3040020F0B587B003461B4A0C4601A83E
:10062000142104F093FB01A8FFF75EFF0023174A93
:10063000009313782BB107E0009B013300931378EC
:1006400013B9009B9C42F7D81378104903F0FF00C0
:10065000C3B10023022808BF18460D4A0D4F0E4EA5
:100660000E4D0F4C0B7018BF01203B7033702B7078
:10067000238013749374537482F8233082F82530E6
:1006800082F8243007B0F0BD14950008F40400206F
:1006900000000020F2040020EE040020F3040020FB
:1006A000F00400202DE9F04F514C93B003938146A4
:1006B000E36820688A4615466168A26806AC0FC4E4
:1006C0004C494D48BDF870701D9E4C4C02F044F8EA
:1006D0000023049323782BB107E0049B0133049398
:1006E000237813B9049B9E42F7D82378434903F03B
:1006F000FF02002B74D000230B704149DFF81481F6
:100700000B704049DFF810B10B703F49022A0B70A3
:10071000ABF8003088F8103088F8123088F81130C3
:1007200088F8233088F8253088F824305CD03749A1
:100730008DE8A00053464A460AA804F039FB0AA9EE
:100740002D4802F009F8CFB1039D2F44A94615F8B2
:10075000013B12AA02EB131313F8301C264801F0D8
:10076000F5FF99F8003012AA03F00F031344224852
:1007700013F8301C01F0EAFFBD42E7D124491E48BE
:1007800001F0EAFF0023059323782BB107E0059BD6
:1007900001330593237813B9059B9E42F7D823783C
:1007A000164903F0FF02DBB100230B701449022A43
:1007B0000B7014490B7014490B70ABF8003088F8BB
:1007C000103088F8123088F8113088F8233088F813
:1007D000253088F8243007D0042013B0BDE8F08F0E
:1007E000002013B0BDE8F08F012013B0BDE8F08FFA
:1007F000E89400082495000800480040F404002014
:10080000F2040020EE040020F304002034950008D8
:10081000A0B3000800000020F0040020F8B5374D18
:10082000AA7C4AB902F0FF0308B1FF22027009B1A5
:1008300000220A801846F8BD0746314E314A3388F7
:100840000C469BB20021D15410462F4904F070FB96
:1008500017B1437A303B3B7084B300232380C27AC4
:100860000B30303A092A46D8194603EB83035A0065
:1008700092B222800378303A13449BB2238010F85E
:10088000012F0131303A092AC9B22BD80529ECD100
:10089000002213461D4F1E4C1E481F493A702270FD
:1008A00002700A7032802A74AA746A7485F8232050
:1008B00085F8252085F824201846F8BD134B1448E8
:1008C0001449154A1C70047001230C701470348094
:1008D0002C74AC746C7485F8234085F8254085F839
:1008E0002440A7E74B1F18BF0123084F084C0948B5
:1008F00009490022D2E70123F7E700BF00000020EA
:10090000F0040020EC00002050950008F4040020C2
:10091000F2040020EE040020F3040020F0B5254D81
:10092000ADF5057D95F825202AB902F0FF0318469C
:100930000DF5057DF0BD06461F4F20493A884FF062
:10094000000E92B202AC01F802E00846234601AA6A
:100950001B4904F051FA01989EB148B32346721E18
:1009600004EB000E0DF5027C01E0634507D013F89F
:10097000011B734502F8011FA3EB0401F5D100230D
:100980007354104E104C1149114A002380B2337039
:1009900023700B7013703B802B74AB746B7485F8F1
:1009A000233085F8253085F824300DF5057DF0BD20
:1009B0000146E4E700000020F0040020EC000020E5
:1009C0005C950008F4040020F2040020EE040020EE
:1009D000F30400202DE9F0478AB00C4615461E4668
:1009E00002460B4605A89349139F04F0E1F905A8B8
:1009F000FFF77AFDDFF840820023009398F800307B
:100A000033B108E0009B0133009398F8003013B92C
:100A1000009B9F42F6D898F80030874903F0FF000A
:100A20002BB3022826D0DFF82892844AB9F8003088
:100A300010469BB200278249D75404F079FAC27A53
:100A4000222A00F0838001A900F10B070DF1130C9D
:100A50004FF00B0E01F8012B17F8012F0EF10103D7
:100A6000222A9BB21ED08C459E46F3D102200AB0AA
:100A7000BDE8F087734F744E744D754C0023754A72
:100A80000B7001203B7033702B70238013749374B0
:100A9000537482F8233082F8253082F824300AB06B
:100AA000BDE8F0871A2BE1D00EF1030189B210F8EE
:100AB00001C00AAA134400270EF10802BCF12C0F52
:100AC00003F82F7C92B21FD091420FD20027013140
:100AD00007EB870789B20CEB470710F801C0303FDE
:100AE000BCF12C0FBFB20FD09142F0D10023554D75
:100AF000554C5649574A88F8003002202B70237015
:100B00000B70A9F80030C1E79142EFD24A1C92B2B3
:100B100010F802E00531BEF12C0F89B24FF000034E
:100B200010D08A420ED2013203EB830392B20EEB55
:100B3000430310F802E0303BBEF12C0F9BB201D012
:100B40009142F0D19C420DD0032090E790F80DC067
:100B50008DF80470BCF12C0F08BF0D21D6D01222E5
:100B60000D21B3E7931C9BB2129A03EB44041FFAC6
:100B700084FE002A4DD073454BD2002118E01201AB
:100B80004FFA82FCC2185278A2F1300A5FFA8AFA50
:100B9000BAF1090F1FD84FFA8AF202334CEA020C5D
:100BA0009BB2129A9E4502F804C001F1010130D9AE
:100BB00010F803C08CB2ACF13002D2B2092ADED9EF
:100BC000ACF14102052A0ED8ACF1370C4CF303020C
:100BD0004FEA021CD6E7A2F1410ABAF1050F0FD87D
:100BE000373A52B2D9E7ACF16102052A9DBFACF1A8
:100BF000570C4CF303024FEA021C4FF0000CC1E704
:100C0000A2F1610ABAF1050F9ABF573A52B2002217
:100C1000C3E71DB1284601A904F067F906B1378082
:100C20000023084D084C09490A4A88F8003004207E
:100C300064E700BF74950008F4040020EC00002075
:100C400088950008F2040020EE040020F304002040
:100C5000F00400200000002010B504469CB01F489E
:100C6000FFF742FC00230DF10B02009201941A469B
:100C700003A86421FFF7AAFB9DF80B30FBB9E0B194
:100C800003A8174904F054F930B383792C2B20D0F2
:100C9000FBB1C279303B9BB22C2A19B207D032B1DA
:100CA00003EB8303303A02EB43039BB219B29A1E63
:100CB0001C2A07D85800713800B21CB010BD0020A3
:100CC0001CB010BD1F2914BF6FF06E006FF0320012
:100CD000F3E76FF06E00F0E70248EEE79495000846
:100CE000A095000816FCFFFF30B50C469DB00546E8
:100CF0001F48FFF7F9FB0DF10B020023019400924E
:100D000003A81A466421FFF761FB9DF80B4004B964
:100D100028B91DB300242C7020461DB030BD03A897
:100D2000144904F005F90028F6D0FDB1C1790D2968
:100D30001AD02A46073005F1310401E0A24211D051
:100D400002F8011B10F8011F531B0D29DBB2F5D16E
:100D5000012420460022EA541DB030BD2C46204616
:100D60001DB030BD3123F3E72346F1E70124D3E77B
:100D7000A8950008B495000830B50C469DB005460E
:100D80001D48FFF7B1FB0DF10B0200230194009207
:100D900003A81A466421FFF719FB9DF80B40ECB934
:100DA000E0B103A8154904F0C3F80DB3817A0D2909
:100DB00020D000F10A042B4605F1310001E0834206
:100DC00014D003F8011B14F8011F5A1B0D2992B20D
:100DD000F5D100230120AB541DB030BD1DB1002062
:100DE00028701DB030BD28461DB030BD3122F0E75F
:100DF0000120F6E72246ECE7BC950008C8950008FC
:100E000030B50378ADF5057D73B10446002302E0EB
:100E1000B3F5E17F25D014F8012F01339BB2002AEE
:100E2000F6D1B3F5E17F18D00C46104A4FF40071AB
:100E3000009004A803F08AFF04A8FFF755FB0DF10A
:100E40000F0500231A460194009519461846FFF72E
:100E5000BDFA2A78B2FA82F2520910460DF5057DE4
:100E600030BD002210460DF5057D30BDD49500083B
:100E700010B504469CB01248FFF736FB0DF10B028B
:100E8000002300926421019403A81A46FFF79EFAFA
:100E900003A80C4904F04CF830B19DF80B00B0FAEF
:100EA00080F040091CB010BD03A8074904F040F8C9
:100EB0000028F2D19DF80B000130C0B2EFE700BF6F
:100EC000EC950008F89500080496000810B50C464B
:100ED00084B098B90B48FFF707FB00230DF10F0210
:100EE0008DE8140019461A461846FFF76FFA9DF868
:100EF0000F00B0FA80F0400904B010BD0248FFF7BF
:100F0000F3FAEAE72096000810960008094A0A4B0F
:100F10004FF4801151611A68084942F480721A60D6
:100F2000CA6822F48062CA601A6822F480721A6069
:100F3000704700BF000401400070004000280040DE
:100F4000F0B42A4B08212A4AC3F8801013682949B3
:100F5000294C43F48073CA2753264FF4801513603D
:100F60004F624E626561CB6823F48063CB608B680F
:100F700023F488438B60CB685C0706D41F4B01E0E9
:100F8000013B02D0CA685207FAD5B0F57A5F28BF94
:100F90004FF47A501A4A0303A2FB0323154A9B0914
:100FA00053619368124823F0070393609368002508
:100FB00043F00103936091680F4B41F488419160C5
:100FC00001680A4C21F48071016055621A680D496C
:100FD00042F480121A609A68082542F480120120B7
:100FE0009A6025600870F0BC704700BF00E100E027
:100FF00000700040002800400004014080841E0072
:10100000D34D6210F50400201C4B1B78002B34D00C
:101010001B491C4B0A6942F004020A611A6842F03B
:1010200005021A601A6822F002021A6030BF1649DF
:101030000B6843F001030B600B68980706D4134B51
:1010400001E0013B02D00A689207FAD50E498B688D
:1010500023F003038B608B6843F001038B608B6884
:1010600003F00303012B08D1084A01E0013A04D040
:101070008B6803F00303012BF8D07047F5040020C0
:1010800000ED00E0007000400038024080841E0047
:1010900070B5164642B10C468D1814F8011B034872
:1010A00001F054FBAC42F8D1304670BD003801402D
:1010B00070B5164642B10C468D18044801F05CFB31
:1010C00004F8010BAC42F8D1304670BD0038014045
:1010D000194B1A8A900707D518490A6801320A6025
:1010E0005A6B02F57A725A63134B1B8A590714D54F
:1010F000134B1B8A5A0606D4124B1B781BB9124A93
:101100001368013313600E4B1B8A5B0609D40A4A2D
:10111000936B03F5434350339363074B00221A82CA
:101120007047084B1A78002AF1D1074A1268002A42
:10113000EDD001221A70EAE700080140F80400200F
:1011400000080240FC04002008050020014B18683C
:10115000704700BFF8040020034A116813685B1A47
:101160008342FBD3704700BFF8040020034B2022CA
:1011700008B91A8370475A83704700BF00000240C5
:101180000A4A4FF4807082B000230949108301E0BD
:10119000019B013301930A68019BB3EB520FF7D314
:1011A000024B4FF480725A8302B07047000802402D
:1011B0000005002010B4164B164C174983B00022CE
:1011C000DC60D960ADF80620BDF806309BB23E2B3E
:1011D00018D8BDF80630BDF806209BB29B0092B22D
:1011E00003F1006350F8222003F500231A60BDF8D4
:1011F000063001339BB2ADF80630BDF806309BB225
:101200003E2BE6D9024B01225A6003B010BC704756
:10121000003C0240EFCDAB8905040302FC220149EA
:1012200002F0A0BF0000080810B40478ECB1F1B1DE
:10123000002213460AE09A4218BF8454013292B247
:1012400001339BB2C45C64B199420AD07F2CF2D1C5
:10125000541E002AF4D001339BB2A2B2C45C002C0D
:10126000F2D10023835410BC70472246F9E70A46A6
:10127000F7E700BFF0B5884A83B01368002143F058
:1012800001031360019113689C070DD4019B8349EE
:101290008B4203D908E0019B8B4205D8019B0133A7
:1012A000019313689807F6D57B4C7D4DA268002307
:1012B00042F00102A260E1697A4A41F00701E1616E
:1012C000606A4FF4E13140F418106062266A764893
:1012D00046F4804646F00C0626622E68734F46F4AC
:1012E000201646F494662E602E6A46F4EE462E6270
:1012F0006E6A46F4EE666E6201F044FA0123694AB2
:101300004FF416516A4801F03DFA6A4B40225A6088
:101310003B680021586803F067FC3B68002198682F
:1013200003F062FC644803F013FC636A43F08053EB
:101330006362636B13F400753DD1604803F008FCF1
:101340005F49604A0B68CA2643F4807353200B60E0
:1013500056625062636B43F4807363630195636B01
:101360009A050DD4019B4D4A934203D908E0019B95
:10137000934205D8019B01330193636B9B05F6D51E
:10138000019A464B9A4200F282804F4C0023237010
:1013900041494C484B6B4A4A43F4820300254B6356
:1013A0004562136823F480731360237863B1474860
:1013B00003F0CEFB08E0444C00234548237003F0C3
:1013C000C7FB2378002BF2D1424B4FF480425A8363
:1013D0004CF250371A68334942F0805242F42022CE
:1013E0001A609A883C4892B242F440729A805A6AD3
:1013F000304C42F044025A6200F08AFB374803F056
:10140000A7FB37494FF440734B830A68012342F42A
:1014100025020A60486A234A40F4EE4048624FF4CD
:10142000E131304801F0AEF9802363602E4803F0CB
:101430008FFB2E4B4FF47A725A6301214FF00072EA
:101440000F20062681259F6318859E8128481D80D0
:101450009982226003F07CFB264803F079FB264A40
:1014600000232649136008680B681B1AB3F57A7FBE
:1014700007D21368013313600B681B1AB3F57A7F28
:10148000F7D311681E4803F0F1FA03B0F0BD0E4C1B
:10149000012323707CE700BF003802407F841E00D8
:1014A000000002400024F4000038014088000020C1
:1014B0000044004000E100E03C9600086896000807
:1014C00000700040002800400405002098960008A5
:1014D0007C9600080004024000540040B4960008C6
:1014E0000008024000480040C8960008000801407B
:1014F000DC960008F496000800050020F80400209F
:101500001897000800B5002383B0014600935122CC
:10151000024800F059FA03B05DF804FB00540040A3
:1015200000B585B00DF10F0301460093AA220123F7
:10153000064800F0B5F818B17F2005B05DF804FB4F
:101540009DF90F0005B05DF804FB00BF005400409A
:10155000F0B4354B82B01A88002192B201929A8879
:101560003248D2B28DF8032019800378002B36D18F
:1015700040F2FE3603F0FF02019B2D4C13F0080FE2
:101580002C4B2D4D1CBF1A8022701A889DF8031019
:1015900092B2C9B2A9541A88264992B2B24203D86B
:1015A0000A88013292B20A802178244E9DF80320E5
:1015B000715C1F4E9142224A14D000212170117893
:1015C00001F0FF0601B91E8012781D493AB11B884F
:1015D000184A9BB2013BEB5C174D0A2B12D002B0AC
:1015E000F0BC7047117801F0FF070029E5D1317890
:1015F0000131C9B2317031780529E5D9012137703F
:101600001170E1E713889BB2023BEB5C0D2BE6D136
:10161000138800269BB2023B0127EE540E70168001
:1016200026700770DBE700BF00440040100900206F
:101630000C0900200E0900200C050020309700083E
:101640000D09002070B4144E3378EBB1B0B1134AD9
:10165000147804F0FF037CB10139002919DD00245E
:10166000234601E08B4207DA155D5C1CC554A3B22A
:10167000D55C1C46002DF5D10022C2540023012266
:101680003370104670BC704703F0FF02104670BC08
:1016900070470023F0E700BF100900200C05002070
:1016A0000BB903207047F0B58FB0149C002C4BD0C1
:1016B00004880025A4B244F4807404800295848ACE
:1016C000E7070DD4029C944DAC4203D908E0029C7C
:1016D000AC4205D8029C01340294848AE607F6D510
:1016E000029C8D4DAC421BD8490000248EB206826C
:1016F0000394848AA40706D508E0039C013403946C
:10170000848AA70702D4039CAC42F6D9039D824C7D
:10171000A54202D8058BEF0718D402200FB0F0BD08
:1017200001200FB0F0BD0B96858A6D0606D508E046
:101730000B9D01350B95858A6D0602D40B9D8D425C
:10174000F6D90B9D8D426AD90320EAE792B20025B3
:1017500002820495828A160606D508E0049A0132B0
:101760000492828A150602D4049AA242F6D9049AF7
:10177000694CA242E8D80288002592B242F48072F5
:1017800002800595828AD60709D405E0059A0132C0
:101790000592828AD20702D4059AA242F6D9059C04
:1017A0005D4A9442BCD8012B41F001013AD0022B92
:1017B00000F08880002401820A94818A890706D576
:1017C00008E00A9901310A91818A8E0702D40A99A8
:1017D0009142F6D90A9A50498A42B5D8028BD2076B
:1017E000B2D505880024ADB245F48065DF1EA3F1B3
:1017F000020C03F1FF3E2646149A05809BB205E0D9
:101800000134A5B2AB4202F1010246D9A7428ADCFB
:1018100000F0BD80A44500F0A080A645F0D1058A67
:101820001570EDE7002301820693838A9B0706D596
:1018300008E0069B01330693838A9F0702D4069B28
:101840009342F6D9069B344A93423FF67DAF038814
:1018500023F480631B041B0C0380038BDD077FF5DF
:1018600073AF038800219BB243F400730380079198
:10187000838A5E0606D508E0079B01330793838AB7
:101880005D0602D4079B9342F6D9079A224B9A42EF
:101890003FF65AAF038A149A137000230193038B07
:1018A000DA070DD5019B1C4A934203D908E0019B3E
:1018B000934205D8019B01330193038BDB07F6D4D8
:1018C00000202EE7002301820893838A9C0706D517
:1018D00008E0089B01330893838A990702D4089B88
:1018E0009342F6D9089B0C4A93423FF62DAF0388EA
:1018F00023F480631B041B0C038003889BB243F416
:1019000000630380038BDC077FF51EAF0023099380
:10191000838A5B070BD407E07F841E00099B013399
:101920000993838A5F0702D4099B9342F6D9099AE7
:10193000244B9A423FF608AF0388149A9BB243F4B3
:1019400000730380038A1370038A5370038823F49F
:1019500000631B041B0C03809FE70D96858A6D07AF
:1019600006D508E00D9D01350D95858A6D0702D4D9
:101970000D9D8D42F6D90D9D8D423FF6E5AE058851
:10198000ADB245F400750580058A157045E70C96E3
:10199000858A6D0706D508E00C9D01350C95858A72
:1019A0006D0702D40C9D8D42F6D90C9D8D423FF6F9
:1019B000CBAE058825F480652D042D0C0580058AA5
:1019C000157027E77F841E0030B404880025A4B278
:1019D00044F4807486B004800195848AE5070DD4B0
:1019E000019C4A4DAC4203D908E0019CAC4205D8A9
:1019F000019C01340194848AE407F6D5019D434C8F
:101A0000A5427CD84900002501820295818A890778
:101A100006D508E0029901310291818A8D0702D42E
:101A20000299A142F6D9029C38498C4203D902207E
:101A300006B030BC7047048BE407F8D592B200249E
:101A400002820394828A140606D508E0039A0132C2
:101A50000392828A120602D4039A8A42F6D9039923
:101A60002A4A91424FD80899E1B1DBB15C1E089B2C
:101A7000A4B21C44591E002511F8013F03820495AD
:101A8000838A1B0606D508E0049B01330493838AEE
:101A90001B0602D4049B9342F6D9049B934232D88E
:101AA000A142E9D100230593838A5A070DD4059BEF
:101AB000164A934203D908E0059B934205D8059B3B
:101AC00001330593838A5B07F6D5059B0F4A934242
:101AD00019D8038800219BB243F40073038000915E
:101AE000038BDB0709D505E0009B01330093038BD3
:101AF000DD0702D5009B9342F6D9002098E701202C
:101B000006B030BC7047042092E700BF7F841E00FF
:101B100010B4084C084A8B09A4FB0141A2FB032323
:101B2000890C4C1C9B0901228180838304840280E0
:101B300010BC704783DE1B43632D3E0500B585B0A6
:101B40000DF10F03014600930F2201230348FFF715
:101B5000A7FD9DF80F0005B05DF804FB00540040A0
:101B6000F0B515461C46074685B009010DF1100E6B
:101B70000F4E41F007010EF8011D2D01E400CDF8D4
:101B800000E0014601233046202205F0300504F034
:101B90000804FFF719FF2C4304AB03F8024D009330
:101BA0003946304601232322FFF70EFF05B0F0BD72
:101BB00000540040F0B585B002AF0E461546014610
:101BC0001C4600970623A8221848FFF769FD9DF8D8
:101BD00009309DF808209B0043EA9213990554BFF1
:101BE0001A4643F47C429DF80B309DF80A109B0086
:101BF00043EA9113524232809A059DF80D209DF8D8
:101C00000C104FEA820242EA911248BF43F47C432F
:101C10005B4291B22B808B054ABF6FEA815313461A
:101C20006FEA9353238005B0F0BD00BF005400401D
:101C3000BFF34F8F0449054BCA6802F4E0621343B7
:101C4000CB60BFF34F8FFEE700ED00E00400FA0524
:101C500080B5144802F07CFF40F22151124A13482B
:101C6000D369802443F08073114FD361C0F884405E
:101C7000BB8A02F520520F4C0F4D9BB2303243F01D
:101C8000400301200D4EBB829460D560506011600E
:101C9000B38A9BB243F04003B38215635463D062AE
:101CA0009162FEE7389700080038024000E100E04A
:101CB000004800400448004004380140003801401A
:101CC00038B500F1300529460446114802F0CEFE31
:101CD000104802F03DFF1049104802F06DFF5021FE
:101CE0000D48FFF7A1FA0C4803F007F97F2809D83F
:101CF000421C0949284602F035FA2046BDE8384022
:101D0000FFF758BA0648BDE8384002F021BF00BFCF
:101D1000749800089898000814090020B8980008E2
:101D2000BC98000810B504461148214602F09EFEFA
:101D30003021104802F09AFE0F49104802F03CFF93
:101D400050210D48FFF770FA0B4803F0D6F8302801
:101D500009D8421C0849204602F004FA2046BDE892
:101D60001040FFF727BA0648BDE8104002F0F0BE69
:101D7000D0980008F898000814090020B8980008C6
:101D8000BC98000838B50446054634F8F41F0748E7
:101D900002F06CFE064802F0DBFE2146054802F028
:101DA0000BFF2846BDE83840FFF704BA2099000829
:101DB0004499000848A4000810B50446124802F0EF
:101DC000C7FE04F1F001114802F0F6FED4F8F0303D
:101DD000B3F57A7F0ED3B3F57A5F06D94FF47A5311
:101DE000C4F8F0300A4802F0B3FE2046BDE81040C7
:101DF000FFF7E0B94FF47A73C4F8F030054802F009
:101E0000A7FED4F8F030E6E75C990008AC9900082A
:101E1000E8990008B099000838B505460B4C0C4805
:101E200002F096FE21460B4802F0C6FE20465021E5
:101E3000FFF7FAF923782846302B0CBF0023012343
:101E400085F8F830BDE83840FFF7B4B91409002030
:101E5000209A0008B898000838B505460E4C0F487F
:101E600002F076FE21460E4802F0A6FE0D4802F072
:101E70006FFE20465021FFF7D7F923782846312BF3
:101E80000CBF0F23002385F8F730FFF793F9BDE867
:101E90003840054802F05CBE140900206C9A000826
:101EA000B898000814BB0008B09A00082DE9F0416A
:101EB00000F1B005294604462F4802F0D7FD2F480F
:101EC00002F046FE2E492F4802F076FE2E4802F020
:101ED0003FFE50212A48FFF7A7F9294803F00DF8E3
:101EE0003F282BD829490646254802F0F4FF284907
:101EF0008046234802F0EFFF0746B8F1000F10D0EC
:101F000068BB002384F8F630224802F021FE2946FF
:101F100094F8F60000F038FD2046BDE8F041FFF7E8
:101F200049B994F8B03073B91B4802F011FE002F84
:101F3000E7D02046BDE8F041FFF73CB91748BDE8BF
:101F4000F04102F005BE164802F002FE012084F8BE
:101F5000F600294600F018FD002FEAD1D1E7721CE7
:101F60002846074902F0FEF80E4802F0F1FD20462F
:101F7000BDE8F041FFF71EB9E49A0008F89A00089E
:101F800014090020B898000814BB0008589B0008EA
:101F9000609B0008B49B0008689B0008BC98000880
:101FA0009C9B0008D09B000830B504461C4B91B0A8
:101FB000196803A8FEF798FE94F8F83093B9194D04
:101FC000194802F0C5FD2946184802F0F5FD2846DB
:101FD0005021FFF729F92B7803F0DF03592B0FD09D
:101FE00011B030BD94F8F610B4F8F42020460193F7
:101FF000009103AB04F1300100F076FE11B030BD6A
:1020000094F8F80094F8F610B4F8F42003AB0190BB
:102010000091204604F1300100F066FE11B030BDA1
:102020000005002014090020E49B0008B89800086F
:1020300030B548209DB0FFF773FA0DF10E0303AAE7
:102040000DF10A0105461820FFF7B4FD1820FFF72F
:1020500075FD0446BDF90E00BDF90C30BDF90A202E
:10206000294600901B4802F001FD332C0CBF1A4892
:102070001A4802F06DFD1A4802F06AFD0021084678
:10208000FFF7E0FA4FF49660FFF766F808A85021D2
:10209000FFF7D8FAC8B108A9124802F0E7FC08A86F
:1020A00006AA04A900F07EFD50B1DDE90601DDE9D4
:1020B0000423CDE900010C4802F0D8FC1DB030BD6E
:1020C0000A4802F045FD1DB030BD094802F040FD50
:1020D0001DB030BD889C0008DC9C00080C9D0008E9
:1020E000389D00088C9D00080C9E0008A09D0008EB
:1020F000509D000870B5C4B00346174AFF2106463C
:1021000004A802F023FE04A8FEF7EEF9134B0DF12C
:102110000F051A68002302EB82025200019204A804
:1021200000951A46FF21FEF751F9044630B93146B1
:102130000B4802F09BFC204644B070BD002304A96C
:1021400005480B5502F092FC287810F1FF3018BFBB
:10215000012044B070BD00BFC0B9000800050020D8
:10216000409E000810B51D4882B002F0F1FC1C48EA
:1021700002F07CFC1B491C4802F01EFD1B4802F0CB
:10218000E7FC50211748FFF74FF81949154802F0AE
:10219000A2FE184900B3134802F09DFE0446B8B9E8
:1021A000154802F0D5FCFEF7EBFF144802F0D0FC16
:1021B000134B00941A68214602EB820201922346D7
:1021C00022462046FEF702F90E4802F0C1FCCEE797
:1021D0000448FFF78FFFCAE702B010BD649E0008F5
:1021E000849F000814090020B898000814BB000858
:1021F000889F0008909F0008989F0008B89F0008DB
:1022000000050020D49F000810B5164C8EB016486B
:1022100002F09EFC216801A8FEF766FD01A91348A3
:1022200002F024FC1248FFF765FF216801A8FEF7C1
:10223000A3FD01A90F4802F019FC0F48FFF75AFF50
:102240000E4802F085FC0E48FFF754FF0D4B0E4A76
:102250000E491B68126809680D4802F007FC0EB0B1
:1022600010BD00BF00050020E49F000800A000088A
:1022700018A0000820A0000838A0000840A000080E
:1022800048A00008CC00F81FD000F81FD400F81FA9
:1022900050A0000870B5174882B002F0E7FB01A912
:1022A000154802F089FC154802F052FC019A4FF4DF
:1022B0007A7303FB02F30193FEF748FF06461048CA
:1022C000FFF718FF019AA31B93420E480DD2FEF7A9
:1022D00025FB0546FEF73AFF0446002DF2D00949DA
:1022E000094802F0C3FB02B070BD084802F030FCA0
:1022F00002B070BD70A0000848A4000814BB00081C
:1023000094A00008640B0020D8A00008A4A0000836
:102310000148FFF7EFBE00BFECA00008F0B5FC21BC
:10232000044683B07E4802F0A1FB41F61B2C7D4B96
:102330004FF47A7E07CB1B78A52720602373AA2051
:102340000023552601256160A260A4F8F4C0C4F8FA
:10235000F0E084F8303084F8B03084F8F63084F857
:10236000F73084F8F97084F8FB0084F8FA6084F898
:10237000F8506D4802F0ECFB2046FEF71BFF6B485F
:1023800002F0E6FB6A4802F0E3FB6A4F29466A481E
:1023900002F06CFB6948FEF7A7F83A680023019247
:1023A00000931A4619461846FEF710F8064600280C
:1023B00000F09180624802F0CBFB6248FFF79AFE82
:1023C000B0FA80F46048FFF795FE6409002808BF62
:1023D00001345E4802F0BCFB41F28830FEF7BCFEDF
:1023E0005B48FFF787FE002808BF01345648FFF717
:1023F00081FEA4B2002808BF0134544802F0A8FBB3
:1024000041F28830FEF7A8FE5248FFF773FEA4B2EF
:10241000002808BF01345048FFF76CFEA4B2002822
:1024200008BF01344848FFF765FEA4B2002808BF82
:102430000134464802F08CFB41F28830FEF78CFEF6
:102440004648FFF757FEA4B2002808BF01344448AD
:10245000FFF750FEA4B2002808BF01343A48FFF746
:1024600049FEA4B2002808BF0134384802F070FBCE
:1024700041F28830FEF770FE3A48FFF73BFE182025
:10248000FFF75CFB3328A4B246D0374802F060FB6C
:102490000134A4B2354802F05BFB4820FFF732F864
:1024A000334802F055FB4820FFF73AF8A0F10F033C
:1024B000DBB2142B01461ED92E4802F0D7FA2E4863
:1024C00002F046FB2D4802F043FB2B4803B0BDE869
:1024D000F04002F03DBB0135294802F039FB042DE4
:1024E0007FF454AF274802F0C1FA04F1B00130463E
:1024F00000F04AFA5EE7244802F0B8FA1E4802F0FB
:1025000027FB002CDED1214802F022FB1A4803B041
:10251000BDE8F04002F01CBB1D4802F019FBB9E712
:10252000F8A000082CA100083CA100084CA100085C
:1025300070A100080005002094A10008A4A10008D3
:10254000FCA1000818A20008ECA0000824A20008C2
:102550003CA200084CA2000858A2000870A2000883
:1025600084A2000894A20008A0A20008D8A2000833
:1025700014A300082CA3000898A300081CA40008BA
:10258000ACA10008B8A10008ECA300082CA4000826
:10259000C4A2000820F02003413B192B05D9303894
:1025A00009288CBF0020012070470120704700BF20
:1025B00030B50D4685B0FDF797FF094B0DF10F04BF
:1025C0001A68002302EB42020192284600941A4640
:1025D0004FF40071FDF7FAFE9DF80F0005B030BD15
:1025E0000005002000B5434989B04348FFF7E0FFEC
:1025F000002848D103AA41493E4802F0FDFB039957
:102600003F484900713902F031FA3A493D48FFF735
:10261000CFFF002840D105AA3B4904AB354802F062
:10262000EBFB049A05998D3A384802F01FFA3848B6
:10263000FDF75AFF374B0DF10B011A68002302EB2F
:1026400042028DE806002B484FF400711A46FDF750
:10265000BDFE00213048FFF7ABFF08B32F4802F062
:1026600077FA00212E48FFF7A3FF00282CD121493B
:102670002C48FFF79DFF002830D02B4802F068FA65
:1026800009B05DF804FB294802F062FA19491D48B7
:10269000FFF78EFF0028BED0254802F059FAC6E7A2
:1026A00014491B48FFF784FFA0B906AA2149114825
:1026B00002F0A2FB0699204802F0D8F90021184840
:1026C000FFF776FF0028D2D01C4802F041FA09B08B
:1026D0005DF804FB1A4802F03BFAC2E707AA194961
:1026E000044802F089FB0799174802F0BFF909B0C6
:1026F0005DF804FB64090020949500083CA40008E0
:102700004CA400089CA40008A8A40008CCA40008BD
:10271000EC9500080005002028A5000838A5000851
:10272000B0A50008E4A5000814A6000880A40008CD
:102730000CA5000860A5000884A50008C0A5000835
:1027400094A50008F0A5000804A60008818003886D
:102750005B06FCD5704700BF0B785BB101F1FF024F
:102760009BB2838003885B06FCD511F8013F0BB157
:102770009142F5D1704700BF03889B06FCD5808845
:10278000C0B270472DE9F843054610460C461E4678
:1027900001F02EFC01F0A0F880462046894601F0A9
:1027A00079F80022174B01F0EBF802460B46404641
:1027B000494601F00FFA01F015FB074601F070FCE5
:1027C000044601F015FC0146384601F05FFB01F0BC
:1027D00083F800220B4B01F0D3F801F0E3FA40EA52
:1027E000041080B2288136B942F20C03AB81002379
:1027F0002B80BDE8F88342F22C03AB8100232B80B1
:10280000BDE8F8830000304003789B090B70037823
:10281000C3F301134B70037803F00F038B704378FD
:102820005B09CB70437803F01F030B718278C37888
:1028300043EA0223CB8070472DE9F84F4F4D00F05B
:102840001F002C7851270026CC700C7148700F7037
:102850008E70187801342F282C70BDF82C8002D08F
:102860000020BDE8F88F464C17460D462046194615
:10287000802202F04AFB2378002B5AD0324641498D
:10288000601C02E010F8013B6BB12F2BFAD1092A32
:10289000E6D8531C41F8220000F8016C9AB210F8F7
:1028A000013B002BF1D1002A43D0052FD8D91C467B
:1028B000013ADFF8D0A01FFA82F90526A3B2002B57
:1028C0005AF8040B14BF4FF0000B6FF04F0B02F0DF
:1028D00014FB81B20C2921D84BEA0000731CA855C7
:1028E0009EB2A1B15AF8042C731C10789BB29F427F
:1028F000A855B5D90E44B6B205E012F8010FE85458
:102900008BB29F42ACD99E4203F10101F5D1A145A2
:1029100010D0B74204F10104D0D8A1E7731C4BF0EA
:102920000D0B05F806B00D389BB20236E854B6B26E
:10293000D8E705260A9BF3B1B8F1000F1BD0FF239F
:10294000AB550A9B1A78731C0236B6B29BB2B742DB
:10295000EA5485D90A9B08F1FF3292B21A4406E084
:1029600013F8010FA8558EB2B7427FF679AF9A429D
:1029700006F10101F4D13046BDE8F88F0C0E0020BD
:10298000640D0020E40D00202DE9F0410646ADF570
:10299000007D6C480F4602F0DBF8FEF7F1FB6A4859
:1029A00002F0D6F8FEF7D2FB684D00232A68804675
:1029B00002EB8202019200931A4619461846FDF76F
:1029C00005FD0446FEF7C2FB1CBB614802F0C0F8DF
:1029D000A046012421465F4802F048F85E48FDF712
:1029E00083FD2A68002352080192CDF800801A4620
:1029F00019461846FDF7EAFC013498BB042CE9D1CE
:102A0000564802F0A5F8012420460DF5007DBDE8EA
:102A1000F081C8EB0001524802F028F85148FDF758
:102A200063FD2B6803A803EB4302019200230DF121
:102A30000B0200924FF4FA711A46FDF7C7FC9DF89D
:102A40000B4004BB012E11D0474903A802F070FAD5
:102A500010B3464802F07CF8012420460DF5007DB5
:102A6000BDE8F081424802F073F8D7E787B13B78C0
:102A700073B1404903A802F05BFA002857D03E48E2
:102A800002F066F8E8E73D4802F062F80024BBE790
:102A90003B4802F05DF8DFE73A4F3B4803AE02F0F7
:102AA00057F80FCF0FC697E8030086E8030003A886
:102AB000FDF71AFD2A68002302EB420201920DF194
:102AC0000B02009203A81A464FF4FA71FDF77EFC40
:102AD0009DF80B501D4E0DBB2C4802F039F82C48C8
:102AE000FDF702FD33680DF10B028DE80C0029465D
:102AF0002B462A462846FDF769FC9DF80B308BB91A
:102B000032680DF10B0102EB82020091019219462D
:102B10001A461846FDF75AFC012475E71D4802F0D5
:102B200017F871E71C482C4602F012F86CE71B48B6
:102B300002F00EF83B461A4A4FF4FA7103A802F06D
:102B400005F9B4E778B1000890B10008000500204D
:102B5000ACB1000894A10008A4A100082CB400089E
:102B6000F4B100088CB4000824B30008A4B3000832
:102B700068B4000898B2000810B3000814B2000846
:102B800058B200088CB300083CB30008D4B3000866
:102B900000B40008B4B3000810B40008ACB20008D8
:102BA000F4B200082DE9704F8B4690B04B49924625
:102BB00003F002F8B0B14A4902F08DF990B9044629
:102BC00006AE4649002002F0F7FF0134E4B20546A4
:102BD00046F8040F0028F4D1062C03D90C9B1B786F
:102BE000412B04D00023184610B0BDE8708F079C1D
:102BF000204602F082F90328F4D9099E304602F0FB
:102C00007CF90328EED9227804A88DF81020627888
:102C10008DF812508DF8112001F062FACDE9000113
:102C2000A01C01F05DFA327880468DF81020727891
:102C300004A88DF81120B27889468DF813508DF8CC
:102C4000122001F04DFACDE90201F01C01F048FA22
:102C500004460D46BBF1000F12D0089B40461B787E
:102C600049464E2B4FF000021E4B21D000F0B2FF20
:102C7000DDE9002300F0D2FC01F100418BE8030004
:102C8000BAF1000F27D00A9B20461B782946452B16
:102C90004FF00002134B14D000F09CFFDDE902233B
:102CA00000F0BCFC01F100418AE8030001239AE72F
:102CB00000F090FFDDE9002300F0B0FCCBE900015B
:102CC000DEE700F087FFDDE9022300F0A7FC012327
:102CD000CAE9000187E7012385E700BF9CB400082B
:102CE000A0B4000800004E402DE9F04FB24DADB049
:102CF00018AC0D9182469346984695E80F0007C49C
:102D00009DF8D860432200210DF16D0023709DF8DD
:102D1000DC4001F032FAA4A1D1E90001A4A3D3E977
:102D20000023CDE91201CDE91423002E60D0A34881
:102D300001F00EFFA248FFF7DDF9502118A8FEF7B9
:102D400081FC0346002863D19E481F4601F000FF26
:102D50004820FEF7E5FB9C4C814610AB0DF13E028E
:102D60000FA91820FEF726FF2068FDF775FF974D85
:102D7000BDF94010BDF93E20BDF93CE04346CDF819
:102D80000090049003910292CDF804E0DDE9141262
:102D9000DDE91289CDE908120A978D4AC821284633
:102DA000CDE9068901F0D2FF284602F0A6F82946AF
:102DB0000246884801F05AFE002E52D0216828466B
:102DC000FEF71EF8002800F0D880834801F0C0FE0E
:102DD000002523688148AB4240F27681FDF79EFDD5
:102DE00001350028F5D07D497D4801F03FFEC0E067
:102DF0007C4801F0ADFE0D9B5A4651467A4801F0E1
:102E000035FE502118A8FEF71DFC034600289BD074
:102E100018A814AA12A9FFF7C5FE0346002800F05F
:102E2000B3800127002C93D061A5D5E900456F48F8
:102E300001F08EFEDDE91401DDE91223CDE9000188
:102E400002976B4801F012FE57A3D3E90023CDE9A6
:102E500000456848CDE91223CDE9144501F006FE8E
:102E600076E7284602F049F880B20D9B4FF4BD7218
:102E70000190614900950220FFF7DEFCADF84200A9
:102E8000BDF842105D4889B201F0F0FDADF8466032
:102E9000BDF84630BDF842209BB292B29A421DD98D
:102EA000554D2E46BDF8463055489BB2EB5C0F2B76
:102EB000BDF8463088BF53489BB2F15C01F0D6FDA7
:102EC000BDF8463001339BB2ADF84630BDF8462020
:102ED000BDF8423092B29BB29A42E3D34A4801F025
:102EE00037FE2068FDF72CFBFF28374F064653D0EE
:102EF000BDF842503B68ADB203EB430301935A4621
:102F0000514600953C4BFDF7CDFB042802D03F48CD
:102F100001F01EFEFEF71AF90023ADF844302368D5
:102F2000FF2203EB430307468DF83B2000252BB916
:102F30000EE0236803EB4303AB4209D911A90DF15D
:102F40003B00FDF76BFC9DF83B300135B342F0D1FF
:102F5000FEF7FCF89DF83B308046B34260D02C4829
:102F600001F0F6FD21683046FDF754FB002800F023
:102F7000A48001202DB0BDE8F08F264801F0E8FDC7
:102F800001202DB0BDE8F08F23481F4601F0E0FD81
:102F9000002C3FF4DDAE47E7204801F0D9FD0020CA
:102FA000E8E700BFAFF300809411178046F74D406B
:102FB000D1AE42CA4F3E3E4028B10008A8B4000836
:102FC00094A00008ECB4000800050020100E0020BA
:102FD000B8B6000854B7000874B7000854100020B1
:102FE000C4B80008BCB40008D0B40008CCB50008D0
:102FF00028B6000870B60008D80E0020ACB700084C
:10300000C8B70008CCB7000814BB0008F0B7000828
:1030100010B8000890B7000840B50008D0B7000805
:10302000BDF8441000299AD0B1F5BD7F50D2236875
:10303000294D03EB43020023019200951A463046C6
:10304000FDF7C8FC284616A9FFF7DEFBC7EB08030F
:103050009DF85C209DF85B10204801F007FD20489A
:1030600001F076FD0023ADF84630BDF84630BDF8DE
:1030700044209BB29A4288BF2F461AD9BDF84630E9
:1030800018489BB2EB5C0F2BBDF8463088BF164842
:103090009BB2F95C01F0EAFCBDF84630BDF8442073
:1030A00001339BB2ADF84630BDF846309BB29A4230
:1030B000E4D80E4801F04CFD54E70D4801F048FDFE
:1030C00001202DB0BDE8F08F0A4801F041FD50E726
:1030D000094801F0CBFC45E7D80E002028B80008CD
:1030E00060B80008C8B70008CCB7000814BB0008D7
:1030F000A4B80008E4B8000878B80008F0B5714931
:10310000D5B0714801F0B2FC704801F021FD15A85E
:10311000FEF784F89DF85430002B40F0A4806C48F2
:1031200001F016FDBDF848116A4801F09FFC9DF8BA
:103130008500FFF72FFA20B19DF88430002B40F076
:10314000AE80654801F004FD9DF80501FFF722FA05
:1031500020B19DF80431002B40F0A6805F4801F0BB
:10316000F7FC9DF84A115E4801F080FC5D4801F0D3
:103170007DFC9DF84B315C4F0F2B0CBF5B485C48CE
:1031800001F0E6FC51995B4801F070FC9DF84C1190
:10319000594801F06BFC594801F0DAFC3B68002B00
:1031A00066D03B79002B63D000263546002D52D0E7
:1031B000042D54D09C24013504FB0672ADB204FBEF
:1031C00005F4711C04324E4801F050FC3B592E4668
:1031D0003C4413B12379002BE8D14A4801F046FC66
:1031E00001A9494801F0E8FC502101A8FEF71CF8AC
:1031F00001A800F078FF013800F0FF04434801F017
:10320000A7FCA54245D99C2303FB04F415A83B5910
:1032100098473E483E4C01F09BFC3E4801F098FC2C
:10322000206842685368013B002B536041DB4268D1
:10323000136801331360206842685368013B002B18
:1032400053603ADB4268136801331360324801F07F
:103250007FFC55B0F0BD314801F07AFCAAE7304858
:1032600001F076FCA6E715A92E4801F0FFFB59E70F
:10327000244801F0FBFB01A9234801F09DFC01A8B3
:103280005021FDF7D1FF01A800F02DFF1F4801F0EC
:103290005FFC0DF10501244801F0E8FBB9E721A925
:1032A000224801F0E3FB4FE741A9214801F0DEFB92
:1032B00057E7416801F054FCBDE7416801F050FC5C
:1032C000C4E700BFF8B8000810B9000868B90008E2
:1032D00090B90008C8B90008DCB9000810BA0008A5
:1032E0003CBA00085CBA000830A6000874BA0008AE
:1032F0007CBA00088CBA0008BCBA0008D4BA00082E
:1033000044BB0008849F0008B898000898A30008F0
:103310008800002068BB000814BB000818BB000828
:1033200030BB0008B4B9000850BB0008FCB9000865
:103330002CBA000870B5DAB0FDF79CFF00231A46DE
:1033400003211820FEF70CFC694801F001FC48201D
:10335000FEF7D8F8674801F0FBFB674801F0F8FB7F
:103360001BA8FDF75BFF599B644A23F0FF039342C0
:1033700005D0634801F0ECFB1BA8FEF7CFFF43F636
:103380009822579BA3F57A73934205D95D4801F0C3
:10339000DFFB4FF47A7357939DF89C302F2B10D09E
:1033A000594801F0D5FB47A99DF86201FFF7ECFAF7
:1033B000002840F08C80554801F0CAFBFFF79EFEC4
:1033C000FCE7534B1B8A5B06EAD59DF863310F2B54
:1033D000E6D147A99DF86201FFF7D6FA044658B333
:1033E0004C4D05E04C4801F041FB3220FDF7B4FEA6
:1033F0002868484CFDF73CFD0028F3D0474801F011
:10340000A7FB216802A8FDF76FFCBDF85C01FDF782
:1034100097FD41F27073579A9A4221D9404801F0C2
:1034200025FB2168012001EB4101FDF74FFD20BB89
:103430003C4801F08DFB20E03B4801F089FB1BA8D4
:103440008DF86341FDF7B6FEBFF34F8F3749384B18
:10345000CA6802F4E0621343CB60BFF34F8FFEE70C
:10346000344801F075FB2168002001EB4101FDF7B4
:103470002DFD10B1304801F06BFB41F27074002655
:1034800011E09DF864119DF86231BDF86021019151
:10349000009327A902AB1BA8FFF726FC0020FDF72D
:1034A00065FEFDF7B1FD0120FDF760FE579BA342CD
:1034B000E7D9FDF765FE2A68002302EB820201923C
:1034C00000961A4619461846FCF780FFD9E71B48B4
:1034D00001F03EFB0F4B0020196801EB4101FDF7A5
:1034E000F5FC00287FF46AAF154801F031FB65E771
:1034F00090BB0008ACBB0008D0BB000800A555AAD3
:10350000F0BB000864BC000864BF0008B8BC000839
:103510000008024000050020F0BD000814BB0008B0
:1035200024BE000840BE0008B0BD000800ED00E069
:103530000400FA0598BE000814BF000808BD000882
:103540002CBD00080549064A064B9A42BEBF51F8F9
:10355000040B42F8040BF8E703480047E0C20008F8
:1035600000000020D0000020810100082649274AE1
:10357000002301E041F8043B9142FBD3FFF7DAFE60
:10358000FEE7FEE7FEE7FEE7FEE7FEE7FEE7FEE713
:10359000FEE7FEE7FEE7FEE7FEE7FEE7FEE7FEE703
:1035A000FEE7FEE7FEE7FEE7FEE7FEE7FEE7FEE7F3
:1035B000FEE7FEE7FEE7FEE7FEE7FEE7FEE7FEE7E3
:1035C000FEE7FEE7FEE7FEE7FEE7FEE7FEE7FEE7D3
:1035D000FEE7FEE7FEE7FEE7FEE7FEE7FEE7FEE7C3
:1035E000FEE7FEE7FEE7FEE7FEE7FEE7FEE7FEE7B3
:1035F000FEE7FEE7FEE7FEE7FEE7FEE7FEE7FEE7A3
:10360000FEE7FEE7FEE7FEE7D00000206C12002098
:1036100081F0004102E000BF83F0004330B54FEA83
:1036200041044FEA430594EA050F08BF90EA020FF0
:103630001FBF54EA000C55EA020C7FEA645C7FEA83
:10364000655C00F0E2804FEA5454D4EB5555B8BFA6
:103650006D420CDD2C4480EA020281EA030382EA17
:10366000000083EA010180EA020281EA0303362DA9
:1036700088BF30BD11F0004F4FEA01314FF4801C7C
:103680004CEA113102D0404261EB410113F0004F8E
:103690004FEA03334CEA133302D0524263EB430345
:1036A00094EA050F00F0A780A4F10104D5F1200EE3
:1036B0000DDB02FA0EFC22FA05F2801841F100013E
:1036C00003FA0EF2801843FA05F359410EE0A5F112
:1036D00020050EF1200E012A03FA0EFC28BF4CF043
:1036E000020C43FA05F3C01851EBE37101F00045F9
:1036F00007D54FF0000EDCF1000C7EEB00006EEB06
:103700000101B1F5801F1BD3B1F5001F0CD349088F
:103710005FEA30004FEA3C0C04F101044FEA4452E6
:1037200012F5800F80F09A80BCF1004F08BF5FEA6D
:10373000500C50F1000041EB045141EA050130BD4D
:103740005FEA4C0C404141EB010111F4801FA4F1F0
:103750000104E9D191F0000F04BF01460020B1FA45
:1037600081F308BF2033A3F10B03B3F120020CDA7D
:103770000C3208DD02F1140CC2F10C0201FA0CF05B
:1037800021FA02F10CE002F11402D8BFC2F1200CC0
:1037900001FA02F120FA0CFCDCBF41EA0C01904076
:1037A000E41AA2BF01EB0451294330BD6FEA0404BF
:1037B0001F3C1CDA0C340EDC04F11404C4F12002AA
:1037C00020FA04F001FA02F340EA030021FA04F3BC
:1037D00045EA030130BDC4F10C04C4F1200220FA13
:1037E00002F001FA04F340EA0300294630BD21FA51
:1037F00004F0294630BD94F0000F83F4801306BF17
:1038000081F480110134013D4EE77FEA645C18BF0A
:103810007FEA655C29D094EA050F08BF90EA020FA1
:1038200005D054EA000C04BF1946104630BD91EA99
:10383000030F1EBF0021002030BD5FEA545C05D19C
:103840004000494128BF41F0004130BD14F58004DB
:103850003CBF01F5801130BD01F0004545F0FE414F
:1038600041F470014FF0000030BD7FEA645C1ABF84
:10387000194610467FEA655C1CBF0B46024650EABB
:10388000013406BF52EA033591EA030F41F40021E7
:1038900030BD00BF90F0000F04BF0021704730B56D
:1038A0004FF4806404F132044FF000054FF0000142
:1038B00050E700BF90F0000F04BF0021704730B503
:1038C0004FF4806404F1320410F0004548BF4042D8
:1038D0004FF000013EE700BF42004FEAE2014FEA2D
:1038E00031014FEA02701FBF12F07F4393F07F4F08
:1038F00081F06051704792F0000F14BF93F07F4F3A
:10390000704730B54FF4607401F0004521F000417C
:1039100020E700BF50EA010208BF704730B54FF002
:1039200000050AE050EA010208BF704730B511F007
:10393000004502D5404261EB41014FF4806404F13F
:1039400032045FEA915C3FF4DCAE4FF003025FEAC1
:10395000DC0C18BF03325FEADC0C18BF033202EB49
:10396000DC02C2F1200300FA03FC20FA02F001FAA3
:1039700003FE40EA0E0021FA02F11444C1E600BF42
:1039800070B54FF0FF0C4CF4E06C1CEA11541DBFF5
:103990001CEA135594EA0C0F95EA0C0F00F0DEF8C0
:1039A0002C4481EA030621EA4C5123EA4C5350EAA5
:1039B000013518BF52EA033541F4801143F48013F6
:1039C00038D0A0FB02CE4FF00005E1FB02E506F087
:1039D0000042E0FB03E54FF00006E1FB03569CF0DC
:1039E000000F18BF4EF0010EA4F1FF04B6F5007FE2
:1039F00064F5407404D25FEA4E0E6D4146EB060654
:103A000042EAC62141EA55514FEAC52040EA5E50DC
:103A10004FEACE2EB4F1FD0C88BFBCF5E06F1ED886
:103A2000BEF1004F08BF5FEA500E50F1000041EBBD
:103A3000045170BD06F0004646EA010140EA02006A
:103A400081EA0301B4EB5C04C2BFD4EB0C0541EA8C
:103A5000045170BD41F480114FF0000E013C00F3A1
:103A6000AB8014F1360FDEBF002001F0004170BDC5
:103A7000C4F10004203C35DA0C341BDC04F11404DE
:103A8000C4F1200500FA05F320FA04F001FA05F26A
:103A900040EA020001F0004221F0004110EBD37037
:103AA00021FA04F642EB06015EEA430E08BF20EA63
:103AB000D37070BDC4F10C04C4F1200500FA04F306
:103AC00020FA05F001FA04F240EA020001F0004198
:103AD00010EBD37041F100015EEA430E08BF20EA0B
:103AE000D37070BDC4F1200500FA05F24EEA020E53
:103AF00020FA04F301FA05F243EA020321FA04F082
:103B000001F0004121FA04F220EA020000EBD37038
:103B10005EEA430E08BF20EAD37070BD94F0000F38
:103B20000FD101F00046400041EB010111F4801F6C
:103B300008BF013CF7D041EA060195F0000F18BF1D
:103B4000704703F00046520043EB030313F4801F59
:103B500008BF013DF7D043EA0603704794EA0C0F13
:103B60000CEA135518BF95EA0C0F0CD050EA410629
:103B700018BF52EA4306D1D181EA030101F00041A6
:103B80004FF0000070BD50EA410606BF10461946CE
:103B900052EA430619D094EA0C0F02D150EA0136DA
:103BA00013D195EA0C0F05D152EA03361CBF10461B
:103BB00019460AD181EA030101F0004141F0FE41BA
:103BC00041F470014FF0000070BD41F0FE4141F43E
:103BD000780170BD70B54FF0FF0C4CF4E06C1CEA3E
:103BE00011541DBF1CEA135594EA0C0F95EA0C0FF3
:103BF00000F0A7F8A4EB050481EA030E52EA0335AE
:103C00004FEA013100F088804FEA03334FF08055CE
:103C100045EA131343EA12634FEA022245EA1115FB
:103C200045EA10654FEA00260EF000419D4208BFAC
:103C3000964244F1FD0404F5407402D25B084FEA59
:103C40003202B61A65EB03055B084FEA32024FF405
:103C500080104FF4002CB6EB020E75EB030E22BF62
:103C6000B61A754640EA0C005B084FEA3202B6EB22
:103C7000020E75EB030E22BFB61A754640EA5C00D1
:103C80005B084FEA3202B6EB020E75EB030E22BF61
:103C9000B61A754640EA9C005B084FEA3202B6EB62
:103CA000020E75EB030E22BFB61A754640EADC0021
:103CB00055EA060E18D04FEA051545EA16754FEA83
:103CC00006164FEAC30343EA52734FEAC2025FEAA1
:103CD0001C1CC0D111F4801F0BD141EA00014FF030
:103CE00000004FF0004CB6E711F4801F04BF014301
:103CF0000020B4F1FD0C88BFBCF5E06F3FF6AFAE1D
:103D0000B5EB030C04BFB6EB020C5FEA500C50F1AC
:103D1000000041EB045170BD0EF0004E4EEA11312F
:103D200014EB5C04C2BFD4EB0C0541EA045170BD36
:103D300041F480114FF0000E013C90E645EA060E7A
:103D40008DE60CEA135594EA0C0F08BF95EA0C0FA8
:103D50003FF43BAF94EA0C0F0AD150EA01347FF4F0
:103D600034AF95EA0C0F7FF425AF104619462CE7C7
:103D700095EA0C0F06D152EA03353FF4FDAE10462A
:103D8000194622E750EA410618BF52EA43067FF47B
:103D9000C5AE50EA41047FF40DAF52EA43057FF40B
:103DA000EBAE12E74A0011D212F5001211D20DD576
:103DB0006FF47873B3EB62520ED44FEAC12343F031
:103DC000004343EA505323FA02F070474FF00000DB
:103DD000704750EA013002D14FF0FF3070474FF08A
:103DE000000070474FEA4102B2F1E04324BFB3F54F
:103DF000001CDCF1FE5C0DD901F0004C4FEAC00262
:103E00004CEA5070B2F1004F40EB830008BF20F045
:103E10000100704711F0804F21D113F13872BCBFFF
:103E200001F00040704741F480114FEA5252C2F154
:103E30001802C2F1200C10FA0CF320FA02F018BF9D
:103E400040F001004FEAC1234FEAD32303FA0CFCF0
:103E500040EA0C0023FA02F34FEA4303CCE77FEA7F
:103E6000625307D150EA01331EBF4FF0FE4040F4C9
:103E70004000704701F0004040F0FE4040F4000078
:103E8000704700BF80F0004002E000BF81F00041B9
:103E900042001FBF5FEA410392EA030F7FEA226CF0
:103EA0007FEA236C6AD04FEA1262D2EB1363C1BF80
:103EB000D218414048404140B8BF5B42192B88BFEF
:103EC000704710F0004F40F4000020F07F4018BF12
:103ED000404211F0004F41F4000121F07F4118BF32
:103EE000494292EA030F3FD0A2F1010241FA03FCDA
:103EF00010EB0C00C3F1200301FA03F100F00043C2
:103F000002D5494260EB4000B0F5000F13D3B0F189
:103F1000807F06D340084FEA310102F10102FE2AF8
:103F200051D2B1F1004F40EBC25008BF20F0010068
:103F300040EA03007047490040EB000010F4000F16
:103F4000A2F10102EDD1B0FA80FCACF1080CB2EBA9
:103F50000C0200FA0CF0AABF00EBC2505242184308
:103F6000BCBFD0401843704792F0000F81F40001AD
:103F700006BF80F400000132013BB5E74FEA410380
:103F80007FEA226C18BF7FEA236C21D092EA030FEC
:103F900004D092F0000F08BF0846704790EA010F66
:103FA0001CBF0020704712F07F4F04D1400028BF93
:103FB00040F00040704712F100723CBF00F5000075
:103FC000704700F0004343F0FE4040F400007047AB
:103FD0007FEA226216BF08467FEA23630146420257
:103FE00006BF5FEA412390EA010F40F4800070476A
:103FF0004FF0000304E000BF10F0004348BF404210
:104000005FEA000C08BF704743F0964301464FF04B
:1040100000001CE050EA010208BF70474FF00003A7
:104020000AE000BF50EA010208BF704711F00043E8
:1040300002D5404261EB41015FEA010C02BF8446B8
:104040000146002043F0B64308BFA3F18053A3F517
:104050000003BCFA8CF2083AA3EBC25310DB01FA5E
:1040600002FC634400FA02FCC2F12002BCF1004FE2
:1040700020FA02F243EB020008BF20F00100704773
:1040800002F1200201FA02FCC2F1200250EA4C00C7
:1040900021FA02F243EB020008BF20EADC7070470D
:1040A00042000ED2B2F1FE4F0BD34FF09E03B3EBA2
:1040B000126209D44FEA002343F0004323FA02F0CE
:1040C00070474FF00000704712F1610F01D14202BA
:1040D00002D14FF0FF3070474FF00000704700BF33
:1040E000002101F061BD0A22002101F049BE00005B
:1040F00008B5074B044613B10021AFF30080054B10
:104100001868836A03B19847204605F0DFF900BFBD
:104110000000000094BF00080E4B70B51E460E4C08
:104120000025E41AA410A54204D056F8253098477B
:104130000135F8E705F0CCF9084B094C1E46E41AA6
:10414000A4100025A54204D056F825309847013523
:10415000F8E770BDC8000020C8000020C80000209B
:10416000CC00002010B5431E0A44914204D011F83F
:10417000014B03F8014FF8E710BD03460244934298
:1041800002D003F8011BFAE770472DE9F04788B029
:10419000149F002B1E461299B8BF03F1004327F06D
:1041A0002007B6BF1E4600232D23462F1446109D20
:1041B000DDF84CA00B7003D0452F03D1013501E091
:1041C000032300E0022307AA049206AA03928DE8C3
:1041D00028042246334601F04FFF472F804602D184
:1041E000119BDB0728D5462F08EB050911D198F85C
:1041F0000030302B0AD1002200232046314605F042
:10420000C7F818B9C5F10105CAF80050DAF800304E
:104210009944002200232046314605F0B9F808B938
:10422000302202E0CDF81C9006E0079B994503D9A7
:10423000591C07911A70F8E74046079B159AC8EB7E
:104240000303136008B0BDE8F087034673B5002987
:10425000B8BF494203F8022BB4BF2D222B220929F3
:1042600042701ADD0DF1070216460A2591FBF5F49E
:1042700005FB1411092C01F1300102F8011D214642
:10428000F4DC3031541E02F8011CB4421A460AD242
:1042900014F8012B03F8012BF7E71A4630242144C8
:1042A00002F8024B5970101A02B070BD2DE9F04FA0
:1042B00091B00C46DDF8688016461F46054603F0AF
:1042C00039F903681846099300F017FE00230E938E
:1042D000D8F800300A90073323F0070303F10802EF
:1042E00094F81890D4F800B0C8F80020D3E900235F
:1042F000C4E91223D4F84CA0D4F848802AF0004333
:104300000B934FF0FF32A74B40460B9905F072F824
:10431000A0B94FF0FF32A34B40460B9905F04CF883
:1043200060B9002200234046514605F03BF810B129
:104330002D2384F843309C4B9C4A0AE04246534666
:104340004046514605F056F8002800F09281984BFF
:10435000984AB9F1470F8CBF9046984603232361D2
:104360002BF0040323604FF0000A3DE0B9F1670F22
:1043700000F08A81B9F1470F00F086812360019334
:10438000636800210DF133020590029200934246CA
:1043900053460691CDF81090CDF80CE02846FFF773
:1043A000F4FE09F0DF03472B804600F08481B9F169
:1043B000650F0D9900F28D8101394A4604F15000D4
:1043C0000D91FFF742FF0E9A82468318012A23615E
:1043D00000F37C812268D10700F178819DF83330A9
:1043E00013B12D2384F84330009733460FAA21469A
:1043F000284600F09FF9013002D14FF0FF3096E1DE
:1044000023685A0501D4236965E0B9F1650F40F2CC
:10441000D580D4E912010022002304F0B9FF78B35B
:104420000123654A31462846B8470130E5D00E9B46
:104430000D9A9A420BDB2368D80708D423689B07A0
:1044400040F111814FF0000804F1190906E10A9BBF
:10445000099A31462846B8470130CED04FF00008BF
:1044600004F11A090E9B013B9845E7DA01234A46FD
:1044700031462846B8470130BFD008F10108F1E7BE
:104480000D9B002B29DC01234B4A31462846B847B7
:104490000130B2D00D9B23B90E9B13B92368D90705
:1044A000CCD50A9B099A31462846B8470130A4D09A
:1044B0004FF0000904F11A0A0D9B5B42994509DA95
:1044C0000123524631462846B847013095D009F1BC
:1044D0000109F1E70E9B4246A7E00E9AA36D9A42AE
:1044E000A8BF1A46002A914606DC4FF0000A29EAC6
:1044F000E97904F11A0B11E0134631464246284689
:10450000B8470130F1D178E701235A4631462846B1
:10451000B84701303FF471AF0AF1010AA36DC9EB4E
:1045200003029245F0DB08EB03090D9A0E9B9A42B9
:104530000FDB2368DA070CD40E9B0D9A9844C9EB65
:1045400008089B1A9845A8BF9846B8F1000F08DCE8
:104550000FE00A9B099A31462846B8470130EBD153
:104560004BE743464A4631462846B84701303FF4B8
:1045700044AF4FF0000928EAE87804F11A0A09E08C
:104580000123524631462846B84701303FF435AF43
:1045900009F101090D9A0E9B9B1AC8EB030399457B
:1045A000EEDB4BE7FFFFEF7F98BF00089CBF0008E2
:1045B000A0BF0008A4BF0008CEC200080E9A012ABE
:1045C00001DCDB0738D50123424631462846B8478F
:1045D00001303FF412AF0A9B099A31462846B8478A
:1045E00001303FF40AAFD4E912010022002304F0A5
:1045F000CFFE20B14FF0000804F11A090EE00E9B27
:1046000008F10102013B19E001234A4631462846E0
:10461000B84701303FF4F1AE08F101080E9B013BB1
:104620009845F1DB534604F1500231462846B8471D
:1046300001307FF403AFE0E64246012331462846CD
:10464000B8470130EED1D8E601234A463146284624
:10465000B84701303FF4D1AE08F10108E3680F9A82
:104660009B1A9845F0DBE0680F9B9842B8BF18464C
:104670005DE062680EA8531C0DF1340E4BF48063AC
:104680007FF474AE062201E012B90122626075E681
:10469000002106910DF133018DE80C002360059097
:1046A0004246CDF81090CDF80CE0029153462846D2
:1046B000FFF76BFD80460D9BD81C02DB62689342BE
:1046C0001DDDA9F102095FFA89F970E60133236162
:1046D00084E6B9F1660F14D10029636807DD216112
:1046E00013B92268D2071DD501330B4419E013B961
:1046F0002268D00701D5023313E0012311E04FF007
:1047000067090D9B0E9A934205DB22682361D1074E
:1047100008D5013305E0002BD4BFC3F10203012308
:10472000134423610D9B4FF0000AA36556E611B0B8
:10473000BDE8F08F2DE9F04791461F460A698B6866
:1047400006469342B8BF1346C9F8003091F843209B
:104750000C46DDF8208012B10133C9F8003023681F
:10476000990642BFD9F800300233C9F800302568F5
:1047700015F0060510D104F1190A07E0012352468D
:1047800039463046C04701301AD00135E368D9F8C0
:1047900000209B1A9D42F1DB94F8433022680033DD
:1047A00018BF012392060FD5E118302081F843008D
:1047B0005A1C94F845102244023382F8431003E057
:1047C0004FF0FF30BDE8F08704F143023946304630
:1047D000C0470130F4D02268D9F80050E36802F0F5
:1047E0000602042A08BF5D1B2269A3680CBF25EAE4
:1047F000E57500259342C4BF9B1AED184FF00009E0
:104800001A344D4509D00123224639463046C04767
:104810000130D5D009F10109F3E70020BDE8F087A8
:104820002DE9F04317460A7E85B06E2A9846064663
:104830000C460C9B01F1430E00F0AE8011D8632AA8
:1048400022D009D8002A00F0BB80582A40F0CA8044
:1048500081F84520834955E0642A1ED0692A1CD07E
:10486000C0E0732A00F0B08009D86F2A2ED0702AD9
:1048700040F0B8800A6842F020020A603EE0752AE3
:1048800024D0782A3AD0ADE01A6801F14205111D12
:104890001960136884F84230A8E021681A6811F0A2
:1048A000800F02D0111D196008E011F0400F02F1D5
:1048B0000401196002D0B2F9003000E01368002B47
:1048C0003CDA2D225B4284F8432037E021681A68E5
:1048D00011F0800F02D0111D196007E011F0400F98
:1048E00002F10401196001D0138800E01368227EF0
:1048F0005C496F2A14BF0A2208221BE078225A4919
:1049000084F845202268186812F0800F00F1040531
:104910001D6003D1550601D5038800E00368D00768
:1049200044BF42F0200222601BB9226822F020021C
:1049300022601022002084F8430001E049490A2245
:104940006568002DA56008DB206820F00400206069
:104950002BB9002D7DD175460CE0002B79D0754622
:10496000B3FBF2F002FB1033CB5C05F8013D0346CC
:104970000028F5D1082A0BD12368DA0708D5236966
:1049800062689A42DEBF302305F8013C05F1FF352D
:10499000C5EB0E0323612EE008681A6810F0800F43
:1049A000496903D0101D1860136808E010F0400F2B
:1049B00002F104001860136801D0198000E019604A
:1049C00000232361754616E01A68111D19601568E9
:1049D00000216268284602F02BFE08B1401B60608F
:1049E000636804E004F1420584F842200123236156
:1049F000002384F84330CDF800803B4603AA2146CB
:104A00003046FFF797FE013002D14FF0FF3026E02D
:104A100023692A4639463046C0470130F5D023681D
:104A20009B0710D5002504F1190907E001234A4628
:104A300039463046C0470130E7D00135E368039A74
:104A40009B1A9D42F2DBE068039B9842B8BF184670
:104A500005E00B7804F1420584F842308AE705B09E
:104A6000BDE8F083A8BF0008B9BF00080FB40A4B27
:104A700013B51C6824B1A36913B9204602F096F956
:104A800005AB049AA1682046019303F0A7FD02B08C
:104A9000BDE8104004B070478800002070B50E4695
:104AA000054618B183690BB902F080F9AB69AC68AF
:104AB00013B9284602F07AF9224B9C4201D16C6866
:104AC00008E0214B9C4201D1AC6803E01F4B9C42A3
:104AD00008BFEC68A3891B0701D523693BB92146B0
:104AE000284601F0BDF910B14FF0FF3070BD013E16
:104AF000A36816F8011F013BA36091B1002B04DAF3
:104B0000A269934206DB0A2904D023685A1C22605A
:104B10001970EDE72246284601F03CF90130E7D153
:104B2000E2E7002B08DA22460A21284601F032F992
:104B30000130D9D00A2070BD23680A205A1C226097
:104B4000187070BD30C1000850C1000870C1000865
:104B5000024B01461868FFF7A1BF00BF8800002084
:104B600038B50C46054618B183690BB902F01EF939
:104B70000E4B9C4201D16C6808E00D4B9C4201D168
:104B8000AC6803E00B4B9C4208BFEC68214628460A
:104B900004F030F938B96368013B636023685A1C3C
:104BA0002260187838BD4FF0FF3038BD30C10008A2
:104BB00050C1000870C100080FB40A4B13B51C683F
:104BC00024B1A36913B9204602F0F0F805AB049AAA
:104BD00061682046019303F071FF02B0BDE8104008
:104BE00004B070478800002000294FF480630CBF98
:104BF0000222002200F000B82DE9F7431D464F4B7A
:104C000004461E680F46904626B1B36913B9304674
:104C100002F0CCF84A4B9C4201D1746808E0494B41
:104C20009C4201D1B46803E0474B9C4208BFF46842
:104C3000B8F1020F04D0B8F1010F79D8002D77DB5D
:104C40002146304602F036F8616B41B104F144036D
:104C5000994202D0304603F0F1F800236363002349
:104C6000A3616360A3891B0603D52169304603F065
:104C7000E5F8A389B8F1020F23F44A6323F0030394
:104C8000A3811ED001AB6A462146304602F068FC83
:104C9000A3891843A0810DB9009D00E02FBB2846D1
:104CA00002F0BEFC0746D0B9DDF80090A94502D15C
:104CB0004FF0FF3006E0484602F0B2FC074678B9F4
:104CC000F6E70020A38943F00203A3810023A36039
:104CD00004F1470323602361012363612AE0A946AD
:104CE0004D46A38943F08003A381B36913B93046CD
:104CF00002F05CF8B8F1010F08BFA389276004BF78
:104D000043F00103A381A389276103F0080080B267
:104D1000656158B113F001034FF000001DBF6D42F3
:104D2000A060A561A56008BF184603E0A06001E08F
:104D30004FF0FF3003B0BDE8F08300BF88000020D3
:104D400030C1000850C1000870C100080CB430B573
:104D5000164B0C1E9DB01D6804DA8B232B604FF0A0
:104D6000FF301EE04FF40273ADF814300CBF234641
:104D700004F1FF33049307934FF6FF7302900690FC
:104D8000ADF81630209A21AB02A92846019303F012
:104D900059F9431CBCBF8B232B6014B1029B00222A
:104DA0001A701DB0BDE8304002B070478800002086
:104DB0000EB400B54FF402719CB0ADF814106FF052
:104DC0000041049107914FF6FF711DAB02900690D0
:104DD000084853F8042BADF81610006802A9019397
:104DE00003F030F9029B00221A701CB05DF804EB4E
:104DF00003B07047880000200EB430B59CB01FACE3
:104E00004FF4017254F8045BADF814200290069040
:104E100000F073F80B4B03900B9300230F93149344
:104E20004FF6FF7307900848ADF816302A46234620
:104E300002A90068019403F055FA1CB0BDE83040A7
:104E400003B070476F4E00088800002010B50C4674
:104E5000B1F90E1003F0B2FF0028ABBF636DA38958
:104E60001B1823F48053ACBF6365A38110BD0020E1
:104E700070472DE9F0411F468B890546DB050C463E
:104E8000164605D502230022B1F90E1002F056FB9A
:104E9000A389324623F48053A381B4F90E103B4614
:104EA0002846BDE8F04100F0C9BF10B50C46B1F985
:104EB0000E1002F043FB431CA38915BF606523F469
:104EC000805343F48053A38118BFA38110BDB1F96F
:104ED0000E1001F033B810F8012B11F8013B012A34
:104EE00028BF9A42F7D0D01A7047034611F8012B19
:104EF00003F8012B002AF9D17047034613F8012B60
:104F0000002AFBD1181A01387047034610B542B188
:104F100011F8014B013A03F8014B002CF7D11A4468
:104F200000E010BD934202D003F8014BFAE710BD38
:104F3000F0B5037863B90B78002B18BF0020F0BDE3
:104F400015F8012F62B114F8017F30469742F7D06F
:104F50000346461C007810B14D1E5C1EF0E7F0BD04
:104F60001846F0BD2DE9F0410F46904602F034FEA0
:104F700004460D46B8F1000F11D0C7F30A53C3F130
:104F80006B03002B0BDD1B0503F17F55002405F59A
:104F9000401522462B46FEF7F3FCBDE8F081204683
:104FA0002946BDE8F08100002DE9F04F82460C460D
:104FB0009DB00023139218934FF000084FF00009A2
:104FC0001791179B1A780D2A05D8092A13D2002A9F
:104FD00000F0AD8112E02B2A04D02D2A04D0202A23
:104FE0000CD108E0002200E001220C925A1C17921A
:104FF0005B782BB99BE101331793E2E700230C9315
:10500000179D2B78302B5CD16B78582B01D0782BE7
:105010004CD10C9BA84A019318AB009317A919AB6C
:10502000504601F0B4FF10F00706044600F08585F5
:10503000062E05D10135002317950C9300F07DBD98
:10504000189A3AB135211AA802F0ADFE18995046C7
:1050500002F031FB062E22D8DFE806F0040D081816
:105060001D0D04004FF00009C84618E0DDF8688007
:10507000DDF86C9013E01B9B199A23F4801302F265
:105080003342DDF8688043EA025908E0DFF82C92E9
:105090004FF0000803E06FF000494FF0FF382107A0
:1050A00040F14B8549F0004900F047BD179B5A1C61
:1050B00017925B78302BF9D0002B00F03E8501234E
:1050C00000E000230593179B0A22069300239B46CA
:1050D00002930493179D2E78A6F13003D9B20929C3
:1050E00011D8BBF1080FD5BF0499029902FB013317
:1050F00002FB013305F10105D4BF049302930BF1C8
:10510000010B1795E6E7504602F014FA076850467F
:1051100002F010FA0068FFF7F0FE39460246284612
:1051200003F030FF074628B1002033465D460246B3
:1051300001465AE0504602F0FDF90068FFF7DDFE37
:10514000179B1A1817921B5CBBF1000F45D15846EC
:10515000302B05D1179B01305A1C17925B78F7E76B
:10516000A3F13102082A46D8179A06920246002077
:105170000546303B00F1010129D00A44294605EBE0
:10518000000C0A2661450FD0013101F1FF3EBEF14E
:10519000080F03DC049F77430497F3E71029DEBF71
:1051A000029F77430297EDE72844082800F10105A4
:1051B00005DC04980A2101FB0033049306E0102D5E
:1051C000DFBF02980A2101FB003302930021179BE5
:1051D000581C17905B78084602E05D4638463A4610
:1051E000A3F130010929C4D90121652B01D0452B38
:1051F0004FD16DB904E0652B40F0AD840022012150
:1052000028B9059B002B00F09280054600E00025A0
:10521000179C631C179363782B2B06D02D2B02D081
:105220000026039606E0012300E000230393A31C5D
:105230001793A378A3F13006092E29D8302B04D177
:10524000179B5E1C17965B78F8E7A3F13106082ED2
:105250001FD8A3F1300E179B1F46179B5E1C179695
:105260005B78A3F1300CBCF1090F05D80A2606FBC8
:105270000E3EAEF1300EF0E7F61B082E44F61F6628
:1052800002DC7645A8BF7646039F1FB1764201E057
:1052900017940026002D52D1002840F04E84059A24
:1052A000002A40F04A84002941D14E2B20D007DC4F
:1052B000492B0AD03BE000BFE0BF00080000F07FB0
:1052C000692B02D06E2B13D031E0AA4917A802F047
:1052D0008FF860B3179BA849013B17A8179302F0FA
:1052E00087F810B9179B01331793DFF8A8921AE0DB
:1052F000A24917A802F07CF8C8B1179B1B78282B8D
:105300000FD11AAA9E4917A802F085F8052808D1DE
:105310001B9BDDF8688043F0FF4949F4E00900F089
:105320000CBCDFF874924FF0000800F006BC139B31
:105330001794002B00F00C8400230C93FFE32C4601
:10534000BBF1000F08BFAB460498102DA8BF102476
:10535000B71AFEF79FFA092C8046894613DD894B60
:1053600003EBC40353E91223FEF70AFB80460298BD
:105370008946FEF78FFA02460B4640464946FEF73D
:105380004DF9804689460F2D33DC002F00F0D58380
:1053900022DD162F07DC7B4D424605EBC7014B464D
:1053A000D1E9000113E0C5F125039F4221DC754CD2
:1053B000C5F10F0504EBC5017D1B4246D1E9000193
:1053C0004B4604EBC504FEF7DBFAD4E90023FEF7F5
:1053D000D7FA80468946B0E317F1160F09DB694D0D
:1053E0004046A5EBC703D3E900234946FEF7F2FB8D
:1053F000EFE72C1B3C44002C5DDD14F00F010AD0BC
:10540000604B424603EBC101D1E900014B46FEF778
:10541000B7FA8046894634F00F0400F0C180B4F535
:105420009A7F0FDD4FF0000BCDF808B0CDF814B027
:10543000CDF810B02223CAF80030DFF858914FF0B1
:10544000000889E14046494600234F4E241102934B
:10545000012C0CDDE20704D5D6E90023FEF790FA13
:105460000123029A6410013202920836F0E70BB170
:1054700080468946444B029AA9F1547903EBC20154
:10548000D1E9000142464B46FEF77AFA21F000438B
:1054900089460A461B0D3D491B058B428046C1D8F3
:1054A000A1F580118B4286BFDFF8F0904FF0FF38F6
:1054B00002F1547974E073D0644214F00F020AD000
:1054C000304B404603EBC2034946D3E90023FEF7C5
:1054D00081FB80468946241162D01F2C08DD4FF0E5
:1054E000000BCDF808B0CDF814B0CDF810B02CE119
:1054F0004046494614F0100F0CBF00236A23244E87
:1055000003930023002C09DDE20704D5D6E900232C
:10551000FEF736FA012364100836F3E70BB1804634
:105520008946039BEBB1C9F30A53C3F16B03002B0C
:10553000494616DD1F2B0EDD342BDEBF203B4FF01E
:10554000FF3202FA03F34FF00008CCBF4FF05C7952
:1055500003EA010905E04FF0FF3202FA03F303EA20
:105560000808002200234046494603F011FF0028A6
:10557000B5D117E09DBF000824C10008A5BF0008F1
:10558000CCBF000898C1000870C200080000A07CD1
:10559000F8BF00080000F07F0000F8FFFFFFEF7F7A
:1055A00000230393049B5A46009306992B465046CA
:1055B00002F0D3F8059000283FF434AF002FC7F174
:1055C0000003A8BF00230D934FF0000B27EAE773F9
:1055D0001293CDF808B0059B5046596802F036F892
:1055E000049000283FF426AF059B0C301A6903F1A4
:1055F0000C0102329200FEF7B5FD1AAB019319AB14
:10560000009342464B465046CDE9088902F055FBCF
:10561000189000283FF40EAF0121504602F028F9FF
:10562000029000283FF406AF199B0399002BACBFF2
:105630000D9A129A1A9CACBFD618D21AA3EB01038A
:105640002344B14903F1FF33ACBF129A0D9E8B4244
:10565000C4F1360480F28580C91A1F29C8BFAB4D3A
:105660004FF00107D4BF07FA01F3ED1AA4EB0104D0
:10567000D9BF0793002507FA05F507973719039B4C
:10568000BE4214441C443346A8BF3B46A342A8BFB5
:105690002346002BC2BFFF1AE41AF61A0D9B002BFB
:1056A00063D1002F7ADC129B002B40F08180002C0C
:1056B00000F38880002E00F38F80049A18995046DA
:1056C00002F02BFA834600283FF4B4AEC3680024EE
:1056D000C4600299069302F004FAA04280F28B8023
:1056E000069B002B40F00282B8F1000F40F0FE81D3
:1056F000C9F31303002B40F0F98129F000431B0D7F
:105700001B05B3F1D66F40F2F181DBF81430002BAA
:105710006CD059460122504602F092F90299834614
:1057200002F0DFF9002840F3E18129F00043039AF9
:105730001B0D1B05002A00F08D80B3F1D66F00F31E
:105740008980B3F15C7F00F3D38122234FF00008FE
:105750004FF00009CAF80030059B002B40F0D981BA
:10576000EBE101230025079388E71A46029950468A
:1057700002F018F9029000283FF45CAE0146189A36
:10578000504602F07EF8069000283FF453AE189978
:10579000504601F090FF069B189382E73A4618990D
:1057A000504602F04DF9189000287FF47CAF41E696
:1057B000129A0499504602F0F5F8049000287FF4FC
:1057C00076AF37E622460499504602F039F9049044
:1057D00000287FF46FAF2DE632460299504602F062
:1057E0002FF9029000287FF468AF23E6DBF8103031
:1057F000012B8EDC7AE161D1069AC9F3130322B33F
:1058000043494A468B422ED1039B414663B1414BEB
:105810001340B3F1D46F07D81B0DC3F16B034FF0E6
:10582000FF3000FA03F301E04FF0FF338B421AD14F
:1058300039498A4202D101333FF4FCAD354B4FF078
:105840000008134003F5801950E163B9B8F1000F67
:1058500009D16AE7A3F580136FEA13594FF0FF38B7
:105860006FEA095942E115B115EA090F02E0079BF9
:1058700013EA080F00F03A81069B039A4046494616
:1058800053B1FFF76FFB02460B46DDE90801FDF758
:10589000C5FE8046894629E1FFF764FB02460B46B8
:1058A000DDE90801FDF7B8FE0022002380468946A5
:1058B00003F06EFD00287FF448AF17E102995846C7
:1058C00002F049FA00224FF0804306460F4603F0EB
:1058D00073FD00283FD0069B13B100260F4F10E048
:1058E000B8F1000F03D1C9F313033BB91AE0B8F1C3
:1058F000010F03D1B9F1000F3FF427AF084F002685
:105900000024064D3CE000BF02FCFFFFE2FBFFFF6E
:10591000FFFF0F000000F07FFFFFEF7F0000F03F70
:105920000000F0BF00229A4B3046394603F03AFDA2
:1059300040B90022974B30463946FEF721F804461D
:105940000D4601E0069C934D05F100431494159318
:10595000DDE9146714E08F4B002230463946FEF72C
:105960000FF8069B04460D4623B901F100430E9043
:105970000F9303E002460B46CDE90E23DDE90E67E7
:1059800029F000431B0D1B050793079A824B9A428F
:105990002BD1DDE90823A9F1547940464946CDE9E8
:1059A0000A2302F019F902460B4630463946FDF744
:1059B000E7FF42464B46FDF731FE21F000431B0D49
:1059C000764A1B05934280460CD9754B0B9A9A4236
:1059D00003D10A9B01333FF42DADDFF8C4914FF0A2
:1059E000FF3872E001F1547939E0039B3BB3079B28
:1059F000B3F1D46F23D85EA3D3E900232046294610
:105A000003F0DAFCB8B129462046FEF7CBF90028AE
:105A100008BF0120FDF73EFF069B04460D4623B953
:105A200001F100431090119303E002460B46CDE9CB
:105A30001023DDE91067079A07F1D6639F1ADDE9A5
:105A4000080102F0C9F802460B4630463946FDF718
:105A500097FFDDE90823FDF7E1FD80468946039BBA
:105A60009BBB29F000431B0D079A1B059A424E462B
:105A70002BD12946204603F0D3FCFDF71BFF0B4634
:105A8000024629462046FDF7C7FD069B04460D4603
:105A90002BB9B8F1000F02D1C9F313067EB136A3BA
:105AA000D3E900232046294603F07CFC88BB34A3BD
:105AB000D3E900232046294603F092FC04E032A3F8
:105AC000D3E9002303F06EFC18BB1899504601F08F
:105AD000F2FD0499504601F0EEFD0299504601F0A6
